:10000000FDC0000021C100000C9411091DC10000B9
:100010001BC1000019C1000017C1000015C100007C
:1000200013C1000011C100000FC100000DC100008C
:100030000BC1000009C1000007C1000005C100009C
:1000400003C1000001C10000FFC00000FDC00000AE
:100050000C94380FF9C000000C949911F5C0000001
:10006000F3C00000F1C00000EFC00000EDC00000D0
:100070000C94BB15E9C00000E7C00000E5C000001B
:10008000E3C00000E1C00000DFC00000DDC00000F0
:10009000DBC00000D9C00000D7C00000D5C0000000
:1000A000D3C00000D1C00000CFC00000CBC700000B
:1000B0000C94C309C9C00000C7C00000C5C000003F
:1000C000C3C00000C1C00000BFC00000BDC0000030
:1000D000BBC00000B9C00000B7C00000B5C0000040
:1000E000B3C00000B1C00000AFC00000ADC0000050
:1000F000ABC00000A9C00000A7C00000A5C0000060
:10010000DEC70000A1C000009FC000009DC000002D
:100110009BC0000099C0000097C0000095C000007F
:1001200093C0000091C000008FC000008DC000008F
:100130008BC0000089C0000087C0000085C000009F
:1001400083C0000081C000007FC000007DC00000AF
:100150007BC0000079C0000077C0000075C00000BF
:1001600073C0000071C000006FC000006DC00000CF
:100170006BC0000069C0000067C0000065C00000DF
:1001800063C0000061C000000C9412145DC0000048
:100190005BC0000059C0000057C0000055C00000FF
:1001A00053C0000051C000004FC000004DC000000F
:1001B0004BC0000049C0000047C0000045C000001F
:1001C00043C0000041C000003FC000003DC000002F
:1001D0003BC0000039C0000037C000000C94EA1496
:1001E0000C94B61331C000002FC000002DC00000D9
:1001F0002BC0000029C0000027C0000011241FBE32
:10020000CFEFCDBFDFE3DEBF00E00CBF18BE19BEED
:100210001ABE1BBE10E2A0E0B0E2EEEEFCE200E08F
:100220000BBF02C007900D92A83BB107D9F71BBEC8
:100230002BE3A8EBB0E201C01D92A933B207E1F7AE
:100240000E94750A0C947516DBCE8F92AF92BF9206
:10025000CF92DF92EF920F938CE590E29F938F9372
:100260008AE0882E90E1A92EB12C27E2C22E21E24D
:10027000D22EE12C01E022E040E061E082E594E052
:100280000E94BD0D0F900F900F91EF90DF90CF90D7
:10029000BF90AF908F90089508951CD480918806E8
:1002A00083FD0CC142E031E022E094E0E8E070E13F
:1002B00060E280E450E83093E506AFEFB1EEF4E0A1
:1002C000A150B040F040E1F700C000003093E606D6
:1002D0002093E506AFEFB1EEF4E0A150B040F0405E
:1002E000E1F700C000002093E6069093E506AFEF2B
:1002F000B1EEF4E0A150B040F040E1F700C00000E2
:100300009093E606E093E506AFEFB1EEF4E0A1507E
:10031000B040F040E1F700C00000E093E6067093C3
:10032000E506AFEFB1EEF4E0A150B040F040E1F7E8
:1003300000C000007093E60690930507AFEFB1EEA2
:10034000F4E0A150B040F040E1F700C0000090930D
:1003500006076093E506AFEFB1EEF4E0A150B040C0
:10036000F040E1F700C000006093E6068093E506E8
:10037000AFEFB1EEF4E0A150B040F040E1F700C0C3
:1003800000008093E6065093E506AFEFB1EEF4E08F
:10039000A150B040F040E1F700C000005093E606E5
:1003A00030930507AFEFB1EEF4E0A150B040F0405C
:1003B000E1F700C000003093060720930507AFEF78
:1003C000B1EEF4E0A150B040F040E1F700C0000011
:1003D0002093060780930506AFEFB1EEF4E0A1503D
:1003E000B040F040E1F700C00000809306064150A5
:1003F00009F061CF2FEF83EC99E0215080409040CD
:10040000E1F700C0000042E031E022E094E0E8E0E3
:1004100070E160E280E450E83093E5062093E50661
:100420009093E506E093E5067093E5069093050743
:100430006093E5068093E5065093E5063093050743
:100440002093050780930506AFEFB3ECF9E0A150C8
:10045000B040F040E1F700C000003093E606209382
:10046000E6069093E606E093E6067093E606909320
:1004700006076093E6068093E6065093E6063093FF
:1004800006072093060780930606AFEFB3ECF9E06A
:10049000A150B040F040E1F700C00000415009F029
:1004A000BBCF2FEF83ED90E3215080409040E1F7E8
:1004B00000C0000084E08093050708950E94270F84
:1004C000F1CEE7E2F1E283E0818382838FEF93E074
:1004D00087839087818792870895FBD482E391E296
:1004E000C6D186E391E2BDC180913621811112C04F
:1004F00080912A218093E40680912A2190912B21DA
:1005000021E090FD0BC02093060791FD0BC082E017
:100510008093060784E080930507089520930507DC
:1005200091FFF5CF82E08093050784E08093050773
:100530000895E0EEF6E021E0268392E0968384E0E1
:10054000868338E0368330E1368330E2368330E428
:10055000368330E83683E0E0F7E0268396838683AF
:100560000895089508950895CF93DF932091B820BA
:100570003091B9202F5F3F4F2093B8203093B9209E
:1005800090913321892F877061F0933009F4BAC0BC
:10059000923009F4DCC0913009F4D3C0943009F4EE
:1005A00097C090913221923049F0913019F0DF914B
:1005B000CF9108958091B82080FFF9CF809168068F
:1005C00082958170C82F40E0D42F8091680683FF08
:1005D0007CC022E030E0809168068470AE01482B38
:1005E000CA01822B932B2091680621FF6BC028E063
:1005F00030E0822B932B2091680620FF60C020E121
:1006000030E0822B932B80932A2190932B212091F1
:10061000480620FF4FC060E650E020E230E0409105
:10062000480641FF02C0262F352F4091480642FF61
:100630003EC040E850E0242B352B4091480643FF54
:1006400033C040E051E0242B352B4091880640FF19
:1006500028C040E052E0242B352B822B932B809333
:100660002A2190932B2161E083E20E943F100E9497
:100670004613882309F49BCF80912A218093E406B6
:1006800080912A2190912B2121E090FD50C0209350
:10069000060791FD50C082E080930607DF91CF915D
:1006A000089540E050E0D7CF40E050E0CCCF40E0AC
:1006B00050E0C1CF60E450E020E030E0B0CF20E077
:1006C00030E09FCF20E030E094CF20E030E083CFD7
:1006D0008091B82080FD65CF8091600A9091610A79
:1006E000905820913421309135218217930709F4D5
:1006F00058CF809334219093352161E088E20E94A5
:100700003F104FCF20FD4DCF8091600A9091610A3C
:100710009058809334219093352161E088E20E94C3
:100720003F1090913321943009F03BCFD1CF2093EB
:10073000050791FFB0CF82E080930507DF91CF914D
:10074000089527703327232B09F02BCFDDCF23709B
:100750003327232BC9F225CF08951092B820109289
:10076000B920089508950895089508950895089565
:100770000895089590EE980F9A3040F490E0809795
:10078000FC01E05BFF4D2081261711F080E0089509
:10079000880F991FFC01EC5EFF4D0190F081E02D68
:1007A000199581E0089590EE980F9A3048F4E82F5B
:1007B000F0E0B097DF01A05BBF4D9C91961711F060
:1007C00080E00895EE0FFF1FDF01A45CBF4D8D9107
:1007D0009C9182179307A1F7E050F04E0190F081B1
:1007E000E02DCA011994FC0180818093282181E0C9
:1007F0000895FC0180818093292181E0089580E0A3
:100800000895FC018081918180932E2190932F2166
:1008100081E00895FC018081918180933021909343
:10082000312181E008958091600A9091610A905889
:1008300080933421909335210895FC0120813181EA
:1008400080913321877031F0C90190588093600AFC
:100850009093610A209334213093352181E00895EB
:100860000895FC0180818093362181E008950F93E3
:10087000CF93FC01C081CC2319F1C330E8F410926E
:100880002C2110922D2101E020E040E060E080E684
:1008900096E015D720E040E060E080E496E00FD7D6
:1008A00020E041E060E080E896E009D7C09336217F
:1008B00081E0CF910F91089580E0CF910F9108953D
:1008C0008091680684FB442740F950E080916806D7
:1008D00083FD88C020E030E0809168068470BA0112
:1008E000682BCB01822B932B2091680621FF85C0BA
:1008F00028E030E0822B932B2091680620FF7AC0FD
:1009000020E130E0822B932B8093BB209093BC207E
:100910002091480620FF69C060E650E020E230E008
:100920004091480641FF02C0262F352F40914806CE
:1009300042FF6CC040E850E0242B352B4091480624
:1009400043FF61C040E051E0242B352B40918806E5
:1009500040FF56C040E052E0242B352B822B932BD6
:100960008093BB209093BC2000E020E140E061E058
:1009700080E696E0A4D628E040E061E080E696E0DC
:100980009ED624E040E061E080E696E098D622E042
:1009900040E061E080E696E092D621E040E061E050
:1009A00080E696E08CD621E040E061E080E496E0CD
:1009B00086D622E040E061E080E496E080D624E044
:1009C00040E061E080E496E07AD628E040E061E033
:1009D00080E496E074D621E041E061E080E896E0B2
:1009E0006ED664CF22E030E077CF60E450E020E0C4
:1009F00030E096CF20E030E085CF20E030E07ACFC5
:100A000040E050E0A9CF40E050E09ECF40E050E011
:100A100093CF0F93CF93FC01C0818C2F887F29F552
:100A20008C2F877041F51092400A8091880682FBD6
:100A3000882780F99091880695FD1BC090E0892B4E
:100A40008093BA2000E024E040E061E080E896E096
:100A500036D620E240E061E080E896E030D6C093F0
:100A6000332181E0CF910F91089580E0CF910F91D4
:100A7000089592E0E4CF01E020E040E060E080E80B
:100A800096E01DD684E78093800189E080938801F9
:100A90001092400A8CE08093490A88E68093430ACA
:100AA0008FEF9FEF8093660A9093670A80E090E84B
:100AB0008093600A9093610A81E08093400ACFCFCF
:100AC00080E008950895089508950895089508957B
:100AD000089508950F9320E040E062E080E896E0FA
:100AE000C1D520E040E065E080E896E0BBD520E09D
:100AF00048E163E080E896E0B5D520E040E064E0BE
:100B000080E696E0AFD520E040E063E080E696E046
:100B1000A9D520E040E062E080E696E0A3D520E0A1
:100B200040E061E080E696E09DD520E040E060E0B6
:100B300080E696E097D520E040E060E080E496E033
:100B400091D520E040E061E080E496E08BD520E0A4
:100B500040E062E080E496E085D520E040E063E09C
:100B600080E496E07FD520E040E060E080E896E019
:100B700079D520E040E160E080E096E073D520E0A8
:100B800040E161E080E096E06DD520E040E162E088
:100B900080E096E067D520E040E163E080E096E009
:100BA00061D520E040E164E080E096E05BD520E0A4
:100BB00040E165E080E096E055D520E040E167E067
:100BC00080E096E04FD520E040E160E080E296E0F2
:100BD00049D520E040E161E080E296E043D520E0A5
:100BE00040E162E080E296E03DD520E040E163E054
:100BF00080E296E037D520E040E164E080E296E0D4
:100C000031D520E040E167E080E296E02BD520E09E
:100C100040E164E080E496E025D520E040E165E035
:100C200080E496E01FD520E040E165E080E696E0B4
:100C300019D520E040E161E080E896E013D520E09E
:100C400040E166E080E896E00DD520E040E167E015
:100C500080E896E007D520E040E160E080EA96E099
:100C600001D520E040E161E080EA96E0FBD420E09D
:100C700040E164E080EA96E0F5D420E040E165E000
:100C800080EA96E0EFD420E040E166E080EA96E07A
:100C9000E9D420E040E167E080EA96E0E3D420E098
:100CA00040E163E080E097E0DDD420E040E164E0F3
:100CB00080E097E0D7D420E040E165E080E097E075
:100CC000D1D420E040E167E080E097E0CBD420E0A1
:100CD00040E163E080E297E0C5D420E040E164E0D9
:100CE00080E297E0BFD420E040E165E080E297E059
:100CF000B9D420E040E166E080E297E0B3D420E0A0
:100D000040E167E080E297E0ADD420E040E160E0C0
:100D100080EC97E0A7D420E040E161E080EC97E030
:100D2000A1D420E040E162E080EC97E09BD420E099
:100D300040E163E080EC97E095D400E024E040E0FF
:100D400061E080E896E0BBD420E240E061E080E82A
:100D500096E0B5D420E140E061E080E696E0AFD4D3
:100D600028E040E061E080E696E0A9D424E040E09D
:100D700061E080E696E0A3D422E040E061E080E616
:100D800096E09DD421E040E061E080E696E097D4D3
:100D900021E040E061E080E496E091D422E040E090
:100DA00061E080E496E08BD424E040E061E080E400
:100DB00096E085D428E040E061E080E496E07FD4CE
:100DC00021E041E061E080E896E079D421E040E074
:100DD00060E080EE96E05BD421E040E061E080EEF0
:100DE00096E055D421E040E062E080EE96E04FD4FA
:100DF00021E040E063E080EE96E049D421E040E06D
:100E000064E080EE96E043D421E040E065E080EECF
:100E100096E03DD421E040E066E080EE96E037D4F5
:100E200021E040E067E080EE96E031D421E040E050
:100E300060E080E097E02BD421E040E061E080E0DA
:100E400097E025D421E040E062E080E097E01FD405
:100E500021E040E066E080E096E019D421E040E047
:100E600065E080E296E013D421E040E066E080E2B5
:100E700096E00DD421E040E067E080E696E007D4FC
:100E800021E040E066E080E696E001D4E0EEF6E0A6
:100E900051E0568342E0468334E0368388E086831F
:100EA00080E1868320E2268380E4868390E896832F
:100EB000E0E0F7E056834683368380930606E0E25F
:100EC000F6E025838683E0E6F6E0958386830F913E
:100ED0000895CF93DF938091680682958170C82F23
:100EE00080E0D82F8091680683FF9FC082E090E069
:100EF000209168062470C22BC82BD92B80916806DC
:100F000081FF90C028E030E0C22BD32B809168068F
:100F100080FF85C020E130E02C2B3D2B80914806DE
:100F200080FF78C060E650E080E290E040914806A3
:100F300041FF02C0862F952F4091480642FF67C0AF
:100F4000C0E8D0E08C2B9D2B4091480643FF5CC04D
:100F5000C0E0D1E08C2B9D2B4091880640FF51C012
:100F6000C0E0D2E08C2B9D2BEC01C22BD32B8091C7
:100F7000BB209091BC20C817D90709F43FC0C0938B
:100F80002A21D0932B218C279D2780932C2190936D
:100F90002D2120912E2130912F212C233D232823F8
:100FA0003923232B69F49E012095309582239323C6
:100FB000209130213091312182239323892B21F0FC
:100FC00061E083E20E943F10C093BB20D093BC201D
:100FD0000E944613882391F080912A218093E40691
:100FE00080912A2190912B2121E090FF21C0209314
:100FF000050791FD21C082E080930607DF91CF9124
:101000000895C0E0D0E0AECFC0E0D0E0A3CFC0E014
:10101000D0E098CF60E450E080E090E087CF20E01F
:1010200030E07ACF20E030E06FCF80E090E060CF1A
:101030002093060791FFDFCF82E080930507DF91C1
:10104000CF910895C0918806C2FB882780F99091BE
:10105000880695FF02C0C2E001C0C0E0C82B109214
:1010600027218091BA208C2780FF23C081FD25C0D5
:1010700080E18C2B80932721282F22952F7090912F
:1010800028219823922371F4837090E080959095A5
:1010900030E0822393232091292130E0822393237F
:1010A000009719F061E080E2EAD7C093BA20189562
:1010B00006C081FFFACF80E2DCCF80E3DACF209157
:1010C000680624FB882780F990E02091680623FFBA
:1010D00003C022E030E002C020E030E0409168062A
:1010E0004470842B822B932B2091680621FF03C030
:1010F00048E050E002C040E050E0842B952B209166
:10110000680620FF03C0C0E1D0E002C0C0E0D0E02C
:101110009C012C2B3D2B8091480680FF05C060E68A
:1011200050E080E290E004C060E450E080E090E0B5
:101130004091480641FF02C0862F952F40914806F6
:1011400042FF03C0C0E8D0E002C0C0E0D0E08C2B7A
:101150009D2B4091480643FF03C0C0E0D1E002C090
:10116000C0E0D0E08C2B9D2B4091880640FF03C04F
:1011700040E052E002C040E050E0EC01C42BD52B2F
:10118000C22BD32B8091BB209091BC20C817D907CC
:1011900009F446C0C0932A21D0932B218C279D2788
:1011A00080932C2190932D2120912E2130912F215D
:1011B0002C233D2328233923232B69F49E012095DA
:1011C0003095822393232091302130913121822345
:1011D0009323892B19F061E083E251D7C093BB20A0
:1011E000D093BC200E9446138823D1F080912A21FD
:1011F0008093E40680912A2190912B2190FF04C0D6
:1012000021E02093050703C021E02093060791FF0A
:1012100004C082E08093050703C082E08093060744
:1012200018952091680624FB882780F990E020918A
:10123000680623FF03C022E030E002C020E030E077
:10124000409168064470842B822B932B2091680672
:1012500021FF03C048E050E002C040E050E0842B92
:10126000952B2091680620FF03C0C0E1D0E002C0AA
:10127000C0E0D0E09C012C2B3D2B8091480680FFE4
:1012800005C060E650E080E290E004C060E450E019
:1012900080E090E04091480641FF02C0862F952FE4
:1012A0004091480642FF03C0C0E8D0E002C0C0E061
:1012B000D0E08C2B9D2B4091480643FF03C0C0E03B
:1012C000D1E002C0C0E0D0E08C2B9D2B409188067D
:1012D00040FF03C040E052E002C040E050E0EC01BB
:1012E000C42BD52BC22BD32B8091BB209091BC203B
:1012F000C817D90709F446C0C0932A21D0932B21DF
:101300008C279D2780932C2190932D2120912E2195
:1013100030912F212C233D2328233923232B69F4BB
:101320009E01209530958223932320913021309186
:10133000312182239323892B19F061E083E29FD628
:10134000C093BB20D093BC200E9446138823D1F0C9
:1013500080912A218093E40680912A2190912B216B
:1013600090FF04C021E02093050703C021E02093F3
:10137000060791FF04C082E08093050703C082E066
:101380008093060718952091680624FB882780F92A
:1013900090E02091680623FF03C022E030E002C005
:1013A00020E030E0409168064470842B822B932B20
:1013B0002091680621FF03C048E050E002C040E0F1
:1013C00050E0842B952B2091680620FF03C0C0E1DC
:1013D000D0E002C0C0E0D0E09C012C2B3D2B8091DE
:1013E000480680FF05C060E650E080E290E004C05F
:1013F00060E450E080E090E04091480641FF02C088
:10140000862F952F4091480642FF03C0C0E8D0E0E8
:1014100002C0C0E0D0E08C2B9D2B4091480643FFDA
:1014200003C0C0E0D1E002C0C0E0D0E08C2B9D2B17
:101430004091880640FF03C040E052E002C040E017
:1014400050E0EC01C42BD52BC22BD32B8091BB20B9
:101450009091BC20C817D90709F446C0C0932A212F
:10146000D0932B218C279D2780932C2190932D2185
:1014700020912E2130912F212C233D232823392305
:10148000232B69F49E01209530958223932320918C
:1014900030213091312182239323892B19F061E08F
:1014A00083E2EDD5C093BB20D093BC200E944613AD
:1014B0008823D1F080912A218093E40680912A210B
:1014C00090912B2190FF04C021E02093050703C0D9
:1014D00021E02093060791FF04C082E08093050776
:1014E00003C082E08093060718950E942501809131
:1014F000A20087688093A2007894FFCF222309F48A
:101500005BC030E23093520038E0309350003091AD
:10151000510033FFFCCF611538E4730738EE8307C1
:1015200031E0930709F482C0611534E2730734EFA8
:101530008307910509F47CC0611532E173073AE72E
:101540008307910509F44BC0611539E073073DE34A
:101550008307910509F46EC0603834E873073EE1F3
:101560008307910509F460C0603432E473073FE0FB
:101570008307910509F462C0603231EA730737E0EE
:101580008307910509F458C0603930ED730733E0E3
:101590008307910509F454C0683438EE730731E0CD
:1015A0008307910509F44EC06432744F810591059B
:1015B00009F04AC084E414C032E2309352003AE0A9
:1015C000309350003091510031FFFCCF30915100E9
:1015D00033FDA1CF3091510033FFF8CF9CCF8CE089
:1015E00098ED94BF222399F023E02093400094BF0C
:1015F00080934100442329F088ED84BF81E08093EB
:10160000420088ED84BF81E080938000089521E04E
:101610002093400094BF8093410094BF82E0809368
:10162000560020936000E6CF8CE1DACF80E0D8CF7F
:1016300084E0D6CF84E1D4CF8CE2D2CF84E2D0CF85
:1016400084E3CECF8CE3CCCF80E0089588ED84BFD7
:1016500081E080938000089588ED84BF83E08093CB
:101660008000FFCFFC01308181E090E0062E01C0B8
:10167000880F0A94EAF78095832380837096E60F9B
:10168000F11D8081422B807C482B40830895FC0112
:10169000308181E090E0062E01C0880F0A94EAF7BD
:1016A000382B30837096E60FF11D8081807C842B6F
:1016B0008083211103C080818760808308950F9308
:1016C000FC013185842F90E0880F991FA3E0B0E0E2
:1016D000082E01C0AA0F0A94EAF7A095A323082EAA
:1016E00001C0660F0A94EAF7A62BA18741110FC02B
:1016F0000023A9F02287248581E090E0042E01C018
:10170000880F0A94EAF7282B24870F910895413017
:1017100091F7011108C08385822B8387ECCF8285E6
:10172000822B8287E8CF2387E6CFFC0110828CE0F2
:1017300081874150510946A357A3268360830895AA
:101740002091CF0127FDFCCF8093C0019093C10170
:101750001092C20186E08093CA0188ED84BF81E0C7
:101760008093CB018091C40108952091CF0127FD82
:10177000FCCF2091CF0121FF08C026E32093CA01AE
:1017800028ED24BF21E02093CB0123E32093CA015D
:101790008093C0019093C1011092C2016093C40173
:1017A00085E38093CA0188ED84BF81E08093CB01FB
:1017B0000895FF920F931F93CF93DF938C01C7E09F
:1017C000D0E0F12C08C0F1100BC0CE01CEDF219685
:1017D000C032D10571F0F80161918F016111F3CF31
:1017E00060E0CE01C2DFFF24F3942196C032D10520
:1017F00091F7DF91CF911F910F91FF900895CF93B3
:10180000962F803208F47FC0282F30E02052310913
:10181000F901E05BFF4D5081220F331FF901E45CB9
:10182000FF4DC081F901E85DFF4D2081318120939A
:10183000C3203093C42090933721252F2F702C9FE5
:10184000C02D1124EAE0EC0FE09338218093392178
:101850002FEF20933A21506150933B2141116BC0EF
:101860008091BF209091C020A091C120B091C22052
:1018700080933C2190933D21A0933E21B0933F2142
:101880002091BD203091BE202093402130934121F2
:101890008E2F90E08E3F9105A4F52091C3203091CA
:1018A000C42040E0842F90E0F901E80FF91F508137
:1018B000FC01EE5BFE4D50834F5F4C13F3CF209144
:1018C00038212E5F30E021503109121613060CF03A
:1018D0009EC080E090E040E050E0FC01E95CFE4DFD
:1018E0008081580F4F5F842F90E082179307ACF3ED
:1018F000F901E95CFE4D508380915A20813009F452
:101900006BC0CF9108958E30E0F7282F30E0F901B9
:10191000E655FF4D5081220F331FF901E257FF4D6D
:10192000C081F901EE58FF4D208131812093C32001
:101930003093C42080CF20914C084091D720509103
:10194000D8206091D9207091DA2020FF21C04F5F0C
:101950005F4F6F4F7F4F40933C2150933D216093E9
:101960003E2170933F2120916008309161082093BF
:10197000402130934121883009F08ACF933009F01B
:1019800087CF1092402110924121E091382180CFE1
:1019900040933C2150933D2160933E2170933F2121
:1019A00020916008309161082093402130934121BB
:1019B000F091C820F03DF9F62F303105E0F64F5F89
:1019C0005F4F6F4F7F4F40933C2150933D21609379
:1019D0003E2170933F21CFCF83E88093A200C09136
:1019E000A30B9091A30B9C7F9093A30B6091382144
:1019F0006E5F87E391E265D79091A30B8C2F837084
:101A0000892B8093A30B87E88093A2007ACF50E0C4
:101A10006FCFCF93E0913A3A2E2F30E0243031054A
:101A2000BCF090E020E030E0F901E25CF54C408150
:101A3000F901EC5BF54C40839F5F292F30E0E0918A
:101A40003A3A4E2F50E0435051092417350764F3BA
:101A50008093393AEA5FE0933A3A80913D3A806167
:101A600080933D3A80914C0880FF40C08091D72000
:101A70009091D820A091D920B091DA200196A11D93
:101A8000B11D80933E3A90933F3AA093403AB09371
:101A9000413A80916008909161088093423A909316
:101AA000433AF0E0E65CF54C108260913A3A40E04F
:101AB000262F30E080E090E0F901E65CF54CDC0197
:101AC000A75CB54C20818C91280F20834F5F6091DB
:101AD0003A3A262F30E0842F90E02817390764F730
:101AE00080915A20813079F1CF9108958091D7204B
:101AF0009091D820A091D920B091DA2080933E3ADD
:101B000090933F3AA093403AB093413A20916008B5
:101B1000309161082093423A3093433A4091C82073
:101B2000403D09F0BECF2F30310508F0BACF019605
:101B3000A11DB11D80933E3A90933F3AA093403A45
:101B4000B093413AAECF83E88093A200C091A30B3B
:101B50009091A30B9C7F9093A30B6E5F89E39AE314
:101B6000B0D69091A30B8C2F8370892B8093A30BFD
:101B700087E88093A200CF9108953F924F925F92A1
:101B80006F927F928F929F92AF92BF92CF92DF928D
:101B9000EF92FF920F931F93CF93DF93CDB7DEB7F2
:101BA0003C01962E142FF22E4D885E884FDD21E0E9
:101BB00041E060E078E488EE91E0A0DC81E0809391
:101BC00048006092CE207092CF209092D020109347
:101BD000D120E092D2208093D32087E08093D4203C
:101BE000F092D5200093D6201092D7201092D820C2
:101BF0001092D9201092DA201092DB201092DC2073
:101C000082E090E09DDD382E83E090E099DD982E13
:101C10008FEF981609F4CAC0F31409F49CC06FED55
:101C200080E090E0A2DD6F2D82E090E09EDD61E03B
:101C300083E090E09ADD0E944D0180E090E080DD3D
:101C40008E3E09F493C080E68093DD2080E480938B
:101C5000DE200E9461020E946D02A092CC20B09210
:101C6000CD20C092CA20D092CB208092C92087E09C
:101C700090E066DD8F3F09F4D0C00FED10E2F6EF83
:101C8000EF2EFF24FA94C7018E5C90427C01C701BD
:101C9000800F911F55DDF80181938F01F0E2083F1D
:101CA0001F07A9F789E1EFEDF0E2ABEFB0E2019099
:101CB0000D928A95E1F784E090E042DD082F10E074
:101CC0000093F8201093F92085E090E039DD302F63
:101CD0002227282B2093F8203093F92021E042E19D
:101CE0005AE767E080E498E020DDE091C82081E0D9
:101CF0008E0F8093C820F0E0E659FF4D808190E080
:101D00000197809368089093690881E08093470861
:101D100020E040E066E080E096E0B9DC80E480937B
:101D2000050640E060E081E090E0B6D414D587ED90
:101D300090E2DF91CF911F910F91FF90EF90DF9094
:101D4000CF90BF90AF909F908F907F906F905F905B
:101D50004F903F90E4C691E0991261CF0E944D01EF
:101D600080E090E0EDDC8E3E09F06DCF81E090E008
:101D7000E7DC8093DD20A114B10491F076018501A8
:101D80000C0D1D1DA0E26A2E712CC301D9DCF701D8
:101D900081937F01FFEF6F1A7F0AE016F106A9F722
:101DA00080E88093DE200E946D0257CF6F2D82E085
:101DB00090E0DBDC61E083E090E0D7DC82E090E063
:101DC000BFDC382E83E090E0BBDC982E8201B7E0C8
:101DD0006B2E712CE12C0BC0E1100EC0C301C5DCD1
:101DE000FFEF6F1A7F0A80E26816710489F0F8012C
:101DF00061918F016111F0CF60E0C301B6DCEE2488
:101E0000E394FFEF6F1A7F0A80E26816710479F796
:101E10006FED80E090E0A9DCFFCE720107E010E0FA
:101E2000D12C0AC0D1100DC0C8019FDC0F5F1F4F1D
:101E30000032110509F421CFF70161917F01611191
:101E4000F1CF60E0C80191DCDD24D394EFCF0E9494
:101E50004C0120E480E092EEA4E0B0E00197A109FB
:101E6000B1090097A105B105C9F720930706F2CF84
:101E70008091D7209091D820A091D920B091DA20DC
:101E80000196A11DB11D8093D7209093D820A093D7
:101E9000D920B093DA2080911F218F5F80931F217A
:101EA0008EE090E0809368089093690881E08093C9
:101EB000C8200E94B40280914C08806180934C0835
:101EC0000E94AD030E94B3034091DD2047FD03C093
:101ED000842F8370B1C0842F8370813009F0ACC02F
:101EE00087ED90E28093C3209093C42083E0809399
:101EF00037218EE08093382188E0809339218FEF5D
:101F000080933A2184E180933B2180914C0880FFAB
:101F100018C08091D7209091D820A091D920B0915D
:101F2000DA200196A11DB11D80933C2190933D21A3
:101F3000A0933E21B0933F21809160089091610869
:101F400026C08091D7209091D820A091D920B0911F
:101F5000DA2080933C2190933D21A0933E21B093C1
:101F60003F2120916008309161085091C820503D78
:101F700071F42F30310558F40196A11DB11D8093E5
:101F80003C2190933D21A0933E21B0933F2110929C
:101F90004021109241218091D7209091D820A0918A
:101FA000D920B091DA208093422190934321A093CD
:101FB0004421B0934521209138212E5F30E02150FB
:101FC00031091216130684F450E060E080E090E0DE
:101FD000FC01E95CFE4D8081680F5F5F852F90E01A
:101FE00082179307ACF301C060E0F901E95CFE4D94
:101FF000608380915A20813021F583E88093A2008C
:10200000C091A30B9091A30B9C7F9093A30B609125
:1020100038216E5F87E391E254D49091A30B8C2F0B
:102020008370892B8093A30B87E88093A200409153
:10203000DD20842F837000C0882339F0813019F4AB
:1020400000C092E003C091E001C094E08091D720ED
:10205000892321F080E48093060605C046FF03C073
:1020600080E4809305060E94AC0380914C0884FFB5
:1020700005C08091C720811101C0E9DE18959091BB
:10208000DD209370913009F00895462F63E0B7CBBF
:10209000CF92DF92FF920F931F93CF93DF931F9204
:1020A0001F92CDB7DEB78E3040F4E82FF0E0DF01AD
:1020B000A655BF4D9C91961759F080E00F900F9058
:1020C000DF91CF911F910F91FF90DF90CF900895F6
:1020D000EE0FFF1FE257FF4D60817181621773079A
:1020E00061F7883009F47FC08A30D1F18B3011F16B
:1020F0008C3009F4A1C08D3001F7FA018081918103
:10210000019609F4BFC08091FA208823B1F2FA0148
:10211000608185E090E049835A8327DB49815A81B9
:10212000FA01618184E090E020DB83E08093C720A6
:1021300081E0C4CFFA018081813009F4B7C08230D8
:1021400009F4A4C0843009F4C2C0883089F76FEF65
:1021500087E090E00ADB83E08093C72081E0AECF88
:10216000FA01808186FD04C080E4809306068081A8
:102170001091DD20837F8093DD20FA01808185FF2F
:1021800041C015FF76C083FF10C081E08093172106
:102190001092152180931621109214218091DD2038
:1021A000877F8093DD20FA018081837079F4812F0D
:1021B000837009F4BDCF1092172149835A830E947E
:1021C000B10249815A81FA0180818370813029F1FD
:1021D000833009F0ADCF1370133009F4A9CF0E94FA
:1021E000B30281E06BCFFA0180819181A281B3813A
:1021F0008093D7209093D820A093D920B093DA2051
:1022000081E05CCF15FFBFCF49835A830E949902BA
:1022100049815A81FA018081B6CF812F8370813044
:1022200009F486CF49835A830E94B20249815A81B8
:10223000FA0180818370CCCF8A0187E0C82ED12C2F
:10224000F12C0CC0F1100FC0C6018FDAFFEFCF1ACE
:10225000DF0A20E2C216D10409F467CFF8016191C8
:102260008F016111EFCF60E0C6017FDAFF24F394A4
:10227000EDCF49835A830E94740249815A81FA0141
:10228000808181CF81E08093FA2018CF80E090E0B8
:1022900049835A8355DA49815A818E3E09F00DCF20
:1022A00083E08093C720FA0180814CCF8BEF90E2CE
:1022B00049835A837EDA6FED80E090E056DA83E05E
:1022C0008093C72049815A81FA01808138CF6EEE10
:1022D00080E090E049835A8348DA6091DD2081E014
:1022E00090E043DA8091CC209091CD2049815A81B1
:1022F000892BC9F000E010E0E091CA20F091CB20DA
:10230000E00FF11F6081C801809649835A832DDA5E
:102310000F5F1F4F8091CC209091CD2049815A8131
:102320000817190748F383E08093C720FA018081DA
:102330000CCF0E94B4028091680890916908E091E6
:10234000C82021E02E0F2093C820E770F0E0E65966
:10235000FF4D3081830F911D809368089093690829
:1023600020FD26C180915A20813069F48093250791
:1023700083E88093A2008091A30B8F7C8093A30BB2
:1023800087E88093A20080911E21811103C0809173
:102390001D210FC0815080931E21882319F0809148
:1023A0001D2107C010921E2110921D21109218218C
:1023B0009BC0882309F498C0A0913722B09138229D
:1023C00080913A3A8F3F59F010913B3A50913C3A04
:1023D00000913D3A3EE3E32E3AE3F32E0AC010911A
:1023E0003D3A50913E3A00913F3A20E4E22E2AE3F2
:1023F000F22EFD01319681F090E040E020E030E0E7
:10240000E901C75CD54C2881420F9F5F292F30E03E
:102410002E173F07A8F301C040E0E75CF54C908120
:10242000491360C05F3F09F05DC09091393A913027
:1024300089F51D31B0F41E3008F01DC1E12FF0E028
:10244000E655FF4D9081091316C1193009F00EC1F0
:1024500080916008909161088093DB209093DC204C
:1024600005C1602F812F0E94BA039091DD2094FD59
:1024700039C0811103C080913A3A05C041E061E062
:10248000812FBDD92FC090E0883F91055CF589E090
:10249000C0DA28C0CD010497202F2F70622F70E082
:1024A00007D41D3130F49B01A701602F812FF0DD8F
:1024B00006C09B01A701602F812F0E94D30390913A
:1024C000DD2094FD0FC0882329F041E062E0812FD8
:1024D00096D908C080913A3A90E0883F910514F46B
:1024E0008AE097DA10921D2180915A20813009F0FC
:1024F0005CC08091080786FF46C08091C5209091FE
:10250000C6200196883B2BE0920729F08093C520D6
:102510009093C6203CC01092C5201092C620809196
:10252000DD20982F93709130E9F486FD03C090E48C
:1025300090930606982F907F9093DD2083FF0BC029
:102540001092152181E08093162110921421892F79
:10255000877F8093DD20109217210E94B102909115
:102560005A2001C091E010921B2110921C21109260
:10257000192110921A218091A30B8C7F8093A30BB9
:10258000913029F012C01092C5201092C62083E825
:102590008093A2008091A30B80638093A30B87E8B4
:1025A0008093A20081E0809326070E94B20302C0BC
:1025B0000E94B3038091C720882331F0815080931B
:1025C000C720811101C048D8809116218823E1F0ED
:1025D0008091C82083708230B9F4809114218E30AC
:1025E00060F4893009F04CC0209160083091610896
:1025F0002093DB203093DC2043C08F5F8093142135
:102600008C3111F41092162180911721882309F141
:102610008091C8208370E9F480911521E82FF0E0C3
:10262000E05BFF4D6081805E0E94BA03882331F039
:102630008091152141E061E0805EE1D88091152113
:102640008F5F809315219091C920891302C0109249
:1026500017210E94AC0380914C0884FF05C0809133
:10266000C720811101C0F3DB189510C08091DD20D7
:1026700084FF04CF37CF9091DD2094FF04CF32CF79
:1026800041E061E0BCD880911421B7CF8091DD207A
:1026900085FB882780F90895FF920F931F93CF93AE
:1026A000DF931F921F92CDB7DEB789839A83F62EF0
:1026B000142F20E040E060E080E297E00E94470BAA
:1026C00020E040E066E080E097E00E94320B01E00D
:1026D00020E440E063E080E097E00E945F0B81E04F
:1026E0008093260783E08093A50B89818093A60BB6
:1026F0008F2D90E18902B00111248A818F70862B81
:102700008093A70B112329F08091A40B8460809300
:10271000A40B88E08093A50620E040E063E080EA17
:1027200096E00E94470B20E040E062E080EA96E0FD
:102730000E94320B8091080786FF05C08091A30B91
:102740008C7F8093A30B0F900F90DF91CF911F91FF
:102750000F91FF900895E0EAFBE084818861848313
:1027600080EE818383818063838308951F920F921B
:102770000FB60F92112408B60F9218BE09B60F9229
:1027800019BE0BB60F921BBE2F933F934F935F93CF
:102790006F937F938F939F93AF93BF93EF93FF9329
:1027A0000E94B60320911B2130911C21C901019682
:1027B00080931B2190931C21F901E75CFD4D208142
:1027C0002093A00B811528E1920729F1209119216E
:1027D00030911A212817390729F48091A30B8C7F97
:1027E0008093A30B0E94B703FF91EF91BF91AF912C
:1027F0009F918F917F916F915F914F913F912F9119
:102800000F900BBE0F9009BE0F9008BE0F900FBE29
:102810000F901F90189510921B2110921C2180E0A0
:1028200090E0D4CF1F920F920FB60F92112408B6EA
:102830000F9218BE09B60F9219BE0BB60F921BBEAF
:102840002F933F934F935F936F937F938F939F93B8
:10285000AF93BF93EF93FF930E94B8038091080753
:1028600086FD29C020911B2130911C2180911921C6
:1028700090911A212817390729F08091A30B8360C2
:102880008093A30B0E94B903FF91EF91BF91AF9189
:102890009F918F917F916F915F914F913F912F9178
:1028A0000F900BBE0F9009BE0F9008BE0F900FBE89
:1028B0000F901F9018958091A30B8C7F8093A30B92
:1028C000E1CFBF92CF92DF92EF92FF920F931F93CF
:1028D000CF93DF936C01B62E8091080786FD05C06B
:1028E0008091A30B83608093A30B00911921109119
:1028F0001A21C0E0D8E1C01BD10BEB2CF12CCE1576
:10290000DF0558F1A701B601C801875C9D4DE4D1F0
:1029100080911B2190911C21E00EF11EE092192163
:10292000F0921A21E11428E1F20609F446C00817D2
:102930001907A8F5E816F90690F18FEFE81AF80ADA
:10294000E0921B21F0921C21E11428E1F20639F5F6
:1029500010921B2110921C2122C0AE01B601C801A9
:10296000875C9D4DB9D1BC1AEB2CF12CBE016C0DCE
:102970007D1DA70189E392E2AFD180911B21909147
:102980001C21E0921921F0921A210817190788F4E6
:102990002FEFE21AF20AE0921B21F0921C21DF9144
:1029A000CF911F910F91FF90EF90DF90CF90BF904C
:1029B0000895E816F90660F7F2CF109219211092E7
:1029C0001A21892B61F781E090E080931B2190937D
:1029D0001C21E5CF1F920F920FB60F92112408B65B
:1029E0000F9218BE09B60F9219BE0BB60F921BBEFE
:1029F0002F933F934F935F936F937F938F939F9307
:102A0000AF93BF93EF93FF930E94B4039091A00BF9
:102A1000E091182181E08E0F80931821F0E0E75CAF
:102A2000F54C9083813019F1843049F190E0209188
:102A30003722309138228217930779F10E94B5032B
:102A4000FF91EF91BF91AF919F918F917F916F9186
:102A50005F914F913F912F910F900BBE0F9009BE48
:102A60000F9008BE0F900FBE0F901F901895809189
:102A7000393A81508230D0F110921821DFCF809105
:102A80003A3A8F3F01F190E08E3F9105A9F302960B
:102A90008093372290933822D1CF20915A20213031
:102AA00061F120913A3A2F3F29F122E030E0821B78
:102AB000930B80933722909338221092182181E053
:102AC00080931D21BBCF80913A3A90913B3A049676
:102AD0008F3F910509F080F680913B3A90913C3A06
:102AE00004968093372290933822A8CF82E3809374
:102AF0001E21A4CF24E030E0DACF2093250783E81D
:102B00008093A2008091A30B8F7C8093A30B87E816
:102B10008093A2008091372290913822C2CFCF9328
:102B2000DF931F921F92CDB7DEB723E130E02983F8
:102B30003A83809321219093222183E08093B508EA
:102B400089818093B6088A818F708093B70820E0CE
:102B500048E166E080E496E00E94320B80E18093D9
:102B6000B408E3EBF8E08081806380830F900F90DE
:102B7000DF91CF9108951F920F920FB60F921124FB
:102B800008B60F9218BE09B60F9219BE0BB60F9277
:102B90001BBE2F938F939F93AF93BF93EF93FF939E
:102BA0008091B0088A3AD1F18F3A09F44CC09091E3
:102BB0002021923009F44BC008F472C0943009F41B
:102BC00052C008F44AC0953061F5809326211092D6
:102BD000202180911F218A3008F44BC082EF99E7B1
:102BE000809360089093610881E09AE78093680879
:102BF0009093690826E020935B20E0912121F091D9
:102C000022218091232190912421A0912521B0910E
:102C1000262180839183A283B38303C081E08093C4
:102C20002021FF91EF91BF91AF919F918F912F91B3
:102C30000F900BBE0F9009BE0F9008BE0F900FBEF5
:102C40000F901F90189582E080932021EACF809307
:102C5000232183E080932021E4CF8093242184E00A
:102C600080932021DECF8093252185E08093202151
:102C7000D8CF10921F2120915B2089EF99E7821B0A
:102C80009109809360089093610881E09AE78093AE
:102C9000680890936908222309F4AFCF2150ABCF85
:102CA000992319F0913009F0BCCF10922021B9CFAF
:102CB000AA1BBB1B51E107C0AA1FBB1FA617B70762
:102CC00010F0A61BB70B881F991F5A95A9F780957E
:102CD0009095BC01CD010895FB01DC0102C001907B
:0E2CE0000D9241505040D8F70895F894FFCF60
:102CEE006005F303F903FF0301040A043704090521
:102CFE001D043104690562056305640565056605F5
:102D0E0067056805130430042721282129212A216B
:102D1E002E213021322133213421362101000100B0
:102D2E00010002000100010001000100010001008C
:102D3E00010101020202010182010107496E707553
:102D4E0074457870616E646572000F10100F100F6D
:102D5E001010CE20D020D120D220D320D420D520A8
:102D6E00D620D720DB20DD20DE20DF20F82001005A
:102D7E00010001000100010001000100010001003D
:102D8E000100010001001900010002010101010111
:082D9E00010104020101010220
:00000001FF
