:10000000FDC0000021C100000C9412091DC10000B8
:100010001BC1000019C1000017C1000015C100007C
:1000200013C1000011C100000FC100000DC100008C
:100030000BC1000009C1000007C1000005C100009C
:1000400003C1000001C10000FFC00000FDC00000AE
:100050000C94820FF9C000000C94E511F5C000006B
:10006000F3C00000F1C00000EFC00000EDC00000D0
:100070000C940C16E9C00000E7C00000E5C00000C9
:10008000E3C00000E1C00000DFC00000DDC00000F0
:10009000DBC00000D9C00000D7C00000D5C0000000
:1000A000D3C00000D1C00000CFC00000CBC700000B
:1000B0000C94C409C9C00000C7C00000C5C000003E
:1000C000C3C00000C1C00000BFC00000BDC0000030
:1000D000BBC00000B9C00000B7C00000B5C0000040
:1000E000B3C00000B1C00000AFC00000ADC0000050
:1000F000ABC00000A9C00000A7C00000A5C0000060
:10010000DFC70000A1C000009FC000009DC000002C
:100110009BC0000099C0000097C0000095C000007F
:1001200093C0000091C000008FC000008DC000008F
:100130008BC0000089C0000087C0000085C000009F
:1001400083C0000081C000007FC000007DC00000AF
:100150007BC0000079C0000077C0000075C00000BF
:1001600073C0000071C000006FC000006DC00000CF
:100170006BC0000069C0000067C0000065C00000DF
:1001800063C0000061C000000C9463145DC00000F7
:100190005BC0000059C0000057C0000055C00000FF
:1001A00053C0000051C000004FC000004DC000000F
:1001B0004BC0000049C0000047C0000045C000001F
:1001C00043C0000041C000003FC000003DC000002F
:1001D0003BC0000039C0000037C000000C943B1544
:1001E0000C94071431C000002FC000002DC0000087
:1001F0002BC0000029C0000027C0000011241FBE32
:10020000CFEFCDBFDFE3DEBF00E00CBF18BE19BEED
:100210001ABE1BBE10E2A0E0B0E2ECE9FDE200E095
:100220000BBF02C007900D92AE3BB107D9F71BBEC2
:100230002BE3AEEBB0E201C01D92A134B207E1F7AF
:100240000E94760A0C94CC16DBCE8F92AF92BF92AE
:10025000CF92DF92EF920F938CE590E29F938F9372
:100260008AE0882E90E1A92EB12C2FE2C22E21E245
:10027000D22EE12C02E022E040E061E082E594E051
:100280000E94070E0F900F900F91EF90DF90CF908C
:10029000BF90AF908F90089508951CD480918806E8
:1002A00083FD0CC142E031E022E094E0E8E070E13F
:1002B00060E280E450E83093E506AFEFB1EEF4E0A1
:1002C000A150B040F040E1F700C000003093E606D6
:1002D0002093E506AFEFB1EEF4E0A150B040F0405E
:1002E000E1F700C000002093E6069093E506AFEF2B
:1002F000B1EEF4E0A150B040F040E1F700C00000E2
:100300009093E606E093E506AFEFB1EEF4E0A1507E
:10031000B040F040E1F700C00000E093E6067093C3
:10032000E506AFEFB1EEF4E0A150B040F040E1F7E8
:1003300000C000007093E60690930507AFEFB1EEA2
:10034000F4E0A150B040F040E1F700C0000090930D
:1003500006076093E506AFEFB1EEF4E0A150B040C0
:10036000F040E1F700C000006093E6068093E506E8
:10037000AFEFB1EEF4E0A150B040F040E1F700C0C3
:1003800000008093E6065093E506AFEFB1EEF4E08F
:10039000A150B040F040E1F700C000005093E606E5
:1003A00030930507AFEFB1EEF4E0A150B040F0405C
:1003B000E1F700C000003093060720930507AFEF78
:1003C000B1EEF4E0A150B040F040E1F700C0000011
:1003D0002093060780930506AFEFB1EEF4E0A1503D
:1003E000B040F040E1F700C00000809306064150A5
:1003F00009F061CF2FEF83EC99E0215080409040CD
:10040000E1F700C0000042E031E022E094E0E8E0E3
:1004100070E160E280E450E83093E5062093E50661
:100420009093E506E093E5067093E5069093050743
:100430006093E5068093E5065093E5063093050743
:100440002093050780930506AFEFB3ECF9E0A150C8
:10045000B040F040E1F700C000003093E606209382
:10046000E6069093E606E093E6067093E606909320
:1004700006076093E6068093E6065093E6063093FF
:1004800006072093060780930606AFEFB3ECF9E06A
:10049000A150B040F040E1F700C00000415009F029
:1004A000BBCF2FEF83ED90E3215080409040E1F7E8
:1004B00000C0000084E08093050708950E94710F3A
:1004C000F1CEEFE2F1E283E0818382838FEF93E06C
:1004D00087839087818792870895FBD48AE391E28E
:1004E000C6D18EE391E2BDC180913E21811112C03F
:1004F000809132218093E4068091322190913321C2
:1005000021E090FD0BC02093060791FD0BC082E017
:100510008093060784E080930507089520930507DC
:1005200091FFF5CF82E08093050784E08093050773
:100530000895E0EEF6E021E0268392E0968384E0E1
:10054000868338E0368330E1368330E2368330E428
:10055000368330E83683E0E0F7E0268396838683AF
:100560000895089508950895CF93DF932091BE20B4
:100570003091BF202F5F3F4F2093BE203093BF208C
:1005800090913B21892F877061F0933009F4BAC0B4
:10059000923009F4DCC0913009F4D3C0943009F4EE
:1005A00097C090913A21923049F0913019F0DF9143
:1005B000CF9108958091BE2080FDF9CF809168068B
:1005C00082958170C82F40E0D42F8091680683FF08
:1005D0007CC022E030E0809168068470AE01482B38
:1005E000CA01822B932B2091680621FF6BC028E063
:1005F00030E0822B932B2091680620FF60C020E121
:1006000030E0822B932B80933221909333212091E1
:10061000480620FF4FC060E650E020E230E0409105
:10062000480641FF02C0262F352F4091480642FF61
:100630003EC040E850E0242B352B4091480643FF54
:1006400033C040E051E0242B352B4091880640FF19
:1006500028C040E052E0242B352B822B932B809333
:1006600032219093332161E083E20E948B100E943B
:100670009713882309F49BCF809132218093E4065D
:10068000809132219091332121E090FD50C0209340
:10069000060791FD50C082E080930607DF91CF915D
:1006A000089540E050E0D7CF40E050E0CCCF40E0AC
:1006B00050E0C1CF60E450E020E030E0B0CF20E077
:1006C00030E09FCF20E030E094CF20E030E083CFD7
:1006D0008091BE2080FD65CF8091600A9091610A73
:1006E000905820913C2130913D218217930709F4C5
:1006F00058CF80933C2190933D2161E088E20E9495
:100700008B104FCF20FD4DCF8091600A9091610AF0
:10071000905880933C2190933D2161E088E20E94B3
:100720008B1090913B21943009F03BCFD1CF209397
:10073000050791FFB0CF82E080930507DF91CF914D
:10074000089527703327232B09F02BCFDDCF23709B
:100750003327232BC9F225CF08951092BE20109283
:10076000BF2008950895089508950895089508955F
:100770000895089590EE980F9A3040F490E0809795
:10078000FC01E05BFF4D2081261711F080E0089509
:10079000880F991FFC01EC5EFF4D0190F081E02D68
:1007A000199581E0089590EE980F9A3048F4E82F5B
:1007B000F0E0B097DF01A05BBF4D9C91961711F060
:1007C00080E00895EE0FFF1FDF01A45CBF4D8D9107
:1007D0009C9182179307A1F7E050F04E0190F081B1
:1007E000E02DCA011994FC0180818093302181E0C1
:1007F0000895FC0180818093312181E0089580E09B
:100800000895FC0180819181809336219093372156
:1008100081E00895FC01808191818093382190933B
:10082000392181E008958091600A9091610A905881
:1008300080933C2190933D210895FC0120813181DA
:1008400080913B21877031F0C90190588093600AF4
:100850009093610A20933C2130933D2181E00895DB
:100860000895FC01808180933E2181E008950F93DB
:10087000CF93FC01C081CC2319F1C330E8F410926E
:1008800034211092352101E020E040E060E080E674
:1008900096E016D720E040E060E080E496E010D7D4
:1008A00020E041E060E080E896E00AD7C0933A217A
:1008B00081E0CF910F91089580E0CF910F9108953D
:1008C0008091680684FB442740F950E080916806D7
:1008D00083FD88C020E030E0809168068470BA0112
:1008E000682BCB01822B932B2091680621FF85C0BA
:1008F00028E030E0822B932B2091680620FF7AC0FD
:1009000020E130E0822B932B8093C1209093C22072
:100910002091480620FF69C060E650E020E230E008
:100920004091480641FF02C0262F352F40914806CE
:1009300042FF6CC040E850E0242B352B4091480624
:1009400043FF61C040E051E0242B352B40918806E5
:1009500040FF56C040E052E0242B352B822B932BD6
:100960008093C1209093C22000E020E140E061E04C
:1009700080E696E0A5D628E040E061E080E696E0DB
:100980009FD624E040E061E080E696E099D622E040
:1009900040E061E080E696E093D621E040E061E04F
:1009A00080E696E08DD621E040E061E080E496E0CC
:1009B00087D622E040E061E080E496E081D624E042
:1009C00040E061E080E496E07BD628E040E061E032
:1009D00080E496E075D621E041E061E080E896E0B1
:1009E0006FD664CF22E030E077CF60E450E020E0C3
:1009F00030E096CF20E030E085CF20E030E07ACFC5
:100A000040E050E0A9CF40E050E09ECF40E050E011
:100A100093CF0F93CF93FC01C0818C2F887F29F552
:100A20008C2F877041F51092400A8091880682FBD6
:100A3000882780F99091880695FD1BC090E0892B4E
:100A40008093C02000E024E040E061E080E896E090
:100A500037D620E240E061E080E896E031D6C093EE
:100A60003B2181E0CF910F91089580E0CF910F91CC
:100A7000089592E0E4CF01E020E040E060E080E80B
:100A800096E01ED684E78093800189E080938801F8
:100A90001092400A8CE08093490A88E68093430ACA
:100AA0008FEF9FEF8093660A9093670A80E090E84B
:100AB0008093600A9093610A81E08093400ACFCFCF
:100AC00080E008950895089508950895089508957B
:100AD000089508950F9320E040E062E080E896E0FA
:100AE000C2D520E040E065E080E896E0BCD520E09B
:100AF00048E163E080E896E0B6D520E040E064E0BD
:100B000080E696E0B0D520E040E063E080E696E045
:100B1000AAD520E040E062E080E696E0A4D520E09F
:100B200040E061E080E696E09ED520E040E060E0B5
:100B300080E696E098D520E040E060E080E496E032
:100B400092D520E040E061E080E496E08CD520E0A2
:100B500040E062E080E496E086D520E040E063E09B
:100B600080E496E080D520E040E060E080E896E018
:100B70007AD520E040E160E080E096E074D520E0A6
:100B800040E161E080E096E06ED520E040E162E087
:100B900080E096E068D520E040E163E080E096E008
:100BA00062D520E040E164E080E096E05CD520E0A2
:100BB00040E165E080E096E056D520E040E167E066
:100BC00080E096E050D520E040E160E080E296E0F1
:100BD0004AD520E040E161E080E296E044D520E0A3
:100BE00040E162E080E296E03ED520E040E163E053
:100BF00080E296E038D520E040E164E080E296E0D3
:100C000032D520E040E167E080E296E02CD520E09C
:100C100040E164E080E496E026D520E040E165E034
:100C200080E496E020D520E040E165E080E696E0B3
:100C30001AD520E040E161E080E896E014D520E09C
:100C400040E166E080E896E00ED520E040E167E014
:100C500080E896E008D520E040E160E080EA96E098
:100C600002D520E040E161E080EA96E0FCD420E09B
:100C700040E164E080EA96E0F6D420E040E165E0FF
:100C800080EA96E0F0D420E040E166E080EA96E079
:100C9000EAD420E040E167E080EA96E0E4D420E096
:100CA00040E163E080E097E0DED420E040E164E0F2
:100CB00080E097E0D8D420E040E165E080E097E074
:100CC000D2D420E040E167E080E097E0CCD420E09F
:100CD00040E163E080E297E0C6D420E040E164E0D8
:100CE00080E297E0C0D420E040E165E080E297E058
:100CF000BAD420E040E166E080E297E0B4D420E09E
:100D000040E167E080E297E0AED420E040E160E0BF
:100D100080EC97E0A8D420E040E161E080EC97E02F
:100D2000A2D420E040E162E080EC97E09CD420E097
:100D300040E163E080EC97E096D400E024E040E0FE
:100D400061E080E896E0BCD420E240E061E080E829
:100D500096E0B6D420E140E061E080E696E0B0D4D1
:100D600028E040E061E080E696E0AAD424E040E09C
:100D700061E080E696E0A4D422E040E061E080E615
:100D800096E09ED421E040E061E080E696E098D4D1
:100D900021E040E061E080E496E092D422E040E08F
:100DA00061E080E496E08CD424E040E061E080E4FF
:100DB00096E086D428E040E061E080E496E080D4CC
:100DC00021E041E061E080E896E07AD421E040E073
:100DD00060E080EE96E05CD421E040E061E080EEEF
:100DE00096E056D421E040E062E080EE96E050D4F8
:100DF00021E040E063E080EE96E04AD421E040E06C
:100E000064E080EE96E044D421E040E065E080EECE
:100E100096E03ED421E040E066E080EE96E038D4F3
:100E200021E040E067E080EE96E032D421E040E04F
:100E300060E080E097E02CD421E040E061E080E0D9
:100E400097E026D421E040E062E080E097E020D403
:100E500021E040E066E080E096E01AD421E040E046
:100E600065E080E296E014D421E040E066E080E2B4
:100E700096E00ED421E040E067E080E696E008D4FA
:100E800021E040E066E080E696E002D4E0EEF6E0A5
:100E900051E0568342E0468334E0368388E086831F
:100EA00080E1868320E2268380E4868390E896832F
:100EB000E0E0F7E056834683368380930606E0E25F
:100EC000F6E025838683E0E6F6E0958386830F913E
:100ED0000895CF93DF938091680682958170C82F23
:100EE00080E0D82F8091680683FF9FC082E090E069
:100EF000209168062470C22BC82BD92B80916806DC
:100F000081FF90C028E030E0C22BD32B809168068F
:100F100080FF85C020E130E02C2B3D2B80914806DE
:100F200080FF78C060E650E080E290E040914806A3
:100F300041FF02C0862F952F4091480642FF67C0AF
:100F4000C0E8D0E08C2B9D2B4091480643FF5CC04D
:100F5000C0E0D1E08C2B9D2B4091880640FF51C012
:100F6000C0E0D2E08C2B9D2BEC01C22BD32B8091C7
:100F7000C1209091C220C817D90709F43FC0C0937F
:100F80003221D09333218C279D2780933421909355
:100F9000352120913621309137212C233D232823E0
:100FA0003923232B69F49E012095309582239323C6
:100FB000209138213091392182239323892B21F0EC
:100FC00061E083E20E948B10C093C120D093C220C5
:100FD0000E949713882391F0809132218093E40638
:100FE000809132219091332121E090FF21C0209304
:100FF000050791FD21C082E080930607DF91CF9124
:101000000895C0E0D0E0AECFC0E0D0E0A3CFC0E014
:10101000D0E098CF60E450E080E090E087CF20E01F
:1010200030E07ACF20E030E06FCF80E090E060CF1A
:101030002093060791FFDFCF82E080930507DF91C1
:10104000CF910895C0918806C2FB882780F99091BE
:10105000880695FF02C0C2E001C0C0E0C82B109214
:101060002F218091C0208C2780FF24C081FD26C0C5
:1010700080E18C2B80932F21282F22952F70909127
:1010800030219823922371F4837090E0809590959D
:1010900030E0822393232091312130E08223932377
:1010A000009721F061E080E20E948B10C093C02085
:1010B000189506C081FFFACF80E2DBCF80E3D9CF5D
:1010C0002091680624FB882780F990E0209168062B
:1010D00023FF03C022E030E002C020E030E0409176
:1010E00068064470842B822B932B2091680621FF85
:1010F00003C048E050E002C040E050E0842B952B54
:101100002091680620FF03C0C0E1D0E002C0C0E02B
:10111000D0E09C012C2B3D2B8091480680FF05C020
:1011200060E650E080E290E004C060E450E080E0DF
:1011300090E04091480641FF02C0862F952F4091D4
:10114000480642FF03C0C0E8D0E002C0C0E0D0E0E3
:101150008C2B9D2B4091480643FF03C0C0E0D1E09B
:1011600002C0C0E0D0E08C2B9D2B4091880640FF50
:1011700003C040E052E002C040E050E0EC01C42B6C
:10118000D52BC22BD32B8091C1209091C220C817A0
:10119000D90709F446C0C0933221D09333218C275C
:1011A0009D278093342190933521209136213091D1
:1011B00037212C233D2328233923232B69F49E0137
:1011C0002095309582239323209138213091392125
:1011D00082239323892B19F061E083E29CD7C0938B
:1011E000C120D093C2200E9497138823D1F0809110
:1011F00032218093E406809132219091332190FF37
:1012000004C021E02093050703C021E020930607D6
:1012100091FF04C082E08093050703C082E08093C1
:10122000060718952091680624FB882780F990E02E
:101230002091680623FF03C022E030E002C020E0D6
:1012400030E0409168064470842B822B932B2091D0
:10125000680621FF03C048E050E002C040E050E0D3
:10126000842B952B2091680620FF03C0C0E1D0E0BD
:1012700002C0C0E0D0E09C012C2B3D2B80914806A1
:1012800080FF05C060E650E080E290E004C060E4CA
:1012900050E080E090E04091480641FF02C0862F78
:1012A000952F4091480642FF03C0C0E8D0E002C03D
:1012B000C0E0D0E08C2B9D2B4091480643FF03C03B
:1012C000C0E0D1E002C0C0E0D0E08C2B9D2B40916B
:1012D000880640FF03C040E052E002C040E050E01A
:1012E000EC01C42BD52BC22BD32B8091C120909124
:1012F000C220C817D90709F446C0C0933221D09341
:1013000033218C279D278093342190933521209180
:101310003621309137212C233D2328233923232BB9
:1013200069F49E01209530958223932320913821E2
:101330003091392182239323892B19F061E083E2D4
:10134000EAD6C093C120D093C2200E94971388236D
:10135000D1F0809132218093E406809132219091E6
:10136000332190FF04C021E02093050703C021E052
:101370002093060791FF04C082E08093050703C015
:1013800082E08093060718952091680624FB882741
:1013900080F990E02091680623FF03C022E030E04E
:1013A00002C020E030E0409168064470842B822B1C
:1013B000932B2091680621FF03C048E050E002C053
:1013C00040E050E0842B952B2091680620FF03C05D
:1013D000C0E1D0E002C0C0E0D0E09C012C2B3D2B4E
:1013E0008091480680FF05C060E650E080E290E012
:1013F00004C060E450E080E090E04091480641FF86
:1014000002C0862F952F4091480642FF03C0C0E8D6
:10141000D0E002C0C0E0D0E08C2B9D2B409148066C
:1014200043FF03C0C0E0D1E002C0C0E0D0E08C2B9D
:101430009D2B4091880640FF03C040E052E002C06F
:1014400040E050E0EC01C42BD52BC22BD32B809174
:10145000C1209091C220C817D90709F446C0C09393
:101460003221D09333218C279D2780933421909370
:10147000352120913621309137212C233D232823FB
:101480003923232B69F49E012095309582239323E1
:10149000209138213091392182239323892B19F00F
:1014A00061E083E238D6C093C120D093C2200E946D
:1014B00097138823D1F0809132218093E4068091A4
:1014C00032219091332190FF04C021E02093050741
:1014D00003C021E02093060791FF04C082E08093BF
:1014E000050703C082E08093060718950E94250136
:1014F0008091A20087688093A2007894FFCF222376
:1015000009F45BC030E23093520038E03093500071
:101510003091510033FFFCCF611538E4730738EE8A
:10152000830731E0930709F482C0611534E2730741
:1015300034EF8307910509F47CC0611532E173072C
:101540003AE78307910509F44BC0611539E0730749
:101550003DE38307910509F46EC0603834E87307F2
:101560003EE18307910509F460C0603432E47307FB
:101570003FE08307910509F462C0603231EA7307E6
:1015800037E08307910509F458C0603930ED7307DF
:1015900033E08307910509F454C0683438EE7307CB
:1015A00031E08307910509F44EC06432744F810520
:1015B000910509F04AC084E414C032E2309352002D
:1015C0003AE0309350003091510031FFFCCF309120
:1015D000510033FDA1CF3091510033FFF8CF9CCFA4
:1015E0008CE098ED94BF222399F023E020934000F3
:1015F00094BF80934100442329F088ED84BF81E0AB
:101600008093420088ED84BF81E08093800008953C
:1016100021E02093400094BF8093410094BF82E07A
:101620008093560020936000E6CF8CE1DACF80E013
:10163000D8CF84E0D6CF84E1D4CF8CE2D2CF84E27D
:10164000D0CF84E3CECF8CE3CCCF80E0089588ED7B
:1016500084BF81E080938000089588ED84BF83E09B
:1016600080938000FFCFFC01308181E090E0062E66
:1016700001C0880F0A94EAF78095832380837096CF
:10168000E60FF11D8081422B807C482B408308951A
:10169000FC01308181E090E0062E01C0880F0A94A1
:1016A000EAF7382B30837096E60FF11D8081807C3D
:1016B000842B8083211103C08081876080830895FB
:1016C0000F93FC013185842F90E0880F991FA3E0D0
:1016D000B0E0082E01C0AA0F0A94EAF7A095A32350
:1016E000082E01C0660F0A94EAF7A62BA1874111C4
:1016F0000FC00023A9F02287248581E090E0042E0A
:1017000001C0880F0A94EAF7282B24870F910895C7
:10171000413091F7011108C08385822B8387ECCF7C
:101720008285822B8287E8CF2387E6CFFC01108257
:101730008CE081874150510946A357A326836083DB
:1017400008952091CF0127FDFCCF8093C001909395
:10175000C1011092C20186E08093CA0188ED84BF66
:1017600081E08093CB018091C40108952091CF0145
:1017700027FDFCCF2091CF0121FF08C026E3209355
:10178000CA0128ED24BF21E02093CB0123E320935D
:10179000CA018093C0019093C1011092C20160936D
:1017A000C40185E38093CA0188ED84BF81E0809302
:1017B000CB010895FF920F931F93CF93DF938C017A
:1017C000C7E0D0E0F12C08C0F1100BC0CE01CEDF95
:1017D0002196C032D10571F0F80161918F0161113C
:1017E000F3CF60E0CE01C2DFFF24F3942196C03234
:1017F000D10591F7DF91CF911F910F91FF9008953F
:10180000CF93962F10922821803208F47FC0282F82
:1018100030E020523109F901E05BFF4D5081220F89
:10182000331FF901E45CFF4DC081F901E85DFF4D14
:10183000208131812093C9203093CA2090933F2189
:10184000252F2F702C9FC02D1124EAE0EC0FE09380
:101850004021809341212FEF2093422150615093EA
:10186000432141116BC08091C5209091C620A09169
:10187000C720B091C8208093442190934521A09324
:101880004621B09347212091C3203091C42020935A
:101890004821309349218E2F90E08E3F9105A4F589
:1018A0002091C9203091CA2040E0842F90E0F901B6
:1018B000E80FF91F5081FC01E65BFE4D50834F5F3E
:1018C0004C13F3CF209140212E5F30E0215031099D
:1018D000121613060CF09EC080E090E040E050E04D
:1018E000FC01E15CFE4D8081580F4F5F842F90E03A
:1018F00082179307ACF3F901E15CFE4D50838091B0
:101900005A20813009F46BC0CF9108958F30E0F7F1
:10191000282F30E0F901E255FF4D5081220F331F8F
:10192000F901E057FF4DC081F901EE58FF4D2081CC
:1019300031812093C9203093CA2080CF20914C0858
:101940004091DD205091DE206091DF207091E020F9
:1019500020FF21C04F5F5F4F6F4F7F4F4093442167
:101960005093452160934621709347212091600850
:10197000309161082093482130934921883009F043
:101980008ACF933009F087CF1092482110924921D5
:10199000E091402180CF40934421509345216093B2
:1019A000462170934721209160083091610820936F
:1019B000482130934921F091CE20F03DF9F62F30A7
:1019C0003105E0F64F5F5F4F6F4F7F4F40934421EB
:1019D000509345216093462170934721CFCF83E8F0
:1019E0008093A200C091A30B9091A30B9C7F909336
:1019F000A30B609140216E5F8FE391E2B3D790918A
:101A0000A30B8C2F8370892B8093A30B87E8809383
:101A1000A2007ACF50E06FCFCF93E091423A2E2FC1
:101A200030E024303105BCF090E020E030E0F901F6
:101A3000EA5BF54C4081F901E45BF54C40839F5F24
:101A4000292F30E0E091423A4E2F50E043505109A7
:101A50002417350764F38093413AEA5FE093423AF2
:101A60008091453A80618093453A80914C0880FF8F
:101A70005FC08091DD209091DE20A091DF20B091A9
:101A8000E020AC01BD014F5F5F4F6F4F7F4F409330
:101A9000463A5093473A6093483A7093493A2091B6
:101AA00060083091610820934A3A30934B3A209174
:101AB00028212223B9F020914C0820FF69C001960B
:101AC000A11DB11D8093463A9093473AA093483A9E
:101AD000B093493A809160089091610880934A3AA6
:101AE00090934B3AF0E0EE5BF54C10826091423AF5
:101AF00040E0262F30E080E090E0F901EE5BF54C0D
:101B0000DC01AF5BB54C20818C91280F20834F5FA7
:101B10006091423A262F30E0842F90E02817390751
:101B200064F780915A20813009F457C0CF9108950D
:101B30008091DD209091DE20A091DF20B091E02007
:101B40008093463A9093473AA093483AB093493AE3
:101B5000209160083091610820934A3A30934B3AC3
:101B60004091CE20403D09F0A2CF2F30310508F042
:101B70009ECFAC01BD014F5F5F4F6F4F7F4F4093D2
:101B8000463A5093473A6093483A7093493A8FCF18
:101B90008093463A9093473AA093483AB093493A93
:101BA000209160083091610820934A3A30934B3A73
:101BB0004091CE20403D09F095CF2F30310508F0FF
:101BC00091CF0196A11DB11D8093463A9093473A5B
:101BD000A093483AB093493A85CF83E88093A20016
:101BE000C091A30B9091A30B9C7F9093A30B6E5F6E
:101BF00081E49AE3B7D69091A30B8C2F8370892B45
:101C00008093A30B87E88093A200CF9108953F9221
:101C10004F925F926F927F928F929F92AF92BF92FC
:101C2000CF92DF92EF92FF920F931F93CF93DF93A8
:101C3000CDB7DEB73C01962E142FF22E4D885E886C
:101C400006DD21E041E060E078E488EE91E057DCD9
:101C500081E0809348006092D4207092D5209092C9
:101C6000D6201093D720E092D8208093D92089E005
:101C70008093DA20F092DB200093DC201092DD20AC
:101C80001092DE201092DF201092E0201092E120CE
:101C90001092E22082E090E054DD382E83E090E064
:101CA00050DD982E8FEF981609F4CAC0F31409F48A
:101CB0009CC06FED80E090E059DD6F2D82E090E0F8
:101CC00055DD61E083E090E051DD0E944D0180E050
:101CD00090E037DD8E3E09F493C080E68093E320E8
:101CE00080E48093E4200E9461020E946D02A09231
:101CF000D220B092D320C092D020D092D120809216
:101D0000CF2087E090E01DDD8F3F09F4D0C005EEC5
:101D100010E2F6EFEF2EFF24FA94C701845D9042A3
:101D20007C01C701800F911F0CDDF80181938F01A9
:101D3000F0E20E3F1F07A9F789E1E5EEF0E2A2E02D
:101D4000B1E201900D928A95E1F784E090E0F9DC30
:101D5000082F10E00093FE201093FF2085E090E014
:101D6000F0DC302F2227282B2093FE203093FF20F9
:101D700021E042E15AE767E080E498E0D7DCE091B7
:101D8000CE2081E08E0F8093CE20F0E0E659FF4D0B
:101D9000808190E00197809368089093690881E0C2
:101DA0008093470820E040E066E080E096E070DC49
:101DB00080E48093050640E060E081E090E0BDD4DF
:101DC0001BD58DED90E2DF91CF911F910F91FF9088
:101DD000EF90DF90CF90BF90AF909F908F907F90CB
:101DE0006F905F904F903F90EBC691E0991261CF5A
:101DF0000E944D0180E090E0A4DC8E3E09F06DCFA2
:101E000081E090E09EDC8093E320A114B10491F086
:101E1000760185010C0D1D1DA0E26A2E712CC301F7
:101E200090DCF70181937F01FFEF6F1A7F0AE016C4
:101E3000F106A9F780E88093E4200E946D0257CF55
:101E40006F2D82E090E092DC61E083E090E08EDC38
:101E500082E090E076DC382E83E090E072DC982E11
:101E60008201B7E06B2E712CE12C0BC0E1100EC08B
:101E7000C3017CDCFFEF6F1A7F0A80E268167104F1
:101E800089F0F80161918F016111F0CF60E0C30129
:101E90006DDCEE24E394FFEF6F1A7F0A80E2681690
:101EA000710479F76FED80E090E060DCFFCE7201A5
:101EB00007E010E0D12C0AC0D1100DC0C80156DCDB
:101EC0000F5F1F4F0032110509F421CFF701619117
:101ED0007F016111F1CF60E0C80148DCDD24D394BB
:101EE000EFCF0E944C0120E480E092EEA4E0B0E04D
:101EF0000197A109B1090097A105B105C9F7209380
:101F00000706F2CF8091DD209091DE20A091DF20A6
:101F1000B091E0200196A11DB11D8093DD2090932A
:101F2000DE20A093DF20B093E020809126218F5FF8
:101F3000809326218EE090E0809368089093690852
:101F400081E08093CE200E94B40280914C08806191
:101F500080934C080E94AD030E94B3034091E3209C
:101F600047FD03C0842F8370B3C0842F83708130FA
:101F700009F0AEC0109228218DED90E28093C92027
:101F80009093CA2083E080933F218EE0809340218C
:101F900088E0809341218FEF8093422184E18093F8
:101FA000432180914C0880FF18C08091DD209091E2
:101FB000DE20A091DF20B091E0200196A11DB11D8F
:101FC0008093442190934521A0934621B0934721CB
:101FD000809160089091610826C08091DD209091E9
:101FE000DE20A091DF20B091E020809344219093E7
:101FF0004521A0934621B09347212091600830915C
:1020000061085091CE20503D71F42F30310558F4C5
:102010000196A11DB11D8093442190934521A09369
:102020004621B09347211092482110924921809176
:10203000DD209091DE20A091DF20B091E020809300
:102040004A2190934B21A0934C21B0934D21209194
:1020500040212E5F30E0215031091216130684F41E
:1020600050E060E080E090E0FC01E15CFE4D8081AA
:10207000680F5F5F852F90E082179307ACF301C074
:1020800060E0F901E15CFE4D608380915A2081306F
:1020900021F583E88093A200C091A30B9091A30B3C
:1020A0009C7F9093A30B609140216E5F8FE391E240
:1020B00059D49091A30B8C2F8370892B8093A30B01
:1020C00087E88093A2004091E320842F837000C0B2
:1020D000882339F0813019F400C092E003C091E008
:1020E00001C094E08091DD20892321F080E4809379
:1020F000060605C046FF03C080E4809305060E94E3
:10210000AC0380914C0884FF05C08091CD208111E3
:1021100001C0E7DE18959091E3209370913009F0AB
:102120000895462F63E06CCBCF92DF92FF920F931E
:102130001F93CF93DF931F921F92CDB7DEB78F30DF
:1021400040F4E82FF0E0DF01A255BF4D9C919617B7
:1021500059F080E00F900F90DF91CF911F910F9178
:10216000FF90DF90CF900895EE0FFF1FE057FF4DD7
:10217000608171816217730761F7883009F47FC04D
:102180008A30D1F18B3011F18C3009F4A1C08D303F
:1021900001F7FA0180819181019609F4BFC0809115
:1021A00001218823B1F2FA01608185E090E0498342
:1021B0005A83DCDA49815A81FA01618184E090E036
:1021C000D5DA83E08093CD2081E0C4CFFA0180810D
:1021D000813009F4B7C0823009F4A4C0843009F416
:1021E000C2C0883089F76FEF87E090E0BFDA83E004
:1021F0008093CD2081E0AECFFA01808186FD04C0BE
:1022000080E48093060680811091E320837F809391
:10221000E320FA01808185FF41C015FF76C083FF6E
:1022200010C081E080931E2110921C2180931D21FB
:1022300010921B218091E320877F8093E320FA0195
:102240008081837079F4812F837009F4BDCF10925F
:102250001E2149835A830E94B10249815A81FA01A1
:1022600080818370813029F1833009F0ADCF137004
:10227000133009F4A9CF0E94B30281E06BCFFA01B9
:1022800080819181A281B3818093DD209093DE20B3
:10229000A093DF20B093E02081E05CCF15FFBFCF9B
:1022A00049835A830E94990249815A81FA018081A7
:1022B000B6CF812F8370813009F486CF49835A834A
:1022C0000E94B20249815A81FA0180818370CCCF89
:1022D0008A0187E0C82ED12CF12C0CC0F1100FC060
:1022E000C60144DAFFEFCF1ADF0A20E2C216D1049A
:1022F00009F467CFF80161918F016111EFCF60E0C0
:10230000C60134DAFF24F394EDCF49835A830E9447
:10231000740249815A81FA01808181CF81E08093E2
:10232000012118CF80E090E049835A830ADA49817D
:102330005A818E3E09F00DCF83E08093CD20FA01C3
:1023400080814CCF82E091E249835A8333DA6FED8A
:1023500080E090E00BDA83E08093CD2049815A81C0
:10236000FA01808138CF6EEE80E090E049835A8395
:10237000FDD96091E32081E090E0F8D98091D220EE
:102380009091D32049815A81892BC9F000E010E057
:10239000E091D020F091D120E00FF11F6081C801C1
:1023A000809649835A83E2D90F5F1F4F8091D220D4
:1023B0009091D32049815A810817190748F383E087
:1023C0008093CD20FA0180810CCF0E94B4028091CD
:1023D000680890916908E091CE2021E02E0F2093AB
:1023E000CE20E770F0E0E659FF4D3081830F911D5C
:1023F000809368089093690820FD2AC180915A2033
:10240000813069F48093250783E88093A20080914E
:10241000A30B8F7C8093A30B87E88093A20080910D
:102420002521811103C0809124210FC08150809308
:102430002521882319F08091242107C0109225219D
:102440001092242110921F219FC0882309F49CC060
:10245000A0913F22B09140228091423A8F3F59F0A3
:102460001091433A5091443A0091453A36E4E32EB4
:102470003AE3F32E0AC01091453A5091463A009142
:10248000473A28E4E22E2AE3F22EFD01319681F04C
:1024900090E040E020E030E0E901CF5BD54C2881BE
:1024A000420F9F5F292F30E02E173F07A8F301C08E
:1024B00040E0EF5BF54C9081491364C05F3F09F049
:1024C00061C09091413A913099F51D31B0F41F30BF
:1024D00008F022C1E12FF0E0E255FF4D9081091391
:1024E0001BC1193009F013C18091600890916108F7
:1024F0008093E1209093E2200AC1602F812F0E94F7
:10250000BA039091E32094FD3DC0811103C08091F6
:10251000423A05C041E061E0812F72D933C0109288
:10252000282190E0883F91056CF589E075DA2AC092
:10253000CD010497202F2F70622F70E010D41D3131
:1025400030F49B01A701602F812FEEDD06C09B01B7
:10255000A701602F812F0E94D3039091E32094FD67
:1025600011C0882329F041E062E0812F49D90AC0D7
:10257000109228218091423A90E0883F910514F40E
:102580008AE04ADA1092242180915A20813009F0A1
:102590005CC08091080786FF46C08091CB20909157
:1025A000CC200196883B2BE0920729F08093CB202A
:1025B0009093CC203CC01092CB201092CC208091E4
:1025C000E320982F93709130E9F486FD03C090E4E6
:1025D00090930606982F907F9093E32083FF0BC083
:1025E00010921C2181E080931D2110921B21892FC4
:1025F000877F8093E32010921E210E94B102909168
:102600005A2001C091E010922221109223211092B1
:102610002021109221218091A30B8C7F8093A30B0A
:10262000913029F012C01092CB201092CC2083E878
:102630008093A2008091A30B80638093A30B87E813
:102640008093A20081E0809326070E94B20302C01B
:102650000E94B3038091CD20882339F0815080936C
:10266000CD20811102C00E942D0B80911D21882355
:10267000E1F08091CE2083708230B9F480911B21EB
:102680008F3060F4893009F04CC02091600830919F
:1026900061082093E1203093E22043C08F5F809354
:1026A0001B218C3111F410921D2180911E21882351
:1026B00009F18091CE208370E9F480911C21E82FEC
:1026C000F0E0E05BFF4D6081805E0E94BA038823EA
:1026D00031F080911C2141E061E0805E91D88091D1
:1026E0001C218F5F80931C219091CF20891302C001
:1026F00010921E210E94AC0380914C0884FF05C0FB
:102700008091CD20811101C0ECDB189510C0809123
:10271000E32084FFFFCE36CF9091E32094FFFFCEDD
:1027200031CF41E061E06CD880911B21B7CF80911F
:10273000E32085FB882780F90895FF920F931F936C
:10274000CF93DF931F921F92CDB7DEB789839A8311
:10275000F62E142F20E040E060E080E297E00E9437
:10276000480B20E040E066E080E097E00E94330BF9
:1027700001E020E440E063E080E097E00E94600B2D
:1027800081E08093260783E08093A50B8981809365
:10279000A60B8F2D90E18902B00111248A818F70E0
:1027A000862B8093A70B112329F08091A40B8460C2
:1027B0008093A40B88E08093A50620E040E063E0CE
:1027C00080EA96E00E94480B20E040E062E080EA68
:1027D00096E00E94330B8091080786FF05C0809128
:1027E000A30B8C7F8093A30B0F900F90DF91CF9161
:1027F0001F910F91FF900895E0EAFBE084818861CA
:10280000848380EE818383818063838308951F9214
:102810000F920FB60F92112408B60F9218BE09B688
:102820000F9219BE0BB60F921BBE2F933F934F937F
:102830005F936F937F938F939F93AF93BF93EF9328
:10284000FF930E94B6032091222130912321C901D8
:1028500001968093222190932321F901EF5BFD4D96
:1028600020812093A00B811528E1920729F1209166
:102870002021309121212817390729F48091A30BB9
:102880008C7F8093A30B0E94B703FF91EF91BF91C0
:10289000AF919F918F917F916F915F914F913F91F8
:1028A0002F910F900BBE0F9009BE0F9008BE0F9096
:1028B0000FBE0F901F901895109222211092232185
:1028C00080E090E0D4CF1F920F920FB60F921124A8
:1028D00008B60F9218BE09B60F9219BE0BB60F922A
:1028E0001BBE2F933F934F935F936F937F938F9371
:1028F0009F93AF93BF93EF93FF930E94B803809190
:10290000080786FD29C02091222130912321809142
:102910002021909121212817390729F08091A30BBC
:1029200083608093A30B0E94B903FF91EF91BF9145
:10293000AF919F918F917F916F915F914F913F9157
:102940002F910F900BBE0F9009BE0F9008BE0F90F5
:102950000FBE0F901F9018958091A30B8C7F8093D2
:10296000A30BE1CFBF92CF92DF92EF92FF920F9332
:102970001F93CF93DF936C01B62E8091080786FDDD
:1029800005C08091A30B83608093A30B009120214D
:1029900010912121C0E0D8E1C01BD10BEB2CF12C10
:1029A000CE15DF0558F1A701B601C8018F5B9D4D1B
:1029B000EAD18091222190912321E00EF11EE09234
:1029C0002021F0922121E11428E1F20609F446C009
:1029D00008171907A8F5E816F90690F18FEFE81A1D
:1029E000F80AE0922221F0922321E11428E1F20674
:1029F00039F5109222211092232122C0AE01B60196
:102A0000C8018F5B9D4DBFD1BC1AEB2CF12CBE01D0
:102A10006C0D7D1DA70181E492E2B5D18091222148
:102A200090912321E0922021F0922121081719078B
:102A300088F42FEFE21AF20AE0922221F092232189
:102A4000DF91CF911F910F91FF90EF90DF90CF908A
:102A5000BF900895E816F90660F7F2CF1092202192
:102A600010922121892B61F781E090E0809322214F
:102A700090932321E5CF1F920F920FB60F9211244E
:102A800008B60F9218BE09B60F9219BE0BB60F9278
:102A90001BBE2F933F934F935F936F937F938F93BF
:102AA0009F93AF93BF93EF93FF930E94B4039091D2
:102AB000A00BE0911F2181E08E0F80931F21F0E099
:102AC000EF5BF54C9083813019F1843049F190E04F
:102AD00020913F22309140228217930779F10E9482
:102AE000B503FF91EF91BF91AF919F918F917F912E
:102AF0006F915F914F913F912F910F900BBE0F906F
:102B000009BE0F9008BE0F900FBE0F901F90189532
:102B10008091413A81508230D0F110921F21DFCF55
:102B20008091423A8F3F01F190E08E3F9105A9F3E9
:102B3000029680933F2290934022D1CF20915A2039
:102B4000213061F12091423A2F3F29F122E030E01B
:102B5000821B930B80933F229093402210921F215F
:102B600081E080932421BBCF8091423A9091433AF7
:102B700004968F3F910509F080F68091433A909139
:102B8000443A049680933F2290934022A8CF82E358
:102B900080932521A4CF24E030E0DACF20932507CD
:102BA00083E88093A2008091A30B8F7C8093A30B7A
:102BB00087E88093A20080913F2290914022C2CF6B
:102BC000CF93DF931F921F92CDB7DEB723E130E0A2
:102BD00029833A838093292190932A2183E080934B
:102BE000B50889818093B6088A818F708093B70871
:102BF00020E048E166E080E496E00E94330B80E14B
:102C00008093B408E3EBF8E08081806380830F90C9
:102C10000F90DF91CF9108951F920F920FB60F92F0
:102C2000112408B60F9218BE09B60F9219BE0BB642
:102C30000F921BBE2F938F939F93AF93BF93EF93EE
:102C4000FF938091B0088A3AE9F18F3A09F44FC0B6
:102C500090912721923009F44EC008F478C0943046
:102C600009F455C008F44DC0953079F580932E21B4
:102C700010922721809126218A3008F44EC082EFDD
:102C800099E7809360089093610881E09AE78093C8
:102C900068089093690881E08093282126E02093BA
:102CA0005B20E0912921F0912A2180912B219091A4
:102CB0002C21A0912D21B0912E2180839183A2837C
:102CC000B38303C081E080932721FF91EF91BF91EF
:102CD000AF919F918F912F910F900BBE0F9009BED6
:102CE0000F9008BE0F900FBE0F901F90189582E0B6
:102CF00080932721EACF80932B2183E080932721A3
:102D0000E4CF80932C2184E080932721DECF809331
:102D10002D2185E080932721D8CF10922621209164
:102D20005B2089EF99E7821B91098093600890935B
:102D3000610881E09AE7809368089093690881E0D0
:102D400080932821222309F4ACCF2150A8CF9923C6
:102D500019F0913009F0B9CF10922721B6CFAA1BF4
:102D6000BB1B51E107C0AA1FBB1FA617B70710F076
:102D7000A61BB70B881F991F5A95A9F780959095A8
:102D8000BC01CD010895FB01DC0102C001900D9250
:0C2D900041505040D8F70895F894FFCF50
:102D9C006005F303F903FF0301040A043704090572
:102DAC001D04310469056205630564056505660546
:102DBC0067056805130430042F213021312132219D
:102DCC00362138213A213B213C213E2101000100D2
:102DDC0001000200010001000100010001000100DE
:102DEC00010101020202010182010107496E7075A5
:102DFC0074457870616E646572000F10100F100FBF
:102E0C001010D420D620D720D820D920DA20DB20CF
:102E1C00DC20DD20E120E320E420E520FE20002161
:102E2C00010001000100010001000100010001008E
:102E3C000100010001000100190001000100020164
:0E2E4C00010101010101040201010102010066
:00000001FF
