:10000000FDC0000021C100000C9434081DC1000097
:100010001BC1000019C1000017C1000015C100007C
:1000200013C1000011C100000FC100000DC100008C
:100030000BC1000009C1000007C1000005C100009C
:1000400003C1000001C10000FFC00000FDC00000AE
:100050000C945B0EF9C000000C94BC10F5C00000BD
:10006000F3C00000F1C00000EFC00000EDC00000D0
:100070000C94DE14E9C00000E7C00000E5C00000F9
:10008000E3C00000E1C00000DFC00000DDC00000F0
:10009000DBC00000D9C00000D7C00000D5C0000000
:1000A000D3C00000D1C00000CFC0000004C70000D2
:1000B0000C94E608C9C00000C7C00000C5C000001D
:1000C000C3C00000C1C00000BFC00000BDC0000030
:1000D000BBC00000B9C00000B7C00000B5C0000040
:1000E000B3C00000B1C00000AFC00000ADC0000050
:1000F000ABC00000A9C00000A7C00000A5C0000060
:1001000001C70000A1C000009FC000009DC000000A
:100110009BC0000099C0000097C0000095C000007F
:1001200093C0000091C000008FC000008DC000008F
:100130008BC0000089C0000087C0000085C000009F
:1001400083C0000081C000007FC000007DC00000AF
:100150007BC0000079C0000077C0000075C00000BF
:1001600073C0000071C000006FC000006DC00000CF
:100170006BC0000069C0000067C0000065C00000DF
:1001800063C0000061C000000C9435135DC0000026
:100190005BC0000059C0000057C0000055C00000FF
:1001A00053C0000051C000004FC000004DC000000F
:1001B0004BC0000049C0000047C0000045C000001F
:1001C00043C0000041C000003FC000003DC000002F
:1001D0003BC0000039C0000037C000000C940D1473
:1001E0000C94D91231C000002FC000002DC00000B7
:1001F0002BC0000029C0000027C0000011241FBE32
:10020000CFEFCDBFDFE3DEBF00E00CBF18BE19BEED
:100210001ABE1BBE10E2A0E0B0E2E4E3FBE200E0A5
:100220000BBF02C007900D92A63AB107D9F71BBECB
:100230002BE3A6EAB0E201C01D92A432B207E1F7B7
:100240000E9498090C949815DBCE8F92AF92BF92C2
:10025000CF92DF92EF920F938AE490E29F938F9375
:1002600088E0882E9DE0A92EB12C25E1C22E21E246
:10027000D22EE12C00E021E040E061E082E594E054
:100280000E94E00C0F900F900F91EF90DF90CF90B5
:10029000BF90AF908F900895089555D380918806B0
:1002A00083FD0CC142E031E022E094E0E8E070E13F
:1002B00060E280E450E83093E506AFEFB1EEF4E0A1
:1002C000A150B040F040E1F700C000003093E606D6
:1002D0002093E506AFEFB1EEF4E0A150B040F0405E
:1002E000E1F700C000002093E6069093E506AFEF2B
:1002F000B1EEF4E0A150B040F040E1F700C00000E2
:100300009093E606E093E506AFEFB1EEF4E0A1507E
:10031000B040F040E1F700C00000E093E6067093C3
:10032000E506AFEFB1EEF4E0A150B040F040E1F7E8
:1003300000C000007093E60690930507AFEFB1EEA2
:10034000F4E0A150B040F040E1F700C0000090930D
:1003500006076093E506AFEFB1EEF4E0A150B040C0
:10036000F040E1F700C000006093E6068093E506E8
:10037000AFEFB1EEF4E0A150B040F040E1F700C0C3
:1003800000008093E6065093E506AFEFB1EEF4E08F
:10039000A150B040F040E1F700C000005093E606E5
:1003A00030930507AFEFB1EEF4E0A150B040F0405C
:1003B000E1F700C000003093060720930507AFEF78
:1003C000B1EEF4E0A150B040F040E1F700C0000011
:1003D0002093060780930506AFEFB1EEF4E0A1503D
:1003E000B040F040E1F700C00000809306064150A5
:1003F00009F061CF2FEF83EC99E0215080409040CD
:10040000E1F700C0000042E031E022E094E0E8E0E3
:1004100070E160E280E450E83093E5062093E50661
:100420009093E506E093E5067093E5069093050743
:100430006093E5068093E5065093E5063093050743
:100440002093050780930506AFEFB3ECF9E0A150C8
:10045000B040F040E1F700C000003093E606209382
:10046000E6069093E606E093E6067093E606909320
:1004700006076093E6068093E6065093E6063093FF
:1004800006072093060780930606AFEFB3ECF9E06A
:10049000A150B040F040E1F700C00000415009F029
:1004A000BBCF2FEF83ED90E3215080409040E1F7E8
:1004B00000C0000084E08093050708950E944A0E62
:1004C000F1CEE5E1F1E28FEF93E0858396838783B8
:1004D0009087089537D48EE191E25AD181E291E27A
:1004E00051C180912121811112C0809116218093E8
:1004F000E406809116219091172121E090FD0BC018
:100500002093060791FD0BC082E08093060784E0EC
:100510008093050708952093050791FFF5CF82E0AA
:100520008093050784E0809305070895E0EEF6E0E8
:1005300021E0268392E0968384E0868338E0368348
:1005400030E1368330E2368330E4368330E8368378
:10055000E0E0F7E026839683868308950895089562
:10056000089590911E21923081F0913009F0089504
:100570008091A6209091A7209C012F5F3F4F209350
:10058000A6203093A72080FF94C08091680684FB4A
:10059000442740F950E08091680683FD76C020E052
:1005A00030E0809168068470BA01682BCB01822B01
:1005B000932B2091680621FF5DC028E030E0822B5C
:1005C000932B2091680620FF5DC020E130E0822B54
:1005D000932B80931621909317212091480620FF9A
:1005E00044C060E650E020E230E04091480641FF20
:1005F00002C0262F352F4091480642FF4FC040E8E9
:1006000050E0242B352B4091480643FF44C040E086
:1006100051E0242B352B4091880640FF39C040E043
:1006200052E0242B352B822B932B80931621909311
:10063000172161E081E20E94620F0E946912882303
:1006400009F495CF809116218093E40680911621BC
:100650009091172121E090FD24C02093060791FD81
:1006600024C082E080930607089560E450E020E013
:1006700030E0BBCF20E030E0822B932B2091680646
:1006800020FDA3CF20E030E0A2CF22E030E089CFF0
:1006900040E050E0C6CF40E050E0BBCF40E050E04B
:1006A000B0CF2093050791FFDCCF82E08093050750
:1006B000089508950895089508951092A62010921F
:1006C000A720089508950895089508950895089518
:1006D00090EE980F983040F490E08097FC01E05C39
:1006E000FF4D2081261711F080E00895880F991F93
:1006F000FC01E05FFF4D0190F081E02D199581E054
:10070000089590EE980F983048F4E82FF0E0B097F5
:10071000DF01A05CBF4D9C91961711F080E0089519
:10072000EE0FFF1FDF01A05DBF4D8D919C918217E1
:100730009307A1F7E050F04E0190F081E02DCA013F
:10074000199480E00895FC018081918180931A21A1
:1007500090931B2181E00895FC0180819181809319
:100760001C2190931D2181E00895FC0180818093DC
:100770001F2181E00895FC0180818093202181E088
:1007800008950895FC0180818093212181E00895DE
:100790000F93CF93FC01C081CC2319F1C330E8F44F
:1007A000109218211092192101E020E040E060E051
:1007B00080E696E0A7D620E040E060E080E496E0A6
:1007C000A1D620E041E060E080E896E09BD6C093AF
:1007D000212181E0CF910F91089580E0CF910F9179
:1007E00008958091680684FB442740F950E0809189
:1007F000680683FD88C020E030E080916806847040
:10080000BA01682BCB01822B932B2091680621FF24
:1008100085C028E030E0822B932B2091680620FFD2
:100820007AC020E130E0822B932B8093A920909313
:10083000AA202091480620FF69C060E650E020E22F
:1008400030E04091480641FF02C0262F352F4091ED
:10085000480642FF6CC040E850E0242B352B409105
:10086000480643FF61C040E051E0242B352B409106
:10087000880640FF56C040E052E0242B352B822BE7
:10088000932B8093A9209093AA2000E020E140E0E0
:1008900061E080E696E036D628E040E061E080E660
:1008A00096E030D624E040E061E080E696E02AD68B
:1008B00022E040E061E080E696E024D621E040E0DE
:1008C00061E080E696E01ED621E040E061E080E451
:1008D00096E018D622E040E061E080E496E012D68F
:1008E00024E040E061E080E496E00CD628E040E0BF
:1008F00061E080E496E006D621E041E061E080E836
:1009000096E000D664CF22E030E077CF60E450E09C
:1009100020E030E096CF20E030E085CF20E030E0EE
:100920007ACF40E050E0A9CF40E050E09ECF40E0D9
:1009300050E093CF80E008950895089508950895B4
:100940000895089508950F9320E040E062E080E864
:1009500096E0ABD520E040E065E080E896E0A5D5E4
:1009600020E048E163E080E896E09FD520E040E0A9
:1009700064E080E696E099D520E040E063E080E620
:1009800096E093D520E040E062E080E696E08DD5E9
:1009900020E040E061E080E696E087D520E040E09E
:1009A00060E080E696E081D520E040E060E080E411
:1009B00096E07BD520E040E061E080E496E075D5EC
:1009C00020E040E062E080E496E06FD520E040E087
:1009D00063E080E496E069D520E040E060E080E8F4
:1009E00096E063D520E040E160E080E096E05DD5F0
:1009F00020E040E161E080E096E057D520E040E172
:100A000062E080E096E051D520E040E163E080E0E4
:100A100096E04BD520E040E164E080E096E045D5EB
:100A200020E040E165E080E096E03FD520E040E155
:100A300067E080E096E039D520E040E160E080E2C8
:100A400096E033D520E040E161E080E296E02DD5EC
:100A500020E040E162E080E296E027D520E040E13E
:100A600063E080E296E021D520E040E164E080E2AE
:100A700096E01BD520E040E167E080E296E015D5E6
:100A800020E040E164E080E496E00FD520E040E122
:100A900065E080E496E009D520E040E165E080E68D
:100AA00096E003D520E040E161E080E896E0FDD4E7
:100AB00020E040E166E080E896E0F7D420E040E105
:100AC00067E080E896E0F1D420E040E160E080EA71
:100AD00096E0EBD420E040E161E080EA96E0E5D4E6
:100AE00020E040E164E080EA96E0DFD420E040E1ED
:100AF00065E080EA96E0D9D420E040E166E080EA53
:100B000096E0D3D420E040E167E080EA96E0CDD4DF
:100B100020E040E163E080E097E0C7D420E040E1DE
:100B200064E080E097E0C1D420E040E165E080E04F
:100B300097E0BBD420E040E167E080E097E0B5D4E7
:100B400020E040E163E080E297E0AFD420E040E1C4
:100B500064E080E297E0A9D420E040E165E080E233
:100B600097E0A3D420E040E166E080E297E09DD4E6
:100B700020E040E167E080E297E097D420E040E1A8
:100B800060E080EC97E091D420E040E161E080EC0F
:100B900097E08BD420E040E162E080EC97E085D4E0
:100BA00020E040E163E080EC97E07FD400E024E0C7
:100BB00040E061E080E896E0A5D420E240E061E01A
:100BC00080E896E09FD420E140E061E080E696E096
:100BD00099D428E040E061E080E696E093D424E0F8
:100BE00040E061E080E696E08DD422E040E061E004
:100BF00080E696E087D421E040E061E080E696E080
:100C000081D421E040E061E080E496E07BD422E002
:100C100040E061E080E496E075D424E040E061E0EB
:100C200080E496E06FD428E040E061E080E496E064
:100C300069D421E041E061E080E896E063D421E0FE
:100C400040E060E080EE96E045D421E040E061E0E5
:100C500080EE96E03FD421E040E062E080EE96E056
:100C600039D421E040E063E080EE96E033D421E027
:100C700040E064E080EE96E02DD421E040E065E0C5
:100C800080EE96E027D421E040E066E080EE96E03A
:100C900021D421E040E067E080EE96E01BD421E023
:100CA00040E060E080E097E015D421E040E061E0C2
:100CB00080E097E00FD421E040E062E080E097E040
:100CC00009D421E040E066E080E096E003D421E032
:100CD00040E065E080E296E0FDD321E040E066E0A0
:100CE00080E296E0F7D321E040E067E080E696E01E
:100CF000F1D321E040E066E080E696E0EBD3E0EE61
:100D0000F6E051E0568342E0468334E0368388E0E3
:100D1000868380E1868320E2268380E4868390E8D0
:100D20009683E0E0F7E05683468336838093060699
:100D3000E0E2F6E025838683E0E6F6E095838683AD
:100D40000F910895CF93DF9380916806829581700B
:100D5000C82F80E0D82F8091680683FF9FC082E073
:100D600090E0209168062470C22BC82BD92B80916B
:100D7000680681FF90C028E030E0C22BD32B809121
:100D8000680680FF85C020E130E02C2B3D2B809150
:100D9000480680FF78C060E650E080E290E0409135
:100DA000480641FF02C0862F952F4091480642FF1A
:100DB00067C0C0E8D0E08C2B9D2B4091480643FFD4
:100DC0005CC0C0E0D1E08C2B9D2B4091880640FF99
:100DD00051C0C0E0D2E08C2B9D2BEC01C22BD32B59
:100DE0008091A9209091AA20C817D90709F43FC083
:100DF000C0931621D09317218C279D27809318210B
:100E00009093192120911A2130911B212C233D23ED
:100E100028233923232B69F49E01209530958223C2
:100E2000932320911C2130911D2182239323892B10
:100E300021F061E081E20E94620FC093A920D0936B
:100E4000AA200E946912882391F080911621809334
:100E5000E406809116219091172121E090FF21C096
:100E60002093050791FD21C082E080930607DF9162
:100E7000CF910895C0E0D0E0AECFC0E0D0E0A3CFE6
:100E8000C0E0D0E098CF60E450E080E090E087CF11
:100E900020E030E07ACF20E030E06FCF80E090E0DB
:100EA00060CF2093060791FFDFCF82E08093050794
:100EB000DF91CF910895C0918806C2FB882780F901
:100EC0009091880695FF02C0C2E001C0C0E0C82B27
:100ED000109215218091A8208C2780FF0DC081FDE4
:100EE0000FC080E18C2B8093152161E080E2EAD76E
:100EF000C093A820189506C081FFFACF80E2F2CFF8
:100F000080E3F0CF2091680624FB882780F990E0E9
:100F10002091680623FF03C022E030E002C020E0F9
:100F200030E0409168064470842B822B932B2091F3
:100F3000680621FF03C048E050E002C040E050E0F6
:100F4000842B952B2091680620FF03C0C0E1D0E0E0
:100F500002C0C0E0D0E09C012C2B3D2B80914806C4
:100F600080FF05C060E650E080E290E004C060E4ED
:100F700050E080E090E04091480641FF02C0862F9B
:100F8000952F4091480642FF03C0C0E8D0E002C060
:100F9000C0E0D0E08C2B9D2B4091480643FF03C05E
:100FA000C0E0D1E002C0C0E0D0E08C2B9D2B40918E
:100FB000880640FF03C040E052E002C040E050E03D
:100FC000EC01C42BD52BC22BD32B8091A92090915F
:100FD000AA20C817D90709F446C0C0931621D09398
:100FE00017218C279D2780931821909319212091F8
:100FF0001A2130911B212C233D2328233923232B15
:1010000069F49E01209530958223932320911C2121
:1010100030911D2182239323892B19F061E081E215
:1010200051D7C093A920D093AA200E946912882387
:10103000D1F0809116218093E40680911621909141
:10104000172190FF04C021E02093050703C021E091
:101050002093060791FF04C082E08093050703C038
:1010600082E08093060718952091680624FB882764
:1010700080F990E02091680623FF03C022E030E071
:1010800002C020E030E0409168064470842B822B3F
:10109000932B2091680621FF03C048E050E002C076
:1010A00040E050E0842B952B2091680620FF03C080
:1010B000C0E1D0E002C0C0E0D0E09C012C2B3D2B71
:1010C0008091480680FF05C060E650E080E290E035
:1010D00004C060E450E080E090E04091480641FFA9
:1010E00002C0862F952F4091480642FF03C0C0E8FA
:1010F000D0E002C0C0E0D0E08C2B9D2B4091480690
:1011000043FF03C0C0E0D1E002C0C0E0D0E08C2BC0
:101110009D2B4091880640FF03C040E052E002C092
:1011200040E050E0EC01C42BD52BC22BD32B809197
:10113000A9209091AA20C817D90709F446C0C093E6
:101140001621D09317218C279D27809318219093E7
:10115000192120911A2130911B212C233D23282372
:101160003923232B69F49E01209530958223932304
:1011700020911C2130911D2182239323892B19F06A
:1011800061E081E29FD6C093A920D093AA200E945B
:1011900069128823D1F0809116218093E406809112
:1011A00016219091172190FF04C021E0209305079C
:1011B00003C021E02093060791FF04C082E08093E2
:1011C000050703C082E08093060718952091680602
:1011D00024FB882780F990E02091680623FF03C054
:1011E00022E030E002C020E030E040916806447028
:1011F000842B822B932B2091680621FF03C048E0AB
:1012000050E002C040E050E0842B952B209168060E
:1012100020FF03C0C0E1D0E002C0C0E0D0E09C01EC
:101220002C2B3D2B8091480680FF05C060E650E0E6
:1012300080E290E004C060E450E080E090E0409103
:10124000480641FF02C0862F952F4091480642FF75
:1012500003C0C0E8D0E002C0C0E0D0E08C2B9D2BE2
:101260004091480643FF03C0C0E0D1E002C0C0E0A7
:10127000D0E08C2B9D2B4091880640FF03C040E0BE
:1012800052E002C040E050E0EC01C42BD52BC22B51
:10129000D32B8091A9209091AA20C817D90709F4CF
:1012A00046C0C0931621D09317218C279D27809389
:1012B00018219093192120911A2130911B212C2360
:1012C0003D2328233923232B69F49E012095309553
:1012D0008223932320911C2130911D21822393236B
:1012E000892B19F061E081E2EDD5C093A920D0935C
:1012F000AA200E9469128823D1F080911621809340
:10130000E406809116219091172190FF04C021E0FE
:101310002093050703C021E02093060791FF04C036
:1013200082E08093050703C082E08093060718954A
:101330000E9425018091A20087688093A200789482
:10134000FFCF222309F45BC030E23093520038E033
:10135000309350003091510033FFFCCF611538E4D9
:10136000730738EE830731E0930709F482C06115F3
:1013700034E2730734EF8307910509F47CC06115EB
:1013800032E173073AE78307910509F44BC0611511
:1013900039E073073DE38307910509F46EC06038B7
:1013A00034E873073EE18307910509F460C06034B7
:1013B00032E473073FE08307910509F462C06032AD
:1013C00031EA730737E08307910509F458C06039A3
:1013D00030ED730733E08307910509F454C0683496
:1013E00038EE730731E08307910509F44EC064328B
:1013F000744F8105910509F04AC084E414C032E2BB
:10140000309352003AE0309350003091510031FF58
:10141000FCCF3091510033FDA1CF3091510033FF0B
:10142000F8CF9CCF8CE098ED94BF222399F023E075
:101430002093400094BF80934100442329F088ED1D
:1014400084BF81E08093420088ED84BF81E0809377
:101450008000089521E02093400094BF80934100D4
:1014600094BF82E08093560020936000E6CF8CE129
:10147000DACF80E0D8CF84E0D6CF84E1D4CF8CE23D
:10148000D2CF84E2D0CF84E3CECF8CE3CCCF80E048
:10149000089588ED84BF81E080938000089588EDF1
:1014A00084BF83E080938000FFCFFC01308181E026
:1014B00090E0062E01C0880F0A94EAF780958323F6
:1014C00080837096E60FF11D8081422B807C482B33
:1014D00040830895FC01308181E090E0062E01C038
:1014E000880F0A94EAF7382B30837096E60FF11DC7
:1014F0008081807C842B8083211103C08081876060
:10150000808308950F93FC013185842F90E0880F2C
:10151000991FA3E0B0E0082E01C0AA0F0A94EAF7D1
:10152000A095A323082E01C0660F0A94EAF7A62B04
:10153000A18741110FC00023A9F02287248581E0F3
:1015400090E0042E01C0880F0A94EAF7282B248724
:101550000F910895413091F7011108C08385822BC6
:101560008387ECCF8285822B8287E8CF2387E6CFE3
:10157000FC0110828CE081874150510946A357A39A
:101580002683608308952091CF0127FDFCCF8093AF
:10159000C0019093C1011092C20186E08093CA01FC
:1015A00088ED84BF81E08093CB018091C4010895D0
:1015B0002091CF0127FDFCCF2091CF0121FF08C052
:1015C00026E32093CA0128ED24BF21E02093CB011C
:1015D00023E32093CA018093C0019093C10110922C
:1015E000C2016093C40185E38093CA0188ED84BF82
:1015F00081E08093CB010895FF920F931F93CF93C7
:10160000DF938C01C7E0D0E0F12C08C0F1100BC0D3
:10161000CE01CEDF2196C032D10571F0F801619183
:101620008F016111F3CF60E0CE01C2DFFF24F3949C
:101630002196C032D10591F7DF91CF911F910F9183
:10164000FF900895CF93962F803208F47FC0282F03
:1016500030E020523109F901E05CFF4D5081220F4A
:10166000331FF901E05DFF4DC081F901E05EFF4DE0
:10167000208131812093B1203093B2209093222198
:10168000252F2F702C9FC02D1124EAE0EC0FE09342
:101690002321809324212FEF209325215061509303
:1016A000262141116BC08091AD209091AE20A09178
:1016B000AF20B091B0208093272190932821A09350
:1016C0002921B0932A212091AB203091AC20209386
:1016D0002B2130932C218E2F90E08E3F9105A4F585
:1016E0002091B1203091B22040E0842F90E0F901A8
:1016F000E80FF91F5081FC01E35DFE4D50834F5F01
:101700004C13F3CF209123212E5F30E0215031097B
:10171000121613060CF09EC080E090E040E050E00E
:10172000FC01EE5DFE4D8081580F4F5F842F90E0ED
:1017300082179307ACF3F901EE5DFE4D5083809163
:101740004820813009F46BC0CF9108958E30E0F7C6
:10175000282F30E0F901E856FF4D5081220F331F4A
:10176000F901E458FF4DC081F901E05AFF4D208195
:1017700031812093B1203093B22080CF20914C084A
:101780004091C5205091C6206091C7207091C8201B
:1017900020FF21C04F5F5F4F6F4F7F4F4093272146
:1017A000509328216093292170932A212091600869
:1017B0003091610820932B2130932C21883009F03F
:1017C0008ACF933009F087CF10922B2110922C21D1
:1017D000E091232180CF40932721509328216093CB
:1017E000292170932A21209160083091610820936B
:1017F0002B2130932C21F091B620F03DF9F62F30BB
:101800003105E0F64F5F5F4F6F4F7F4F40932721C9
:10181000509328216093292170932A21CFCF83E808
:101820008093A200C091A30B9091A30B9C7F9093F7
:10183000A30B609123216E5F82E291E265D79091C4
:10184000A30B8C2F8370892B8093A30B87E8809345
:10185000A2007ACF50E06FCFCF93E091253A2E2FA0
:1018600030E024303105BCF090E020E030E0F901B8
:10187000E75DF54C4081F901E15DF54C40839F5FE8
:10188000292F30E0E091253A4E2F50E04350510986
:101890002417350764F38093243AEA5FE093253AEE
:1018A0008091283A80618093283A80914C0880FF8B
:1018B00040C08091C5209091C620A091C720B091D2
:1018C000C8200196A11DB11D8093293A90932A3A10
:1018D000A0932B3AB0932C3A8091600890916108C4
:1018E00080932D3A90932E3AF0E0EB5DF54C108208
:1018F0006091253A40E0262F30E080E090E0F90149
:10190000EB5DF54CDC01AC5DB54C20818C91280F72
:1019100020834F5F6091253A262F30E0842F90E09E
:101920002817390764F780914820813079F1CF91E9
:1019300008958091C5209091C620A091C720B091B4
:10194000C8208093293A90932A3AA0932B3AB093D7
:101950002C3A209160083091610820932D3A309301
:101960002E3A4091B620403D09F0BECF2F303105D0
:1019700008F0BACF0196A11DB11D8093293A90932A
:101980002A3AA0932B3AB0932C3AAECF83E88093B7
:10199000A200C091A30B9091A30B9C7F9093A30BEB
:1019A0006E5F84E29AE3B0D69091A30B8C2F837084
:1019B000892B8093A30B87E88093A200CF91089591
:1019C0003F924F925F926F927F928F929F92AF92CF
:1019D000BF92CF92DF92EF92FF920F931F93CF931C
:1019E000DF93CDB7DEB73C01962E142FF22E4D8833
:1019F0005E884FDD21E041E060E078E488EE91E030
:101A0000A0DC81E0809348006092BC207092BD20F1
:101A10009092BE201093BF20E092C0208093C120FE
:101A200087E08093C220F092C3200093C4201092DC
:101A3000C5201092C6201092C7201092C820109284
:101A4000C9201092CA2082E090E09DDD382E83E00C
:101A500090E099DD982E8FEF981609F4CAC0F31420
:101A600009F49CC06FED80E090E0A2DD6F2D82E074
:101A700090E09EDD61E083E090E09ADD0E944D0100
:101A800080E090E080DD8E3E09F493C080E6809394
:101A9000CB2080E48093CC200E9461020E946A02E5
:101AA000A092BA20B092BB20C092B820D092B920A8
:101AB0008092B72087E090E066DD8F3F09F4D0C0C8
:101AC0000DEC10E2F6EFEF2EFF24FA94C7018C5BC9
:101AD00090427C01C701800F911F55DDF801819371
:101AE0008F01F0E2063E1F07A9F789E1EDECF0E275
:101AF000A9EEB0E201900D928A95E1F784E090E0C2
:101B000042DD082F10E00093E6201093E72085E0E7
:101B100090E039DD302F2227282B2093E6203093C8
:101B2000E72021E042E15AE767E080E498E020DD29
:101B3000E091B62081E08E0F8093B620F0E0E85A65
:101B4000FF4D808190E00197809368089093690829
:101B500081E08093470820E040E066E080E096E086
:101B6000B9DC80E48093050640E060E081E090E02D
:101B7000B6D414D585EC90E2DF91CF911F910F91EF
:101B8000FF90EF90DF90CF90BF90AF909F908F909D
:101B90007F906F905F904F903F90E4C691E09912D4
:101BA00061CF0E944D0180E090E0EDDC8E3E09F0B7
:101BB0006DCF81E090E0E7DC8093CB20A114B104ED
:101BC00091F0760185010C0D1D1DA0E26A2E712C8D
:101BD000C301D9DCF70181937F01FFEF6F1A7F0A00
:101BE000E016F106A9F780E88093CC200E946A02F3
:101BF00057CF6F2D82E090E0DBDC61E083E090E086
:101C0000D7DC82E090E0BFDC382E83E090E0BBDCE4
:101C1000982E8201B7E06B2E712CE12C0BC0E110E5
:101C20000EC0C301C5DCFFEF6F1A7F0A80E26816A1
:101C3000710489F0F80161918F016111F0CF60E0CA
:101C4000C301B6DCEE24E394FFEF6F1A7F0A80E253
:101C50006816710479F76FED80E090E0A9DCFFCEA3
:101C6000720107E010E0D12C0AC0D1100DC0C801EC
:101C70009FDC0F5F1F4F0032110509F421CFF701E0
:101C800061917F016111F1CF60E0C80191DCDD2439
:101C9000D394EFCF0E944C0120E480E092EEA4E0C8
:101CA000B0E00197A109B1090097A105B105C9F7F5
:101CB00020930706F2CF8091C5209091C620A09175
:101CC000C720B091C8200196A11DB11D8093C520E9
:101CD0009093C620A093C720B093C82080910D2177
:101CE0008F5F80930D218EE090E080936808909341
:101CF000690881E08093B6200E94B10280914C086F
:101D0000806180934C080E945B030E945D034091B8
:101D1000CB2047FD03C0842F8370B1C0842F837014
:101D2000813009F0ACC085EC90E28093B1209093B3
:101D3000B22083E0809322218EE08093232188E0EB
:101D4000809324218FEF8093252184E180932621A5
:101D500080914C0880FF18C08091C5209091C620CA
:101D6000A091C720B091C8200196A11DB11D8093FC
:101D7000272190932821A0932921B0932A21809193
:101D800060089091610826C08091C5209091C6207E
:101D9000A091C720B091C82080932721909328213B
:101DA000A0932921B0932A212091600830916108E5
:101DB0005091B620503D71F42F30310558F4019602
:101DC000A11DB11D8093272190932821A093292143
:101DD000B0932A2110922B2110922C218091C520A2
:101DE0009091C620A091C720B091C82080932D214A
:101DF00090932E21A0932F21B09330212091232165
:101E00002E5F30E0215031091216130684F450E0A1
:101E100060E080E090E0FC01EE5DFE4D8081680FA7
:101E20005F5F852F90E082179307ACF301C060E0FD
:101E3000F901EE5DFE4D608380914820813021F5EF
:101E400083E88093A200C091A30B9091A30B9C7F89
:101E50009093A30B609123216E5F82E291E254D4B0
:101E60009091A30B8C2F8370892B8093A30B87E811
:101E70008093A2004091CB20842F837000C08823E0
:101E800039F0813019F400C092E003C091E001C044
:101E900094E08091C520892321F080E48093060698
:101EA00005C046FF03C080E4809305060E945A03E4
:101EB00080914C0884FF05C08091B520811101C03C
:101EC000E9DE18959091CB209370913009F0089538
:101ED000462F63E0B7CBCF92DF92FF920F931F9311
:101EE000CF93DF931F921F92CDB7DEB78E3040F4B1
:101EF000E82FF0E0DF01A856BF4D9C91961759F0EE
:101F000080E00F900F90DF91CF911F910F91FF9084
:101F1000DF90CF900895EE0FFF1FE458FF4D6081D2
:101F200071816217730761F7883009F47FC08A30C6
:101F3000D1F18B3011F18C3009F4A1C08D3001F753
:101F4000FA0180819181019609F4BFC08091E82057
:101F50008823B1F2FA01608185E090E049835A83D9
:101F600027DB49815A81FA01618184E090E020DB1E
:101F700083E08093B52081E0C4CFFA018081813075
:101F800009F4B7C0823009F4A4C0843009F4C2C097
:101F9000883089F76FEF87E090E00ADB83E0809379
:101FA000B52081E0AECFFA01808186FD04C080E4D7
:101FB0008093060680811091CB20837F8093CB2075
:101FC000FA01808185FF41C015FF76C083FF10C0F4
:101FD00081E08093052110920321809304211092C7
:101FE00002218091CB20877F8093CB20FA018081D2
:101FF000837079F4812F837009F4BDCF109205218D
:1020000049835A830E94AE0249815A81FA01808134
:102010008370813029F1833009F0ADCF1370133014
:1020200009F4A9CF0E94B00281E06BCFFA01808150
:102030009181A281B3818093C5209093C620A09303
:10204000C720B093C82081E05CCF15FFBFCF498384
:102050005A830E94960249815A81FA018081B6CF43
:10206000812F8370813009F486CF49835A830E947F
:10207000AF0249815A81FA0180818370CCCF8A01F5
:1020800087E0C82ED12CF12C0CC0F1100FC0C60176
:102090008FDAFFEFCF1ADF0A20E2C216D10409F46B
:1020A00067CFF80161918F016111EFCF60E0C60148
:1020B0007FDAFF24F394EDCF49835A830E947102A3
:1020C00049815A81FA01808181CF81E08093E820A3
:1020D00018CF80E090E049835A8355DA49815A81CC
:1020E0008E3E09F00DCF83E08093B520FA01808108
:1020F0004CCF89EE90E249835A837EDA6FED80E01F
:1021000090E056DA83E08093B52049815A81FA0144
:10211000808138CF6EEE80E090E049835A8348DAC0
:102120006091CB2081E090E043DA8091BA209091D9
:10213000BB2049815A81892BC9F000E010E0E09171
:10214000B820F091B920E00FF11F6081C80180969E
:1021500049835A832DDA0F5F1F4F8091BA209091E7
:10216000BB2049815A810817190748F383E08093FF
:10217000B520FA0180810CCF0E94B10280916808DD
:1021800090916908E091B62021E02E0F2093B620AF
:10219000E770F0E0E85AFF4D3081830F911D809386
:1021A00068089093690820FD26C1809148208130FD
:1021B00069F48093250783E88093A2008091A30BA4
:1021C0008F7C8093A30B87E88093A20080910C21E1
:1021D000811103C080910B210FC0815080930C218D
:1021E000882319F080910B2107C010920C211092C6
:1021F0000B21109206219BC0882309F498C0A0915E
:102200002222B09123228091253A8F3F59F01091DC
:10221000263A5091273A0091283A39E2E32E3AE3E0
:10222000F32E0AC01091283A5091293A00912A3A87
:102230002BE2E22E2AE3F22EFD01319681F090E0AE
:1022400040E020E030E0E901CC5DD54C2881420F30
:102250009F5F292F30E02E173F07A8F301C040E011
:10226000EC5DF54C9081491360C05F3F09F05DC0A3
:102270009091243A913089F51D31B0F41E3008F068
:102280001DC1E12FF0E0E856FF4D9081091316C102
:10229000193009F00EC18091600890916108809317
:1022A000C9209093CA2005C1602F812F0E94680326
:1022B0009091CB2094FD39C0811103C08091253AC3
:1022C00005C041E061E0812FBDD92FC090E0883F7B
:1022D00091055CF589E0C0DA28C0CD010497202F74
:1022E0002F70622F70E007D41D3130F49B01A701DD
:1022F000602F812FF0DD06C09B01A701602F812F89
:102300000E9481039091CB2094FD0FC0882329F077
:1023100041E062E0812F96D908C08091253A90E093
:10232000883F910514F48AE097DA10920B2180918E
:102330004820813009F05CC08091080786FF46C0C4
:102340008091B3209091B4200196883B2BE09207B6
:1023500029F08093B3209093B4203CC01092B32016
:102360001092B4208091CB20982F93709130E9F493
:1023700086FD03C090E490930606982F907F90937B
:10238000CB2083FF0BC01092032181E080930421B6
:1023900010920221892F877F8093CB2010920521F4
:1023A0000E94AE029091482001C091E01092092154
:1023B00010920A2110920721109208218091A30BFC
:1023C0008C7F8093A30B913029F012C01092B32020
:1023D0001092B42083E88093A2008091A30B8063C5
:1023E0008093A30B87E88093A20081E08093260767
:1023F0000E945C0302C00E945D038091B520882387
:1024000031F081508093B520811101C048D880916E
:1024100004218823E1F08091B62083708230B9F4E2
:10242000809102218E3060F4893009F04CC02091F7
:102430006008309161082093C9203093CA2043C0BE
:102440008F5F809302218C3111F4109204218091CE
:102450000521882309F18091B6208370E9F48091E9
:102460000321E82FF0E0E05CFF4D6081805E0E9478
:102470006803882331F08091032141E061E0805EB0
:10248000E1D8809103218F5F809303219091B72041
:10249000891302C0109205210E945A0380914C08B2
:1024A00084FF05C08091B520811101C0F3DB189530
:1024B00010C08091CB2084FF04CF37CF9091CB20E8
:1024C00094FF04CF32CF41E061E0BCD8809102217B
:1024D000B7CF8091CB2085FB882780F90895FF92A4
:1024E0000F931F93CF93DF931F921F92CDB7DEB749
:1024F00089839A83F62E142F20E040E060E080E28A
:1025000097E00E946A0A20E040E066E080E097E001
:102510000E94550A01E020E440E063E080E097E09B
:102520000E94820A81E08093260783E08093A50BB6
:1025300089818093A60B8F2D90E18902B00111242F
:102540008A818F70862B8093A70B112329F08091AD
:10255000A40B84608093A40B88E08093A50620E000
:1025600040E063E080EA96E00E946A0A20E040E0F2
:1025700062E080EA96E00E94550A8091080786FF93
:1025800005C08091A30B8C7F8093A30B0F900F90BD
:10259000DF91CF911F910F91FF900895E0EAFBE04A
:1025A00084818861848380EE8183838180638383D7
:1025B00008951F920F920FB60F92112408B60F9232
:1025C00018BE09B60F9219BE0BB60F921BBE2F9301
:1025D0003F934F935F936F937F938F939F93AF93AB
:1025E000BF93EF93FF930E946403209109213091E0
:1025F0000A21C90101968093092190930A21F901CA
:10260000EC5DFD4D20812093A00B811528E1920700
:1026100029F120910721309108212817390729F441
:102620008091A30B8C7F8093A30B0E946503FF9185
:10263000EF91BF91AF919F918F917F916F915F913A
:102640004F913F912F910F900BBE0F9009BE0F90AD
:1026500008BE0F900FBE0F901F9018951092092181
:1026600010920A2180E090E0D4CF1F920F920FB613
:102670000F92112408B60F9218BE09B60F9219BE18
:102680000BB60F921BBE2F933F934F935F936F93A5
:102690007F938F939F93AF93BF93EF93FF930E948A
:1026A00066038091080786FD29C020910921309199
:1026B0000A2180910721909108212817390729F0D4
:1026C0008091A30B83608093A30B0E946703FF910B
:1026D000EF91BF91AF919F918F917F916F915F919A
:1026E0004F913F912F910F900BBE0F9009BE0F900D
:1026F00008BE0F900FBE0F901F9018958091A30BEE
:102700008C7F8093A30BE1CFBF92CF92DF92EF92A9
:10271000FF920F931F93CF93DF936C01B62E80919E
:10272000080786FD05C08091A30B83608093A30BEF
:102730000091072110910821C0E0D8E1C01BD10B06
:10274000EB2CF12CCE15DF0558F1A701B601C8011D
:102750008C5D9D4DE4D18091092190910A21E00E7C
:10276000F11EE0920721F0920821E11428E1F2061F
:1027700009F446C008171907A8F5E816F90690F1FC
:102780008FEFE81AF80AE0920921F0920A21E11489
:1027900028E1F20639F51092092110920A2122C08F
:1027A000AE01B601C8018C5D9D4DB9D1BC1AEB2CB0
:1027B000F12CBE016C0D7D1DA70184E292E2AFD128
:1027C0008091092190910A21E0920721F09208213D
:1027D0000817190788F42FEFE21AF20AE09209218C
:1027E000F0920A21DF91CF911F910F91FF90EF900E
:1027F000DF90CF90BF900895E816F90660F7F2CF0A
:102800001092072110920821892B61F781E090E056
:102810008093092190930A21E5CF1F920F920FB662
:102820000F92112408B60F9218BE09B60F9219BE66
:102830000BB60F921BBE2F933F934F935F936F93F3
:102840007F938F939F93AF93BF93EF93FF930E94D8
:1028500062039091A00BE091062181E08E0F80939E
:102860000621F0E0EC5DF54C9083813019F1843065
:1028700049F190E020912222309123228217930780
:1028800079F10E946303FF91EF91BF91AF919F9106
:102890008F917F916F915F914F913F912F910F9009
:1028A0000BBE0F9009BE0F9008BE0F900FBE0F9089
:1028B0001F9018958091243A81508230D0F1109267
:1028C0000621DFCF8091253A8F3F01F190E08E3FC6
:1028D0009105A9F302968093222290932322D1CFCF
:1028E00020914820213061F12091253A2F3F29F194
:1028F00022E030E0821B930B8093222290932322CC
:102900001092062181E080930B21BBCF8091253A64
:102910009091263A04968F3F910509F080F68091B8
:10292000263A9091273A049680932222909323226C
:10293000A8CF82E380930C21A4CF24E030E0DACF4B
:102940002093250783E88093A2008091A30B8F7CBE
:102950008093A30B87E88093A2008091222290911C
:102960002322C2CFCF93DF931F921F92CDB7DEB742
:1029700023E130E029833A8380930F219093102143
:1029800083E08093B50889818093B6088A818F702F
:102990008093B70820E048E166E080E496E00E947A
:1029A000550A80E18093B408E3EBF8E0808180630E
:1029B00080830F900F90DF91CF9108951F920F9217
:1029C0000FB60F92112408B60F9218BE09B60F92D7
:1029D00019BE0BB60F921BBE2F938F939F93AF938D
:1029E000BF93EF93FF938091B0088A3AD1F18F3A69
:1029F00009F44CC090910E21923009F44BC008F4B8
:102A000072C0943009F452C008F44AC0953061F5A0
:102A10008093142110920E2180910D218A3008F4A8
:102A20004BC082EF99E7809360089093610881E042
:102A30009AE7809368089093690826E020934920DC
:102A4000E0910F21F091102180911121909112219C
:102A5000A0911321B091142180839183A283B38329
:102A600003C081E080930E21FF91EF91BF91AF9160
:102A70009F918F912F910F900BBE0F9009BE0F90D9
:102A800008BE0F900FBE0F901F90189582E08093A4
:102A90000E21EACF8093112183E080930E21E4CFB1
:102AA0008093122184E080930E21DECF8093132146
:102AB00085E080930E21D8CF10920D2120914920DE
:102AC00089EF99E7821B91098093600890936108D0
:102AD00081E09AE78093680890936908222309F4BB
:102AE000AFCF2150ABCF992319F0913009F0BCCF73
:102AF00010920E21B9CFAA1BBB1B51E107C0AA1F20
:102B0000BB1FA617B70710F0A61BB70B881F991F8E
:102B10005A95A9F780959095BC01CD010895FB01C8
:102B2000DC0102C001900D9241505040D8F7089549
:042B3000F894FFCF47
:102B34009A04A103A303AC03C803B503BB03C203F4
:102B4400A2049C049D049E049F04A004A104C10348
:102B5400152116211A211C211E211F21202121218A
:102B64000100020001000100010001000100010058
:102B740001020202010101010107496E70757445E9
:102B84007870616E646572000F10100F100F1010D2
:102B9400BC20BE20BF20C020C120C220C320C4202E
:102BA400C520C920CB20CC20CD20E6200100010087
:102BB4000100010001000100010001000100010009
:102BC40001000100190001000201010101010101DC
:062BD400040201010102F0
:00000001FF
