:10000000FDC0000021C100001FC100001DC1000093
:100010001BC1000019C1000017C1000015C100007C
:1000200013C1000011C100000FC100000DC100008C
:100030000BC1000009C100000C94271D05C1000080
:100040000C94481D01C10000FFC00000FDC000006D
:100050000C948B25F9C000000C94EC27F5C000002F
:10006000F3C00000F1C00000EFC00000EDC00000D0
:100070000C940F2CE9C00000E7C00000E5C00000B0
:10008000E3C00000E1C00000DFC00000DDC00000F0
:10009000DBC00000D9C00000D7C00000D5C0000000
:1000A000D3C00000D1C00000CFC000000C94F01AF3
:1000B000CBC00000C9C00000C7C000000C94A71D41
:1000C000C3C000000C94BE1DBFC00000BDC0000036
:1000D000BBC00000B9C00000B7C00000B5C0000040
:1000E000B3C00000B1C00000AFC00000ADC0000050
:1000F000ABC00000A9C00000A7C00000A5C0000060
:10010000A3C00000A1C000009FC000009DC000006F
:100110009BC0000099C0000097C0000095C000007F
:1001200093C0000091C000008FC000008DC000008F
:100130008BC000000C94A81C87C000000C94C81C45
:1001400083C0000081C000007FC000007DC00000AF
:100150007BC0000079C0000077C0000075C00000BF
:1001600073C0000071C000006FC000006DC00000CF
:100170006BC0000069C0000067C0000065C00000DF
:1001800063C0000061C000000C94662A5DC00000DE
:100190005BC0000059C0000057C0000055C00000FF
:1001A00053C0000051C000004FC000004DC000000F
:1001B0004BC0000049C0000047C0000045C000001F
:1001C00043C0000041C000003FC000003DC000002F
:1001D0003BC0000039C0000037C000000C943E2B2B
:1001E0000C940A2A31C000002FC000002DC000006E
:1001F0002BC0000029C0000027C0000011241FBE32
:10020000CFEFCDBFDFE3DEBF00E00CBF18BE19BEED
:100210001ABE1BBE12E2A0E0B0E2E6EEF9E500E095
:100220000BBF02C007900D92AA3CB107D9F71BBEC5
:100230002DE3AAECB2E201C01D92A83DB207E1F79E
:100240000E940C1E0C94F12CDBCE1092C72310924E
:10025000C8231092C9231092CA2391E090934606B6
:1002600090934606909346069093460690934606D2
:1002700090934606909346069093460690934606C2
:100280009093460690934606909346069093850673
:1002900082E08093450680934506809346068093CE
:1002A00046068093450680934506809346068093D4
:1002B00046068093450680934506809346068093C4
:1002C00046068093450680934506809346068093B4
:1002D00046068093450680934506809346068093A4
:1002E0004606809345068093450680934606809394
:1002F0004606809345068093450680934606809384
:100300004606809345068093450680934606809373
:100310004606809345068093450680934606809363
:100320004606809345068093450680934606809353
:100330004606809345068093450680934606809343
:100340004606809345068093450680934606809333
:100350004606809345068093450680934606809323
:100360004606809345068093450680934606809313
:100370004606809345068093450680934606809303
:1003800046068093450680934506809346068093F3
:1003900046069093450690934506909345069093A4
:1003A0004506909345069093450690934506909395
:1003B0004506909345069093450690934506909385
:1003C0004506909346069093460690934606909372
:1003D0004606909346069093460690934606909361
:1003E0004606909346069093460690934606909351
:1003F0004606909386068093450680934506809333
:100400004606809346069093850680934506809322
:100410004506809346068093460680934506809362
:100420004506809346068091880682FF06C080E0DC
:1004300090E28093C7239093C82382E0809345067F
:1004400080934506809346068091880682FF09C006
:100450008091C7239091C82390618093C723909384
:10046000C82382E080934506809345068093460624
:100470008091880682FF09C08091C7239091C8238C
:1004800098608093C7239093C82382E080934506A9
:1004900080934506809346068091880682FF09C0B6
:1004A0008091C7239091C82394608093C723909331
:1004B000C82382E0809345068093450680934606D4
:1004C0008091880682FF09C08091C7239091C8233C
:1004D00092608093C7239093C82382E0809345065F
:1004E00080934506809346068091880682FF09C066
:1004F0008091C7239091C82391608093C7239093E4
:10050000C82382E080934506809345068093460683
:100510008091880682FF09C08091C7239091C823EB
:1005200080688093C7239093C82382E08093450618
:1005300080934506809346068091880682FF09C015
:100540008091C7239091C82380648093C7239093A0
:10055000C82382E080934506809345068093460633
:100560008091880682FF09C08091C7239091C8239B
:1005700080628093C7239093C82382E080934506CE
:1005800080934506809346068091880682FF09C0C5
:100590008091C7239091C82380618093C723909353
:1005A000C82382E0809345068093450680934606E3
:1005B0008091880682FF09C08091C7239091C8234B
:1005C00088608093C7239093C82382E08093450678
:1005D00080934506809346068091880682FF09C075
:1005E0008091C7239091C82384608093C723909300
:1005F000C82382E080934506809345068093460693
:100600008091880682FF09C08091C7239091C823FA
:1006100082608093C7239093C82381E080938606ED
:1006200082E080934506809345068093460680913C
:10063000880682FF09C08091C7239091C8238160FA
:100640008093C7239093C82381E0809345068093CD
:100650004506809345068093450680934506809322
:100660004506809345068093450680934506809312
:100670004506809345068093450680934606809301
:1006800046068093460680934606809346068093EE
:1006900046068093460680934606809346068093DE
:1006A000460680934606809346068093860682E03F
:1006B00080934506809345068093460680934606C0
:1006C00080934506809345068093460680934606B0
:1006D0008093450680934506809346068091880660
:1006E00082FF06C080E090E28093C9239093CA23E2
:1006F00082E080934506809345068093460680916C
:10070000880682FF09C08091C9239091CA23906115
:100710008093C9239093CA2382E0809345068093F7
:100720004506809346068091880682FF09C0809125
:10073000C9239091CA2398608093C9239093CA23B8
:1007400082E080934506809345068093460680911B
:10075000880682FF09C08091C9239091CA239460C2
:100760008093C9239093CA2382E0809345068093A7
:100770004506809346068091880682FF09C08091D5
:10078000C9239091CA2392608093C9239093CA236E
:1007900082E08093450680934506809346068091CB
:1007A000880682FF09C08091C9239091CA23916075
:1007B0008093C9239093CA2382E080934506809357
:1007C0004506809346068091880682FF09C0809185
:1007D000C9239091CA2380688093C9239093CA2328
:1007E00082E080934506809345068093460680917B
:1007F000880682FF09C08091C9239091CA23806432
:100800008093C9239093CA2382E080934506809306
:100810004506809346068091880682FF09C0809134
:10082000C9239091CA2380628093C9239093CA23DD
:1008300082E080934506809345068093460680912A
:10084000880682FF09C08091C9239091CA238061E4
:100850008093C9239093CA2382E0809345068093B6
:100860004506809346068091880682FF09C08091E4
:10087000C9239091CA2388608093C9239093CA2387
:1008800082E08093450680934506809346068091DA
:10089000880682FF09C08091C9239091CA23846091
:1008A0008093C9239093CA2382E080934506809366
:1008B0004506809346068091880682FF09C0809194
:1008C000C9239091CA2382608093C9239093CA233D
:1008D00082E080934506809345068093460680918A
:1008E000880682FF09C08091C9239091CA23816044
:1008F0008093C9239093CA2381E08093450608958D
:100900008F92AF92BF92CF92DF92EF920F9384E5D6
:1009100092E29F938F9382E4882E95E8A92EB12CC2
:1009200021E5C22E23E2D22EE12C01E022E040E0BC
:1009300061E084E594E00E9410240F900F900F91E5
:10094000EF90DF90CF90BF90AF908F900895E0EE42
:10095000F6E081E0868392E0968334E0368328E0F7
:10096000268340E1468350E2568350E4568350E8A4
:100970005683E0E0F7E086839683E0E6F6E0468380
:100980002683368396838683E0E4F6E08683968327
:10099000368326838093860608950E9420198091CD
:1009A000880683FF0CC142E031E022E094E0E8E0F9
:1009B00070E160E280E450E83093E506AFEFB1EE1D
:1009C000F4E0A150B040F040E1F700C000003093E7
:1009D000E6062093E506AFEFB1EEF4E0A150B0409B
:1009E000F040E1F700C000002093E6069093E50692
:1009F000AFEFB1EEF4E0A150B040F040E1F700C03D
:100A000000009093E606E093E506AFEFB1EEF4E068
:100A1000A150B040F040E1F700C00000E093E606CE
:100A20007093E506AFEFB1EEF4E0A150B040F040B6
:100A3000E1F700C000007093E60690930507AFEF62
:100A4000B1EEF4E0A150B040F040E1F700C000008A
:100A5000909306076093E506AFEFB1EEF4E0A15086
:100A6000B040F040E1F700C000006093E6068093DC
:100A7000E506AFEFB1EEF4E0A150B040F040E1F791
:100A800000C000008093E6065093E506AFEFB1EE9C
:100A9000F4E0A150B040F040E1F700C000005093F6
:100AA000E60630930507AFEFB1EEF4E0A150B04099
:100AB000F040E1F700C000003093060720930507DF
:100AC000AFEFB1EEF4E0A150B040F040E1F700C06C
:100AD00000002093060780930506AFEFB1EEF4E027
:100AE000A150B040F040E1F700C00000809306063E
:100AF000415009F061CF2FEF83EC99E02150804005
:100B00009040E1F700C0000042E031E022E094E0D4
:100B1000E8E070E160E280E450E83093E50620937D
:100B2000E5069093E506E093E5067093E50690935D
:100B300005076093E5068093E5065093E50630933C
:100B400005072093050780930506AFEFB3ECF9E0A6
:100B5000A150B040F040E1F700C000003093E6063D
:100B60002093E6069093E606E093E6067093E60689
:100B7000909306076093E6068093E6065093E60698
:100B8000309306072093060780930606AFEFB3EC79
:100B9000F9E0A150B040F040E1F700C00000415042
:100BA00009F0BBCF2FEF83ED90E3215080409040C0
:100BB000E1F700C0000084E08093050708950E94DB
:100BC0007A25F1CECF92DF92EF92FF92E1E5F3E248
:100BD00083E081838283C12CD12C80E2E82E81E4E2
:100BE000F82EC18AD28AE38AF48A40E050E068E4B1
:100BF00072E4458B568B678B708F2AE030E0218F33
:100C0000328F81E083A315A214A2C6A2D7A2E0A6C8
:100C1000F1A642A753A764A775A726A737A780AF59
:100C200012AE11AEC3AED4AEE5AEF6AE4093902395
:100C30005093912360939223709393232093942352
:100C40003093952380939E231092A02310929F238C
:100C500020E23EE42093CE233093CF232CED35E0E9
:100C60002093D0233093D1232093D2233093D323C6
:100C70002093D4233093D5238093CB23FF90EF9000
:100C8000DF90CF9008958AE593E20E942D0F0E9495
:100C900044170E94E4170E94821884EC93E20E9499
:100CA000C1108BEC93E258D68EEC93E299D680ED8E
:100CB00093E2ACD682ED93E2BED684ED93E2D1C648
:100CC0008091C423823009F4F4C008F041C0882325
:100CD00009F4ABC08130C1F59091680694FD809312
:100CE000E5068091680683FF03C082E08093E506F5
:100CF0008091680682FF03C084E08093E5068091BE
:100D0000680681FF03C088E08093E506809168064D
:100D100080FF03C080E18093E50680E28093E506D2
:100D200080E48093E5068091480682FF03C080E856
:100D30008093E5068091480683FF03C081E080939D
:100D4000050782E08093050784E0809305070895F6
:100D50008330E9F18430C1F78091680684FF03C0D5
:100D600081E08093E5068091680683FF03C082E0FE
:100D70008093E5068091680682FF03C084E080933B
:100D8000E5068091680681FF03C088E08093E50650
:100D90008091680680FF03C080E18093E50680E2D1
:100DA0008093E50680E48093E50680E88093E5067D
:100DB0008091480683FF03C081E0809305078091FE
:100DC000880680FFBECF82E080930507BACF80916E
:100DD000680684FF03C081E08093E5068091680681
:100DE00083FF03C082E08093E5068091680682FF5E
:100DF00003C084E08093E5068091680681FF03C00C
:100E000088E08093E5068091680680FF03C080E15A
:100E10008093E50680E28093E50680E48093E50612
:100E20008091480682FFC4CFC0CF8091680684FFBE
:100E300003C081E08093E5068091680683FF03C0CC
:100E400082E08093E5068091680682FF03C084E01B
:100E50008093E5068091680681FF03C088E0809357
:100E6000E5068091680680FF03C080E18093E50677
:100E70008091480680FF03C080E28093E506809160
:100E8000480681FF03C080E48093E5068091480610
:100E900082FF03C080E88093E5068091480683FFC7
:100EA00003C081E0809305078091880680FF4CCFC6
:100EB00048CF8091680684FF03C081E08093E506F7
:100EC0008091680683FF03C082E08093E5068091ED
:100ED000680682FF03C084E08093E506809168067F
:100EE00081FF03C088E08093E5068091680680FF5B
:100EF00003C080E18093E50680E28093E50680915F
:100F0000480681FF03C080E48093E506809148068F
:100F100082FF4ECF4ACFE0EEF6E021E0268392E05A
:100F2000968384E0868338E0368330E1368330E28E
:100F3000368330E4368330E83683E0E0F7E026831A
:100F40009683868308958091CB2280FD57C081FDD2
:100F500049C082FD3AC083FD2BC084FD1CC085FDC5
:100F60000DC086FF089580E09AE00E94422181E052
:100F70008093860682E080930607089580E098E0DB
:100F80000E94422188E08093460681E08093060714
:100F90008091CB22E6CF80E098E00E94422184E05D
:100FA0008093460680E88093E6068091CB22D7CFD7
:100FB00080E098E00E94422182E08093460680E42F
:100FC0008093E6068091CB22C8CF80E099E00E9412
:100FD000422182E08093660688E08093E606809155
:100FE000CB22B9CF80E099E00E94422184E0809337
:100FF00066068093E6068091CB22ABCF80E099E035
:101000000E94422188E08093660682E08093E60693
:101010008091CB229CCF08950895089508958091E2
:10102000382381508093CA22089508958091C42363
:10103000813009F008958091CA228F5F8093CA227F
:10104000909138238913F6CF00D961E08AE50E9498
:1010500092261092CA220895089508950895089539
:101060000895089590EE980F923440F490E08097A0
:10107000FC01E05FFD4D2081261711F080E008950E
:10108000880F991FFC01EC57FF4D0190F081E02D76
:10109000199581E0089590EE980F923448F4E82F66
:1010A000F0E0B097DF01A05FBD4D9C91961711F065
:1010B00080E00895EE0FFF1FDF01A457BE4D8D9114
:1010C0009C9182179307A1F7E050F04E0190F081B8
:1010D000E02DCA011994FC0180818093522381E0A4
:1010E0000895FC0180818093532381E00895EF925D
:1010F000FF920F931F93CF93DF93FC0120813181E7
:10110000E091C423E53008F07CC0F0E0EE0FFF1F53
:10111000EF58FD4D808191818223932380FF06C08B
:1011200040E14093660641E04093E60681FF76C0C9
:1011300048E04093660642E04093E6068C01047066
:1011400011277C0148E0E422FF24EC01C071DD2777
:10115000DC01A072BB27FC01E074FF27BC016078B2
:101160007727AC014427517088279270012B29F012
:1011700014E0109366061093E606EF2831F012E0B3
:101180001093660618E01093E606CD2B31F0C1E00F
:10119000C0936606C0E1C093E606AB2B31F0A1E038
:1011A000A0934606A0E2A093E606EF2B31F0E2E022
:1011B000E0934606E0E4E093E606672B31F064E056
:1011C0006093460660E86093E606452B31F048E000
:1011D0004093460641E040930607892B31F081E0B9
:1011E0008093860682E080930607209356233093EF
:1011F000572381E0DF91CF911F910F91FF90EF90E6
:10120000089580E090E040E050E060E070E0E0E0D1
:10121000F0E0A0E0B0E0C0E0D0E0B7CF8C01047017
:1012200011277C01F8E0EF22FF248FCF8091680620
:1012300084FB222720F930E020935A2330935B234C
:101240008091680683FF65C082E090E0822B932B3B
:1012500080935A2390935B23209168062470822BFD
:1012600080935A2390935B232091680621FF63C0EB
:1012700028E030E0822B932B80935A2390935B23BA
:101280002091680620FF54C020E130E0822B932B90
:1012900080935A2390935B232091480620FF45C0FA
:1012A00020E230E0822B932B80935A2390935B2390
:1012B0002091480621FF36C020E430E0822B932B9A
:1012C00080935A2390935B232091480622FF27C0E6
:1012D00020E830E0822B932B80935A2390935B235A
:1012E0002091480623FF18C020E031E0822B932B89
:1012F00080935A2390935B232091880620FD1EC083
:1013000020E030E0822B932B80935A2390935B2331
:10131000089580E090E09ACF20E030E0E7CF20E031
:1013200030E0D8CF20E030E0C9CF20E030E0BACFC5
:1013300020E030E0ABCF20E030E09CCF20E032E096
:10134000822B932B80935A2390935B230895E1E59E
:10135000F3E287859089838794870895FC01208133
:101360003181E1E5F3E287859089822B932B878792
:10137000908B2387348781E00895E1E5F3E2878548
:101380009089809590959927858796870895FC0187
:1013900020813181E1E5F3E2C9018095909547858F
:1013A0005089842395238787908B2587368781E012
:1013B0000895FC0180819181809360239093612343
:1013C00081E00895FC0180819181009731F0809344
:1013D0006A2390936B2381E0089580E00895FC01D7
:1013E0008081982F9C7F21F48093742381E008955D
:1013F00080E00895FC0180818093752381E0089549
:10140000FC019081892F817090FF03C09093762317
:1014100081E00895FC0180819181009731F08093F3
:101420007F239093802381E0089580E00895FC015C
:101430008081982F9C7F21F48093892381E00895F7
:1014400080E00895FC01808180938A2381E00895E3
:10145000FC019081892F817090FF03C090938B23B2
:1014600081E00895FC0180819181009731F08093A3
:1014700094239093952381E0089580E00895FC01E2
:101480008081982F9C7F21F480939E2381E0089592
:1014900080E00895FC01808180939F2381E008957E
:1014A000FC019081892F817090FF03C09093A0234D
:1014B00081E00895FC01808180FFD3C020916A23E0
:1014C00030916B2320934123309342232091CB22F0
:1014D0003091CC22287F2093CB223093CC221092C3
:1014E00000099CE09093090920913E2330913F230D
:1014F000215031092093260930932709209149234F
:1015000030914A23209328093093290920914923B7
:1015100030914A2320932A0930932B0920914923A3
:1015200030914A2320932C0930932D09209149238F
:1015300030914A2320932E0930932F0991E0909304
:1015400006099093070993E0909301099091602315
:1015500090FF2CC12091010920682093010920915E
:10156000CB223091CC2221602093CB223093CC220D
:1015700021E091FF0FC0209101092064209301090F
:101580002091CB223091CC2222602093CB22309329
:10159000CC2221E092FF66C0909101099062909365
:1015A00001092091CB223091CC2224602093CB22C0
:1015B0003093CC2221E081FD57C030E082FF34C05F
:1015C000409194235091952340934B2350934C2367
:1015D0004091CB225091CC224F7B4093CB22509311
:1015E000CC221092000A9CE09093090A4091462375
:1015F00050914723415051094093260A5093270A9E
:1016000040914423509145234093280A5093290A3E
:1016100091E09093060A9093070A93E09093010A51
:101620009091602396FDAEC090E0222331F020918E
:1016300050232093000910924323332331F020914B
:1016400040232093000810924F23992331F090916A
:1016500048239093000A109239238093A12381E0BC
:10166000089520E081FFA9CF40917F2350918023EE
:1016700040933C2350933D234091CB225091CC2268
:10168000477C4093CB225093CC22109200089CE0E0
:101690009093090840913A2350913B2341505109BE
:1016A000409326085093270840914D2350914E2394
:1016B000409328085093290840914D2350914E2380
:1016C00040932A0850932B0840914D2350914E236C
:1016D00040932C0850932D0840914D2350914E2358
:1016E00040932E0850932F0891E090930608909312
:1016F000070893E0909301089091602393FD2EC01A
:1017000030E094FF14C04091C423423008F056CF1B
:10171000309101083064309301084091CB22509100
:10172000CC2240614093CB225093CC2231E095FFF4
:1017300045CF9091C423923008F040CF909101089A
:101740009068909301084091CB225091CC22406246
:101750004093CB225093CC2231E030CF3091C42340
:101760003111CECF309101083062309301084091A1
:10177000CB225091CC2248604093CB225093CC2274
:1017800031E0BFCF9091C423911112C09091010A12
:1017900090619093010A4091CB225091CC224064F9
:1017A0004093CB225093CC2291E03FCF20E0E1CE7A
:1017B0009250933008F038CFE9CFFC01808180FF50
:1017C00003C091E09093432381FF03C091E0909385
:1017D0004F2382FF03C091E0909339238093A2238B
:1017E00081E00895FC0180819181009731F0809320
:1017F000A4239093A52381E0089580E00895FC013F
:1018000080819181009731F08093A6239093A72344
:1018100081E0089580E00895FC0180819181009726
:1018200031F08093A8239093A92381E0089580E06C
:101830000895FC012081822F90E08095909583701F
:101840009927892B21F42093AA2381E0089580E031
:101850000895FC0180818093AB2381E00895FC0111
:1018600080818093AC2381E00895FC018081809386
:10187000AD2381E00895FC01808191818093AE23A6
:101880009093AF2381E00895FC0180819181809342
:10189000B0239093B12381E00895FC018081918170
:1018A0008093B2239093B32381E00895FC0180815B
:1018B00091818093B4239093B52381E00895FC0136
:1018C000808191818093B6239093B72381E008951E
:1018D000FC01808191818093B8239093B92381E0AA
:1018E0000895FC01808191818093BA239093BB235A
:1018F00081E00895FC01808191818093BC239093C5
:10190000BD2381E00895FC01808191818093BE23F5
:101910009093BF2381E00895FC01808191818093A1
:10192000C0239093C12381E00895FC0180819181BF
:101930008093C2239093C32381E00895FC018081AA
:101940008093C52381E00895FC0180818093C623A4
:1019500081E0089580E00895FC018081823069F182
:1019600060F08430A9F010F1853019F491E0909383
:1019700038238093CB2381E00895882381F0813040
:10198000C1F79AE0909338238093CB2381E00895A8
:1019900092E0909338238093CB2381E0089594E1E3
:1019A000909338238093CB2381E0089594E0909323
:1019B00038238093CB2381E0089595E090933823DA
:1019C0008093CB2381E00895FC0180818093CC2318
:1019D00081E00895FC0180818093CD2381E008950A
:1019E000FC01208131818091C4238250833040F4F6
:1019F000C9019695879501978093260890932708AB
:101A00002093CE233093CF2381E00895FC012081E1
:101A100031818091C4238250833038F4C901969576
:101A2000879580932808909329082093D02330939A
:101A3000D12381E00895FC01208131818091C4236C
:101A40008350823038F4C9019695879580932A088F
:101A500090932B082093D2233093D32381E00895D1
:101A60000895FC01808191812091C423243039F4B0
:101A70009C013695279520932C0830932D08809350
:101A8000D4239093D52381E008953F924F925F92A3
:101A90006F927F928F929F92AF92BF92CF92DF927E
:101AA000EF92FF920F931F93CF93DF93FC0100817E
:101AB0001181E091C423E53008F079C0F0E0EE0F29
:101AC000FF1FEF58FD4DC081D181C023D123C0FF3E
:101AD0000AC080E1809365060E949A29882319F044
:101AE00081E08093E506C1FF0AC088E08093650627
:101AF0000E949A29882319F082E08093E506CE019E
:101B0000847099272E01E8E04E2255244E01F0E121
:101B10008F2299245E0120E2A222BB246E01E0E420
:101B2000CE22DD247E01F0E8EF22FF243E01662470
:101B300021E07222CC27D270892B49F084E0382E24
:101B4000309265060E949A2981113092E506452857
:101B500039F082E0809365060E949A29811185C040
:101B6000892899F5AB28E9F5CD2809F048C0EF2878
:101B700009F053C0672809F05EC0CD2B09F069C099
:101B8000009354231093552381E0DF91CF911F914F
:101B90000F91FF90EF90DF90CF90BF90AF909F900C
:101BA0008F907F906F905F904F903F900895C0E02E
:101BB000D0E0E12CF12CC12CD12CA12CB12C812C0A
:101BC000912C612C712C892869F281E08093650643
:101BD0000E949A29882331F280E18093E506AB28A0
:101BE00019F281E0809345060E949A29882309F41E
:101BF000BBCF80E28093E506CD2809F4B8CF82E020
:101C0000809345060E949A29882309F4B0CF80E486
:101C10008093E506EF2809F4ADCF84E08093450674
:101C20000E949A29882309F4A5CF80E88093E506CD
:101C3000672809F4A2CF88E0809345060E949A297C
:101C4000882309F49ACF81E080930507CD2B09F40E
:101C500097CF81E0809385060E949A29882309F412
:101C60008FCF82E0809305078BCF88E08093E506D5
:101C700077CF3F924F925F926F927F928F929F9217
:101C8000AF92BF92CF92DF92EF92FF920F931F938A
:101C9000CF93DF93FC0100811181E091C423E530F3
:101CA00008F079C0F0E0EE0FFF1FEF58FD4DC08146
:101CB000D181C023D123C0FF0AC080E18093670691
:101CC0000E949A29882319F081E08093E706C1FFDA
:101CD0000AC088E0809367060E949A29882319F039
:101CE00082E08093E706CE01847099272E01E8E018
:101CF0004E2255244E01F0E18F2299245E0120E20C
:101D0000A222BB246E01E0E4CE22DD247E01F0E8B5
:101D1000EF22FF243E01662421E07222CC27D270FC
:101D2000892B49F084E0382E309267060E949A2968
:101D300081113092E706452839F082E080936706EA
:101D40000E949A29811185C0892899F5AB28E9F567
:101D5000CD2809F048C0EF2809F053C0672809F0E2
:101D60005EC0CD2B09F069C000935823109359230E
:101D700081E0DF91CF911F910F91FF90EF90DF9065
:101D8000CF90BF90AF909F908F907F906F905F901B
:101D90004F903F900895C0E0D0E0E12CF12CC12C91
:101DA000D12CA12CB12C812C912C612C712C892847
:101DB00069F281E0809367060E949A29882331F2B4
:101DC00080E18093E706AB2819F281E08093470613
:101DD0000E949A29882309F4BBCF80E28093E7060A
:101DE000CD2809F4B8CF82E0809347060E949A2953
:101DF000882309F4B0CF80E48093E706EF2809F444
:101E0000ADCF84E0809347060E949A29882309F485
:101E1000A5CF80E88093E706672809F4A2CF88E081
:101E2000809347060E949A29882309F49ACF81E07B
:101E300080930707CD2B09F497CF81E08093870625
:101E40000E949A29882309F48FCF82E080930707A4
:101E50008BCF88E08093E70677CF2F923F924F9207
:101E60005F926F927F928F929F92AF92BF92CF922A
:101E7000DF92EF92FF920F931F93CF93DF93FC01BA
:101E800000811181E091C423E53008F0B6C0F0E094
:101E9000EE0FFF1FEF58FD4DC081D181C023D1232C
:101EA000C0FF2BC180E1809365060E949A29882398
:101EB00009F445C181E08093E506CE01827099273F
:101EC0004E01F4E08F2299245E0128E0A222BB2477
:101ED0006E01E0E1CE22DD247E01F0E2EF22FF245C
:101EE0003E0120E4622277242E01E0E84E225524B0
:101EF0001E012224F1E03F22CC27D270892B09F465
:101F000097C088E0809365060E949A29882309F487
:101F100095C082E08093E506892809F492C084E0A8
:101F2000982E909265060E949A29882309F48EC003
:101F30009092E50682E0AB2809F48CC08093650698
:101F40000E949A29882309F48AC088E08093E506D4
:101F500081E0CD2809F487C0809365060E949A2904
:101F6000882309F485C080E18093E50681E0EF28AD
:101F700009F482C0809345060E949A29882309F4B7
:101F800080C080E28093E50682E0672809F47DC086
:101F9000809345060E949A29882309F47BC080E437
:101FA0008093E50684E0452809F478C080934506CF
:101FB0000E949A29882309F476C080E88093E50678
:101FC00088E0232809F473C0809345060E949A296B
:101FD000882309F471C081E08093050781E0CD2B4F
:101FE00009F46EC0809385060E949A29882309F41B
:101FF0006CC082E08093050768C0C0E0D0E0212C6F
:10200000312C412C512C612C712CE12CF12CC12C48
:10201000D12CA12CB12C812C912C80E090E020E1DE
:102020002093660621E02093E606892B09F069CF0C
:1020300088E08093660682E08093E606892809F0AE
:102040006ECF84E0809366068093E60682E0AB283C
:1020500009F074CF8093660688E08093E60681E0FD
:10206000CD2809F079CF8093660680E18093E6065B
:1020700081E0EF2809F07ECF8093460680E28093CE
:10208000E60682E0672809F083CF8093460680E465
:102090008093E60684E0452809F088CF80934606C1
:1020A00080E88093E60688E0232809F08DCF8093AE
:1020B000460681E08093060781E0CD2B09F092CFA0
:1020C0008093860682E08093060700935A2310933C
:1020D0005B2381E0DF91CF911F910F91FF90EF90F3
:1020E000DF90CF90BF90AF909F908F907F906F9038
:1020F0005F904F903F902F900895CE018270992766
:102100004E0124E0822299245E01E8E0AE22BB2445
:102110006E01F0E1CF22DD247E0120E2E222FF24E5
:102120003E01E0E46E2277242E01F0E84F22552490
:102130001E01222421E03222CC27D27070CFCE01A2
:10214000827099274E01E4E08E2299245E01F8E026
:10215000AF22BB246E0120E1C222DD247E01E0E239
:10216000EE22FF243E01F0E46F2277242E0120E8C6
:10217000422255241E012224E1E03E22CC27D270C7
:1021800054CF0F93CF93FC01C081C23009F417C123
:1021900060F5CC2309F4E4C0C13009F08CC001E043
:1021A00020E240E061E080E896E00E940C2180E0BF
:1021B00098E00E9442210E949A29882381F0C093CE
:1021C000450680E28093E50680E48093E50682E0A0
:1021D000809305078091C423843009F42FC1C093F4
:1021E000C42381E0CF910F910895C33009F467C0F3
:1021F000C43009F060C000E024E040E061E080E825
:1022000096E00E940C2120E240E061E080E896E048
:102210000E940C210E949A29882371F080E2809309
:10222000E50680E48093E50680E88093E5068091EA
:10223000C423813009F41FC1109200088CE0809300
:1022400009088091CE239091CF2396958795019789
:1022500080932608909327088091D0239091D123D2
:102260009695879580932808909329088091D2238A
:102270009091D3239695879580932A0890932B0865
:102280008091D4239091D5239695879580932C089F
:1022900090932D0883E1809301088091010880626A
:1022A000809301088091010880648093010885E093
:1022B0008093000894CF80E0CF910F91089500E0C3
:1022C00024E040E061E080E896E00E940C2120E2FA
:1022D00040E061E080E896E00E940C210E949A298B
:1022E000882371F080E28093E50680E48093E50620
:1022F0008091C423813009F4BAC0843009F4B3C09A
:10230000109200088CE0809309088091CE23909170
:10231000CF23969587950197809326089093270859
:102320008091D0239091D12396958795809328080A
:10233000909329088091D2239091D32396958795E5
:1023400080932A0890932B0883E180930108809161
:10235000010880628093010885E0809300083FCFE8
:1023600000E024E040E061E080E896E00E940C217B
:1023700020E240E061E080E896E00E940C2180E0ED
:1023800098E00E94422181E08093460690E290937B
:10239000E60692E09093460620E42093E60624E0C9
:1023A0002093460620E82093E60628E02093460680
:1023B00080930607809386069093060710CF00E06F
:1023C00024E040E061E080E896E00E940C2120E2F9
:1023D00040E061E080E896E00E940C210E949A298A
:1023E000882359F080E28093E5068091C4238130F0
:1023F000A1F1833071F1843029F1109200088CE052
:10240000809309088091CE239091CF23969587954C
:10241000019780932608909327088091D02390916C
:10242000D12396958795809328089093290883E176
:102430008093010885E080930008D1CE80E88093E6
:10244000E606CDCE80E48093E60680E88093E6063B
:10245000D4CF80E48093E606D0CF80E48093E60674
:10246000C0930607CACF80E88093E60649CF82E092
:102470008093060745CF82E080930607DDCE80E09B
:10248000089580E0089580E0089580E0089580E058
:10249000089580E0089580E0089580E0089508950B
:1024A0000895089508950895089508950895089544
:1024B0000895089508950895089508950895089534
:1024C0000895089508950895089508950895089524
:1024D0000895089508950895089508950895089514
:1024E0000895089508950895089508950895089504
:1024F00008950895089508950895089508950895F4
:1025000008950895089508950895089508950895E3
:10251000089508950895089508958F929F92AF9217
:10252000BF92CF92DF92EF92FF920F931F93FC0125
:10253000C080D180E280F38020E030E048EC52E4BB
:10254000C701B6010E94C41F18160CF492C020E007
:1025500030E040E85FE3C701B6010E947A1E87FDC4
:1025600088C0C0929023D0929123E0929223F0925F
:10257000932320918C2330918D2340918E23509171
:102580008F2396E4E92E93E2F92E08E413E260E04B
:1025900078E488EE91E00E944721882309F475C011
:1025A000E0914823E150E73008F081C0F0E0EE0F01
:1025B000FF1FED59FD4D6081718180E090E0C0907A
:1025C0004623D0904723E12CF12CA70196010E94CD
:1025D000AC2C0E94121F9B01AC0160E074E284EFFE
:1025E0009BE40E947E1E60939623709397238093B2
:1025F000982390939923C701B6010E94121F4B01A3
:102600005C0120E030E048EC52E46091902370914E
:10261000912380919223909193230E947E1EA50185
:1026200094010E94C81F20E030E040E05FE30E9478
:10263000161E0E94E61E6B017C0180E090E00E9465
:10264000121FA50194010E947E1E20E030E048EC9C
:1026500052E40E94C81F60939A2370939B23809337
:102660009C2390939D23C0924423D092452381E0E4
:1026700001C080E01F910F91FF90EF90DF90CF900D
:10268000BF90AF909F908F900895109296231092D4
:102690009723109298231092992310929A231092C4
:1026A0009B2310929C2310929D2381E0E3CF60E056
:1026B00070E0CB0184CF8F929F92AF92BF92CF9266
:1026C000DF92EF92FF920F931F93FC01C080D180A5
:1026D000E280F38020E030E048EC52E4C701B6012C
:1026E0000E94C41F18160CF492C020E030E040E8AD
:1026F0005FE3C701B6010E947A1E87FD88C0C092C1
:102700006623D0926723E0926823F0926923209198
:1027100062233091632340916423509165239EE3AB
:10272000E92E93E2F92E00E513E260E078E488EE0A
:1027300091E00E944721882309F475C0E09150235D
:10274000E150E73008F081C0F0E0EE0FFF1FED59D7
:10275000FD4D6081718180E090E0C0903E23D0907B
:102760003F23E12CF12CA70196010E94AC2C0E9482
:10277000121F9B01AC0160E074E284EF9BE40E94B5
:102780007E1E60936C2370936D2380936E239093D1
:102790006F23C701B6010E94121F4B015C0120E0AC
:1027A00030E048EC52E46091662370916723809199
:1027B0006823909169230E947E1EA50194010E94C6
:1027C000C81F20E030E040E05FE30E94161E0E9438
:1027D000E61E6B017C0180E090E00E94121FA501C3
:1027E00094010E947E1E20E030E048EC52E40E94FA
:1027F000C81F60937023709371238093722390930A
:102800007323C0924923D0924A2381E001C080E023
:102810001F910F91FF90EF90DF90CF90BF90AF90FE
:102820009F908F90089510926C2310926D231092B8
:102830006E2310926F2310927023109271231092C6
:1028400072231092732381E0E3CF60E070E0CB014C
:1028500084CF8F929F92AF92BF92CF92DF92EF92EE
:10286000FF920F931F93FC01C080D180E280F38020
:1028700020E030E048EC52E4C701B6010E94C41FDA
:1028800018160CF492C020E030E040E85FE3C70186
:10289000B6010E947A1E87FD88C0C0927B23D09229
:1028A0007C23E0927D23F0927E2320917723309148
:1028B00078234091792350917A239AE3E92E93E289
:1028C000F92E00E413E260E078E488EE91E00E94E3
:1028D0004721882309F475C0E0914023E150E73097
:1028E00008F081C0F0E0EE0FFF1FED59FD4D608153
:1028F000718180E090E0C0903A23D0903B23E12C9E
:10290000F12CA70196010E94AC2C0E94121F9B0182
:10291000AC0160E074E284EF9BE40E947E1E609351
:102920008123709382238093832390938423C70110
:10293000B6010E94121F4B015C0120E030E048EC20
:1029400052E460917B2370917C2380917D23909150
:102950007E230E947E1EA50194010E94C81F20E0D4
:1029600030E040E05FE30E94161E0E94E61E6B010D
:102970007C0180E090E00E94121FA50194010E945A
:102980007E1E20E030E048EC52E40E94C81F6093B5
:102990008523709386238093872390938823C09206
:1029A0004D23D0924E2381E001C080E01F910F9112
:1029B000FF90EF90DF90CF90BF90AF909F908F905F
:1029C00008951092812310928223109283231092F3
:1029D00084231092852310928623109287231092CD
:1029E000882381E0E3CF60E070E0CB0184CF8F9259
:1029F0009F92AF92BF92CF92DF92EF92FF920F938E
:102A00001F93FC0180809180A280B38020E030E0A1
:102A10004AE754E4C501B4010E94C41F181654F0DB
:102A200020E030E040E05FE3C501B4010E947A1E7F
:102A300087FF0CC080E01F910F91FF90EF90DF9017
:102A4000CF90BF90AF909F908F9008958092772302
:102A500090927823A0927923B0927A239AE3E92E78
:102A600093E2F92E00E413E2A501940160E078E41A
:102A700088EE91E00E944721882309F469C0E09123
:102A80004023E150E73008F075C0F0E0EE0FFF1F83
:102A9000ED59FD4D6081718180E090E080903A2396
:102AA00090903B23A12CB12CA50194010E94AC2C49
:102AB0000E94121F9B01AC0160E074E284EF9BE472
:102AC0000E947E1E609381237093822380938323D0
:102AD00090938423C501B4010E94121F6B017C01F5
:102AE00020E030E048EC52E460917B2370917C233D
:102AF00080917D2390917E230E947E1EA7019601E6
:102B00000E94C81F20E030E040E05FE30E94161EF4
:102B10000E94E61E4B015C0180E090E00E94121FC3
:102B2000A70196010E947E1E20E030E048EC52E4AE
:102B30000E94C81F60938523709386238093872308
:102B40009093882380924D2390924E2381E073CFFF
:102B50001092812310928223109283231092842357
:102B60001092852310928623109287231092882337
:102B700081E061CF60E070E0CB0190CF8F929F92B7
:102B8000AF92BF92CF92DF92EF92FF920F931F937B
:102B9000FC0180809180A280B38020E030E04AE791
:102BA00054E4C501B4010E94C41F181654F020E07B
:102BB00030E040E05FE3C501B4010E947A1E87FF68
:102BC0000CC080E01F910F91FF90EF90DF90CF90AD
:102BD000BF90AF909F908F90089580928C23909299
:102BE0008D23A0928E23B0928F2396E4E92E93E258
:102BF000F92E08E413E2A501940160E078E488EE80
:102C000091E00E944721882309F468C0E09148239D
:102C1000E150E73008F074C0F0E0EE0FFF1FED590F
:102C2000FD4D6081718180E090E08090462390901E
:102C30004723A12CB12CA50194010E94AC2C0E9429
:102C4000121F9B01AC0160E074E284EF9BE40E94E0
:102C50007E1E60939623709397238093982390937E
:102C60009923C501B4010E94121F6B017C0120E071
:102C700030E048EC52E46091902370919123809170
:102C80009223909193230E947E1EA70196010E9499
:102C9000C81F20E030E040E05FE3C8D70E94E61E96
:102CA0004B015C0180E090E00E94121FA701960199
:102CB0000E947E1E20E030E048EC52E40E94C81FD3
:102CC00060939A2370939B2380939C2390939D23DE
:102CD000809244239092452381E074CF10929623F2
:102CE00010929723109298231092992310929A236E
:102CF00010929B2310929C2310929D2381E062CF1F
:102D000060E070E0CB0191CF8F929F92AF92BF9223
:102D1000CF92DF92EF92FF920F931F93FC0180807E
:102D20009180A280B38020E030E04AE754E4C501FE
:102D3000B4010E94C41F18164CF020E030E040E0BF
:102D40005FE3C501B401D6D787FF0CC080E01F91B7
:102D50000F91FF90EF90DF90CF90BF90AF909F903A
:102D60008F9008958092622390926323A0926423AF
:102D7000B09265239EE3E92E93E2F92E00E513E27B
:102D8000A501940160E078E488EE91E00E9447217B
:102D9000882309F463C0E0915023E150E73008F044
:102DA0006FC0F0E0EE0FFF1FED59FD4D60817181A6
:102DB00080E090E080903E2390903F23A12CB12CA6
:102DC000A50194010E94AC2C0E94121F9B01AC0132
:102DD00060E074E284EF9BE491D760936C2370937E
:102DE0006D2380936E2390936F23C501B4010E94DD
:102DF000121F6B017C0120E030E048EC52E460914E
:102E0000662370916723809168239091692376D718
:102E1000A70196010E94C81F20E030E040E05FE378
:102E200005D7D4D74B015C0180E090E0FBD7A70128
:102E3000960164D720E030E048EC52E40E94C81FBD
:102E40006093702370937123809372239093732304
:102E50008092492390924A2381E079CF10926C238B
:102E600010926D2310926E2310926F231092702394
:102E700010927123109272231092732381E067CF16
:102E800060E070E0CB0196CF8F929F92AF92BF929D
:102E9000CF92DF92EF92FF920F931F9320916223C4
:102EA0003091632340916423509165239EE3E92E82
:102EB00093E2F92E00E513E260E078E488EE91E019
:102EC0000E944721882309F460C0E0915023E1501B
:102ED000E73008F075C0F0E0EE0FFF1FED59FD4D33
:102EE0006081718180E090E0C0903E23D0903F23CC
:102EF000E12CF12CA70196010E94AC2C93D79B01E9
:102F0000AC0160E074E284EF9BE4F8D660936C233C
:102F100070936D2380936E2390936F23C701B60146
:102F200081D74B015C0120E030E048EC52E4609135
:102F30006623709167238091682390916923DED680
:102F4000A50194010E94C81F20E030E040E05FE34B
:102F50006DD63CD76B017C0180E090E063D7A50182
:102F60009401CCD620E030E048EC52E40E94C81F27
:102F700060937023709371238093722390937323D3
:102F8000C0924923D0924A2310C010926C23109211
:102F90006D2310926E2310926F2310927023109263
:102FA000712310927223109273231F910F91FF903F
:102FB000EF90DF90CF90BF90AF909F908F9008954B
:102FC00060E070E0CB0190CF8F929F92AF92BF9262
:102FD000CF92DF92EF92FF920F931F93209177236E
:102FE000309178234091792350917A239AE3E92E06
:102FF00093E2F92E00E413E260E078E488EE91E0D9
:103000000E944721882309F45EC0E0914023E150EB
:10301000E73008F073C0F0E0EE0FFF1FED59FD4DF3
:103020006081718180E090E0C0903A23D0903B2392
:10303000E12CF12CA70196010E94AC2CF3D69B0148
:10304000AC0160E074E284EF9BE458D66093812386
:10305000709382238093832390938423C701B601C6
:10306000E1D64B015C0120E030E048EC52E4609195
:103070007B2370917C2380917D2390917E233ED68B
:10308000A501940185D720E030E040E05FE3CED594
:103090009DD66B017C0180E090E0C4D6A50194012F
:1030A0002DD620E030E048EC52E472D760938523BF
:1030B000709386238093872390938823C0924D2317
:1030C000D0924E2310C0109281231092822310922E
:1030D00083231092842310928523109286231092CA
:1030E0008723109288231F910F91FF90EF90DF901C
:1030F000CF90BF90AF909F908F90089560E070E068
:10310000CB0192CF8F929F92AF92BF92CF92DF92DC
:10311000EF92FF920F931F9320918C2330918D2378
:1031200040918E2350918F2396E4E92E93E2F92E5D
:1031300008E413E260E078E488EE91E00E94472121
:10314000882309F45EC0E0914823E150E73008F09D
:1031500073C0F0E0EE0FFF1FED59FD4D60817181EE
:1031600080E090E0C0904623D0904723E12CF12CE2
:10317000A70196010E94AC2C55D69B01AC0160E0E2
:1031800074E284EF9BE4BAD56093962370939723FF
:103190008093982390939923C701B60143D64B019E
:1031A0005C0120E030E048EC52E4609190237091A3
:1031B00091238091922390919323A0D5A50194010E
:1031C000E7D620E030E040E05FE330D5FFD56B018B
:1031D0007C0180E090E026D6A50194018FD520E007
:1031E00030E048EC52E4D4D660939A2370939B234A
:1031F00080939C2390939D23C0924423D092452397
:1032000010C0109296231092972310929823109238
:10321000992310929A2310929B2310929C23109230
:103220009D231F910F91FF90EF90DF90CF90BF9063
:10323000AF909F908F90089560E070E0CB0192CFA7
:103240000F9320E040E062E080E896E0B8D720E00D
:1032500040E065E080E896E0B2D720E048E163E036
:1032600080E896E0ACD720E040E160E080E096E0C6
:10327000A6D720E040E161E080E096E0A0D720E022
:1032800040E162E080E096E09AD720E040E163E030
:1032900080E096E094D720E040E164E080E096E0B2
:1032A0008ED720E040E165E080E096E088D720E01E
:1032B00040E167E080E096E082D720E040E160E016
:1032C00080E296E07CD720E040E161E080E296E099
:1032D00076D720E040E162E080E296E070D720E01F
:1032E00040E163E080E296E06AD720E040E164E0FC
:1032F00080E296E064D720E040E167E080E296E07B
:103300005ED720E040E164E080E496E058D720E01A
:1033100040E165E080E496E052D720E040E165E0DE
:1033200080E696E04CD720E040E161E080E896E05E
:1033300046D720E040E166E080E896E040D720E014
:1033400040E167E080E896E03AD720E040E160E0C5
:1033500080EA96E034D720E040E161E080EA96E040
:103360002ED720E040E164E080EA96E028D720E014
:1033700040E165E080EA96E022D720E040E166E0A7
:1033800080EA96E01CD720E040E167E080EA96E022
:1033900016D720E040E163E080E097E010D720E01E
:1033A00040E164E080E097E00AD720E040E165E09A
:1033B00080E097E004D720E040E167E080E097E01C
:1033C000FED620E040E163E080E297E0F8D620E01E
:1033D00040E164E080E297E0F2D620E040E165E081
:1033E00080E297E0ECD620E040E166E080E297E002
:1033F000E6D620E040E167E080E297E0E0D620E01A
:1034000040E160E080EC97E0DAD620E040E161E066
:1034100080EC97E0D4D620E040E162E080EC97E0D9
:10342000CED620E040E163E080EC97E0C8D600E033
:1034300024E040E061E080E896E0EED620E240E063
:1034400061E080E896E0E8D621E040E060E080EED0
:1034500096E0CAD621E040E061E080EE96E0C4D676
:1034600021E040E062E080EE96E0BED621E040E060
:1034700063E080EE96E0B8D621E040E064E080EEC4
:1034800096E0B2D621E040E065E080EE96E0ACD672
:1034900021E040E066E080EE96E0A6D621E040E044
:1034A00067E080EE96E0A0D621E040E060E080E0BA
:1034B00097E09AD621E040E061E080E097E094D682
:1034C00021E040E062E080E097E08ED621E040E03D
:1034D00066E080E096E088D621E040E065E080E2AA
:1034E00096E082D621E040E066E080E296E07CD67D
:1034F00021E040E067E080E696E076D621E040E01B
:1035000066E080E696E070D621E040E064E080E688
:1035100096E06AD621E040E063E080E696E064D67B
:1035200021E040E062E080E696E05ED621E040E007
:1035300061E080E696E058D621E040E060E080E679
:1035400096E052D621E040E060E080E496E04CD680
:1035500021E040E061E080E496E046D621E040E0F2
:1035600062E080E496E040D621E040E063E080E461
:1035700096E03AD621E040E060E080E896E034D67C
:10358000E0EEF6E081E0868322E0268394E09683F5
:1035900048E0468350E1568370E2768330E4368318
:1035A00060E86683E0E0F7E08683268396833093C5
:1035B0000606E0E2F6E076833683E0E6F6E0668330
:1035C000368356834683968326838683E0E4F6E03B
:1035D0008683268396834683809386060F9108957B
:1035E000C0918806C2FB882780F99091880695FFD4
:1035F00002C0C2E001C0C0E0C82B109251238091EC
:10360000CD228C2780FF9EC181FDA0C180E18C2B43
:103610008093512390917523292F2F7009F43FC077
:1036200084FF3DC080FF1EC0933021F0943071F0C4
:103630009130A9F581E08093A12381EA93E20E9471
:103640005A0A909175238091512329C081E080937B
:10365000A22382EA93E20E94DD0B90917523809170
:1036600051231DC0933081F0943011F09230B9F4A1
:1036700081E08093A12381EA93E20E945A0A90910B
:103680007523809151230BC081E08093A22382EAAD
:1036900093E20E94DD0B9091752380915123292F95
:1036A000207FB1F185FF34C081FF19C0903219F03D
:1036B000903359F02DC081E08093A12381EA93E2F9
:1036C0000E945A0A8091512323C081E08093A22353
:1036D00082EA93E20E94DD0B8091512319C090325F
:1036E00071F0903311F0903199F481E08093A1232F
:1036F00081EA93E20E945A0A8091512309C081E035
:103700008093A22382EA93E20E94DD0B80915123F1
:1037100090918A23292F2F7009F43FC084FF3DC068
:1037200080FF1EC0933021F0943071F09130A9F5E4
:1037300082E08093A12381EA93E20E945A0A909149
:103740008A238091512329C082E08093A22382EAB8
:1037500093E20E94DD0B90918A23809151231DC03A
:10376000933081F0943011F09230B9F482E080937C
:10377000A12381EA93E20E945A0A90918A238091C0
:1037800051230BC082E08093A22382EA93E20E943D
:10379000DD0B90918A2380915123292F207FB1F155
:1037A00085FF34C081FF19C0903219F0903359F071
:1037B0002DC082E08093A12381EA93E20E945A0AFD
:1037C0008091512323C082E08093A22382EA93E276
:1037D0000E94DD0B8091512319C0903271F090331B
:1037E00011F0903199F482E08093A12381EA93E271
:1037F0000E945A0A8091512309C082E08093A2233B
:1038000082EA93E20E94DD0B8091512390919F23E5
:10381000292F2F70F1F184FF3CC080FF1DC0933031
:1038200021F0943071F09130A1F584E08093A123D0
:1038300081EA93E20E945A0A90919F23809151233A
:1038400028C09093A22382EA93E20E94DD0B90911C
:103850009F23809151231DC0933081F0943011F04B
:103860009230B9F484E08093A12381EA93E20E942C
:103870005A0A90919F23809151230BC084E080933A
:10388000A22382EA93E20E94DD0B90919F23809114
:103890005123292F207FB1F185FF34C081FF19C04A
:1038A000903219F0903359F02DC084E08093A12319
:1038B00081EA93E20E945A0A8091512323C084E056
:1038C0008093A22382EA93E20E94DD0B8091512330
:1038D00019C0903271F0903311F0903199F484E076
:1038E0008093A12381EA93E20E945A0A8091512396
:1038F00009C084E08093A22382EA93E20E94DD0B58
:1039000080915123282F22952F70909152239370EC
:103910009823922379F4837090E08095909523709A
:1039200030E0822393232091532330E0822393239A
:10393000009721F061E080E20E949226C093CD22A0
:10394000189506C081FFFACF80E261CE80E35FCE9A
:1039500080917623813031F48093A32361E084E465
:103960000E9492260E949A29882389F08091CB2276
:1039700080FF03C092E09093E50681FF03C094E0CE
:103980009093E50682FF03C088E08093E5061895D2
:103990000E949A29882389F08091CB2280FF03C05E
:1039A00092E09093E60681FF03C094E09093E606D0
:1039B00082FF03C088E08093E6068091432388233A
:1039C000D9F08091CB229091CC2280FF03C028E0D7
:1039D0002093660681FF03C024E02093660682FFE1
:1039E00003C022E020936606887F8093CB229093C9
:1039F000CC2280E099E046D480917423813031F567
:103A00008091412390914223019780934123909389
:103A100042230097D9F48091CB229091CC2280FF51
:103A200003C028E02093660681FF03C024E02093B2
:103A3000660682FF03C022E020936606887F80939B
:103A4000CB229093CC2280E099E01CD418958091F1
:103A50008B23813039F482E08093A32361E084E4F6
:103A60000E9492260E949A29882389F08091CB2275
:103A700083FF03C090E49093E50684FF03C090E8C1
:103A80009093E50685FF03C081E0809305071895B4
:103A90000E949A29882389F08091CB2283FF03C05A
:103AA00090E49093E60684FF03C090E89093E606C6
:103AB00085FF03C081E08093060780914F23882310
:103AC000D9F08091CB229091CC2283FF03C022E0D9
:103AD0002093460684FF03C024E02093460685FF1A
:103AE00003C028E020934606877C8093CB229093E6
:103AF000CC2280E098E0C6D380918923813031F5D3
:103B000080913C2390913D23019780933C23909397
:103B10003D230097D9F48091CB229091CC2283FF52
:103B200003C022E02093460684FF03C024E02093D4
:103B3000460685FF03C028E020934606877C8093D5
:103B4000CB229093CC2280E098E09CD31895809172
:103B5000A023813039F484E08093A32361E084E4DE
:103B60000E9492260E949A29882339F08091CB22C4
:103B700086FF03C082E08093050718950E949A296A
:103B8000882371F08091CB229091CC2286FF3FC098
:103B900022E0209306072091392321110BC015C084
:103BA00080913923882389F08091CB229091CC2277
:103BB00086FF03C021E0209386068F7B8093CB2273
:103BC0009093CC2280E09AE05DD380919E23813057
:103BD000E1F420914B2330914C2321503109209363
:103BE0004B2330934C232115310579F42091CB22BE
:103BF0003091CC2226FD809386062F7B2093CB220A
:103C00003093CC2280E09AE03DD3189505C02091F6
:103C100039232111D2CFD9CF0E9480048091A200F4
:103C200087688093A2007894FFCF5058BB27AA27BB
:103C30000ED070C161D130F066D120F031F49F3FD9
:103C400011F41EF456C10EF4E095E7FB4CC1E92FC8
:103C500072D180F3BA17620773078407950718F0CB
:103C600071F49EF58AC10EF4E0950B2EBA2FA02DAB
:103C70000B01B90190010C01CA01A0011124FF2719
:103C8000591B99F0593F50F4503E68F11A16F04014
:103C9000A22F232F342F4427585FF3CF4695379513
:103CA0002795A795F0405395C9F77EF41F16BA0BD8
:103CB000620B730B840BBAF09150A1F0FF0FBB1F86
:103CC000661F771F881FC2F70EC0BA0F621F731FCF
:103CD000841F48F4879577956795B795F7959E3F2C
:103CE00008F0B3CF9395880F08F09927EE0F9795BA
:103CF00087950895D4D008F481E008950CD00AC1C6
:103D000002D140F0F9D030F021F45F3F19F0EBC060
:103D1000511134C1EEC00FD198F39923C9F3552343
:103D2000B1F3951B550BBB27AA27621773078407AE
:103D300038F09F5F5F4F220F331F441FAA1FA9F364
:103D400033D00E2E3AF0E0E830D091505040E69556
:103D5000001CCAF729D0FE2F27D0660F771F881FB7
:103D6000BB1F261737074807AB07B0E809F0BB0BA6
:103D7000802DBF01FF2793585F4F2AF09E3F5105CA
:103D800068F0B1C0FBC05F3FECF3983EDCF3869572
:103D900077956795B795F7959F5FC9F7880F911D40
:103DA0009695879597F90895E1E0660F771F881F2C
:103DB000BB1F621773078407BA0720F0621B730BDF
:103DC000840BBA0BEE1F88F7E0950895BCD088F0FD
:103DD0009F5790F0B92F9927B751A0F0D1F0660FF7
:103DE000771F881F991F1AF0BA95C9F712C0B13012
:103DF00081F0C3D0B1E00895C0C0672F782F882725
:103E0000B85F39F0B93FCCF3869577956795B39550
:103E1000D9F73EF490958095709561957F4F8F4FBF
:103E20009F4F0895E89409C097FB3EF490958095C4
:103E3000709561957F4F8F4F9F4F9923A9F0F92F70
:103E400096E9BB279395F695879577956795B795EE
:103E5000F111F8CFFAF4BB0F11F460FF1BC06F5FD4
:103E60007F4F8F4F9F4F16C0882311F096E911C0E6
:103E7000772321F09EE8872F762F05C0662371F007
:103E800096E8862F70E060E02AF09A95660F771F1B
:103E9000881FDAF7880F9695879597F90895990FF7
:103EA0000008550FAA0BE0E8FEEF16161706E80704
:103EB000F907C0F012161306E407F50798F0621B25
:103EC000730B840B950B39F40A2661F0232B242BFA
:103ED000252B21F408950A2609F4A140A6958FEF19
:103EE000811D811D089597F99F6780E870E060E06B
:103EF00008959FEF80EC089500240A941616170683
:103F000018060906089500240A94121613061406CA
:103F100005060895092E0394000C11F4882352F02D
:103F2000BB0F40F4BF2B11F460FF04C06F5F7F4FE5
:103F30008F4F9F4F089557FD9058440F551F59F0CC
:103F40005F3F71F04795880F97FB991F61F09F3F86
:103F500079F087950895121613061406551FF2CFAF
:103F60004695F1DF08C0161617061806991FF1CFFF
:103F700086957105610508940895E894BB27662726
:103F80007727CB0197F908958ADF08F48FEF08951A
:103F90000BD0C0CFB1DF28F0B6DF18F0952309F0C1
:103FA000A2CFA7CF1124EACFC6DFA0F3959FD1F30C
:103FB000950F50E0551F629FF001729FBB27F00DD7
:103FC000B11D639FAA27F00DB11DAA1F649F66272C
:103FD000B00DA11D661F829F2227B00DA11D621F7B
:103FE000739FB00DA11D621F839FA00D611D221F35
:103FF000749F3327A00D611D231F849F600D211D19
:10400000822F762F6A2F11249F5750408AF0E1F0BB
:1040100088234AF0EE0FFF1FBB1F661F771F881F04
:1040200091505040A9F79E3F510570F05CCFA6CF4C
:104030005F3FECF3983EDCF3869577956795B795EF
:10404000F795E7959F5FC1F7FE2B880F911D969519
:10405000879597F90895222309F45BC030E23093E5
:10406000520038E0309350003091510033FFFCCFC4
:10407000611538E4730738EE830731E0930709F4DC
:1040800082C0611534E2730734EF8307910509F4A8
:104090007CC0611532E173073AE78307910509F4A3
:1040A0004BC0611539E073073DE38307910509F4BF
:1040B0006EC0603834E873073EE18307910509F468
:1040C00060C0603432E473073FE08307910509F470
:1040D00062C0603231EA730737E08307910509F463
:1040E00058C0603930ED730733E08307910509F458
:1040F00054C0683438EE730731E08307910509F442
:104100004EC06432744F8105910509F04AC084E4C1
:1041100014C032E2309352003AE0309350003091B4
:10412000510031FFFCCF3091510033FDA1CF3091D0
:10413000510033FFF8CF9CCF8CE098ED94BF222341
:1041400099F023E02093400094BF809341004423E2
:1041500029F088ED84BF81E08093420088ED84BF20
:1041600081E080938000089521E02093400094BF77
:104170008093410094BF82E08093560020936000BA
:10418000E6CF8CE1DACF80E0D8CF84E0D6CF84E1EF
:10419000D4CF8CE2D2CF84E2D0CF84E3CECF8CE3F5
:1041A000CCCF80E0089588ED84BF81E080938000CB
:1041B000089588ED84BF83E080938000FFCFFC01E9
:1041C000308181E090E0062E01C0880F0A94EAF762
:1041D0008095832380837096E60FF11D8081422BAA
:1041E000807C482B40830895FC01308181E090E081
:1041F000062E01C0880F0A94EAF7382B3083709698
:10420000E60FF11D8081807C842B8083211103C007
:1042100080818760808308950F93FC013185842F0E
:1042200090E0880F991FA3E0B0E0082E01C0AA0F0C
:104230000A94EAF7A095A323082E01C0660F0A94FA
:10424000EAF7A62BA18741110FC00023A9F022870E
:10425000248581E090E0042E01C0880F0A94EAF7DB
:10426000282B24870F910895413091F7011108C040
:104270008385822B8387ECCF8285822B8287E8CF50
:104280002387E6CFFC0110822CE0218708954F920E
:104290005F926F927F928F929F92AF92BF92EF92B6
:1042A000FF920F931F932B013C0149015A0120E01B
:1042B00030E0A901C501B4011DDD882309F43EC029
:1042C000C301B201AFDDA501940118DD20E030E0AB
:1042D00040E05FE3ABDC7ADD6115710521E0820728
:1042E0009105A0F421E0F8012083F7016083718338
:1042F00081E01F910F91FF90EF90BF90AF909F9042
:104300008F907F906F905F904F90089596958795CE
:104310007795679561157105F1E08F07910580F03C
:10432000969587957795679561157105F1E08F07EB
:10433000910550F423E0F8012083D7CF80E0D9CF56
:1043400022E0F8012083D1CF9695879577956795E0
:1043500061157105F1E08F07910588F0A3E096954E
:10436000879577956795AA95D1F761157105F1E065
:104370008F07910540F425E0F8012083B6CF24E0B3
:10438000F8012083B2CF9695879577956795969596
:1043900087957795679561157105F1E08F07910510
:1043A00020F426E0F8012083A0CF96958795779595
:1043B0006795969587957795679561157105F1E0F5
:1043C0008F07910508F0BACF27E0F80120838DCF41
:1043D000FC0110828CE081874150510946A357A30C
:1043E0002683608308952091CF0127FDFCCF809321
:1043F000C0019093C1011092C20186E08093CA016E
:1044000088ED84BF81E08093CB018091C401089541
:104410002091CF0127FDFCCF2091CF0121FF08C0C3
:1044200026E32093CA0128ED24BF21E02093CB018D
:1044300023E32093CA018093C0019093C10110929D
:10444000C2016093C40185E38093CA0188ED84BFF3
:1044500081E08093CB010895FF920F931F93CF9338
:10446000DF938C01C7E0D0E0F12C08C0F1100BC045
:10447000CE01CEDF2196C032D10571F0F8016191F5
:104480008F016111F3CF60E0CE01C2DFFF24F3940E
:104490002196C032D10591F7DF91CF911F910F91F5
:1044A000FF900895CF93962F803208F47FC0282F75
:1044B00030E020523109F901E05FFD4D5081220FBB
:1044C000331FF901E457FE4DC081F901E85FFE4D4D
:1044D000208131812093D4223093D5229093D6230A
:1044E000252F2F702C9FC02D1124EAE0EC0FE093B4
:1044F000D7238093D8232FEF2093D9235061509353
:10450000DA2341116BC08091D0229091D122A091E9
:10451000D222B091D3228093DB239093DC23A0930B
:10452000DD23B093DE232091CE223091CF22209341
:10453000DF233093E0238E2F90E08E3F9105A4F58A
:104540002091D4223091D52240E0842F90E0F901CF
:10455000E80FF91F5081FC01EF51FC4D50834F5F74
:104560004C13F3CF2091D7232E5F30E02150310937
:10457000121613060CF09EC080E090E040E050E080
:10458000FC01EA52FC4D8081580F4F5F842F90E070
:1045900082179307ACF3F901EA52FC4D50838091E6
:1045A0005222813009F46BC0CF9108958E30E0F72C
:1045B000282F30E0F901E554FD4D5081220F331FC3
:1045C000F901E156FD4DC081F901ED57FD4D208106
:1045D00031812093D4223093D52280CF20914C0872
:1045E0004091E8225091E9226091EA227091EB22F9
:1045F00020FF21C04F5F5F4F6F4F7F4F4093DB2302
:104600005093DC236093DD237093DE2320916008B8
:10461000309161082093DF233093E023883009F044
:104620008ACF933009F087CF1092DF231092E023D6
:10463000E091D72380CF4093DB235093DC2360931A
:10464000DD237093DE232091600830916108209370
:10465000DF233093E023F091D922F03DF9F62F309B
:104660003105E0F64F5F5F4F6F4F7F4F4093DB2385
:104670005093DC236093DD237093DE23CFCF83E858
:104680008093A200C091A30B9091A30B9C7F909369
:10469000A30B6091D7236E5F86ED93E266D790916E
:1046A000A30B8C2F8370892B8093A30B87E88093B7
:1046B000A2007ACF50E06FCFCF93E091D93C2E2F5C
:1046C00030E024303105BCF090E020E030E0F9012A
:1046D000E352F34C4081F901ED51F34C40839F5F6D
:1046E000292F30E0E091D93C4E2F50E04350510942
:1046F0002417350764F38093D83CEA5FE093D93CF4
:104700008091DC3C80618093DC3C80914C0880FF90
:1047100040C08091E8229091E922A091EA22B091D4
:10472000EB220196A11DB11D8093DD3C9093DE3CF0
:10473000A093DF3CB093E03C8091600890916108C9
:104740008093E13C9093E23CF0E0E752F34C10821E
:104750006091D93C40E0262F30E080E090E0F90104
:10476000E752F34CDC01A852B34C20818C91280F06
:1047700020834F5F6091D93C262F30E0842F90E05A
:104780002817390764F780915222813079F1CF914F
:1047900008958091E8229091E922A091EA22B091B7
:1047A000EB228093DD3C9093DE3CA093DF3CB09302
:1047B000E03C20916008309161082093E13C309307
:1047C000E23C4091D922403D09F0BECF2F30310567
:1047D00008F0BACF0196A11DB11D8093DD3C9093E6
:1047E000DE3CA093DF3CB093E03CAECF83E8809307
:1047F000A200C091A30B9091A30B9C7F9093A30B5D
:104800006E5F88ED9CE3B1D69091A30B8C2F8370E3
:10481000892B8093A30B87E88093A200CF91089502
:104820003F924F925F926F927F928F929F92AF9240
:10483000BF92CF92DF92EF92FF920F931F93CF938D
:10484000DF93CDB7DEB73C01962E142FF22E4D88A4
:104850005E88A9DC21E041E060E078E488EE91E048
:10486000FADB81E0809348006092DF227092E022C0
:104870009092E1221093E222E092E3228093E422DC
:1048800087E08093E522F092E6220093E7221092DF
:10489000E8221092E9221092EA221092EB22109262
:1048A000EC221092ED2282E090E09DDD382E83E034
:1048B00090E099DD982E8FEF981609F4CAC0F31492
:1048C00009F49CC06FED80E090E0A2DD6F2D82E0E6
:1048D00090E09EDD61E083E090E09ADD0E94CD04EF
:1048E00080E090E080DD8E3E09F493C080E6809306
:1048F000EE2280E48093EF220E94E2050E944306AC
:10490000A092DD22B092DE22C092DB22D092DC2285
:104910008092DA2287E090E066DD8F3F09F4D0C014
:1049200000EF12E2F6EFEF2EFF24FA94C7018F5D3D
:1049300092427C01C701800F911F55DDF8018193E0
:104940008F01F3E209301F07A9F789E1E0EFF2E2F6
:10495000ACE0B3E201900D928A95E1F784E090E03B
:1049600042DD082F10E00093092310930A2385E00D
:1049700090E039DD302F2227282B20930923309314
:104980000A2321E042E15AE767E080E498E020DD75
:10499000E091D92281E08E0F8093D922F0E0E55892
:1049A000FD4D808190E0019780936808909369089D
:1049B00081E08093470820E040E066E080E096E0F8
:1049C00013DC80E48093050640E060E081E090E045
:1049D000B7D415D588EE92E2DF91CF911F910F9158
:1049E000FF90EF90DF90CF90BF90AF909F908F900F
:1049F0007F906F905F904F903F90E5C691E0991245
:104A000061CF0E94CD0480E090E0EDDC8E3E09F0A5
:104A10006DCF81E090E0E7DC8093EE22A114B10439
:104A200091F0760185010C0D1D1DA0E26A2E712CFE
:104A3000C301D9DCF70181937F01FFEF6F1A7F0A71
:104A4000E016F106A9F780E88093EF220E94430662
:104A500057CF6F2D82E090E0DBDC61E083E090E0F7
:104A6000D7DC82E090E0BFDC382E83E090E0BBDC56
:104A7000982E8201B7E06B2E712CE12C0BC0E11057
:104A80000EC0C301C5DCFFEF6F1A7F0A80E2681613
:104A9000710489F0F80161918F016111F0CF60E03C
:104AA000C301B6DCEE24E394FFEF6F1A7F0A80E2C5
:104AB0006816710479F76FED80E090E0A9DCFFCE15
:104AC000720107E010E0D12C0AC0D1100DC0C8015E
:104AD0009FDC0F5F1F4F0032110509F421CFF70152
:104AE00061917F016111F1CF60E0C80191DCDD24AB
:104AF000D394EFCF0E94A70420E480E092EEA4E0DC
:104B0000B0E00197A109B1090097A105B105C9F766
:104B100020930706F2CF8091E8229091E922A0919C
:104B2000EA22B091EB220196A11DB11D8093E822EB
:104B30009093E922A093EA22B093EB228091302354
:104B40008F5F809330238EE090E08093680890938D
:104B5000690881E08093D9220E940D0880914C0859
:104B6000806180934C080E940F080E9416084091B3
:104B7000EE2247FD03C0842F8370B1C0842F837061
:104B8000813009F0ACC088EE92E28093D4229093F9
:104B9000D52283E08093D6238EE08093D72388E0CC
:104BA0008093D8238FEF8093D92384E18093DA23F5
:104BB00080914C0880FF18C08091E8229091E922F2
:104BC000A091EA22B091EB220196A11DB11D809324
:104BD000DB239093DC23A093DD23B093DE2380912D
:104BE00060089091610826C08091E8229091E922A6
:104BF000A091EA22B091EB228093DB239093DC23F7
:104C0000A093DD23B093DE232091600830916108EA
:104C10005091D922503D71F42F30310558F401964E
:104C2000A11DB11D8093DB239093DC23A093DD2392
:104C3000B093DE231092DF231092E0238091E822CC
:104C40009091E922A091EA22B091EB228093E12396
:104C50009093E223A093E323B093E4232091D723FE
:104C60002E5F30E0215031091216130684F450E013
:104C700060E080E090E0FC01EA52FC4D8081680F2A
:104C80005F5F852F90E082179307ACF301C060E06F
:104C9000F901EA52FC4D608380915222813021F566
:104CA00083E88093A200C091A30B9091A30B9C7FFB
:104CB0009093A30B6091D7236E5F86ED93E255D45A
:104CC0009091A30B8C2F8370892B8093A30B87E883
:104CD0008093A2004091EE22842F837000C088232D
:104CE00039F0813019F400C092E003C091E001C0B6
:104CF00094E08091E822892321F080E480930606E5
:104D000005C046FF03C080E4809305060E940E089C
:104D100080914C0884FF05C08091D822811101C088
:104D2000E9DE18959091EE229370913009F0089584
:104D3000462F63E0B7CBCF92DF92FF920F931F9382
:104D4000CF93DF931F921F92CDB7DEB78E3040F422
:104D5000E82FF0E0DF01A554BD4D9C91961759F066
:104D600080E00F900F90DF91CF911F910F91FF90F6
:104D7000DF90CF900895EE0FFF1FE156FD4D60814B
:104D800071816217730761F7883009F47FC08A3038
:104D9000D1F18B3011F18C3009F4A1C08D3001F7C5
:104DA000FA0180819181019609F4BFC080910B23A3
:104DB0008823B1F2FA01608185E090E049835A834B
:104DC00027DB49815A81FA01618184E090E020DB90
:104DD00083E08093D82281E0C4CFFA0180818130C2
:104DE00009F4B7C0823009F4A4C0843009F4C2C009
:104DF000883089F76FEF87E090E00ADB83E08093EB
:104E0000D82281E0AECFFA01808186FD04C080E423
:104E10008093060680811091EE22837F8093EE229C
:104E2000FA01808185FF41C015FF76C083FF10C065
:104E300081E08093282310922623809327231092C9
:104E400025238091EE22877F8093EE22FA018081D4
:104E5000837079F4812F837009F4BDCF10922823D9
:104E600049835A830E94A30749815A81FA018081AC
:104E70008370813029F1833009F0ADCF1370133086
:104E800009F4A9CF0E940C0881E06BCFFA01808160
:104E90009181A281B3818093E8229093E922A0932B
:104EA000EA22B093EB2281E05CCF15FFBFCF4983AC
:104EB0005A830E948B0749815A81FA018081B6CFBB
:104EC000812F8370813009F486CF49835A830E94F1
:104ED0000B0849815A81FA0180818370CCCF8A0105
:104EE00087E0C82ED12CF12C0CC0F1100FC0C601E8
:104EF0008FDAFFEFCF1ADF0A20E2C216D10409F4DD
:104F000067CFF80161918F016111EFCF60E0C601B9
:104F10007FDAFF24F394EDCF49835A830E94600621
:104F200049815A81FA01808181CF81E080930B23EE
:104F300018CF80E090E049835A8355DA49815A813D
:104F40008E3E09F00DCF83E08093D822FA01808154
:104F50004CCF8CE093E249835A837EDA6FED80E098
:104F600090E056DA83E08093D82249815A81FA0191
:104F7000808138CF6EEE80E090E049835A8348DA32
:104F80006091EE2281E090E043DA8091DD22909101
:104F9000DE2249815A81892BC9F000E010E0E091BE
:104FA000DB22F091DC22E00FF11F6081C8018096C6
:104FB00049835A832DDA0F5F1F4F8091DD22909134
:104FC000DE2249815A810817190748F383E080934C
:104FD000D822FA0180810CCF0E940D0880916808C8
:104FE00090916908E091D92221E02E0F2093D922D7
:104FF000E770F0E0E558FD4D3081830F911D8093FF
:1050000068089093690820FD26C180915222813062
:1050100069F48093250783E88093A2008091A30B15
:105020008F7C8093A30B87E88093A20080912F232D
:10503000811103C080912E230FC0815080932F23B4
:10504000882319F080912E2307C010922F231092ED
:105050002E23109229239BC0882309F498C0A09185
:10506000D624B091D7248091D93C8F3F59F010912C
:10507000DA3C5091DB3C0091DC3C3DEDE32E3CE31F
:10508000F32E0AC01091DC3C5091DD3C0091DE3CD7
:105090002FEDE22E2CE3F22EFD01319681F090E00F
:1050A00040E020E030E0E901C852D34C2881420FB3
:1050B0009F5F292F30E02E173F07A8F301C040E083
:1050C000E852F34C9081491360C05F3F09F05DC026
:1050D0009091D83C913089F51D31B0F41E3008F024
:1050E0001EC1E12FF0E0E554FD4D9081091317C179
:1050F000193009F00FC18091600890916108809388
:10510000EC229093ED2206C1602F812F0E9432087D
:105110009091EE2294FD39C0811103C08091D93C59
:1051200005C041E061E0812FBDD92FC090E0883FEC
:1051300091055CF589E0C0DA28C0CD010497202FE5
:105140002F70622F70E017D41D3130F49B01A7013E
:10515000602F812FF0DD06C09B01A701602F812FFA
:105160000E944B089091EE2294FD0FC0882329F0F5
:1051700041E062E0812F96D908C08091D93C90E04F
:10518000883F910514F48AE097DA10922E238091DB
:105190005222813009F05CC08091080786FF46C02A
:1051A0008091D6229091D7220196883B2BE09207DE
:1051B00029F08093D6229093D7223CC01092D62219
:1051C0001092D7228091EE22982F93709130E9F4BB
:1051D00086FD03C090E490930606982F907F9093ED
:1051E000EE2283FF0BC01092262381E080932723B9
:1051F00010922523892F877F8093EE2210922823F7
:105200000E94A3079091522201C091E010922C239A
:1052100010922D2310922A2310922B238091A30BFE
:105220008C7F8093A30B913029F012C01092D6226C
:105230001092D72283E88093A2008091A30B806311
:105240008093A30B87E88093A20081E080932607D8
:105250000E94150802C00E9416088091D822882357
:1052600039F081508093D822811102C00E94D92048
:10527000809127238823E1F08091D92283708230A6
:10528000B9F4809125238E3060F4893009F04CC048
:1052900020916008309161082093EC223093ED2238
:1052A00043C08F5F809325238C3111F41092272304
:1052B00080912823882309F18091D9228370E9F411
:1052C00080912623E82FF0E0E05FFD4D6081805E55
:1052D0000E943208882331F08091262341E061E06A
:1052E000805EE0D8809126238F5F80932623909163
:1052F000DA22891302C0109228230E940E0880919E
:105300004C0884FF05C08091D822811101C0F2DBD6
:10531000189510C08091EE2284FF03CF36CF909174
:10532000EE2294FF03CF31CF41E061E0BBD8809102
:105330002523B7CF8091EE2285FB882780F9089539
:10534000FF920F931F93CF93DF931F921F92CDB7BE
:10535000DEB789839A83F62E142F20E040E060E0C8
:1053600080E297E00E94F42020E040E066E080E0E8
:1053700097E00E94DF2001E020E440E063E080E06D
:1053800097E00E940C2181E08093260783E08093C0
:10539000A50B89818093A60B8F2D90E18902B00126
:1053A00011248A818F70862B8093A70B112329F0FB
:1053B0008091A40B84608093A40B88E08093A50661
:1053C00020E040E063E080EA96E00E94F42020E0E4
:1053D00040E062E080EA96E00E94DF2080910807CA
:1053E00086FF05C08091A30B8C7F8093A30B0F9049
:1053F0000F90DF91CF911F910F91FF900895E0EAF8
:10540000FBE084818861848380EE81838381806373
:10541000838308951F920F920FB60F92112408B63E
:105420000F9218BE09B60F9219BE0BB60F921BBE93
:105430002F933F934F935F936F937F938F939F939C
:10544000AF93BF93EF93FF930E942E0820912C23DC
:1054500030912D23C901019680932C2390932D2305
:10546000F901E852FB4D20812093A00B811528E122
:10547000920729F120912A2330912B2328173907ED
:1054800029F48091A30B8C7F8093A30B0E942F089B
:10549000FF91EF91BF91AF919F918F917F916F910C
:1054A0005F914F913F912F910F900BBE0F9009BECE
:1054B0000F9008BE0F900FBE0F901F90189510927E
:1054C0002C2310922D2380E090E0D4CF1F920F92D6
:1054D0000FB60F92112408B60F9218BE09B60F929C
:1054E00019BE0BB60F921BBE2F933F934F935F9342
:1054F0006F937F938F939F93AF93BF93EF93FF939C
:105500000E9430088091080786FD29C020912C2335
:1055100030912D2380912A2390912B23281739072E
:1055200029F08091A30B83608093A30B0E94310824
:10553000FF91EF91BF91AF919F918F917F916F916B
:105540005F914F913F912F910F900BBE0F9009BE2D
:105550000F9008BE0F900FBE0F901F90189580916E
:10556000A30B8C7F8093A30BE1CFBF92CF92DF92EE
:10557000EF92FF920F931F93CF93DF936C01B62EA0
:105580008091080786FD05C08091A30B83608093FE
:10559000A30B00912A2310912B23C0E0D8E1C01B5C
:1055A000D10BEB2CF12CCE15DF0558F1A701B6017C
:1055B000C80188529B4D0CD280912C2390912D23B1
:1055C000E00EF11EE0922A23F0922B23E11428E151
:1055D000F20609F446C008171907A8F5E816F906F7
:1055E00090F18FEFE81AF80AE0922C23F0922D2325
:1055F000E11428E1F20639F510922C2310922D23A4
:1056000022C0AE01B601C80188529B4DE1D1BC1A3F
:10561000EB2CF12CBE016C0D7D1DA70188ED94E2F1
:10562000D7D180912C2390912D23E0922A23F092C0
:105630002B230817190788F42FEFE21AF20AE092D9
:105640002C23F0922D23DF91CF911F910F91FF908A
:10565000EF90DF90CF90BF900895E816F90660F7BD
:10566000F2CF10922A2310922B23892B61F781E02D
:1056700090E080932C2390932D23E5CF1F920F92DF
:105680000FB60F92112408B60F9218BE09B60F92EA
:1056900019BE0BB60F921BBE2F933F934F935F9390
:1056A0006F937F938F939F93AF93BF93EF93FF93EA
:1056B0000E942C089091A00BE091292381E08E0F8D
:1056C00080932923F0E0E852F34C9083813019F164
:1056D000843049F190E02091D6243091D72482176C
:1056E000930779F10E942D08FF91EF91BF91AF913F
:1056F0009F918F917F916F915F914F913F912F91EA
:105700000F900BBE0F9009BE0F9008BE0F900FBEFA
:105710000F901F9018958091D83C81508230D0F125
:1057200010922923DFCF8091D93C8F3F01F190E087
:105730008E3F9105A9F302968093D6249093D724A7
:10574000D1CF20915222213061F12091D93C2F3FBD
:1057500029F122E030E0821B930B8093D6249093B2
:10576000D7241092292381E080932E23BBCF8091F0
:10577000D93C9091DA3C04968F3F910509F080F670
:105780008091DA3C9091DB3C04968093D6249093F0
:10579000D724A8CF82E380932F23A4CF24E030E046
:1057A000DACF2093250783E88093A2008091A30B92
:1057B0008F7C8093A30B87E88093A2008091D624EE
:1057C0009091D724C2CFCF93DF931F921F92CDB772
:1057D000DEB723E130E029833A838093322390932C
:1057E000332383E08093B50889818093B6088A814A
:1057F0008F708093B70820E048E166E080E496E08F
:105800000E94DF2080E18093B408E3EBF8E0808120
:10581000806380830F900F90DF91CF9108951F9246
:105820000F920FB60F92112408B60F9218BE09B648
:105830000F9219BE0BB60F921BBE2F938F939F939F
:10584000AF93BF93EF93FF938091B0088A3AD1F161
:105850008F3A09F44CC090913123923009F44BC037
:1058600008F472C0943009F452C008F44AC095306C
:1058700061F58093372310923123809130238A3051
:1058800008F44BC082EF99E7809360089093610819
:1058900081E09AE7809368089093690826E0209356
:1058A0005322E0913223F09133238091342390915D
:1058B0003523A0913623B091372380839183A2832F
:1058C000B38303C081E080933123FF91EF91BF91B7
:1058D000AF919F918F912F910F900BBE0F9009BEAA
:1058E0000F9008BE0F900FBE0F901F90189582E08A
:1058F00080933123EACF8093342383E08093312354
:10590000E4CF8093352384E080933123DECF8093EE
:10591000362385E080933123D8CF10923023209115
:10592000532289EF99E7821B910980936008909335
:10593000610881E09AE780936808909369082223C0
:1059400009F4AFCF2150ABCF992319F0913009F072
:10595000BCCF10923123B9CFDB018F939F931FD01F
:10596000BF91AF91A29F800D911DA39F900DB29FFB
:10597000900D11240895AA1BBB1B51E107C0AA1F5B
:10598000BB1FA617B70710F0A61BB70B881F991FE0
:105990005A95A9F780959095BC01CD01089509D03D
:1059A000A59F900DB49F900DA49F800D911D112473
:1059B0000895A29FB001B39FC001A39F700D811DE8
:1059C0001124911DB29F700D811D1124911D089508
:1059D000FB01DC0102C001900D9241505040D8F70C
:0659E0000895F894FFCFCA
:1059E60041126B087108450D7708390E2D0FAE0967
:1059F600C709D90984165B13E20943124512EF0958
:105A0600FA09000AF71429140A0A47124912170A52
:105A1600220A280ABE158D12320A4B124D123F0A6F
:105A26004A0A500A5A0ADD0B3F12F20BFF0B0C0C06
:105A3600190C290C2F0C350C3B0C440C4D0C560C38
:105A46005F0C680C710C7A0C830C8C0C950CC110D5
:105A56009E0CA40CAA0CAC0CE40CEA0CF00C060D83
:105A66001B0D310D7A1272127B127C127D127E1280
:105A76001609A709BD0975127612771274127312E8
:105A86006812641265126F12701271126A1269122C
:105A96005E126612671261126212631260125F1260
:105AA6004F125012511252125312541255127812AA
:105AB60079126B126C126D126E1256125712581220
:105AC60059125A125B125C125D127F1280128112F9
:105AD6008212831284128512861287128812891204
