:1000000004C1000028C1000026C1000024C1000076
:1000100022C1000020C100001EC100001CC1000060
:100020001AC1000018C1000016C1000014C1000070
:1000300012C1000010C100000EC100000CC1000080
:100040000AC1000008C1000006C1000004C1000090
:100050000C94621500C100000C94C317FCC0000092
:10006000FAC00000F8C00000F6C00000F4C00000B4
:100070000C94E51BF0C00000EEC00000ECC00000D6
:10008000EAC00000E8C00000E6C00000E4C00000D4
:10009000E2C00000E0C00000DEC00000DCC00000E4
:1000A000DAC00000D8C00000D6C000000C94731065
:1000B000D2C00000D0C00000CEC00000CCC0000004
:1000C000CAC00000C8C00000C6C00000C4C0000014
:1000D000C2C00000C0C00000BEC00000BCC0000024
:1000E000BAC00000B8C00000B6C00000B4C0000034
:1000F000B2C00000B0C00000AEC00000ACC0000044
:10010000AAC00000A8C00000A6C00000A4C0000053
:10011000A2C00000A0C000009EC000009CC0000063
:100120009AC0000098C0000096C0000094C0000073
:1001300092C0000090C000008EC000008CC0000083
:100140008AC0000088C0000086C0000084C0000093
:1001500082C0000080C000007EC000007CC00000A3
:100160007AC0000078C0000076C0000074C00000B3
:1001700072C0000070C000006EC000006CC00000C3
:100180006AC0000068C000000C943C1A64C0000003
:1001900062C0000060C000005EC000005CC00000E3
:1001A0005AC0000058C0000056C0000054C00000F3
:1001B00052C0000050C000004EC000004CC0000003
:1001C0004AC0000048C0000046C0000044C0000013
:1001D00042C0000040C000003EC000000C94141B50
:1001E0000C94E01938C0000036C0000034C0000094
:1001F00032C0000030C000002EC00000CD0DFC0D4C
:10020000260D200E6C0D660D660D11241FBECFEF5E
:10021000CDBFDFE3DEBF00E00CBF18BE19BE1ABEC3
:100220001BBE11E2A0E0B0E2E4E5F9E300E00BBFA1
:1002300002C007900D92AC30B107D9F71BBE2BE37B
:10024000ACE0B1E201C01D92A839B207E1F70E940B
:100250009A100C94A81CD4CE109287211092882159
:100260001092892110928A2191E0909346069093F2
:1002700046069093460690934606909346069093C2
:1002800046069093460690934606909346069093B2
:10029000460690934606909346069093850682E024
:1002A00080934506809345068093460680934606D4
:1002B00080934506809345068093460680934606C4
:1002C00080934506809345068093460680934606B4
:1002D00080934506809345068093460680934606A4
:1002E0008093450680934506809346068093460694
:1002F0008093450680934506809346068093460684
:100300008093450680934506809346068093460673
:100310008093450680934506809346068093460663
:100320008093450680934506809346068093460653
:100330008093450680934506809346068093460643
:100340008093450680934506809346068093460633
:100350008093450680934506809346068093460623
:100360008093450680934506809346068093460613
:100370008093450680934506809346068093460603
:1003800080934506809345068093460680934606F3
:1003900080934506809345068093460680934606E3
:1003A0009093450690934506909345069093450695
:1003B0009093450690934506909345069093450685
:1003C0009093450690934506909345069093450675
:1003D0009093460690934606909346069093460661
:1003E0009093460690934606909346069093460651
:1003F0009093460690934606909346069093460641
:100400009093860680934506809345068093460622
:100410008093460690938506809345068093450613
:100420008093460680934606809345068093450652
:10043000809346068091880682FF06C080E090E2A5
:10044000809387219093882182E080934506809352
:100450004506809346068091880682FF09C08091F8
:1004600087219091882190618093872190938821A2
:1004700082E08093450680934506809346068091EE
:10048000880682FF09C08091872190918821986019
:10049000809387219093882182E080934506809302
:1004A0004506809346068091880682FF09C08091A8
:1004B000872190918821946080938721909388214F
:1004C00082E080934506809345068093460680919E
:1004D000880682FF09C080918721909188219260CF
:1004E000809387219093882182E0809345068093B2
:1004F0004506809346068091880682FF09C0809158
:100500008721909188219160809387219093882101
:1005100082E080934506809345068093460680914D
:10052000880682FF09C08091872190918821806888
:10053000809387219093882182E080934506809361
:100540004506809346068091880682FF09C0809107
:1005500087219091882180648093872190938821BE
:1005600082E08093450680934506809346068091FD
:10057000880682FF09C0809187219091882180623E
:10058000809387219093882182E080934506809311
:100590004506809346068091880682FF09C08091B7
:1005A0008721909188218061809387219093882171
:1005B00082E08093450680934506809346068091AD
:1005C000880682FF09C080918721909188218860E8
:1005D000809387219093882182E0809345068093C1
:1005E0004506809346068091880682FF09C0809167
:1005F000872190918821846080938721909388211E
:1006000082E080934506809345068093460680915C
:10061000880682FF09C0809187219091882182609D
:10062000809387219093882181E08093860682E0E1
:100630008093450680934506809346068091880600
:1006400082FF09C0809187219091882181608093E9
:1006500087219093882181E0809345068093450609
:100660008093450680934506809345068093450612
:100670008093450680934506809345068093450602
:1006800080934506809345068093460680934606F0
:1006900080934606809346068093460680934606DE
:1006A00080934606809346068093460680934606CE
:1006B00080934606809346068093860682E0809368
:1006C00045068093450680934606809346068093B0
:1006D00045068093450680934606809346068093A0
:1006E000450680934506809346068091880682FFE2
:1006F00006C080E090E28093892190938A2182E075
:10070000809345068093450680934606809188062F
:1007100082FF09C08091892190918A219061809304
:10072000892190938A2182E0809345068093450633
:10073000809346068091880682FF09C080918921B6
:1007400090918A2198608093892190938A2182E0F8
:1007500080934506809345068093460680918806DF
:1007600082FF09C08091892190918A2194608093B1
:10077000892190938A2182E08093450680934506E3
:10078000809346068091880682FF09C08091892166
:1007900090918A2192608093892190938A2182E0AE
:1007A000809345068093450680934606809188068F
:1007B00082FF09C08091892190918A219160809364
:1007C000892190938A2182E0809345068093450693
:1007D000809346068091880682FF09C08091892116
:1007E00090918A2180688093892190938A2182E068
:1007F000809345068093450680934606809188063F
:1008000082FF09C08091892190918A218064809320
:10081000892190938A2182E0809345068093450642
:10082000809346068091880682FF09C080918921C5
:1008300090918A2180628093892190938A2182E01D
:1008400080934506809345068093460680918806EE
:1008500082FF09C08091892190918A2180618093D3
:10086000892190938A2182E08093450680934506F2
:10087000809346068091880682FF09C08091892175
:1008800090918A2188608093892190938A2182E0C7
:10089000809345068093450680934606809188069E
:1008A00082FF09C08091892190918A218460809380
:1008B000892190938A2182E08093450680934506A2
:1008C000809346068091880682FF09C08091892125
:1008D00090918A2182608093892190938A2182E07D
:1008E000809345068093450680934606809188064E
:1008F00082FF09C08091892190918A218160809333
:10090000892190938A2181E08093450608958F92F2
:10091000AF92BF92CF92DF92EF920F9384EA90E270
:100920009F938F9382E1882E9DE1A92EB12C29E718
:10093000C22E21E2D22EE12C00E021E040E061E075
:1009400084E594E00E94E7130F900F900F91EF90D1
:10095000DF90CF90BF90AF908F900895E0EEF6E0DB
:1009600081E0868392E0968334E0368328E0268314
:1009700040E1468350E2568350E4568350E8568364
:10098000E0E0F7E086839683E0E6F6E046832683A0
:10099000368396838683E0E4F6E086839683368307
:1009A00026838093860608950E94A30E8091880670
:1009B00083FF0CC142E031E022E094E0E8E070E126
:1009C00060E280E450E83093E506AFEFB1EEF4E08A
:1009D000A150B040F040E1F700C000003093E606BF
:1009E0002093E506AFEFB1EEF4E0A150B040F04047
:1009F000E1F700C000002093E6069093E506AFEF14
:100A0000B1EEF4E0A150B040F040E1F700C00000CA
:100A10009093E606E093E506AFEFB1EEF4E0A15067
:100A2000B040F040E1F700C00000E093E6067093AC
:100A3000E506AFEFB1EEF4E0A150B040F040E1F7D1
:100A400000C000007093E60690930507AFEFB1EE8B
:100A5000F4E0A150B040F040E1F700C000009093F6
:100A600006076093E506AFEFB1EEF4E0A150B040A9
:100A7000F040E1F700C000006093E6068093E506D1
:100A8000AFEFB1EEF4E0A150B040F040E1F700C0AC
:100A900000008093E6065093E506AFEFB1EEF4E078
:100AA000A150B040F040E1F700C000005093E606CE
:100AB00030930507AFEFB1EEF4E0A150B040F04045
:100AC000E1F700C000003093060720930507AFEF61
:100AD000B1EEF4E0A150B040F040E1F700C00000FA
:100AE0002093060780930506AFEFB1EEF4E0A15026
:100AF000B040F040E1F700C000008093060641508E
:100B000009F061CF2FEF83EC99E0215080409040B5
:100B1000E1F700C0000042E031E022E094E0E8E0CC
:100B200070E160E280E450E83093E5062093E5064A
:100B30009093E506E093E5067093E506909305072C
:100B40006093E5068093E5065093E506309305072C
:100B50002093050780930506AFEFB3ECF9E0A150B1
:100B6000B040F040E1F700C000003093E60620936B
:100B7000E6069093E606E093E6067093E606909309
:100B800006076093E6068093E6065093E6063093E8
:100B900006072093060780930606AFEFB3ECF9E053
:100BA000A150B040F040E1F700C00000415009F012
:100BB000BBCF2FEF83ED90E3215080409040E1F7D1
:100BC00000C0000084E08093050708950E9451153D
:100BD000F1CEE9E7F1E280E29EE4858B968B8CED25
:100BE00095E0878B908F818F928F838F948F81E098
:100BF000828B089580E891E281D584E891E212D752
:100C00008BE891E2FAD28EE891E23BD380E991E25F
:100C10004ED382E991E260D384E991E273C380917B
:100C20008421823009F4F4C008F041C0882309F41B
:100C3000ABC08130C1F59091680694FD8093E506C4
:100C40008091680683FF03C082E08093E50680916F
:100C5000680682FF03C084E08093E5068091680601
:100C600081FF03C088E08093E5068091680680FFDD
:100C700003C080E18093E50680E28093E50680E48E
:100C80008093E5068091480682FF03C080E8809348
:100C9000E5068091480683FF03C081E08093050745
:100CA00082E08093050784E08093050708958330F0
:100CB000E9F18430C1F78091680684FF03C081E0C8
:100CC0008093E5068091680683FF03C082E08093ED
:100CD000E5068091680682FF03C084E08093E50604
:100CE0008091680681FF03C088E08093E5068091CB
:100CF000680680FF03C080E18093E50680E2809370
:100D0000E50680E48093E50680E88093E50680911F
:100D1000480683FF03C081E0809305078091880621
:100D200080FFBECF82E080930507BACF809168062E
:100D300084FF03C081E08093E5068091680683FF0D
:100D400003C082E08093E5068091680682FF03C0BD
:100D500084E08093E5068091680681FF03C088E007
:100D60008093E5068091680680FF03C080E1809350
:100D7000E50680E28093E50680E48093E5068091B5
:100D8000480682FFC4CFC0CF8091680684FF03C0AD
:100D900081E08093E5068091680683FF03C082E0CE
:100DA0008093E5068091680682FF03C084E080930B
:100DB000E5068091680681FF03C088E08093E50620
:100DC0008091680680FF03C080E18093E5068091F2
:100DD000480680FF03C080E28093E50680914806C4
:100DE00081FF03C080E48093E5068091480682FF7E
:100DF00003C080E88093E5068091480683FF03C026
:100E000081E0809305078091880680FF4CCF48CF12
:100E10008091680684FF03C081E08093E50680919D
:100E2000680683FF03C082E08093E5068091680630
:100E300082FF03C084E08093E5068091680681FF0D
:100E400003C088E08093E5068091680680FF03C0B8
:100E500080E18093E50680E28093E5068091480674
:100E600081FF03C080E48093E5068091480682FFFD
:100E70004ECF4ACFE0EEF6E021E0268392E0968363
:100E800084E0868338E0368330E1368330E236838F
:100E900030E4368330E83683E0E0F7E0268396835B
:100EA000868308950895089508950895089580917A
:100EB0007821815080930C21089508958091842198
:100EC000813009F0089580910C218F5F80930C216F
:100ED000909178218913F6CFBFD961E08AE20E9410
:100EE000691610920C2108950895089508950895A3
:100EF0000895089590EE980F923140F490E0809715
:100F0000FC01E057FF4D2081261711F080E0089585
:100F1000880F991FFC01EC5DFF4D0190F081E02DE1
:100F2000199581E0089590EE980F923148F4E82FDA
:100F3000F0E0B097DF01A057BF4D9C91961711F0DC
:100F400080E00895EE0FFF1FDF01A459BF4D8D9182
:100F50009C9182179307A1F7E050F04E0190F08129
:100F6000E02DCA011994EF92FF920F931F93CF9334
:100F7000DF93FC0120813181E0918421E53008F08C
:100F80007CC0F0E0EE0FFF1FED54FF4D808191819A
:100F90008223932380FF06C040E14093660641E030
:100FA0004093E60681FF76C048E04093660642E043
:100FB0004093E6068C01047011277C0148E0E4228E
:100FC000FF24EC01C071DD27DC01A072BB27FC010E
:100FD000E074FF27BC0160787727AC01442751708B
:100FE00088279270012B29F014E010936606109365
:100FF000E606EF2831F012E01093660618E0109331
:10100000E606CD2B31F0C1E0C0936606C0E1C09387
:10101000E606AB2B31F0A1E0A0934606A0E2A09338
:10102000E606EF2B31F0E2E0E0934606E0E4E093E1
:10103000E606672B31F064E06093460660E8609353
:10104000E606452B31F048E04093460641E04093E8
:101050000607892B31F081E08093860682E0809339
:10106000060720937C2130937D2181E0DF91CF9191
:101070001F910F91FF90EF90089580E090E040E085
:1010800050E060E070E0E0E0F0E0A0E0B0E0C0E060
:10109000D0E0B7CF8C01047011277C01F8E0EF227B
:1010A000FF248FCF8091680684FB222720F930E04F
:1010B00020938021309381218091680683FF65C051
:1010C00082E090E0822B932B80938021909381216A
:1010D000209168062470822B809380219093812137
:1010E0002091680621FF63C028E030E0822B932B1B
:1010F00080938021909381212091680620FF54C025
:1011000020E130E0822B932B8093802190938121EA
:101110002091480620FF45C020E230E0822B932B2F
:1011200080938021909381212091480621FF36C031
:1011300020E430E0822B932B8093802190938121B7
:101140002091480622FF27C020E830E0822B932B15
:1011500080938021909381212091480623FF18C01D
:1011600020E031E0822B932B80938021909381218A
:101170002091880620FD1EC020E030E0822B932BBA
:101180008093802190938121089580E090E09ACF10
:1011900020E030E0E7CF20E030E0D8CF20E030E0C2
:1011A000C9CF20E030E0BACF20E030E0ABCF20E084
:1011B00030E09CCF20E032E0822B932B8093802183
:1011C000909381210895FC0180818093822181E0A8
:1011D0000895FC0180818093832181E00895FC01C2
:1011E00080818093852181E00895FC018081809336
:1011F000862181E0089580E00895FC01808182309D
:1012000069F160F08430A9F010F1853019F491E0B3
:101210009093782180938B2181E00895882381F039
:101220008130C1F79AE09093782180938B2181E0FF
:10123000089592E09093782180938B2181E0089526
:1012400094E19093782180938B2181E0089594E03C
:101250009093782180938B2181E0089595E090937D
:10126000782180938B2181E00895FC018081809317
:101270008C2181E00895FC01808180938D2181E0A3
:101280000895FC0120813181809184218250833036
:1012900040F4C9019695879501978093260890930D
:1012A000270820938E2130938F2181E00895FC013F
:1012B00020813181809184218250833038F4C901AA
:1012C00096958795809328089093290820939021DC
:1012D0003093912181E00895FC012081318180913A
:1012E00084218350823038F4C90196958795809384
:1012F0002A0890932B08209392213093932181E028
:1013000008950895FC0180819181209184212430E9
:1013100039F49C013695279520932C0830932D089D
:10132000809394219093952181E008953F924F926C
:101330005F926F927F928F929F92AF92BF92CF9265
:10134000DF92EF92FF920F931F93CF93DF93FC01F5
:1013500000811181E0918421E53008F079C0F0E04E
:10136000EE0FFF1FED54FF4DC081D181C023D1236B
:10137000C0FF0AC080E1809365060E94701988232F
:1013800019F081E08093E506C1FF0AC088E08093F0
:1013900065060E947019882319F082E08093E506A3
:1013A000CE01847099272E01E8E04E2255244E018B
:1013B000F0E18F2299245E0120E2A222BB246E017B
:1013C000E0E4CE22DD247E01F0E8EF22FF243E019E
:1013D000662421E07222CC27D270892B49F084E068
:1013E000382E309265060E94701981113092E50600
:1013F000452839F082E0809365060E9470198111BA
:1014000085C0892899F5AB28E9F5CD2809F048C0B1
:10141000EF2809F053C0672809F05EC0CD2B09F012
:1014200069C000937A2110937B2181E0DF91CF91F5
:101430001F910F91FF90EF90DF90CF90BF90AF90F2
:101440009F908F907F906F905F904F903F90089506
:10145000C0E0D0E0E12CF12CC12CD12CA12CB12C7E
:10146000812C912C612C712C892869F281E0809368
:1014700065060E947019882331F280E18093E506A9
:10148000AB2819F281E0809345060E9470198823E9
:1014900009F4BBCF80E28093E506CD2809F4B8CFEC
:1014A00082E0809345060E947019882309F4B0CF2A
:1014B00080E48093E506EF2809F4ADCF84E08093C3
:1014C00045060E947019882309F4A5CF80E880930F
:1014D000E506672809F4A2CF88E0809345060E94BC
:1014E0007019882309F49ACF81E080930507CD2BEA
:1014F00009F497CF81E0809385060E9470198823B4
:1015000009F48FCF82E0809305078BCF88E080932A
:10151000E50677CF3F924F925F926F927F928F92C4
:101520009F92AF92BF92CF92DF92EF92FF920F9372
:101530001F93CF93DF93FC0100811181E0918421FF
:10154000E53008F079C0F0E0EE0FFF1FED54FF4DDD
:10155000C081D181C023D123C0FF0AC080E1809324
:1015600067060E947019882319F081E08093E706CE
:10157000C1FF0AC088E0809367060E947019882323
:1015800019F082E08093E706CE01847099272E013E
:10159000E8E04E2255244E01F0E18F2299245E01AD
:1015A00020E2A222BB246E01E0E4CE22DD247E01F3
:1015B000F0E8EF22FF243E01662421E07222CC27CE
:1015C000D270892B49F084E0382E309267060E9451
:1015D000701981113092E706452839F082E0809336
:1015E00067060E947019811185C0892899F5AB287A
:1015F000E9F5CD2809F048C0EF2809F053C0672865
:1016000009F05EC0CD2B09F069C000937E211093D4
:101610007F2181E0DF91CF911F910F91FF90EF909B
:10162000DF90CF90BF90AF909F908F907F906F9002
:101630005F904F903F900895C0E0D0E0E12CF12CF6
:10164000C12CD12CA12CB12C812C912C612C712C72
:10165000892869F281E0809367060E9470198823C7
:1016600031F280E18093E706AB2819F281E08093A4
:1016700047060E947019882309F4BBCF80E280934B
:10168000E706CD2809F4B8CF82E0809347060E9490
:101690007019882309F4B0CF80E48093E706EF281F
:1016A00009F4ADCF84E0809347060E947019882327
:1016B00009F4A5CF80E88093E706672809F4A2CF54
:1016C00088E0809347060E947019882309F49ACF16
:1016D00081E080930707CD2B09F497CF81E08093B9
:1016E00087060E947019882309F48FCF82E08093C7
:1016F00007078BCF88E08093E70677CF2F923F9242
:101700004F925F926F927F928F929F92AF92BF9211
:10171000CF92DF92EF92FF920F931F93CF93DF93BD
:10172000FC0100811181E0918421E53008F0B6C010
:10173000F0E0EE0FFF1FED54FF4DC081D181C023BB
:10174000D123C0FF2BC180E1809365060E947019F0
:10175000882309F445C181E08093E506CE018270BB
:1017600099274E01F4E08F2299245E0128E0A222FD
:10177000BB246E01E0E1CE22DD247E01F0E2EF2207
:10178000FF243E0120E4622277242E01E0E84E226D
:1017900055241E012224F1E03F22CC27D270892B50
:1017A00009F497C088E0809365060E947019882329
:1017B00009F495C082E08093E506892809F492C077
:1017C00084E0982E909265060E947019882309F48F
:1017D0008EC09092E50682E0AB2809F48CC080931D
:1017E00065060E947019882309F48AC088E08093F6
:1017F000E50681E0CD2809F487C0809365060E9444
:101800007019882309F485C080E18093E50681E0A2
:10181000EF2809F482C0809345060E94701988233E
:1018200009F480C080E28093E50682E0672809F42D
:101830007DC0809345060E947019882309F47BC0FF
:1018400080E48093E50684E0452809F478C080931D
:1018500045060E947019882309F476C080E88093B9
:10186000E50688E0232809F473C0809345060E94AA
:101870007019882309F471C081E08093050781E025
:10188000CD2B09F46EC0809385060E9470198823C1
:1018900009F46CC082E08093050768C0C0E0D0E026
:1018A000212C312C412C512C612C712CE12CF12C50
:1018B000C12CD12CA12CB12C812C912C80E090E05A
:1018C00020E12093660621E02093E606892B09F0AB
:1018D00069CF88E08093660682E08093E6068928D7
:1018E00009F06ECF84E0809366068093E60682E07E
:1018F000AB2809F074CF8093660688E08093E606F3
:1019000081E0CD2809F079CF8093660680E180934D
:10191000E60681E0EF2809F07ECF8093460680E25C
:101920008093E60682E0672809F083CF809346061D
:1019300080E48093E60684E0452809F088CF809310
:10194000460680E88093E60688E0232809F08DCFDC
:101950008093460681E08093060781E0CD2B09F055
:1019600092CF8093860682E08093060700938021C1
:101970001093812181E0DF91CF911F910F91FF9012
:10198000EF90DF90CF90BF90AF909F908F907F901F
:101990006F905F904F903F902F900895CE0182708E
:1019A00099274E0124E0822299245E01E8E0AE22CC
:1019B000BB246E01F0E1CF22DD247E0120E2E22291
:1019C000FF243E01E0E46E2277242E01F0E84F224E
:1019D00055241E01222421E03222CC27D27070CF60
:1019E000CE01827099274E01E4E08E2299245E0197
:1019F000F8E0AF22BB246E0120E1C222DD247E018B
:101A0000E0E2EE22FF243E01F0E46F2277242E0173
:101A100020E8422255241E012224E1E03E22CC2768
:101A2000D27054CF0F93CF93FC01C0818C2F90E0E4
:101A30008730910520F080E0CF910F910895FC014F
:101A40008827E250FF4F8F4F0C94961C00E024E053
:101A500040E061E080E896E057D420E240E061E0B9
:101A600080E896E051D40E947019882371F080E2DA
:101A70008093E50680918421813009F44BC1833045
:101A800009F444C1843009F43AC1109200088CE092
:101A90008093090880918E2190918F21969587954A
:101AA0000197809326089093270880919021909128
:101AB00091219695879501978093280890932908FE
:101AC00083E18093010885E080930008C09384211E
:101AD00081E0CF910F91089500E024E040E061E0C3
:101AE00080E896E011D420E240E061E080E896E0F2
:101AF0000BD40E947019882371F080E28093E50670
:101B000080E48093E50680E88093E5068091842157
:101B1000813009F4E8C0109200088CE08093090835
:101B200080918E2190918F21969587950197809332
:101B30002608909327088091902190919121969565
:101B400087958093280890932908809192219091FD
:101B500093219695879580932A0890932B088091DE
:101B60009421909195219695879580932C08909338
:101B70002D0883E1809301088091010880628093A1
:101B800001088091010880648093010885E08093BA
:101B90000008C093842181E09CCF00E024E040E075
:101BA00061E080E896E0B0D320E240E061E080E8C8
:101BB00096E0AAD380E098E0DDD381E080934606EA
:101BC00090E29093E60692E09093460620E42093FC
:101BD000E60624E02093460620E82093E60628E067
:101BE0002093460680930607809386069093060707
:101BF000C093842181E06DCF01E020E240E061E00C
:101C000080E896E081D380E098E0B4D30E94701918
:101C1000882309F45BCF81E08093450680E28093BE
:101C2000E50680E48093E50682E0809305078091D5
:101C30008421843009F04ACF80E88093E60646CFBD
:101C400000E024E040E061E080E896E05DD320E23F
:101C500040E061E080E896E057D30E947019882345
:101C600069F080E28093E50680E48093E506809148
:101C70008421813009F43FC08430C9F110920008FA
:101C80008CE08093090880918E2190918F21969508
:101C9000879501978093260890932708809190213B
:101CA000909191219695879501978093280890931C
:101CB000290880919221909193219695879501977B
:101CC00080932A0890932B0883E1809301088091E8
:101CD000010880628093010885E080930008C0932A
:101CE000842181E0F6CE82E08093060714CF80E85D
:101CF0008093E606C3CF82E080930607BFCF80E4DF
:101D00008093E60680E88093E606BFCE80E4809369
:101D1000E606BBCE80E48093E60682E08093060769
:101D2000B4CE80E008950895089508950895089523
:101D300008950895089508950895089508950895BB
:101D40000895089508950F9320E040E062E080E850
:101D500096E0ADD220E040E065E080E896E0A7D2D2
:101D600020E048E163E080E896E0A1D220E040E195
:101D700060E080E096E09BD220E040E161E080E01E
:101D800096E095D220E040E162E080E096E08FD2DC
:101D900020E040E163E080E096E089D220E040E18D
:101DA00064E080E096E083D220E040E165E080E0FE
:101DB00096E07DD220E040E167E080E096E077D2D7
:101DC00020E040E160E080E296E071D220E040E176
:101DD00061E080E296E06BD220E040E162E080E2E8
:101DE00096E065D220E040E163E080E296E05FD2D9
:101DF00020E040E164E080E296E059D220E040E15A
:101E000067E080E296E053D220E040E164E080E4C5
:101E100096E04DD220E040E165E080E496E047D2D4
:101E200020E040E165E080E696E041D220E040E13C
:101E300061E080E896E03BD220E040E166E080E8A7
:101E400096E035D220E040E167E080E896E02FD2CE
:101E500020E040E160E080EA96E029D220E040E125
:101E600061E080EA96E023D220E040E164E080EA8D
:101E700096E01DD220E040E165E080EA96E017D2CE
:101E800020E040E166E080EA96E011D220E040E107
:101E900067E080EA96E00BD220E040E163E080E07A
:101EA00097E005D220E040E164E080E097E0FFD1D8
:101EB00020E040E165E080E097E0F9D120E040E1FA
:101EC00067E080E097E0F3D120E040E163E080E26A
:101ED00097E0EDD120E040E164E080E297E0E7D1D7
:101EE00020E040E165E080E297E0E1D120E040E1E0
:101EF00066E080E297E0DBD120E040E167E080E24D
:101F000097E0D5D120E040E160E080EC97E0CFD1D0
:101F100020E040E161E080EC97E0C9D120E040E1C1
:101F200062E080EC97E0C3D120E040E163E080EC28
:101F300097E0BDD100E024E040E061E080E896E079
:101F4000E3D120E240E061E080E896E0DDD121E0ED
:101F500040E060E080EE96E0BFD121E040E061E04B
:101F600080EE96E0B9D121E040E062E080EE96E0BC
:101F7000B3D121E040E063E080EE96E0ADD121E016
:101F800040E064E080EE96E0A7D121E040E065E02B
:101F900080EE96E0A1D121E040E066E080EE96E0A0
:101FA0009BD121E040E067E080EE96E095D121E012
:101FB00040E060E080E097E08FD121E040E061E028
:101FC00080E097E089D121E040E062E080E097E0A6
:101FD00083D121E040E066E080E096E07DD121E021
:101FE00040E065E080E296E077D121E040E066E005
:101FF00080E296E071D121E040E067E080E696E083
:102000006BD121E040E066E080E696E065D121E01A
:1020100040E064E080E696E05FD121E040E063E0EC
:1020200080E696E059D121E040E062E080E696E06B
:1020300053D121E040E061E080E696E04DD121E01F
:1020400040E060E080E696E047D121E040E060E0DB
:1020500080E496E041D121E040E061E080E496E058
:102060003BD121E040E062E080E496E035D121E020
:1020700040E063E080E496E02FD121E040E060E0C2
:1020800080E896E029D1E0EEF6E081E0868322E068
:10209000268394E0968348E0468350E1568370E2BD
:1020A000768330E4368360E86683E0E0F7E0868399
:1020B0002683968330930606E0E2F6E07683368345
:1020C000E0E6F6E06683368356834683968326836E
:1020D0008683E0E4F6E086832683968346838093B6
:1020E00086060F910895C0918806C2FB882780F963
:1020F0009091880695FF02C0C2E001C0C0E0C82BE5
:102100001092792180910D218C2780FF0DC081FDD7
:102110000FC080E18C2B8093792161E080E2D9D5DA
:10212000C0930D21189506C081FFFACF80E2F2CF4F
:1021300080E3F0CF0E9487048091A200876880939B
:10214000A2007894FFCF222309F45BC030E23093E1
:10215000520038E0309350003091510033FFFCCFF3
:10216000611538E4730738EE830731E0930709F40B
:1021700082C0611534E2730734EF8307910509F4D7
:102180007CC0611532E173073AE78307910509F4D2
:102190004BC0611539E073073DE38307910509F4EE
:1021A0006EC0603834E873073EE18307910509F497
:1021B00060C0603432E473073FE08307910509F49F
:1021C00062C0603231EA730737E08307910509F492
:1021D00058C0603930ED730733E08307910509F487
:1021E00054C0683438EE730731E08307910509F471
:1021F0004EC06432744F8105910509F04AC084E4F1
:1022000014C032E2309352003AE0309350003091E3
:10221000510031FFFCCF3091510033FDA1CF3091FF
:10222000510033FFF8CF9CCF8CE098ED94BF222370
:1022300099F023E02093400094BF80934100442311
:1022400029F088ED84BF81E08093420088ED84BF4F
:1022500081E080938000089521E02093400094BFA6
:102260008093410094BF82E08093560020936000E9
:10227000E6CF8CE1DACF80E0D8CF84E0D6CF84E11E
:10228000D4CF8CE2D2CF84E2D0CF84E3CECF8CE324
:10229000CCCF80E0089588ED84BF81E080938000FA
:1022A000089588ED84BF83E080938000FFCFFC0118
:1022B000308181E090E0062E01C0880F0A94EAF791
:1022C0008095832380837096E60FF11D8081422BD9
:1022D000807C482B40830895FC01308181E090E0B0
:1022E000062E01C0880F0A94EAF7382B30837096C7
:1022F000E60FF11D8081807C842B8083211103C037
:1023000080818760808308950F93FC013185842F3D
:1023100090E0880F991FA3E0B0E0082E01C0AA0F3B
:102320000A94EAF7A095A323082E01C0660F0A9429
:10233000EAF7A62BA18741110FC00023A9F022873D
:10234000248581E090E0042E01C0880F0A94EAF70A
:10235000282B24870F910895413091F7011108C06F
:102360008385822B8387ECCF8285822B8287E8CF7F
:102370002387E6CFFC0110822CE021870895FC0121
:1023800010828CE081874150510946A357A32683D0
:10239000608308952091CF0127FDFCCF8093C00179
:1023A0009093C1011092C20186E08093CA0188ED2A
:1023B00084BF81E08093CB018091C4010895209176
:1023C000CF0127FDFCCF2091CF0121FF08C026E3DC
:1023D0002093CA0128ED24BF21E02093CB0123E301
:1023E0002093CA018093C0019093C1011092C20151
:1023F0006093C40185E38093CA0188ED84BF81E0C6
:102400008093CB010895FF920F931F93CF93DF9397
:102410008C01C7E0D0E0F12C08C0F1100BC0CE0158
:10242000CEDF2196C032D10571F0F80161918F01A4
:102430006111F3CF60E0CE01C2DFFF24F394219657
:10244000C032D10591F7DF91CF911F910F91FF908D
:102450000895CF93962F803208F47FC0282F30E064
:1024600020523109F901E057FF4D5081220F331FEF
:10247000F901E459FF4DC081F901E85BFF4D20816E
:102480003181209314213093152190939621252F8B
:102490002F702C9FC02D1124EAE0EC0FE0939721C0
:1024A000809398212FEF20939921506150939A2186
:1024B00041116BC08091102190911121A0911221A6
:1024C000B091132180939B2190939C21A0939D21F7
:1024D000B0939E2120910E2130910F2120939F21B6
:1024E0003093A0218E2F90E08E3F9105A4F520918E
:1024F00014213091152140E0842F90E0F901E80F7C
:10250000F91F5081FC01EF55FE4D50834F5F4C1376
:10251000F3CF209197212E5F30E021503109121620
:1025200013060CF09EC080E090E040E050E0FC011B
:10253000EA56FE4D8081580F4F5F842F90E082173E
:102540009307ACF3F901EA56FE4D50838091A22027
:10255000813009F46BC0CF9108958E30E0F7282FB9
:1025600030E0F901E350FF4D5081220F331FF90194
:10257000EF51FF4DC081F901EB53FF4D20813181B7
:10258000209314213093152180CF20914C08409145
:1025900028215091292160912A2170912B2120FF1F
:1025A00021C04F5F5F4F6F4F7F4F40939B215093F0
:1025B0009C2160939D2170939E2120916008309111
:1025C000610820939F213093A021883009F08ACFA1
:1025D000933009F087CF10929F211092A021E091B3
:1025E000972180CF40939B2150939C2160939D2104
:1025F00070939E21209160083091610820939F2163
:102600003093A021F0911921F03DF9F62F303105DA
:10261000E0F64F5F5F4F6F4F7F4F40939B2150938A
:102620009C2160939D2170939E21CFCF83E880935E
:10263000A200C091A30B9091A30B9C7F9093A30B3E
:10264000609197216E5F86E991E265D79091A30B27
:102650008C2F8370892B8093A30B87E88093A20033
:102660007ACF50E06FCFCF93E091993A2E2F30E0A0
:1026700024303105BCF090E020E030E0F901E35671
:10268000F54C4081F901ED55F54C40839F5F292FB2
:1026900030E0E091993A4E2F50E043505109241711
:1026A000350764F38093983AEA5FE093993A809112
:1026B0009C3A806180939C3A80914C0880FF40C096
:1026C0008091282190912921A0912A21B0912B213C
:1026D0000196A11DB11D80939D3A90939E3AA093BF
:1026E0009F3AB093A03A80916008909161088093DE
:1026F000A13A9093A23AF0E0E756F54C108260912F
:10270000993A40E0262F30E080E090E0F901E7566A
:10271000F54CDC01A856B54C20818C91280F208304
:102720004F5F6091993A262F30E0842F90E0281770
:10273000390764F78091A220813079F1CF91089513
:102740008091282190912921A0912A21B0912B21BB
:1027500080939D3A90939E3AA0939F3AB093A03A6B
:1027600020916008309161082093A13A3093A23AF9
:1027700040911921403D09F0BECF2F30310508F0BE
:10278000BACF0196A11DB11D80939D3A90939E3AB8
:10279000A0939F3AB093A03AAECF83E88093A20073
:1027A000C091A30B9091A30B9C7F9093A30B6E5FA2
:1027B00088E99AE3B0D69091A30B8C2F8370892B74
:1027C0008093A30B87E88093A200CF9108953F9256
:1027D0004F925F926F927F928F929F92AF92BF9231
:1027E000CF92DF92EF92FF920F931F93CF93DF93DD
:1027F000CDB7DEB73C01962E142FF22E4D885E88A1
:102800004ADD21E041E060E078E488EE91E09BDC85
:1028100081E08093480060921F2170922021909265
:10282000212110932221E09223218093242187E00B
:1028300080932521F09226210093272110922821B0
:102840001092292110922A2110922B2110922C21D2
:1028500010922D2182E090E09DDD382E83E090E003
:1028600099DD982E8FEF981609F4CAC0F31409F475
:102870009CC06FED80E090E0A2DD6F2D82E090E0E3
:102880009EDD61E083E090E09ADD0E94D40480E068
:1028900090E080DD8E3E09F493C080E680932E2187
:1028A00080E480932F210E94E9050E94FA05A092FE
:1028B0001D21B0921E21C0921B21D0921C2180921A
:1028C0001A2187E090E066DD8F3F09F4D0C000E375
:1028D00011E2F6EFEF2EFF24FA94C7018F519142D7
:1028E0007C01C701800F911F55DDF80181938F0195
:1028F000F1E209341F07A9F789E1E0E3F1E2ACE472
:10290000B1E201900D928A95E1F784E090E042DD1A
:10291000082F10E00093492110934A2185E090E0B0
:1029200039DD302F2227282B2093492130934A214B
:1029300021E042E15AE767E080E498E020DDE091A1
:10294000192181E08E0F80931921F0E0E354FF4DAF
:10295000808190E00197809368089093690881E0F6
:102960008093470820E040E066E080E096E0B4DC39
:1029700080E48093050640E060E081E090E0B6D41A
:1029800014D588E291E2DF91CF911F910F91FF90D2
:10299000EF90DF90CF90BF90AF909F908F907F90FF
:1029A0006F905F904F903F90E4C691E0991261CF95
:1029B0000E94D40480E090E0EDDC8E3E09F06DCF03
:1029C00081E090E0E7DC80932E21A114B10491F026
:1029D000760185010C0D1D1DA0E26A2E712CC3012C
:1029E000D9DCF70181937F01FFEF6F1A7F0AE016B0
:1029F000F106A9F780E880932F210E94FA0557CFAE
:102A00006F2D82E090E0DBDC61E083E090E0D7DCDA
:102A100082E090E0BFDC382E83E090E0BBDC982EB3
:102A20008201B7E06B2E712CE12C0BC0E1100EC0BF
:102A3000C301C5DCFFEF6F1A7F0A80E268167104DC
:102A400089F0F80161918F016111F0CF60E0C3015D
:102A5000B6DCEE24E394FFEF6F1A7F0A80E268167B
:102A6000710479F76FED80E090E0A9DCFFCE720190
:102A700007E010E0D12C0AC0D1100DC0C8019FDCC6
:102A80000F5F1F4F0032110509F421CFF70161914B
:102A90007F016111F1CF60E0C80191DCDD24D394A6
:102AA000EFCF0E94AE0420E480E092EEA4E0B0E01C
:102AB0000197A109B1090097A105B105C9F72093B4
:102AC0000706F2CF8091282190912921A0912A21F7
:102AD000B0912B210196A11DB11D809328219093C7
:102AE0002921A0932A21B0932B21809170218F5FFF
:102AF000809370218EE090E080936808909369083D
:102B000081E0809319210E94550780914C088061D3
:102B100080934C080E9457070E945E0740912E2127
:102B200047FD03C0842F8370B1C0842F8370813030
:102B300009F0ACC088E291E28093142190931521B2
:102B400083E0809396218EE08093972188E08093A4
:102B500098218FEF8093992184E180939A2180912D
:102B60004C0880FF18C08091282190912921A091C4
:102B70002A21B0912B210196A11DB11D80939B218B
:102B800090939C21A0939D21B0939E2180916008F9
:102B90009091610826C08091282190912921A091CF
:102BA0002A21B0912B2180939B2190939C21A0936B
:102BB0009D21B0939E212091600830916108509131
:102BC0001921503D71F42F30310558F40196A11DA3
:102BD000B11D80939B2190939C21A0939D21B09344
:102BE0009E2110929F211092A021809128219091E6
:102BF0002921A0912A21B0912B218093A12190938A
:102C0000A221A093A321B093A421209197212E5F0C
:102C100030E0215031091216130684F450E060E0D0
:102C200080E090E0FC01EA56FE4D8081680F5F5F16
:102C3000852F90E082179307ACF301C060E0F901A3
:102C4000EA56FE4D60838091A220813021F583E811
:102C50008093A200C091A30B9091A30B9C7F9093B3
:102C6000A30B609197216E5F86E991E254D4909115
:102C7000A30B8C2F8370892B8093A30B87E8809301
:102C8000A20040912E21842F837000C0882339F048
:102C9000813019F400C092E003C091E001C094E0DB
:102CA00080912821892321F080E48093060605C0C5
:102CB00046FF03C080E4809305060E94560780917A
:102CC0004C0884FF05C080911821811101C0E9DE04
:102CD000189590912E219370913009F00895462F08
:102CE00063E0B7CBCF92DF92FF920F931F93CF9306
:102CF000DF931F921F92CDB7DEB78E3040F4E82FDE
:102D0000F0E0DF01A350BF4D9C91961759F080E091
:102D10000F900F90DF91CF911F910F91FF90DF9057
:102D2000CF900895EE0FFF1FEF51FF4D608171812D
:102D30006217730761F7883009F47FC08A30D1F1D8
:102D40008B3011F18C3009F4A1C08D3001F7FA01FC
:102D500080819181019609F4BFC080914B21882325
:102D6000B1F2FA01608185E090E049835A8327DB64
:102D700049815A81FA01618184E090E020DB83E09F
:102D80008093182181E0C4CFFA018081813009F459
:102D9000B7C0823009F4A4C0843009F4C2C08830BE
:102DA00089F76FEF87E090E00ADB83E080931821DA
:102DB00081E0AECFFA01808186FD04C080E480937B
:102DC0000606808110912E21837F80932E21FA01A7
:102DD000808185FF41C015FF76C083FF10C081E070
:102DE000809368211092662180936721109265215B
:102DF00080912E21877F80932E21FA01808183701C
:102E000079F4812F837009F4BDCF10926821498332
:102E10005A830E94520749815A81FA018081837046
:102E2000813029F1833009F0ADCF1370133009F4EC
:102E3000A9CF0E94540781E06BCFFA018081918174
:102E4000A281B3818093282190932921A0932A21E4
:102E5000B0932B2181E05CCF15FFBFCF49835A830C
:102E60000E943A0749815A81FA018081B6CF812FA9
:102E70008370813009F486CF49835A830E945307B7
:102E800049815A81FA0180818370CCCF8A0187E021
:102E9000C82ED12CF12C0CC0F1100FC0C6018FDA56
:102EA000FFEFCF1ADF0A20E2C216D10409F467CF80
:102EB000F80161918F016111EFCF60E0C6017FDA07
:102EC000FF24F394EDCF49835A830E940F06498172
:102ED0005A81FA01808181CF81E080934B2118CF04
:102EE00080E090E049835A8355DA49815A818E3EC9
:102EF00009F00DCF83E080931821FA0180814CCF37
:102F00008CE491E249835A837EDA6FED80E090E0B1
:102F100056DA83E08093182149815A81FA01808131
:102F200038CF6EEE80E090E049835A8348DA6091B2
:102F30002E2181E090E043DA80911D2190911E21A5
:102F400049815A81892BC9F000E010E0E0911B21F2
:102F5000F0911C21E00FF11F6081C8018096498328
:102F60005A832DDA0F5F1F4F80911D2190911E21F2
:102F700049815A810817190748F383E08093182183
:102F8000FA0180810CCF0E945507809168089091CA
:102F90006908E091192121E02E0F20931921E77093
:102FA000F0E0E354FF4D3081830F911D809368085A
:102FB0009093690820FD26C18091A220813069F498
:102FC0008093250783E88093A2008091A30B8F7CD8
:102FD0008093A30B87E88093A20080916F218111D9
:102FE00003C080916E210FC0815080936F21882390
:102FF00019F080916E2107C010926F2110926E21FE
:10300000109269219BC0882309F498C0A091962250
:10301000B09197228091993A8F3F59F010919A3A46
:1030200050919B3A00919C3A3DE9E32E3AE3F32E0E
:103030000AC010919C3A50919D3A00919E3A2FE916
:10304000E22E2AE3F22EFD01319681F090E040E07D
:1030500020E030E0E901C856D54C2881420F9F5F3F
:10306000292F30E02E173F07A8F301C040E0E856B3
:10307000F54C9081491360C05F3F09F05DC09091AD
:10308000983A913089F51D31B0F41E3008F01DC119
:10309000E12FF0E0E350FF4D9081091316C1193084
:1030A00009F00EC1809160089091610880932C21F5
:1030B00090932D2105C1602F812F0E947A07909156
:1030C0002E2194FD39C0811103C08091993A05C029
:1030D00041E061E0812FBDD92FC090E0883F91058C
:1030E0005CF589E0C0DA28C0CD010497202F2F704D
:1030F000622F70E007D41D3130F49B01A701602FCF
:10310000812FF0DD06C09B01A701602F812F0E9457
:10311000930790912E2194FD0FC0882329F041E060
:1031200062E0812F96D908C08091993A90E0883F5B
:10313000910514F48AE097DA10926E218091A22012
:10314000813009F05CC08091080786FF46C08091FD
:103150001621909117210196883B2BE0920729F0C8
:1031600080931621909317213CC010921621109243
:10317000172180912E21982F93709130E9F486FDCC
:1031800003C090E490930606982F907F90932E2191
:1031900083FF0BC01092662181E08093672110921B
:1031A0006521892F877F80932E21109268210E94AC
:1031B00052079091A22001C091E010926C211092D0
:1031C0006D2110926A2110926B218091A30B8C7F4C
:1031D0008093A30B913029F012C010921621109207
:1031E000172183E88093A2008091A30B80638093D2
:1031F000A30B87E88093A20081E0809326070E94BA
:103200005D0702C00E945E0780911821882331F07B
:10321000815080931821811101C043D8809167218A
:103220008823E1F08091192183708230B9F4809174
:1032300065218E3060F4893009F04CC0209160081F
:103240003091610820932C2130932D2143C08F5F52
:10325000809365218C3111F410926721809168214F
:10326000882309F1809119218370E9F48091662106
:10327000E82FF0E0E057FF4D6081805E0E947A0702
:10328000882331F08091662141E061E0805EE1D8E1
:10329000809166218F5F8093662190911A21891316
:1032A00002C0109268210E94560780914C0884FF4A
:1032B00005C080911821811101C0F3DB189510C061
:1032C00080912E2184FF04CF37CF90912E2194FF3F
:1032D00004CF32CF41E061E0BCD880916521B7CF07
:1032E00080912E2185FB882780F90895FF920F9306
:1032F0001F93CF93DF931F921F92CDB7DEB78983C1
:103300009A83F62E142F20E040E060E080E297E000
:103310000E946C1120E040E066E080E097E00E94AF
:10332000571101E020E440E063E080E097E00E9474
:10333000841181E08093260783E08093A50B898127
:103340008093A60B8F2D90E18902B00111248A8110
:103350008F70862B8093A70B112329F08091A40BEB
:1033600084608093A40B88E08093A50620E040E071
:1033700063E080EA96E00E946C1120E040E062E0A9
:1033800080EA96E00E9457118091080786FF05C0E9
:103390008091A30B8C7F8093A30B0F900F90DF91F4
:1033A000CF911F910F91FF900895E0EAFBE0848197
:1033B0008861848380EE8183838180638383089521
:1033C0001F920F920FB60F92112408B60F9218BEDB
:1033D00009B60F9219BE0BB60F921BBE2F933F93E7
:1033E0004F935F936F937F938F939F93AF93BF930D
:1033F000EF93FF930E94760720916C2130916D210D
:10340000C901019680936C2190936D21F901E856D2
:10341000FD4D20812093A00B811528E1920729F111
:1034200020916A2130916B212817390729F4809166
:10343000A30B8C7F8093A30B0E947707FF91EF91E2
:10344000BF91AF919F918F917F916F915F914F91BC
:103450003F912F910F900BBE0F9009BE0F9008BEA9
:103460000F900FBE0F901F90189510926C21109224
:103470006D2180E090E0D4CF1F920F920FB60F9293
:10348000112408B60F9218BE09B60F9219BE0BB6DA
:103490000F921BBE2F933F934F935F936F937F9336
:1034A0008F939F93AF93BF93EF93FF930E947807FF
:1034B0008091080786FD29C020916C2130916D21F3
:1034C00080916A2190916B212817390729F080910A
:1034D000A30B83608093A30B0E947907FF91EF9168
:1034E000BF91AF919F918F917F916F915F914F911C
:1034F0003F912F910F900BBE0F9009BE0F9008BE09
:103500000F900FBE0F901F9018958091A30B8C7F8A
:103510008093A30BE1CFBF92CF92DF92EF92FF9205
:103520000F931F93CF93DF936C01B62E8091080702
:1035300086FD05C08091A30B83608093A30B00914F
:103540006A2110916B21C0E0D8E1C01BD10BEB2C9C
:10355000F12CCE15DF0558F1A701B601C801885638
:103560009D4DEDD180916C2190916D21E00EF11E69
:10357000E0926A21F0926B21E11428E1F20609F44D
:1035800046C008171907A8F5E816F90690F18FEF5D
:10359000E81AF80AE0926C21F0926D21E11428E11A
:1035A000F20639F510926C2110926D2122C0AE0105
:1035B000B601C80188569D4DC2D1BC1AEB2CF12C26
:1035C000BE016C0D7D1DA70188E992E2B8D1809102
:1035D0006C2190916D21E0926A21F0926B21081785
:1035E000190788F42FEFE21AF20AE0926C21F092A8
:1035F0006D21DF91CF911F910F91FF90EF90DF90A0
:10360000CF90BF900895E816F90660F7F2CF1092B8
:103610006A2110926B21892B61F781E090E0809301
:103620006C2190936D21E5CF1F920F920FB60F92F0
:10363000112408B60F9218BE09B60F9219BE0BB628
:103640000F921BBE2F933F934F935F936F937F9384
:103650008F939F93AF93BF93EF93FF930E94740751
:103660009091A00BE091692181E08E0F80936921F8
:10367000F0E0E856F54C9083813019F1843049F13F
:1036800090E020919622309197228217930779F14A
:103690000E947507FF91EF91BF91AF919F918F911C
:1036A0007F916F915F914F913F912F910F900BBE42
:1036B0000F9009BE0F9008BE0F900FBE0F901F9085
:1036C00018958091983A81508230D0F110926921FA
:1036D000DFCF8091993A8F3F01F190E08E3F9105C5
:1036E000A9F302968093962290939722D1CF2091AE
:1036F000A220213061F12091993A2F3F29F122E057
:1037000030E0821B930B8093962290939722109225
:10371000692181E080936E21BBCF8091993A90918D
:103720009A3A04968F3F910509F080F680919A3A73
:1037300090919B3A04968093962290939722A8CFDB
:1037400082E380936F21A4CF24E030E0DACF20938E
:10375000250783E88093A2008091A30B8F7C809340
:10376000A30B87E88093A2008091962290919722E4
:10377000C2CFCF93DF931F921F92CDB7DEB723E165
:1037800030E029833A83809372219093732183E000
:103790008093B50889818093B6088A818F70809361
:1037A000B70820E048E166E080E496E00E94571107
:1037B00080E18093B408E3EBF8E08081806380834C
:1037C0000F900F90DF91CF9108951F920F920FB637
:1037D0000F92112408B60F9218BE09B60F9219BEA7
:1037E0000BB60F921BBE2F938F939F93AF93BF93F4
:1037F000EF93FF938091B0088A3AD1F18F3A09F4A0
:103800004CC090917121923009F44BC008F472C001
:10381000943009F452C008F44AC0953061F58093A1
:10382000772110927121809170218A3008F44BC069
:1038300082EF99E7809360089093610881E09AE7AE
:10384000809368089093690826E02093A320E09174
:103850007221F09173218091742190917521A09132
:103860007621B091772180839183A283B38303C0B3
:1038700081E080937121FF91EF91BF91AF919F9172
:103880008F912F910F900BBE0F9009BE0F9008BE25
:103890000F900FBE0F901F90189582E080937121BA
:1038A000EACF8093742183E080937121E4CF8093E9
:1038B000752184E080937121DECF8093762185E0AD
:1038C00080937121D8CF109270212091A32089EF8D
:1038D00099E7821B9109809360089093610881E0C9
:1038E0009AE78093680890936908222309F4AFCF80
:1038F0002150ABCF992319F0913009F0BCCF109231
:103900007121B9CFAA1BBB1B51E107C0AA1FBB1F66
:10391000A617B70710F0A61BB70B881F991F5A955B
:10392000A9F780959095BC01CD010895EE0FFF1F7A
:10393000881F8BBF0790F691E02D1BBE1994FB01E9
:10394000DC0102C001900D9241505040D8F708951B
:04395000F894FFCF19
:10395400910E9609B3078A0A7E0BE308E908120D53
:10396400EF08F508FB08FD0835093B09410957092B
:103974006C098209A20E930E940E950E5208960EAF
:10398400970E980E990E9A0E9B0E9C0E9D0E9E0EEF
:103994009F0EA00EA10E810979217A217C217E211E
:1039A40080218221832184218521862187218B21E5
:1039B4008C218D218E2190219221942101000100DE
:1039C40001000100010001000100010001000100EB
:1039D40002000100010001000100010001000100DA
:1039E40001020202020101010101020101010202BC
:1039F400020201074F7574707574457870616E64C6
:103A0400657200FF039F01DF039F031F030F101064
:103A14000F100F10101F21212122212321242125E1
:103A2400212621272128212C212E212F2130214913
:103A34002101000100010001000100010001000159
:103A44000001000100010001001900010002010150
:0C3A540001010101010402010101020056
:00000001FF
