:10000000FDC0000021C100001FC100001DC1000093
:100010001BC1000019C1000017C1000015C100007C
:1000200013C1000011C100000FC100000DC100008C
:100030000BC1000009C100000C94FA1C05C10000AE
:100040000C941B1D01C10000FFC00000FDC000009A
:100050000C945E25F9C000000C94BF27F5C0000089
:10006000F3C00000F1C00000EFC00000EDC00000D0
:100070000C94E22BE9C00000E7C00000E5C00000DE
:10008000E3C00000E1C00000DFC00000DDC00000F0
:10009000DBC00000D9C00000D7C00000D5C0000000
:1000A000D3C00000D1C00000CFC000000C94C01A23
:1000B000CBC00000C9C00000C7C000000C947A1D6E
:1000C000C3C000000C94911DBFC00000BDC0000063
:1000D000BBC00000B9C00000B7C00000B5C0000040
:1000E000B3C00000B1C00000AFC00000ADC0000050
:1000F000ABC00000A9C00000A7C00000A5C0000060
:10010000A3C00000A1C000009FC000009DC000006F
:100110009BC0000099C0000097C0000095C000007F
:1001200093C0000091C000008FC000008DC000008F
:100130008BC000000C947B1C87C000000C949B1C9F
:1001400083C0000081C000007FC000007DC00000AF
:100150007BC0000079C0000077C0000075C00000BF
:1001600073C0000071C000006FC000006DC00000CF
:100170006BC0000069C0000067C0000065C00000DF
:1001800063C0000061C000000C94392A5DC000000B
:100190005BC0000059C0000057C0000055C00000FF
:1001A00053C0000051C000004FC000004DC000000F
:1001B0004BC0000049C0000047C0000045C000001F
:1001C00043C0000041C000003FC000003DC000002F
:1001D0003BC0000039C0000037C000000C94112B58
:1001E0000C94DD2931C000002FC000002DC000009C
:1001F0002BC0000029C0000027C0000011241FBE32
:10020000CFEFCDBFDFE3DEBF00E00CBF18BE19BEED
:100210001ABE1BBE12E2A0E0B0E2ECE8F9E500E095
:100220000BBF02C007900D92AA3CB107D9F71BBEC5
:100230002DE3AAECB2E201C01D92A63DB207E1F7A0
:100240000E94DF1D0C94C42CDBCE1092C5231092AB
:10025000C6231092C7231092C82391E090934606BC
:1002600090934606909346069093460690934606D2
:1002700090934606909346069093460690934606C2
:100280009093460690934606909346069093850673
:1002900082E08093450680934506809346068093CE
:1002A00046068093450680934506809346068093D4
:1002B00046068093450680934506809346068093C4
:1002C00046068093450680934506809346068093B4
:1002D00046068093450680934506809346068093A4
:1002E0004606809345068093450680934606809394
:1002F0004606809345068093450680934606809384
:100300004606809345068093450680934606809373
:100310004606809345068093450680934606809363
:100320004606809345068093450680934606809353
:100330004606809345068093450680934606809343
:100340004606809345068093450680934606809333
:100350004606809345068093450680934606809323
:100360004606809345068093450680934606809313
:100370004606809345068093450680934606809303
:1003800046068093450680934506809346068093F3
:1003900046069093450690934506909345069093A4
:1003A0004506909345069093450690934506909395
:1003B0004506909345069093450690934506909385
:1003C0004506909346069093460690934606909372
:1003D0004606909346069093460690934606909361
:1003E0004606909346069093460690934606909351
:1003F0004606909386068093450680934506809333
:100400004606809346069093850680934506809322
:100410004506809346068093460680934506809362
:100420004506809346068091880682FF06C080E0DC
:1004300090E28093C5239093C62382E08093450683
:1004400080934506809346068091880682FF09C006
:100450008091C5239091C62390618093C52390938A
:10046000C62382E080934506809345068093460626
:100470008091880682FF09C08091C5239091C62390
:1004800098608093C5239093C62382E080934506AD
:1004900080934506809346068091880682FF09C0B6
:1004A0008091C5239091C62394608093C523909337
:1004B000C62382E0809345068093450680934606D6
:1004C0008091880682FF09C08091C5239091C62340
:1004D00092608093C5239093C62382E08093450663
:1004E00080934506809346068091880682FF09C066
:1004F0008091C5239091C62391608093C5239093EA
:10050000C62382E080934506809345068093460685
:100510008091880682FF09C08091C5239091C623EF
:1005200080688093C5239093C62382E0809345061C
:1005300080934506809346068091880682FF09C015
:100540008091C5239091C62380648093C5239093A6
:10055000C62382E080934506809345068093460635
:100560008091880682FF09C08091C5239091C6239F
:1005700080628093C5239093C62382E080934506D2
:1005800080934506809346068091880682FF09C0C5
:100590008091C5239091C62380618093C523909359
:1005A000C62382E0809345068093450680934606E5
:1005B0008091880682FF09C08091C5239091C6234F
:1005C00088608093C5239093C62382E0809345067C
:1005D00080934506809346068091880682FF09C075
:1005E0008091C5239091C62384608093C523909306
:1005F000C62382E080934506809345068093460695
:100600008091880682FF09C08091C5239091C623FE
:1006100082608093C5239093C62381E080938606F1
:1006200082E080934506809345068093460680913C
:10063000880682FF09C08091C5239091C6238160FE
:100640008093C5239093C62381E0809345068093D1
:100650004506809345068093450680934506809322
:100660004506809345068093450680934506809312
:100670004506809345068093450680934606809301
:1006800046068093460680934606809346068093EE
:1006900046068093460680934606809346068093DE
:1006A000460680934606809346068093860682E03F
:1006B00080934506809345068093460680934606C0
:1006C00080934506809345068093460680934606B0
:1006D0008093450680934506809346068091880660
:1006E00082FF06C080E090E28093C7239093C823E6
:1006F00082E080934506809345068093460680916C
:10070000880682FF09C08091C7239091C823906119
:100710008093C7239093C82382E0809345068093FB
:100720004506809346068091880682FF09C0809125
:10073000C7239091C82398608093C7239093C823C0
:1007400082E080934506809345068093460680911B
:10075000880682FF09C08091C7239091C8239460C6
:100760008093C7239093C82382E0809345068093AB
:100770004506809346068091880682FF09C08091D5
:10078000C7239091C82392608093C7239093C82376
:1007900082E08093450680934506809346068091CB
:1007A000880682FF09C08091C7239091C823916079
:1007B0008093C7239093C82382E08093450680935B
:1007C0004506809346068091880682FF09C0809185
:1007D000C7239091C82380688093C7239093C82330
:1007E00082E080934506809345068093460680917B
:1007F000880682FF09C08091C7239091C823806436
:100800008093C7239093C82382E08093450680930A
:100810004506809346068091880682FF09C0809134
:10082000C7239091C82380628093C7239093C823E5
:1008300082E080934506809345068093460680912A
:10084000880682FF09C08091C7239091C8238061E8
:100850008093C7239093C82382E0809345068093BA
:100860004506809346068091880682FF09C08091E4
:10087000C7239091C82388608093C7239093C8238F
:1008800082E08093450680934506809346068091DA
:10089000880682FF09C08091C7239091C823846095
:1008A0008093C7239093C82382E08093450680936A
:1008B0004506809346068091880682FF09C0809194
:1008C000C7239091C82382608093C7239093C82345
:1008D00082E080934506809345068093460680918A
:1008E000880682FF09C08091C7239091C823816048
:1008F0008093C7239093C82381E080934506089591
:100900008F92AF92BF92CF92DF92EF920F9384E5D6
:1009100092E29F938F9382E4882E93E8A92EB12CC4
:1009200021E5C22E23E2D22EE12C00E022E040E0BD
:1009300061E084E594E00E94E3230F900F900F9113
:10094000EF90DF90CF90BF90AF908F900895E0EE42
:10095000F6E081E0868392E0968334E0368328E0F7
:10096000268340E1468350E2568350E4568350E8A4
:100970005683E0E0F7E086839683E0E6F6E0468380
:100980002683368396838683E0E4F6E08683968327
:10099000368326838093860608950E94F0188091FE
:1009A000880683FF0CC142E031E022E094E0E8E0F9
:1009B00070E160E280E450E83093E506AFEFB1EE1D
:1009C000F4E0A150B040F040E1F700C000003093E7
:1009D000E6062093E506AFEFB1EEF4E0A150B0409B
:1009E000F040E1F700C000002093E6069093E50692
:1009F000AFEFB1EEF4E0A150B040F040E1F700C03D
:100A000000009093E606E093E506AFEFB1EEF4E068
:100A1000A150B040F040E1F700C00000E093E606CE
:100A20007093E506AFEFB1EEF4E0A150B040F040B6
:100A3000E1F700C000007093E60690930507AFEF62
:100A4000B1EEF4E0A150B040F040E1F700C000008A
:100A5000909306076093E506AFEFB1EEF4E0A15086
:100A6000B040F040E1F700C000006093E6068093DC
:100A7000E506AFEFB1EEF4E0A150B040F040E1F791
:100A800000C000008093E6065093E506AFEFB1EE9C
:100A9000F4E0A150B040F040E1F700C000005093F6
:100AA000E60630930507AFEFB1EEF4E0A150B04099
:100AB000F040E1F700C000003093060720930507DF
:100AC000AFEFB1EEF4E0A150B040F040E1F700C06C
:100AD00000002093060780930506AFEFB1EEF4E027
:100AE000A150B040F040E1F700C00000809306063E
:100AF000415009F061CF2FEF83EC99E02150804005
:100B00009040E1F700C0000042E031E022E094E0D4
:100B1000E8E070E160E280E450E83093E50620937D
:100B2000E5069093E506E093E5067093E50690935D
:100B300005076093E5068093E5065093E50630933C
:100B400005072093050780930506AFEFB3ECF9E0A6
:100B5000A150B040F040E1F700C000003093E6063D
:100B60002093E6069093E606E093E6067093E60689
:100B7000909306076093E6068093E6065093E60698
:100B8000309306072093060780930606AFEFB3EC79
:100B9000F9E0A150B040F040E1F700C00000415042
:100BA00009F0BBCF2FEF83ED90E3215080409040C0
:100BB000E1F700C0000084E08093050708950E94DB
:100BC0004D25F1CECF92DF92EF92FF92E1E5F3E275
:100BD00083E081838283C12CD12C80E2E82E81E4E2
:100BE000F82EC786D08AE18AF28A40E050E068E4B5
:100BF00072E4438B548B658B768B2AE030E0278B35
:100C0000308F81E081A313A212A2C4A2D5A2E6A2D2
:100C1000F7A240A751A762A773A724A735A786AB61
:100C200010AE17AAC1AED2AEE3AEF4AE40938E239F
:100C300050938F236093902370939123209392235A
:100C40003093932380939C2310929E2310929D2394
:100C500020E23EE42093CC233093CD232CED35E0ED
:100C60002093CE233093CF232093D0233093D123CE
:100C70002093D2233093D3238093C923FF90EF9006
:100C8000DF90CF9008958AE593E20E94FB0E0E94C8
:100C900014170E94B4170E94521882EC93E20E942B
:100CA0008F1089EC93E226D68CEC93E267D68EEC1B
:100CB00093E27AD680ED93E28CD682ED93E29FC6E2
:100CC0008091C223823009F4F4C008F041C0882327
:100CD00009F4ABC08130C1F59091680694FD809312
:100CE000E5068091680683FF03C082E08093E506F5
:100CF0008091680682FF03C084E08093E5068091BE
:100D0000680681FF03C088E08093E506809168064D
:100D100080FF03C080E18093E50680E28093E506D2
:100D200080E48093E5068091480682FF03C080E856
:100D30008093E5068091480683FF03C081E080939D
:100D4000050782E08093050784E0809305070895F6
:100D50008330E9F18430C1F78091680684FF03C0D5
:100D600081E08093E5068091680683FF03C082E0FE
:100D70008093E5068091680682FF03C084E080933B
:100D8000E5068091680681FF03C088E08093E50650
:100D90008091680680FF03C080E18093E50680E2D1
:100DA0008093E50680E48093E50680E88093E5067D
:100DB0008091480683FF03C081E0809305078091FE
:100DC000880680FFBECF82E080930507BACF80916E
:100DD000680684FF03C081E08093E5068091680681
:100DE00083FF03C082E08093E5068091680682FF5E
:100DF00003C084E08093E5068091680681FF03C00C
:100E000088E08093E5068091680680FF03C080E15A
:100E10008093E50680E28093E50680E48093E50612
:100E20008091480682FFC4CFC0CF8091680684FFBE
:100E300003C081E08093E5068091680683FF03C0CC
:100E400082E08093E5068091680682FF03C084E01B
:100E50008093E5068091680681FF03C088E0809357
:100E6000E5068091680680FF03C080E18093E50677
:100E70008091480680FF03C080E28093E506809160
:100E8000480681FF03C080E48093E5068091480610
:100E900082FF03C080E88093E5068091480683FFC7
:100EA00003C081E0809305078091880680FF4CCFC6
:100EB00048CF8091680684FF03C081E08093E506F7
:100EC0008091680683FF03C082E08093E5068091ED
:100ED000680682FF03C084E08093E506809168067F
:100EE00081FF03C088E08093E5068091680680FF5B
:100EF00003C080E18093E50680E28093E50680915F
:100F0000480681FF03C080E48093E506809148068F
:100F100082FF4ECF4ACFE0EEF6E021E0268392E05A
:100F2000968384E0868338E0368330E1368330E28E
:100F3000368330E4368330E83683E0E0F7E026831A
:100F40009683868308958091CB2280FD57C081FDD2
:100F500049C082FD3AC083FD2BC084FD1CC085FDC5
:100F60000DC086FF089580E09AE00E94152181E07F
:100F70008093860682E080930607089580E098E0DB
:100F80000E94152188E08093460681E08093060741
:100F90008091CB22E6CF80E098E00E94152184E08A
:100FA0008093460680E88093E6068091CB22D7CFD7
:100FB00080E098E00E94152182E08093460680E45C
:100FC0008093E6068091CB22C8CF80E099E00E9412
:100FD000152182E08093660688E08093E606809182
:100FE000CB22B9CF80E099E00E94152184E0809364
:100FF00066068093E6068091CB22ABCF80E099E035
:101000000E94152188E08093660682E08093E606C0
:101010008091CB229CCF08950895089508958091E2
:10102000382381508093CA22089508958091C22365
:10103000813009F008958091CA228F5F8093CA227F
:10104000909138238913F6CF00D961E08AE50E9498
:1010500065261092CA220895089508950895089566
:101060000895089590EE980F923440F490E08097A0
:10107000FC01E05FFD4D2081261711F080E008950E
:10108000880F991FFC01EC57FF4D0190F081E02D76
:10109000199581E0089590EE980F923448F4E82F66
:1010A000F0E0B097DF01A05FBD4D9C91961711F065
:1010B00080E00895EE0FFF1FDF01A457BE4D8D9114
:1010C0009C9182179307A1F7E050F04E0190F081B8
:1010D000E02DCA011994FC0180818093522381E0A4
:1010E0000895FC0180818093532381E00895EF925D
:1010F000FF920F931F93CF93DF93FC0120813181E7
:10110000E091C223E53008F07CC0F0E0EE0FFF1F55
:10111000EF58FD4D808191818223932380FF06C08B
:1011200040E14093660641E04093E60681FF76C0C9
:1011300048E04093660642E04093E6068C01047066
:1011400011277C0148E0E422FF24EC01C071DD2777
:10115000DC01A072BB27FC01E074FF27BC016078B2
:101160007727AC014427517088279270012B29F012
:1011700014E0109366061093E606EF2831F012E0B3
:101180001093660618E01093E606CD2B31F0C1E00F
:10119000C0936606C0E1C093E606AB2B31F0A1E038
:1011A000A0934606A0E2A093E606EF2B31F0E2E022
:1011B000E0934606E0E4E093E606672B31F064E056
:1011C0006093460660E86093E606452B31F048E000
:1011D0004093460641E040930607892B31F081E0B9
:1011E0008093860682E080930607209356233093EF
:1011F000572381E0DF91CF911F910F91FF90EF90E6
:10120000089580E090E040E050E060E070E0E0E0D1
:10121000F0E0A0E0B0E0C0E0D0E0B7CF8C01047017
:1012200011277C01F8E0EF22FF248FCF8091680620
:1012300084FB222720F930E020935A2330935B234C
:101240008091680683FF65C082E090E0822B932B3B
:1012500080935A2390935B23209168062470822BFD
:1012600080935A2390935B232091680621FF63C0EB
:1012700028E030E0822B932B80935A2390935B23BA
:101280002091680620FF54C020E130E0822B932B90
:1012900080935A2390935B232091480620FF45C0FA
:1012A00020E230E0822B932B80935A2390935B2390
:1012B0002091480621FF36C020E430E0822B932B9A
:1012C00080935A2390935B232091480622FF27C0E6
:1012D00020E830E0822B932B80935A2390935B235A
:1012E0002091480623FF18C020E031E0822B932B89
:1012F00080935A2390935B232091880620FD1EC083
:1013000020E030E0822B932B80935A2390935B2331
:10131000089580E090E09ACF20E030E0E7CF20E031
:1013200030E0D8CF20E030E0C9CF20E030E0BACFC5
:1013300020E030E0ABCF20E030E09CCF20E032E096
:10134000822B932B80935A2390935B230895FC0167
:10135000808180935C2381E00895FC0180818093EB
:101360005D2381E00895FC018081918180935E235B
:1013700090935F2381E00895FC0180819181009723
:1013800031F0809368239093692381E0089580E091
:101390000895FC012081822F90E0809590958370C4
:1013A0009927892B21F42093722381E0089580E00E
:1013B0000895FC0180818093732381E00895FC01EE
:1013C0009081892F817090FF03C09093742381E0F6
:1013D0000895FC0180819181009731F080937D23F5
:1013E00090937E2381E0089580E00895FC012081A0
:1013F000822F90E08095909583709927892B21F416
:101400002093872381E0089580E00895FC01808186
:101410008093882381E00895FC019081892F817059
:1014200090FF03C09093892381E00895FC0180819F
:101430009181009731F0809392239093932381E0E0
:10144000089580E00895FC012081822F90E080952E
:10145000909583709927892B21F420939C2381E018
:10146000089580E00895FC01808180939D2381E0B0
:101470000895FC019081892F817090FF03C09093A3
:101480009E2381E00895FC01808180FFC1C02091EE
:101490006823309169232093412330934223109293
:1014A00000099CE09093090920913E2330913F234D
:1014B000215031092093260930932709209149238F
:1014C00030914A23209328093093290920914923F8
:1014D00030914A2320932A0930932B0920914923E4
:1014E00030914A2320932C0930932D0920914923D0
:1014F00030914A2320932E0930932F0991E0909345
:1015000006099093070993E09093010990915E2357
:1015100090FF1AC1209101092068209301092091B0
:10152000CB223091CC2221602093CB223093CC224D
:1015300021E091FF0FC0209101092064209301094F
:101540002091CB223091CC2222602093CB22309369
:10155000CC2221E092FF5DC09091010990629093AE
:1015600001092091CB223091CC2224602093CB2200
:101570003093CC2221E081FD4EC030E082FF2BC0B1
:10158000409192235091932340934B2350934C23AB
:101590001092000A9CE09093090A409146235091D2
:1015A0004723415051094093260A5093270A4091FE
:1015B0004423509145234093280A5093290A91E0EF
:1015C0009093060A9093070A93E09093010A9091F2
:1015D0005E2396FDA5C090E0222331F02091502398
:1015E0002093000910924323332331F020914023AC
:1015F0002093000810924F23992331F090914823B3
:101600009093000A1092392380939F2381E00895DC
:1016100020E081FFB2CF40917D2350917E23409303
:101620003C2350933D23109200089CE090930908BE
:1016300040913A2350913B23415051094093260851
:101640005093270840914D2350914E2340932808F2
:101650005093290840914D2350914E2340932A08DE
:1016600050932B0840914D2350914E2340932C08CA
:1016700050932D0840914D2350914E2340932E08B6
:1016800050932F0891E0909306089093070893E0F9
:101690009093010890915E2393FD2EC030E094FF5B
:1016A00014C04091C223423008F068CF3091010845
:1016B0003064309301084091CB225091CC2240619C
:1016C0004093CB225093CC2231E095FF57CF90919D
:1016D000C223923008F052CF909101089068909305
:1016E00001084091CB225091CC2240624093CB2202
:1016F0005093CC2231E042CF3091C2233111CECF72
:10170000309101083062309301084091CB22509112
:10171000CC2248604093CB225093CC2231E0BFCF03
:101720009091C223911112C09091010A90619093FF
:10173000010A4091CB225091CC2240644093CB22AD
:101740005093CC2291E048CF20E0F3CE92509330DA
:1017500008F041CFE9CFFC01808180FF03C091E018
:101760009093432381FF03C091E090934F2382FF26
:1017700003C091E0909339238093A02381E00895E2
:10178000FC0180819181009731F08093A223909396
:10179000A32381E0089580E00895FC018081918178
:1017A000009731F08093A4239093A52381E00895BE
:1017B00080E00895FC0180819181009731F0809351
:1017C000A6239093A72381E0089580E00895FC016B
:1017D0002081822F90E08095909583709927892BA6
:1017E00021F42093A82381E0089580E00895FC016E
:1017F00080818093A92381E00895FC0180818093FA
:10180000AA2381E00895FC0180818093AB2381E0CD
:101810000895FC01808191818093AC239093AD2346
:1018200081E00895FC01808191818093AE239093A3
:10183000AF2381E00895FC01808191818093B023E2
:101840009093B12381E00895FC0180819181809380
:10185000B2239093B32381E00895FC0180819181AC
:101860008093B4239093B52381E00895FC01808197
:1018700091818093B6239093B72381E00895FC0172
:10188000808191818093B8239093B92381E008955A
:10189000FC01808191818093BA239093BB2381E0E6
:1018A0000895FC01808191818093BC239093BD2396
:1018B00081E00895FC01808191818093BE23909303
:1018C000BF2381E00895FC01808191818093C02332
:1018D0009093C12381E00895FC0180818093C3230C
:1018E00081E00895FC0180818093C42381E0089504
:1018F00080E00895FC018081823069F160F08430DD
:10190000A9F010F1853019F491E090933823809379
:10191000C92381E00895882381F08130C1F79AE0DE
:10192000909338238093C92381E0089592E09093A7
:1019300038238093C92381E0089594E1909338235C
:101940008093C92381E0089594E090933823809395
:10195000C92381E0089595E0909338238093C923AB
:1019600081E00895FC0180818093CA2381E008957D
:10197000FC0180818093CB2381E00895FC012081CC
:1019800031818091C2238250833040F4C901969501
:101990008795019780932608909327082093CC235E
:1019A0003093CD2381E00895FC0120813181809125
:1019B000C2238250833038F4C9019695879580936D
:1019C0002808909329082093CE233093CF2381E0D9
:1019D0000895FC01208131818091C223835082309F
:1019E00038F4C9019695879580932A0890932B081F
:1019F0002093D0233093D12381E008950895FC01F2
:101A0000808191812091C223243039F49C01369544
:101A1000279520932C0830932D088093D223909300
:101A2000D32381E008953F924F925F926F927F920D
:101A30008F929F92AF92BF92CF92DF92EF92FF92DE
:101A40000F931F93CF93DF93FC0100811181E091ED
:101A5000C223E53008F079C0F0E0EE0FFF1FEF5829
:101A6000FD4DC081D181C023D123C0FF0AC080E1D8
:101A7000809365060E946D29882319F081E0809388
:101A8000E506C1FF0AC088E0809365060E946D29C3
:101A9000882319F082E08093E506CE0184709927AF
:101AA0002E01E8E04E2255244E01F0E18F229924C8
:101AB0005E0120E2A222BB246E01E0E4CE22DD24FE
:101AC0007E01F0E8EF22FF243E01662421E072222D
:101AD000CC27D270892B49F084E0382E30926506ED
:101AE0000E946D2981113092E506452839F082E087
:101AF000809365060E946D29811185C0892899F51A
:101B0000AB28E9F5CD2809F048C0EF2809F053C00B
:101B1000672809F05EC0CD2B09F069C000935423FB
:101B20001093552381E0DF91CF911F910F91FF908A
:101B3000EF90DF90CF90BF90AF909F908F907F906D
:101B40006F905F904F903F900895C0E0D0E0E12CFF
:101B5000F12CC12CD12CA12CB12C812C912C612CDD
:101B6000712C892869F281E0809365060E946D29B5
:101B7000882331F280E18093E506AB2819F281E0F9
:101B8000809345060E946D29882309F4BBCF80E22B
:101B90008093E506CD2809F4B8CF82E0809345060E
:101BA0000E946D29882309F4B0CF80E48093E50674
:101BB000EF2809F4ADCF84E0809345060E946D299B
:101BC000882309F4A5CF80E88093E506672809F407
:101BD000A2CF88E0809345060E946D29882309F4EE
:101BE0009ACF81E080930507CD2B09F497CF81E050
:101BF000809385060E946D29882309F48FCF82E0A7
:101C0000809305078BCF88E08093E50677CF3F92DE
:101C10004F925F926F927F928F929F92AF92BF92FC
:101C2000CF92DF92EF92FF920F931F93CF93DF93A8
:101C3000FC0100811181E091C223E53008F079C0F8
:101C4000F0E0EE0FFF1FEF58FD4DC081D181C023A2
:101C5000D123C0FF0AC080E1809367060E946D29EE
:101C6000882319F081E08093E706C1FF0AC088E06D
:101C7000809367060E946D29882319F082E0809383
:101C8000E706CE01847099272E01E8E04E22552404
:101C90004E01F0E18F2299245E0120E2A222BB24B2
:101CA0006E01E0E4CE22DD247E01F0E8EF22FF2485
:101CB0003E01662421E07222CC27D270892B49F0A4
:101CC00084E0382E309267060E946D29811130928F
:101CD000E706452839F082E0809367060E946D2967
:101CE000811185C0892899F5AB28E9F5CD2809F03F
:101CF00048C0EF2809F053C0672809F05EC0CD2B1B
:101D000009F069C0009358231093592381E0DF91B3
:101D1000CF911F910F91FF90EF90DF90CF90BF90E8
:101D2000AF909F908F907F906F905F904F903F907B
:101D30000895C0E0D0E0E12CF12CC12CD12CA12CD5
:101D4000B12C812C912C612C712C892869F281E0B5
:101D5000809367060E946D29882331F280E1809389
:101D6000E706AB2819F281E0809347060E946D29AF
:101D7000882309F4BBCF80E28093E706CD2809F4DD
:101D8000B8CF82E0809347060E946D29882309F42A
:101D9000B0CF80E48093E706EF2809F4ADCF84E06C
:101DA000809347060E946D29882309F4A5CF80E817
:101DB0008093E706672809F4A2CF88E0809347065E
:101DC0000E946D29882309F49ACF81E08093070748
:101DD000CD2B09F497CF81E0809387060E946D296F
:101DE000882309F48FCF82E0809307078BCF88E0A8
:101DF0008093E70677CF2F923F924F925F926F9238
:101E00007F928F929F92AF92BF92CF92DF92EF928A
:101E1000FF920F931F93CF93DF93FC0100811181F9
:101E2000E091C223E53008F0B6C0F0E0EE0FFF1FEE
:101E3000EF58FD4DC081D181C023D123C0FF2BC1FC
:101E400080E1809365060E946D29882309F445C1CD
:101E500081E08093E506CE01827099274E01F4E07F
:101E60008F2299245E0128E0A222BB246E01E0E1CA
:101E7000CE22DD247E01F0E2EF22FF243E0120E4A9
:101E8000622277242E01E0E84E2255241E012224EE
:101E9000F1E03F22CC27D270892B09F497C088E06B
:101EA000809365060E946D29882309F495C082E01D
:101EB0008093E506892809F492C084E0982E9092D8
:101EC00065060E946D29882309F48EC09092E5066C
:101ED00082E0AB2809F48CC0809365060E946D29CE
:101EE000882309F48AC088E08093E50681E0CD2844
:101EF00009F487C0809365060E946D29882309F440
:101F000085C080E18093E50681E0EF2809F482C076
:101F1000809345060E946D29882309F480C080E2E1
:101F20008093E50682E0672809F47DC0809345062A
:101F30000E946D29882309F47BC080E48093E50624
:101F400084E0452809F478C0809345060E946D29F5
:101F5000882309F476C080E88093E50688E023288A
:101F600009F473C0809345060E946D29882309F403
:101F700071C081E08093050781E0CD2B09F46EC02C
:101F8000809385060E946D29882309F46CC082E045
:101F90008093050768C0C0E0D0E0212C312C412C93
:101FA000512C612C712CE12CF12CC12CD12CA12CA9
:101FB000B12C812C912C80E090E020E120936606EA
:101FC00021E02093E606892B09F069CF88E0809311
:101FD000660682E08093E606892809F06ECF84E0E9
:101FE000809366068093E60682E0AB2809F074CF02
:101FF0008093660688E08093E60681E0CD2809F0AC
:1020000079CF8093660680E18093E60681E0EF2831
:1020100009F07ECF8093460680E28093E60682E058
:10202000672809F083CF8093460680E48093E60614
:1020300084E0452809F088CF8093460680E88093A5
:10204000E60688E0232809F08DCF8093460681E0DC
:102050008093060781E0CD2B09F092CF809386060E
:1020600082E08093060700935A2310935B2381E05C
:10207000DF91CF911F910F91FF90EF90DF90CF9064
:10208000BF90AF909F908F907F906F905F904F9098
:102090003F902F900895CE01827099274E0124E041
:1020A000822299245E01E8E0AE22BB246E01F0E1B9
:1020B000CF22DD247E0120E2E222FF243E01E0E483
:1020C0006E2277242E01F0E84F2255241E0122248F
:1020D00021E03222CC27D27070CFCE0182709927B6
:1020E0004E01E4E08E2299245E01F8E0AF22BB2489
:1020F0006E0120E1C222DD247E01E0E2EE22FF2417
:102100003E01F0E46F2277242E0120E8422255247C
:102110001E012224E1E03E22CC27D27054CF0F933F
:10212000CF93FC01C081C23009F417C160F5CC2304
:1021300009F4E4C0C13009F08CC001E020E240E0C5
:1021400061E080E896E00E94DF2080E098E00E9455
:1021500015210E946D29882381F0C093450680E2F5
:102160008093E50680E48093E50682E0809305078E
:102170008091C223843009F42FC1C093C22381E02F
:10218000CF910F910895C33009F467C0C43009F0AE
:1021900060C000E024E040E061E080E896E00E945A
:1021A000DF2020E240E061E080E896E00E94DF204E
:1021B0000E946D29882371F080E28093E50680E417
:1021C0008093E50680E88093E5068091C223813004
:1021D00009F41FC1109200088CE0809309088091D7
:1021E000CC239091CD2396958795019780932608CF
:1021F000909327088091CE239091CF239695879531
:1022000080932808909329088091D0239091D1231E
:102210009695879580932A0890932B088091D223D6
:102220009091D3239695879580932C0890932D08B1
:1022300083E1809301088091010880628093010806
:102240008091010880648093010885E080930008F4
:1022500094CF80E0CF910F91089500E024E040E01A
:1022600061E080E896E00E94DF2020E240E061E04B
:1022700080E896E00E94DF200E946D29882371F09B
:1022800080E28093E50680E48093E5068091C22396
:10229000813009F4BAC0843009F4B3C01092000848
:1022A0008CE0809309088091CC239091CD23969562
:1022B0008795019780932608909327088091CE23D5
:1022C0009091CF239695879580932808909329081D
:1022D0008091D0239091D1239695879580932A0859
:1022E00090932B0883E1809301088091010880621C
:1022F0008093010885E0809300083FCF00E024E050
:1023000040E061E080E896E00E94DF2020E240E0CB
:1023100061E080E896E00E94DF2080E098E00E9483
:10232000152181E08093460690E29093E60692E0C4
:102330009093460620E42093E60624E02093460688
:1023400020E82093E60628E02093460680930607BF
:10235000809386069093060710CF00E024E040E0CB
:1023600061E080E896E00E94DF2020E240E061E04A
:1023700080E896E00E94DF200E946D29882359F0B2
:1023800080E28093E5068091C2238130A1F1833001
:1023900071F1843029F1109200088CE080930908D3
:1023A0008091CC239091CD2396958795019780932A
:1023B0002608909327088091CE239091CF2396955D
:1023C0008795809328089093290883E180930108DA
:1023D00085E080930008D1CE80E88093E606CDCEDC
:1023E00080E48093E60680E88093E606D4CF80E41C
:1023F0008093E606D0CF80E48093E606C09306077C
:10240000CACF80E88093E60649CF82E08093060732
:1024100045CF82E080930607DDCE80E0089580E01E
:10242000089580E0089580E0089580E0089580E0B8
:10243000089580E0089580E008950895089508952E
:1024400008950895089508950895089508950895A4
:102450000895089508950895089508950895089594
:102460000895089508950895089508950895089584
:102470000895089508950895089508950895089574
:102480000895089508950895089508950895089564
:102490000895089508950895089508950895089554
:1024A0000895089508950895089508950895089544
:1024B000089508950895089508958F929F92AF9278
:1024C000BF92CF92DF92EF92FF920F931F93FC0186
:1024D000C080D180E280F38020E030E048EC52E41C
:1024E000C701B6010E94971F18160CF492C020E095
:1024F00030E040E85FE3C701B6010E944D1E87FD52
:1025000088C0C0926423D0926523E0926623F09243
:102510006723209160233091612340916223509181
:1025200063239EE3E92E93E2F92E00E513E260E0D7
:1025300078E488EE91E00E941A21882309F475C09E
:10254000E0915023E150E73008F081C0F0E0EE0F59
:10255000FF1FED59FD4D6081718180E090E0C090DA
:102560003E23D0903F23E12CF12CA70196010E943D
:102570007F2C0E94E51E9B01AC0160E074E284EFB9
:102580009BE40E94511E60936A2370936B23809397
:102590006C2390936D23C701B6010E94E51E4B0189
:1025A0005C0120E030E048EC52E4609164237091DB
:1025B000652380916623909167230E94511EA50197
:1025C00094010E949B1F20E030E040E05FE30E9406
:1025D000E91D0E94B91E6B017C0180E090E00E9421
:1025E000E51EA50194010E94511E20E030E048EC58
:1025F00052E40E949B1F60936E2370936F2380931D
:10260000702390937123C0924923D0924A2381E092
:1026100001C080E01F910F91FF90EF90DF90CF906D
:10262000BF90AF909F908F90089510926A23109260
:102630006B2310926C2310926D2310926E231092D4
:102640006F23109270231092712381E0E3CF60E03A
:1026500070E0CB0184CF8F929F92AF92BF92CF92C6
:10266000DF92EF92FF920F931F93FC01C080D18005
:10267000E280F38020E030E048EC52E4C701B6018C
:102680000E94971F18160CF492C020E030E040E83A
:102690005FE3C701B6010E944D1E87FD88C0C0924E
:1026A0007923D0927A23E0927B23F0927C232091AD
:1026B00075233091762340917723509178239AE3C4
:1026C000E92E93E2F92E00E413E260E078E488EE6C
:1026D00091E00E941A21882309F475C0E0914023FB
:1026E000E150E73008F081C0F0E0EE0FFF1FED5938
:1026F000FD4D6081718180E090E0C0903A23D090E0
:102700003B23E12CF12CA70196010E947F2C0E9413
:10271000E51E9B01AC0160E074E284EF9BE40E9443
:10272000511E60937F237093802380938123909325
:102730008223C701B6010E94E51E4B015C0120E027
:1027400030E048EC52E46091792370917A238091D3
:102750007B2390917C230E94511EA50194010E942D
:102760009B1F20E030E040E05FE30E94E91D0E94F3
:10277000B91E6B017C0180E090E00E94E51EA5017E
:1027800094010E94511E20E030E048EC52E40E9487
:102790009B1F60938323709384238093852390935E
:1027A0008623C0924D23D0924E2381E001C080E069
:1027B0001F910F91FF90EF90DF90CF90BF90AF905F
:1027C0009F908F90089510927F23109280231092F3
:1027D00081231092822310928323109284231092DB
:1027E00085231092862381E0E3CF60E070E0CB0187
:1027F00084CF8F929F92AF92BF92CF92DF92EF924F
:10280000FF920F931F93FC01C080D180E280F38080
:1028100020E030E048EC52E4C701B6010E94971F67
:1028200018160CF492C020E030E040E85FE3C701E6
:10283000B6010E944D1E87FD88C0C0928E23D092A3
:102840008F23E0929023F092912320918A2330915C
:102850008B2340918C2350918D2396E4E92E93E2B3
:10286000F92E08E413E260E078E488EE91E00E943B
:102870001A21882309F475C0E0914823E150E7301C
:1028800008F081C0F0E0EE0FFF1FED59FD4D6081B3
:10289000718180E090E0C0904623D0904723E12CE6
:1028A000F12CA70196010E947F2C0E94E51E9B013E
:1028B000AC0160E074E284EF9BE40E94511E6093DF
:1028C0009423709395238093962390939723C70125
:1028D000B6010E94E51E4B015C0120E030E048ECAF
:1028E00052E460918E2370918F2380919023909178
:1028F00091230E94511EA50194010E949B1F20E07C
:1029000030E040E05FE30E94E91D0E94B91E6B01C8
:102910007C0180E090E00E94E51EA50194010E94E8
:10292000511E20E030E048EC52E40E949B1F60936F
:1029300098237093992380939A2390939B23C0921A
:102940004423D092452381E001C080E01F910F9184
:10295000FF90EF90DF90CF90BF90AF909F908F90BF
:10296000089510929423109295231092962310921A
:102970009723109298231092992310929A231092E1
:102980009B2381E0E3CF60E070E0CB0184CF8F92A6
:102990009F92AF92BF92CF92DF92EF92FF920F93EE
:1029A0001F93FC0180809180A280B38020E030E002
:1029B0004AE754E4C501B4010E94971F181654F069
:1029C00020E030E040E05FE3C501B4010E944D1E0D
:1029D00087FF0CC080E01F910F91FF90EF90DF9078
:1029E000CF90BF90AF909F908F90089580928A2350
:1029F00090928B23A0928C23B0928D2396E4E92EA3
:102A000093E2F92E08E413E2A501940160E078E472
:102A100088EE91E00E941A21882309F469C0E091B0
:102A20004823E150E73008F075C0F0E0EE0FFF1FDB
:102A3000ED59FD4D6081718180E090E080904623EA
:102A400090904723A12CB12CA50194010E947F2CCA
:102A50000E94E51E9B01AC0160E074E284EF9BE400
:102A60000E94511E60939423709395238093962324
:102A700090939723C501B4010E94E51E6B017C0170
:102A800020E030E048EC52E460918E2370918F2377
:102A900080919023909191230E94511EA70196014D
:102AA0000E949B1F20E030E040E05FE30E94E91DB0
:102AB0000E94B91E4B015C0180E090E00E94E51E7F
:102AC000A70196010E94511E20E030E048EC52E43C
:102AD0000E949B1F609398237093992380939A235D
:102AE00090939B23809244239092452381E073CF5F
:102AF000109294231092952310929623109297236C
:102B0000109298231092992310929A2310929B234B
:102B100081E061CF60E070E0CB0190CF8F929F9217
:102B2000AF92BF92CF92DF92EF92FF920F931F93DB
:102B3000FC0180809180A280B38020E030E04AE7F1
:102B400054E4C501B4010E94971F181654F020E008
:102B500030E040E05FE3C501B4010E944D1E87FFF5
:102B60000CC080E01F910F91FF90EF90DF90CF900D
:102B7000BF90AF909F908F90089580926023909225
:102B80006123A0926223B09263239EE3E92E93E235
:102B9000F92E00E513E2A501940160E078E488EEE7
:102BA00091E00E941A21882309F468C0E091502323
:102BB000E150E73008F074C0F0E0EE0FFF1FED5970
:102BC000FD4D6081718180E090E080903E23909087
:102BD0003F23A12CB12CA50194010E947F2C0E94BF
:102BE000E51E9B01AC0160E074E284EF9BE40E946F
:102BF000511E60936A2370936B2380936C23909390
:102C00006D23C501B4010E94E51E6B017C0120E02B
:102C100030E048EC52E46091642370916523809128
:102C20006623909167230E94511EA70196010E947E
:102C30009B1F20E030E040E05FE3CBD70E94B91E4D
:102C40004B015C0180E090E00E94E51EA701960127
:102C50000E94511E20E030E048EC52E40E949B1F8D
:102C600060936E2370936F238093702390937123EE
:102C70008092492390924A2381E074CF10926A2374
:102C800010926B2310926C2310926D2310926E237E
:102C900010926F23109270231092712381E062CF03
:102CA00060E070E0CB0191CF8F929F92AF92BF9284
:102CB000CF92DF92EF92FF920F931F93FC018080DF
:102CC0009180A280B38020E030E04AE754E4C5015F
:102CD000B4010E94971F18164CF020E030E040E04D
:102CE0005FE3C501B401D9D787FF0CC080E01F9115
:102CF0000F91FF90EF90DF90CF90BF90AF909F909B
:102D00008F9008958092752390927623A0927723D6
:102D1000B09278239AE3E92E93E2F92E00E413E2CD
:102D2000A501940160E078E488EE91E00E941A2108
:102D3000882309F463C0E0914023E150E73008F0B4
:102D40006FC0F0E0EE0FFF1FED59FD4D6081718106
:102D500080E090E080903A2390903B23A12CB12C0E
:102D6000A50194010E947F2C0E94E51E9B01AC01ED
:102D700060E074E284EF9BE494D760937F237093C8
:102D800080238093812390938223C501B4010E9404
:102D9000E51E6B017C0120E030E048EC52E46091DC
:102DA000792370917A2380917B2390917C2379D72A
:102DB000A70196010E949B1F20E030E040E05FE306
:102DC00008D7D7D74B015C0180E090E0FED7A70180
:102DD000960167D720E030E048EC52E40E949B1F48
:102DE0006093832370938423809385239093862319
:102DF00080924D2390924E2381E079CF10927F23D1
:102E000010928023109281231092822310928323A8
:102E100010928423109285231092862381E067CF3D
:102E200060E070E0CB0196CF8F929F92AF92BF92FD
:102E3000CF92DF92EF92FF920F931F932091602326
:102E40003091612340916223509163239EE3E92EE8
:102E500093E2F92E00E513E260E078E488EE91E079
:102E60000E941A21882309F460C0E0915023E150A8
:102E7000E73008F075C0F0E0EE0FFF1FED59FD4D93
:102E80006081718180E090E0C0903E23D0903F232C
:102E9000E12CF12CA70196010E947F2C96D79B0173
:102EA000AC0160E074E284EF9BE4FBD660936A239C
:102EB00070936B2380936C2390936D23C701B601AD
:102EC00084D74B015C0120E030E048EC52E4609193
:102ED0006423709165238091662390916723E1D6E6
:102EE000A50194010E949B1F20E030E040E05FE3D9
:102EF00070D63FD76B017C0180E090E066D7A501DA
:102F00009401CFD620E030E048EC52E40E949B1FB1
:102F100060936E2370936F2380937023909371233B
:102F2000C0924923D0924A2310C010926A23109273
:102F30006B2310926C2310926D2310926E231092CB
:102F40006F2310927023109271231F910F91FF90A5
:102F5000EF90DF90CF90BF90AF909F908F900895AB
:102F600060E070E0CB0190CF8F929F92AF92BF92C2
:102F7000CF92DF92EF92FF920F931F9320917523D0
:102F80003091762340917723509178239AE3E92E6C
:102F900093E2F92E00E413E260E078E488EE91E039
:102FA0000E941A21882309F45EC0E0914023E15079
:102FB000E73008F073C0F0E0EE0FFF1FED59FD4D54
:102FC0006081718180E090E0C0903A23D0903B23F3
:102FD000E12CF12CA70196010E947F2CF6D69B01D3
:102FE000AC0160E074E284EF9BE45BD660937F23E6
:102FF000709380238093812390938223C701B6012D
:10300000E4D64B015C0120E030E048EC52E46091F2
:10301000792370917A2380917B2390917C2341D6F0
:10302000A501940188D720E030E040E05FE3D1D5EE
:10303000A0D66B017C0180E090E0C7D6A501940189
:1030400030D620E030E048EC52E475D7609383231B
:10305000709384238093852390938623C0924D237D
:10306000D0924E2310C010927F2310928023109292
:103070008123109282231092832310928423109232
:103080008523109286231F910F91FF90EF90DF9080
:10309000CF90BF90AF909F908F90089560E070E0C8
:1030A000CB0192CF8F929F92AF92BF92CF92DF923D
:1030B000EF92FF920F931F9320918A2330918B23DD
:1030C00040918C2350918D2396E4E92E93E2F92EC2
:1030D00008E413E260E078E488EE91E00E941A21AF
:1030E000882309F45EC0E0914823E150E73008F0FE
:1030F00073C0F0E0EE0FFF1FED59FD4D608171814F
:1031000080E090E0C0904623D0904723E12CF12C42
:10311000A70196010E947F2C58D69B01AC0160E06C
:1031200074E284EF9BE4BDD5609394237093952360
:103130008093962390939723C701B60146D64B01FF
:103140005C0120E030E048EC52E460918E23709105
:103150008F238091902390919123A3D5A501940171
:10316000EAD620E030E040E05FE333D502D66B01E1
:103170007C0180E090E029D6A501940192D520E061
:1031800030E048EC52E4D7D66093982370939923AB
:1031900080939A2390939B23C0924423D0924523FB
:1031A00010C010929423109295231092962310929F
:1031B0009723109298231092992310929A23109299
:1031C0009B231F910F91FF90EF90DF90CF90BF90C6
:1031D000AF909F908F90089560E070E0CB0192CF08
:1031E0000F9320E040E062E080E896E0BBD720E06B
:1031F00040E065E080E896E0B5D720E048E163E094
:1032000080E896E0AFD720E040E160E080E096E023
:10321000A9D720E040E161E080E096E0A3D720E07C
:1032200040E162E080E096E09DD720E040E163E08D
:1032300080E096E097D720E040E164E080E096E00F
:1032400091D720E040E165E080E096E08BD720E078
:1032500040E167E080E096E085D720E040E160E073
:1032600080E296E07FD720E040E161E080E296E0F6
:1032700079D720E040E162E080E296E073D720E079
:1032800040E163E080E296E06DD720E040E164E059
:1032900080E296E067D720E040E167E080E296E0D8
:1032A00061D720E040E164E080E496E05BD720E075
:1032B00040E165E080E496E055D720E040E165E03C
:1032C00080E696E04FD720E040E161E080E896E0BC
:1032D00049D720E040E166E080E896E043D720E06F
:1032E00040E167E080E896E03DD720E040E160E023
:1032F00080EA96E037D720E040E161E080EA96E09E
:1033000031D720E040E164E080EA96E02BD720E06E
:1033100040E165E080EA96E025D720E040E166E004
:1033200080EA96E01FD720E040E167E080EA96E07F
:1033300019D720E040E163E080E097E013D720E078
:1033400040E164E080E097E00DD720E040E165E0F7
:1033500080E097E007D720E040E167E080E097E079
:1033600001D720E040E163E080E297E0FBD620E077
:1033700040E164E080E297E0F5D620E040E165E0DE
:1033800080E297E0EFD620E040E166E080E297E05F
:10339000E9D620E040E167E080E297E0E3D620E074
:1033A00040E160E080EC97E0DDD620E040E161E0C4
:1033B00080EC97E0D7D620E040E162E080EC97E037
:1033C000D1D620E040E163E080EC97E0CBD600E08E
:1033D00024E040E061E080E896E0F1D620E240E0C1
:1033E00061E080E896E0EBD621E040E060E080EE2E
:1033F00096E0CDD621E040E061E080EE96E0C7D6D1
:1034000021E040E062E080EE96E0C1D621E040E0BD
:1034100063E080EE96E0BBD621E040E064E080EE21
:1034200096E0B5D621E040E065E080EE96E0AFD6CC
:1034300021E040E066E080EE96E0A9D621E040E0A1
:1034400067E080EE96E0A3D621E040E060E080E017
:1034500097E09DD621E040E061E080E097E097D6DC
:1034600021E040E062E080E097E091D621E040E09A
:1034700066E080E096E08BD621E040E065E080E207
:1034800096E085D621E040E066E080E296E07FD6D7
:1034900021E040E067E080E696E079D621E040E078
:1034A00066E080E696E073D621E040E064E080E6E6
:1034B00096E06DD621E040E063E080E696E067D6D6
:1034C00021E040E062E080E696E061D621E040E065
:1034D00061E080E696E05BD621E040E060E080E6D7
:1034E00096E055D621E040E060E080E496E04FD6DB
:1034F00021E040E061E080E496E049D621E040E050
:1035000062E080E496E043D621E040E063E080E4BE
:1035100096E03DD621E040E060E080E896E037D6D6
:10352000E0EEF6E081E0868322E0268394E0968355
:1035300048E0468350E1568370E2768330E4368378
:1035400060E86683E0E0F7E0868326839683309325
:103550000606E0E2F6E076833683E0E6F6E0668390
:10356000368356834683968326838683E0E4F6E09B
:103570008683268396834683809386060F910895DB
:10358000C0918806C2FB882780F99091880695FF34
:1035900002C0C2E001C0C0E0C82B1092512380914C
:1035A000CD228C2780FFA1C181FDA3C180E18C2B9E
:1035B0008093512390917323292F2F7009F43FC0DA
:1035C00084FF3DC080FF1EC0933021F0943071F025
:1035D0009130A9F581E080939F238FE993E20E94C7
:1035E000430A909173238091512329C081E08093F5
:1035F000A02380EA93E20E94AB0B90917323809109
:1036000051231DC0933081F0943011F09230B9F401
:1036100081E080939F238FE993E20E94430A909177
:103620007323809151230BC081E08093A02380EA13
:1036300093E20E94AB0B9091732380915123292F29
:10364000207FB9F185FF35C081FF1AC0903321F08A
:10365000903461F0903169F581E080939F238FE988
:1036600093E20E94430A8091512323C081E080931A
:10367000A02380EA93E20E94AB0B8091512319C0F2
:10368000903371F0903411F0903299F481E080938E
:103690009F238FE993E20E94430A8091512309C03E
:1036A00081E08093A02380EA93E20E94AB0B80919B
:1036B000512390918823292F2F7009F43FC084FF54
:1036C0003DC080FF1EC0933021F0943071F09130E6
:1036D000A9F582E080939F238FE993E20E94430A39
:1036E000909188238091512329C082E08093A02368
:1036F00080EA93E20E94AB0B909188238091512342
:103700001DC0933081F0943011F09230B9F482E012
:1037100080939F238FE993E20E94430A909188232C
:10372000809151230BC082E08093A02380EA93E232
:103730000E94AB0B9091882380915123292F207FE9
:10374000B9F185FF35C081FF1AC0903321F0903464
:1037500061F0903169F582E080939F238FE993E2D5
:103760000E94430A8091512323C082E08093A023CA
:1037700080EA93E20E94AB0B8091512319C09033F1
:1037800071F0903411F0903299F482E080939F238D
:103790008FE993E20E94430A8091512309C082E09D
:1037A0008093A02380EA93E20E94AB0B8091512387
:1037B00090919D23292F2F70F1F184FF3CC080FF51
:1037C0001DC0933021F0943071F09130A1F584E068
:1037D00080939F238FE993E20E94430A90919D2357
:1037E0008091512328C09093A02380EA93E20E9405
:1037F000AB0B90919D23809151231DC0933081F09C
:10380000943011F09230B9F484E080939F238FE9D3
:1038100093E20E94430A90919D23809151230BC013
:1038200084E08093A02380EA93E20E94AB0B909106
:103830009D2380915123292F207FB9F185FF35C029
:1038400081FF1AC0903321F0903461F0903169F516
:1038500084E080939F238FE993E20E94430A809142
:10386000512323C084E08093A02380EA93E20E9446
:10387000AB0B8091512319C0903371F0903411F04B
:10388000903299F484E080939F238FE993E20E9421
:10389000430A8091512309C084E08093A02380EAE9
:1038A00093E20E94AB0B80915123282F22952F7019
:1038B0009091522393709823922379F4837090E02F
:1038C00080959095237030E0822393232091532399
:1038D00030E082239323009721F061E080E20E9490
:1038E0006526C093CD22189506C081FFFACF80E2ED
:1038F0005ECE80E35CCE80917423813031F480937E
:10390000A12361E084E40E9465260E946D2988233A
:1039100089F08091CB2280FF03C092E09093E5066E
:1039200081FF03C094E09093E50682FF03C088E026
:103930008093E50618950E946D29882389F080916F
:10394000CB2280FF03C092E09093E60681FF03C084
:1039500094E09093E60682FF03C088E08093E60639
:10396000809143238823D9F08091CB229091CC225F
:1039700080FF03C028E02093660681FF03C024E097
:103980002093660682FF03C022E020936606887FAC
:103990008093CB229093CC2280E099E046D4809112
:1039A0007223813031F58091412390914223019718
:1039B00080934123909342230097D9F48091CB22A6
:1039C0009091CC2280FF03C028E02093660681FFFF
:1039D00003C024E02093660682FF03C022E0209308
:1039E0006606887F8093CB229093CC2280E099E07A
:1039F0001CD4189580918923813039F482E080931A
:103A0000A12361E084E40E9465260E946D29882339
:103A100089F08091CB2283FF03C090E49093E50668
:103A200084FF03C090E89093E50685FF03C081E022
:103A30008093050718950E946D29882389F080914D
:103A4000CB2283FF03C090E49093E60684FF03C07B
:103A500090E89093E60685FF03C081E08093060717
:103A600080914F238823D9F08091CB229091CC2252
:103A700083FF03C022E02093460684FF03C024E0B6
:103A80002093460685FF03C028E020934606877CE6
:103A90008093CB229093CC2280E098E0C6D3809193
:103AA0008723813031F580913C2390913D2301970C
:103AB00080933C2390933D230097D9F48091CB22AF
:103AC0009091CC2283FF03C022E02093460684FF1E
:103AD00003C024E02093460685FF03C028E020931E
:103AE0004606877C8093CB229093CC2280E098E09E
:103AF0009CD3189580919E23813039F484E0809383
:103B0000A12361E084E40E9465260E946D29882338
:103B100039F08091CB2286FF03C082E080930507B5
:103B200018950E946D29882371F08091CB22909185
:103B3000CC2286FF3FC022E0209306072091392344
:103B400021110BC015C080913923882389F0809101
:103B5000CB229091CC2286FF03C021E020938606E1
:103B60008F7B8093CB229093CC2280E09AE05DD330
:103B700080919C238130E1F420914B2330914C23A0
:103B80002150310920934B2330934C2321153105CB
:103B900079F42091CB223091CC2226FD80938606A9
:103BA0002F7B2093CB223093CC2280E09AE03DD330
:103BB000189505C0209139232111D2CFD9CF0E9469
:103BC00080048091A20087688093A2007894FFCF40
:103BD0005058BB27AA270ED070C161D130F066D1F2
:103BE00020F031F49F3F11F41EF456C10EF4E0951D
:103BF000E7FB4CC1E92F72D180F3BA176207730754
:103C00008407950718F071F49EF58AC10EF4E095CB
:103C10000B2EBA2FA02D0B01B90190010C01CA0186
:103C2000A0011124FF27591B99F0593F50F4503E31
:103C300068F11A16F040A22F232F342F4427585F23
:103C4000F3CF469537952795A795F0405395C9F73B
:103C50007EF41F16BA0B620B730B840BBAF09150F3
:103C6000A1F0FF0FBB1F661F771F881FC2F70EC092
:103C7000BA0F621F731F841F48F487957795679565
:103C8000B795F7959E3F08F0B3CF9395880F08F04E
:103C90009927EE0F979587950895D4D008F481E081
:103CA00008950CD00AC102D140F0F9D030F021F4CF
:103CB0005F3F19F0EBC0511134C1EEC00FD198F342
:103CC0009923C9F35523B1F3951B550BBB27AA279D
:103CD00062177307840738F09F5F5F4F220F331F0F
:103CE000441FAA1FA9F333D00E2E3AF0E0E830D0DB
:103CF00091505040E695001CCAF729D0FE2F27D0DE
:103D0000660F771F881FBB1F261737074807AB07AB
:103D1000B0E809F0BB0B802DBF01FF2793585F4F20
:103D20002AF09E3F510568F0B1C0FBC05F3FECF345
:103D3000983EDCF3869577956795B795F7959F5FE5
:103D4000C9F7880F911D9695879597F90895E1E039
:103D5000660F771F881FBB1F621773078407BA0798
:103D600020F0621B730B840BBA0BEE1F88F7E095F3
:103D70000895BCD088F09F5790F0B92F9927B7517C
:103D8000A0F0D1F0660F771F881F991F1AF0BA951F
:103D9000C9F712C0B13081F0C3D0B1E00895C0C0FE
:103DA000672F782F8827B85F39F0B93FCCF3869515
:103DB00077956795B395D9F73EF490958095709572
:103DC00061957F4F8F4F9F4F0895E89409C097FBEF
:103DD0003EF490958095709561957F4F8F4F9F4FE2
:103DE0009923A9F0F92F96E9BB279395F695879526
:103DF00077956795B795F111F8CFFAF4BB0F11F4E9
:103E000060FF1BC06F5F7F4F8F4F9F4F16C088238F
:103E100011F096E911C0772321F09EE8872F762FC5
:103E200005C0662371F096E8862F70E060E02AF006
:103E30009A95660F771F881FDAF7880F96958795F2
:103E400097F90895990F0008550FAA0BE0E8FEEFC7
:103E500016161706E807F907C0F012161306E4074E
:103E6000F50798F0621B730B840B950B39F40A2647
:103E700061F0232B242B252B21F408950A2609F425
:103E8000A140A6958FEF811D811D089597F99F6729
:103E900080E870E060E008959FEF80EC08950024D2
:103EA0000A941616170618060906089500240A949F
:103EB00012161306140605060895092E0394000C25
:103EC00011F4882352F0BB0F40F4BF2B11F460FFB4
:103ED00004C06F5F7F4F8F4F9F4F089557FD9058DD
:103EE000440F551F59F05F3F71F04795880F97FBBE
:103EF000991F61F09F3F79F0879508951216130678
:103F00001406551FF2CF4695F1DF08C016161706A6
:103F10001806991FF1CF86957105610508940895DB
:103F2000E894BB2766277727CB0197F908958ADFA6
:103F300008F48FEF08950BD0C0CFB1DF28F0B6DFC3
:103F400018F0952309F0A2CFA7CF1124EACFC6DF3E
:103F5000A0F3959FD1F3950F50E0551F629FF0019C
:103F6000729FBB27F00DB11D639FAA27F00DB11DF5
:103F7000AA1F649F6627B00DA11D661F829F22277E
:103F8000B00DA11D621F739FB00DA11D621F839F05
:103F9000A00D611D221F749F3327A00D611D231FDB
:103FA000849F600D211D822F762F6A2F11249F5729
:103FB00050408AF0E1F088234AF0EE0FFF1FBB1F4C
:103FC000661F771F881F91505040A9F79E3F5105EB
:103FD00070F05CCFA6CF5F3FECF3983EDCF38695A4
:103FE00077956795B795F795E7959F5FC1F7FE2B96
:103FF000880F911D9695879597F90895222309F4C6
:104000005BC030E23093520038E030935000309182
:10401000510033FFFCCF611538E4730738EE830796
:1040200031E0930709F482C0611534E2730734EF7D
:104030008307910509F47CC0611532E173073AE703
:104040008307910509F44BC0611539E073073DE31F
:104050008307910509F46EC0603834E873073EE1C8
:104060008307910509F460C0603432E473073FE0D0
:104070008307910509F462C0603231EA730737E0C3
:104080008307910509F458C0603930ED730733E0B8
:104090008307910509F454C0683438EE730731E0A2
:1040A0008307910509F44EC06432744F8105910570
:1040B00009F04AC084E414C032E2309352003AE07E
:1040C000309350003091510031FFFCCF30915100BE
:1040D00033FDA1CF3091510033FFF8CF9CCF8CE05E
:1040E00098ED94BF222399F023E02093400094BFE1
:1040F00080934100442329F088ED84BF81E08093C0
:10410000420088ED84BF81E080938000089521E023
:104110002093400094BF8093410094BF82E080933D
:10412000560020936000E6CF8CE1DACF80E0D8CF54
:1041300084E0D6CF84E1D4CF8CE2D2CF84E2D0CF5A
:1041400084E3CECF8CE3CCCF80E0089588ED84BFAC
:1041500081E080938000089588ED84BF83E08093A0
:104160008000FFCFFC01308181E090E0062E01C08D
:10417000880F0A94EAF78095832380837096E60F70
:10418000F11D8081422B807C482B40830895FC01E7
:10419000308181E090E0062E01C0880F0A94EAF792
:1041A000382B30837096E60FF11D8081807C842B44
:1041B0008083211103C080818760808308950F93DD
:1041C000FC013185842F90E0880F991FA3E0B0E0B7
:1041D000082E01C0AA0F0A94EAF7A095A323082E7F
:1041E00001C0660F0A94EAF7A62BA18741110FC000
:1041F0000023A9F02287248581E090E0042E01C0ED
:10420000880F0A94EAF7282B24870F9108954130EC
:1042100091F7011108C08385822B8387ECCF8285BB
:10422000822B8287E8CF2387E6CFFC0110822CE027
:10423000218708954F925F926F927F928F929F9203
:10424000AF92BF92EF92FF920F931F932B013C010D
:1042500049015A0120E030E0A901C501B4011DDD8A
:10426000882309F43EC0C301B201AFDDA50194016A
:1042700018DD20E030E040E05FE3ABDC7ADD611583
:10428000710521E082079105A0F421E0F801208367
:10429000F7016083718381E01F910F91FF90EF9090
:1042A000BF90AF909F908F907F906F905F904F9056
:1042B0000895969587957795679561157105F1E055
:1042C0008F07910580F0969587957795679561158D
:1042D0007105F1E08F07910550F423E0F801208388
:1042E000D7CF80E0D9CF22E0F8012083D1CF9695B7
:1042F00087957795679561157105F1E08F079105B1
:1043000088F0A3E09695879577956795AA95D1F75C
:1043100061157105F1E08F07910540F425E0F80182
:104320002083B6CF24E0F8012083B2CF96958795FD
:10433000779567959695879577956795611571053A
:10434000F1E08F07910520F426E0F8012083A0CF4B
:1043500096958795779567959695879577956795BF
:1043600061157105F1E08F07910508F0BACF27E0DC
:10437000F80120838DCFFC0110828CE081874150B1
:10438000510946A357A32683608308952091CF0146
:1043900027FDFCCF8093C0019093C1011092C20110
:1043A00086E08093CA0188ED84BF81E08093CB01D1
:1043B0008091C40108952091CF0127FDFCCF209169
:1043C000CF0121FF08C026E32093CA0128ED24BFB6
:1043D00021E02093CB0123E32093CA018093C00105
:1043E0009093C1011092C2016093C40185E3809350
:1043F000CA0188ED84BF81E08093CB010895FF92CC
:104400000F931F93CF93DF938C01C7E0D0E0F12C83
:1044100008C0F1100BC0CE01CEDF2196C032D1050D
:1044200071F0F80161918F016111F3CF60E0CE016D
:10443000C2DFFF24F3942196C032D10591F7DF91BA
:10444000CF911F910F91FF900895CF93962F8032B7
:1044500008F47FC0282F30E020523109F901E05FD5
:10446000FD4D5081220F331FF901E457FE4DC081ED
:10447000F901E85FFE4D208131812093D4223093F1
:10448000D5229093D423252F2F702C9FC02D11243B
:10449000EAE0EC0FE093D5238093D6232FEF20930F
:1044A000D72350615093D82341116BC08091D02203
:1044B0009091D122A091D222B091D3228093D9237E
:1044C0009093DA23A093DB23B093DC232091CE22B8
:1044D0003091CF222093DD233093DE238E2F90E086
:1044E0008E3F9105A4F52091D4223091D52240E051
:1044F000842F90E0F901E80FF91F5081FC01E1528F
:10450000FC4D50834F5F4C13F3CF2091D5232E5F8A
:1045100030E021503109121613060CF09EC080E0E5
:1045200090E040E050E0FC01EC52FC4D8081580FDF
:104530004F5F842F90E082179307ACF3F901EC52A0
:10454000FC4D508380915222813009F46BC0CF9191
:1045500008958E30E0F7282F30E0F901E554FD4D45
:104560005081220F331FF901E156FD4DC081F90141
:10457000ED57FD4D208131812093D4223093D522F7
:1045800080CF20914C084091E8225091E92260911F
:10459000EA227091EB2220FF21C04F5F5F4F6F4FE7
:1045A0007F4F4093D9235093DA236093DB2370939A
:1045B000DC2320916008309161082093DD23309343
:1045C000DE23883009F08ACF933009F087CF10922C
:1045D000DD231092DE23E091D52380CF4093D923B1
:1045E0005093DA236093DB237093DC2320916008DF
:1045F000309161082093DD233093DE23F091D9229E
:10460000F03DF9F62F303105E0F64F5F5F4F6F4F09
:104610007F4F4093D9235093DA236093DB23709329
:10462000DC23CFCF83E88093A200C091A30B9091AD
:10463000A30B9C7F9093A30B6091D5236E5F84EDB9
:1046400093E266D79091A30B8C2F8370892B809374
:10465000A30B87E88093A2007ACF50E06FCFCF936F
:10466000E091D73C2E2F30E024303105BCF090E0B3
:1046700020E030E0F901E552F34C4081F901EF51BF
:10468000F34C40839F5F292F30E0E091D73C4E2FC1
:1046900050E0435051092417350764F38093D63C0A
:1046A000EA5FE093D73C8091DA3C80618093DA3C0A
:1046B00080914C0880FF40C08091E8229091E922CF
:1046C000A091EA22B091EB220196A11DB11D809329
:1046D000DB3C9093DC3CA093DD3CB093DE3C8091CE
:1046E0006008909161088093DF3C9093E03CF0E09B
:1046F000E952F34C10826091D73C40E0262F30E025
:1047000080E090E0F901E952F34CDC01AA52B34C8D
:1047100020818C91280F20834F5F6091D73C262FFA
:1047200030E0842F90E02817390764F780915222F7
:10473000813079F1CF9108958091E8229091E9221A
:10474000A091EA22B091EB228093DB3C9093DC3C79
:10475000A093DD3CB093DE3C20916008309161086D
:104760002093DF3C3093E03C4091D922403D09F05A
:10477000BECF2F30310508F0BACF0196A11DB11D73
:104780008093DB3C9093DC3CA093DD3CB093DE3C1B
:10479000AECF83E88093A200C091A30B9091A30BAE
:1047A0009C7F9093A30B6E5F86ED9CE3B1D69091B6
:1047B000A30B8C2F8370892B8093A30B87E88093A6
:1047C000A200CF9108953F924F925F926F927F9295
:1047D0008F929F92AF92BF92CF92DF92EF92FF9211
:1047E0000F931F93CF93DF93CDB7DEB73C01962E87
:1047F000142FF22E4D885E88A9DC21E041E060E0B4
:1048000078E488EE91E0FADB81E0809348006092E2
:10481000DF227092E0229092E1221093E222E09255
:10482000E3228093E42287E08093E522F092E6225F
:104830000093E7221092E8221092E9221092EA22D5
:104840001092EB221092EC221092ED2282E090E086
:104850009DDD382E83E090E099DD982E8FEF98163D
:1048600009F4CAC0F31409F49CC06FED80E090E035
:10487000A2DD6F2D82E090E09EDD61E083E090E0BC
:104880009ADD0E94CD0480E090E080DD8E3E09F448
:1048900093C080E68093EE2280E48093EF220E9412
:1048A000E2050E944306A092DD22B092DE22C09271
:1048B000DB22D092DC228092DA2287E090E066DD73
:1048C0008F3F09F4D0C000EF12E2F6EFEF2EFF2485
:1048D000FA94C7018F5D92427C01C701800F911F3E
:1048E00055DDF80181938F01F3E209301F07A9F725
:1048F00089E1E0EFF2E2ACE0B3E201900D928A953B
:10490000E1F784E090E042DD082F10E000930923F6
:1049100010930A2385E090E039DD302F2227282BE1
:104920002093092330930A2321E042E15AE767E00C
:1049300080E498E020DDE091D92281E08E0F809321
:10494000D922F0E0E558FD4D808190E001978093F9
:1049500068089093690881E08093470820E040E070
:1049600066E080E096E013DC80E48093050640E09A
:1049700060E081E090E0B7D415D588EE92E2DF9157
:10498000CF911F910F91FF90EF90DF90CF90BF904C
:10499000AF909F908F907F906F905F904F903F90DF
:1049A000E5C691E0991261CF0E94CD0480E090E0CD
:1049B000EDDC8E3E09F06DCF81E090E0E7DC809386
:1049C000EE22A114B10491F0760185010C0D1D1D9C
:1049D000A0E26A2E712CC301D9DCF70181937F011B
:1049E000FFEF6F1A7F0AE016F106A9F780E88093BF
:1049F000EF220E94430657CF6F2D82E090E0DBDC70
:104A000061E083E090E0D7DC82E090E0BFDC382E0C
:104A100083E090E0BBDC982E8201B7E06B2E712C16
:104A2000E12C0BC0E1100EC0C301C5DCFFEF6F1A13
:104A30007F0A80E26816710489F0F80161918F01A4
:104A40006111F0CF60E0C301B6DCEE24E394FFEF28
:104A50006F1A7F0A80E26816710479F76FED80E0C3
:104A600090E0A9DCFFCE720107E010E0D12C0AC073
:104A7000D1100DC0C8019FDC0F5F1F4F0032110520
:104A800009F421CFF70161917F016111F1CF60E05D
:104A9000C80191DCDD24D394EFCF0E94A70420E469
:104AA00080E092EEA4E0B0E00197A109B10900977F
:104AB000A105B105C9F720930706F2CF8091E8223E
:104AC0009091E922A091EA22B091EB220196A11DDA
:104AD000B11D8093E8229093E922A093EA22B0933B
:104AE000EB22809130238F5F809330238EE090E023
:104AF000809368089093690881E08093D9220E948E
:104B00000D0880914C08806180934C080E940F082A
:104B10000E9416084091EE2247FD03C0842F837047
:104B2000B1C0842F8370813009F0ACC088EE92E26E
:104B30008093D4229093D52283E08093D4238EE077
:104B40008093D52388E08093D6238FEF8093D7235B
:104B500084E18093D82380914C0880FF18C0809115
:104B6000E8229091E922A091EA22B091EB220196ED
:104B7000A11DB11D8093D9239093DA23A093DB2349
:104B8000B093DC23809160089091610826C08091E9
:104B9000E8229091E922A091EA22B091EB22809341
:104BA000D9239093DA23A093DB23B093DC232091C5
:104BB0006008309161085091D922503D71F42F3036
:104BC000310558F40196A11DB11D8093D92390930E
:104BD000DA23A093DB23B093DC231092DD23109221
:104BE000DE238091E8229091E922A091EA22B091FF
:104BF000EB228093DF239093E023A093E123B093F3
:104C0000E2232091D5232E5F30E021503109121686
:104C1000130684F450E060E080E090E0FC01EC5288
:104C2000FC4D8081680F5F5F852F90E082179307AE
:104C3000ACF301C060E0F901EC52FC4D608380915F
:104C40005222813021F583E88093A200C091A30B0A
:104C50009091A30B9C7F9093A30B6091D5236E5FE3
:104C600084ED93E255D49091A30B8C2F8370892B04
:104C70008093A30B87E88093A2004091EE22842FBB
:104C8000837000C0882339F0813019F400C092E0AD
:104C900003C091E001C094E08091E822892321F0D3
:104CA00080E48093060605C046FF03C080E480933D
:104CB00005060E940E0880914C0884FF05C0809173
:104CC000D822811101C0E9DE18959091EE229370EF
:104CD000913009F00895462F63E0B7CBCF92DF9271
:104CE000FF920F931F93CF93DF931F921F92CDB725
:104CF000DEB78E3040F4E82FF0E0DF01A554BD4D63
:104D00009C91961759F080E00F900F90DF91CF9112
:104D10001F910F91FF90DF90CF900895EE0FFF1F2E
:104D2000E156FD4D608171816217730761F788302C
:104D300009F47FC08A30D1F18B3011F18C3009F445
:104D4000A1C08D3001F7FA0180819181019609F4AB
:104D5000BFC080910B238823B1F2FA01608185E006
:104D600090E049835A8327DB49815A81FA016181A6
:104D700084E090E020DB83E08093D82281E0C4CF00
:104D8000FA018081813009F4B7C0823009F4A4C0EF
:104D9000843009F4C2C0883089F76FEF87E090E073
:104DA0000ADB83E08093D82281E0AECFFA018081D4
:104DB00086FD04C080E48093060680811091EE2277
:104DC000837F8093EE22FA01808185FF41C015FF29
:104DD00076C083FF10C081E08093282310922623A1
:104DE00080932723109225238091EE22877F809342
:104DF000EE22FA018081837079F4812F837009F4A7
:104E0000BDCF1092282349835A830E94A30749816A
:104E10005A81FA0180818370813029F1833009F051
:104E2000ADCF1370133009F4A9CF0E940C0881E0B4
:104E30006BCFFA0180819181A281B3818093E822B6
:104E40009093E922A093EA22B093EB2281E05CCF19
:104E500015FFBFCF49835A830E948B0749815A812E
:104E6000FA018081B6CF812F8370813009F486CF1B
:104E700049835A830E940B0849815A81FA01808133
:104E80008370CCCF8A0187E0C82ED12CF12C0CC0C6
:104E9000F1100FC0C6018FDAFFEFCF1ADF0A20E250
:104EA000C216D10409F467CFF80161918F01611135
:104EB000EFCF60E0C6017FDAFF24F394EDCF4983A2
:104EC0005A830E94600649815A81FA01808181CF0C
:104ED00081E080930B2318CF80E090E049835A83D0
:104EE00055DA49815A818E3E09F00DCF83E08093D7
:104EF000D822FA0180814CCF8CE093E249835A8317
:104F00007EDA6FED80E090E056DA83E08093D8227D
:104F100049815A81FA01808138CF6EEE80E090E0BD
:104F200049835A8348DA6091EE2281E090E043DAC7
:104F30008091DD229091DE2249815A81892BC9F02E
:104F400000E010E0E091DB22F091DC22E00FF11FA5
:104F50006081C801809649835A832DDA0F5F1F4F05
:104F60008091DD229091DE2249815A81081719072C
:104F700048F383E08093D822FA0180810CCF0E940D
:104F80000D088091680890916908E091D92221E08C
:104F90002E0F2093D922E770F0E0E558FD4D3081C7
:104FA000830F911D809368089093690820FD26C1A6
:104FB00080915222813069F48093250783E88093A1
:104FC000A2008091A30B8F7C8093A30B87E8809332
:104FD000A20080912F23811103C080912E230FC046
:104FE000815080932F23882319F080912E2307C0AE
:104FF00010922F2310922E23109229239BC08823D6
:1050000009F498C0A091D424B091D5248091D73CC4
:105010008F3F59F01091D83C5091D93C0091DA3C27
:105020003BEDE32E3CE3F32E0AC01091DA3C5091A5
:10503000DB3C0091DC3C2DEDE22E2CE3F22EFD0159
:10504000319681F090E040E020E030E0E901CA5282
:10505000D34C2881420F9F5F292F30E02E173F0746
:10506000A8F301C040E0EA52F34C9081491360C0BC
:105070005F3F09F05DC09091D63C913089F51D31BC
:10508000B0F41E3008F01EC1E12FF0E0E554FD4DF4
:105090009081091317C1193009F00FC18091600880
:1050A000909161088093EC229093ED2206C1602FCD
:1050B000812F0E9432089091EE2294FD39C0811117
:1050C00003C08091D73C05C041E061E0812FBDD98C
:1050D0002FC090E0883F91055CF589E0C0DA28C0D8
:1050E000CD010497202F2F70622F70E017D41D314F
:1050F00030F49B01A701602F812FF0DD06C09B01DA
:10510000A701602F812F0E944B089091EE2294FD01
:105110000FC0882329F041E062E0812F96D908C0B2
:105120008091D73C90E0883F910514F48AE097DAAB
:1051300010922E2380915222813009F05CC0809120
:10514000080786FF46C08091D6229091D72201960B
:10515000883B2BE0920729F08093D6229093D722A8
:105160003CC01092D6221092D7228091EE22982F26
:1051700093709130E9F486FD03C090E490930606A5
:10518000982F907F9093EE2283FF0BC010922623DE
:1051900081E08093272310922523892F877F809396
:1051A000EE22109228230E94A3079091522201C060
:1051B00091E010922C2310922D2310922A2310920A
:1051C0002B238091A30B8C7F8093A30B913029F02C
:1051D00012C01092D6221092D72283E88093A200A8
:1051E0008091A30B80638093A30B87E88093A20038
:1051F00081E0809326070E94150802C00E941608CD
:105200008091D822882339F081508093D82281114F
:1052100002C00E94AC20809127238823E1F0809176
:10522000D92283708230B9F4809125238E3060F4C6
:10523000893009F04CC020916008309161082093BA
:10524000EC223093ED2243C08F5F809325238C3175
:1052500011F41092272380912823882309F180914B
:10526000D9228370E9F480912623E82FF0E0E05FF3
:10527000FD4D6081805E0E943208882331F080916C
:10528000262341E061E0805EE0D8809126238F5F95
:10529000809326239091DA22891302C0109228234A
:1052A0000E940E0880914C0884FF05C08091D8228E
:1052B000811101C0F2DB189510C08091EE2284FFAD
:1052C00003CF36CF9091EE2294FF03CF31CF41E050
:1052D00061E0BBD880912523B7CF8091EE2285FB7A
:1052E000882780F90895FF920F931F93CF93DF9340
:1052F0001F921F92CDB7DEB789839A83F62E142FA3
:1053000020E040E060E080E297E00E94C72020E0DB
:1053100040E066E080E097E00E94B22001E020E4F7
:1053200040E063E080E097E00E94DF2081E080932E
:10533000260783E08093A50B89818093A60B8F2D90
:1053400090E18902B00111248A818F70862B8093AD
:10535000A70B112329F08091A40B84608093A40BE8
:1053600088E08093A50620E040E063E080EA96E0D4
:105370000E94C72020E040E062E080EA96E00E94C0
:10538000B2208091080786FF05C08091A30B8C7F17
:105390008093A30B0F900F90DF91CF911F910F91EE
:1053A000FF900895E0EAFBE084818861848380EEC9
:1053B000818383818063838308951F920F920FB648
:1053C0000F92112408B60F9218BE09B60F9219BE9B
:1053D0000BB60F921BBE2F933F934F935F936F9328
:1053E0007F938F939F93AF93BF93EF93FF930E940D
:1053F0002E0820912C2330912D23C90101968093F2
:105400002C2390932D23F901EA52FB4D2081209308
:10541000A00B811528E1920729F120912A233091D0
:105420002B232817390729F48091A30B8C7F8093B5
:10543000A30B0E942F08FF91EF91BF91AF919F9115
:105440008F917F916F915F914F913F912F910F902D
:105450000BBE0F9009BE0F9008BE0F900FBE0F90AD
:105460001F90189510922C2310922D2380E090E02D
:10547000D4CF1F920F920FB60F92112408B60F923D
:1054800018BE09B60F9219BE0BB60F921BBE2F9312
:105490003F934F935F936F937F938F939F93AF93BC
:1054A000BF93EF93FF930E9430088091080786FD19
:1054B00029C020912C2330912D2380912A23909173
:1054C0002B232817390729F08091A30B8360809341
:1054D000A30B0E943108FF91EF91BF91AF919F9173
:1054E0008F917F916F915F914F913F912F910F908D
:1054F0000BBE0F9009BE0F9008BE0F900FBE0F900D
:105500001F9018958091A30B8C7F8093A30BE1CF04
:10551000BF92CF92DF92EF92FF920F931F93CF93A0
:10552000DF936C01B62E8091080786FD05C080913F
:10553000A30B83608093A30B00912A2310912B234C
:10554000C0E0D8E1C01BD10BEB2CF12CCE15DF0550
:1055500058F1A701B601C8018A529B4D0CD2809127
:105560002C2390912D23E00EF11EE0922A23F0923D
:105570002B23E11428E1F20609F446C008171907A5
:10558000A8F5E816F90690F18FEFE81AF80AE0920C
:105590002C23F0922D23E11428E1F20639F5109224
:1055A0002C2310922D2322C0AE01B601C8018A52CD
:1055B0009B4DE1D1BC1AEB2CF12CBE016C0D7D1D75
:1055C000A70186ED94E2D7D180912C2390912D23D1
:1055D000E0922A23F0922B230817190788F42FEF63
:1055E000E21AF20AE0922C23F0922D23DF91CF9160
:1055F0001F910F91FF90EF90DF90CF90BF90089593
:10560000E816F90660F7F2CF10922A2310922B23A6
:10561000892B61F781E090E080932C2390932D23D8
:10562000E5CF1F920F920FB60F92112408B60F927A
:1056300018BE09B60F9219BE0BB60F921BBE2F9360
:105640003F934F935F936F937F938F939F93AF930A
:10565000BF93EF93FF930E942C089091A00BE091D1
:10566000292381E08E0F80932923F0E0EA52F34C46
:105670009083813019F1843049F190E02091D42455
:105680003091D5248217930779F10E942D08FF915C
:10569000EF91BF91AF919F918F917F916F915F91AA
:1056A0004F913F912F910F900BBE0F9009BE0F901D
:1056B00008BE0F900FBE0F901F9018958091D63C9A
:1056C00081508230D0F110922923DFCF8091D73CD6
:1056D0008F3F01F190E08E3F9105A9F302968093F0
:1056E000D4249093D524D1CF20915222213061F13E
:1056F0002091D73C2F3F29F122E030E0821B930B11
:105700008093D4249093D5241092292381E0809310
:105710002E23BBCF8091D73C9091D83C04968F3FED
:10572000910509F080F68091D83C9091D93C04967F
:105730008093D4249093D524A8CF82E380932F2301
:10574000A4CF24E030E0DACF2093250783E88093CC
:10575000A2008091A30B8F7C8093A30B87E880939A
:10576000A2008091D4249091D524C2CFCF93DF930F
:105770001F921F92CDB7DEB723E130E029833A8331
:10578000809332239093332383E08093B5088981FB
:105790008093B6088A818F708093B70820E048E133
:1057A00066E080E496E00E94B22080E18093B40835
:1057B000E3EBF8E08081806380830F900F90DF91AE
:1057C000CF9108951F920F920FB60F92112408B631
:1057D0000F9218BE09B60F9219BE0BB60F921BBEE0
:1057E0002F938F939F93AF93BF93EF93FF938091EA
:1057F000B0088A3AD1F18F3A09F44CC09091312324
:10580000923009F44BC008F472C0943009F452C0CD
:1058100008F44AC0953061F5809337231092312304
:10582000809130238A3008F44BC082EF99E780934F
:1058300060089093610881E09AE7809368089093EC
:10584000690826E020935322E0913223F09133231C
:105850008091342390913523A0913623B091372342
:1058600080839183A283B38303C081E0809331233B
:10587000FF91EF91BF91AF919F918F912F910F90D9
:105880000BBE0F9009BE0F9008BE0F900FBE0F9079
:105890001F90189582E080933123EACF80933423C0
:1058A00083E080933123E4CF8093352384E0809399
:1058B0003123DECF8093362385E080933123D8CF08
:1058C000109230232091532289EF99E7821B91098E
:1058D000809360089093610881E09AE7809368085C
:1058E00090936908222309F4AFCF2150ABCF9923BD
:1058F00019F0913009F0BCCF10923123B9CFDB0100
:105900008F939F931FD0BF91AF91A29F800D911D48
:10591000A39F900DB29F900D11240895AA1BBB1B4D
:1059200051E107C0AA1FBB1FA617B70710F0A61B9F
:10593000B70B881F991F5A95A9F780959095BC01C0
:10594000CD01089509D0A59F900DB49F900DA49FFF
:10595000800D911D11240895A29FB001B39FC00135
:10596000A39F700D811D1124911DB29F700D811D8B
:105970001124911D0895FB01DC0102C001900D92DC
:0C59800041505040D8F70895F894FFCF34
:10598C000F126B087108130D7708070EFB0EA70991
:10599C00AD09B3098E155D12BC0911121312C90998
:1059AC00D909DF0954162B13E90915121712F60938
:1059BC00060A0C0AC714F913160A19121B12230A29
:1059CC00330A390A430AAB0B0D12C00BCD0BDA0BA1
:1059DC00E70BF70BFD0B030C090C120C1B0C240C26
:1059EC002D0C360C3F0C480C510C5A0C630C8F10C0
:1059FC006C0C720C780C7A0CB20CB80CBE0CD40C6F
:105A0C00E90CFF0C5C121E1239123A1232123312CC
:105A1C0016093412351221122212231220121F12CF
:105A2C0036123B123C123D123E123F123812371204
:105A3C002C12241225122F12301231122E122D126A
:105A4C001D1226122712281229122A122B1240126A
:105A5C004112421243124412451246124712481286
:105A6C0049124A124B124C124D124E124F12501236
:105A7C0051125212531254125512561257125812E6
:105A8C0059125A125B12FE0C5123522353235423E6
:105A9C00562358235A235C235D235E2360236423FF
:105AAC0068236A236E23722373237423752379234B
:105ABC007D237F2383238723882389238A238E2393
:105ACC009223942398239C239D239E239F23A023DE
