:10000000FDC0000021C100001FC100001DC1000093
:100010001BC1000019C1000017C1000015C100007C
:1000200013C1000011C100000FC100000DC100008C
:100030000BC1000009C100000C94271D05C1000080
:100040000C94481D01C10000FFC00000FDC000006D
:100050000C94D425F9C000000C943728F5C000009A
:10006000F3C00000F1C00000EFC00000EDC00000D0
:100070000C945E2CE9C00000E7C00000E5C0000061
:10008000E3C00000E1C00000DFC00000DDC00000F0
:10009000DBC00000D9C00000D7C00000D5C0000000
:1000A000D3C00000D1C00000CFC000000C94F01AF3
:1000B000CBC00000C9C00000C7C000000C94A71D41
:1000C000C3C000000C94BE1DBFC00000BDC0000036
:1000D000BBC00000B9C00000B7C00000B5C0000040
:1000E000B3C00000B1C00000AFC00000ADC0000050
:1000F000ABC00000A9C00000A7C00000A5C0000060
:10010000A3C00000A1C000009FC000009DC000006F
:100110009BC0000099C0000097C0000095C000007F
:1001200093C0000091C000008FC000008DC000008F
:100130008BC000000C94A81C87C000000C94C81C45
:1001400083C0000081C000007FC000007DC00000AF
:100150007BC0000079C0000077C0000075C00000BF
:1001600073C0000071C000006FC000006DC00000CF
:100170006BC0000069C0000067C0000065C00000DF
:1001800063C0000061C000000C94B52A5DC000008F
:100190005BC0000059C0000057C0000055C00000FF
:1001A00053C0000051C000004FC000004DC000000F
:1001B0004BC0000049C0000047C0000045C000001F
:1001C00043C0000041C000003FC000003DC000002F
:1001D0003BC0000039C0000037C000000C948D2BDC
:1001E0000C94592A31C000002FC000002DC000001F
:1001F0002BC0000029C0000027C0000011241FBE32
:10020000CFEFCDBFDFE3DEBF00E00CBF18BE19BEED
:100210001ABE1BBE12E2A0E0B0E2E0E9FAE500E09F
:100220000BBF02C007900D92AE3CB107D9F71BBEC1
:100230002DE3AEECB2E201C01D92AE3DB207E1F794
:100240000E940C1E0C94462DDBCE1092CD231092F2
:10025000CE231092CF231092D02391E090934606A4
:1002600090934606909346069093460690934606D2
:1002700090934606909346069093460690934606C2
:100280009093460690934606909346069093850673
:1002900082E08093450680934506809346068093CE
:1002A00046068093450680934506809346068093D4
:1002B00046068093450680934506809346068093C4
:1002C00046068093450680934506809346068093B4
:1002D00046068093450680934506809346068093A4
:1002E0004606809345068093450680934606809394
:1002F0004606809345068093450680934606809384
:100300004606809345068093450680934606809373
:100310004606809345068093450680934606809363
:100320004606809345068093450680934606809353
:100330004606809345068093450680934606809343
:100340004606809345068093450680934606809333
:100350004606809345068093450680934606809323
:100360004606809345068093450680934606809313
:100370004606809345068093450680934606809303
:1003800046068093450680934506809346068093F3
:1003900046069093450690934506909345069093A4
:1003A0004506909345069093450690934506909395
:1003B0004506909345069093450690934506909385
:1003C0004506909346069093460690934606909372
:1003D0004606909346069093460690934606909361
:1003E0004606909346069093460690934606909351
:1003F0004606909386068093450680934506809333
:100400004606809346069093850680934506809322
:100410004506809346068093460680934506809362
:100420004506809346068091880682FF06C080E0DC
:1004300090E28093CD239093CE2382E08093450673
:1004400080934506809346068091880682FF09C006
:100450008091CD239091CE2390618093CD23909372
:10046000CE2382E08093450680934506809346061E
:100470008091880682FF09C08091CD239091CE2380
:1004800098608093CD239093CE2382E0809345069D
:1004900080934506809346068091880682FF09C0B6
:1004A0008091CD239091CE2394608093CD2390931F
:1004B000CE2382E0809345068093450680934606CE
:1004C0008091880682FF09C08091CD239091CE2330
:1004D00092608093CD239093CE2382E08093450653
:1004E00080934506809346068091880682FF09C066
:1004F0008091CD239091CE2391608093CD239093D2
:10050000CE2382E08093450680934506809346067D
:100510008091880682FF09C08091CD239091CE23DF
:1005200080688093CD239093CE2382E0809345060C
:1005300080934506809346068091880682FF09C015
:100540008091CD239091CE2380648093CD2390938E
:10055000CE2382E08093450680934506809346062D
:100560008091880682FF09C08091CD239091CE238F
:1005700080628093CD239093CE2382E080934506C2
:1005800080934506809346068091880682FF09C0C5
:100590008091CD239091CE2380618093CD23909341
:1005A000CE2382E0809345068093450680934606DD
:1005B0008091880682FF09C08091CD239091CE233F
:1005C00088608093CD239093CE2382E0809345066C
:1005D00080934506809346068091880682FF09C075
:1005E0008091CD239091CE2384608093CD239093EE
:1005F000CE2382E08093450680934506809346068D
:100600008091880682FF09C08091CD239091CE23EE
:1006100082608093CD239093CE2381E080938606E1
:1006200082E080934506809345068093460680913C
:10063000880682FF09C08091CD239091CE238160EE
:100640008093CD239093CE2381E0809345068093C1
:100650004506809345068093450680934506809322
:100660004506809345068093450680934506809312
:100670004506809345068093450680934606809301
:1006800046068093460680934606809346068093EE
:1006900046068093460680934606809346068093DE
:1006A000460680934606809346068093860682E03F
:1006B00080934506809345068093460680934606C0
:1006C00080934506809345068093460680934606B0
:1006D0008093450680934506809346068091880660
:1006E00082FF06C080E090E28093CF239093D023D6
:1006F00082E080934506809345068093460680916C
:10070000880682FF09C08091CF239091D023906109
:100710008093CF239093D02382E0809345068093EB
:100720004506809346068091880682FF09C0809125
:10073000CF239091D02398608093CF239093D023A0
:1007400082E080934506809345068093460680911B
:10075000880682FF09C08091CF239091D0239460B6
:100760008093CF239093D02382E08093450680939B
:100770004506809346068091880682FF09C08091D5
:10078000CF239091D02392608093CF239093D02356
:1007900082E08093450680934506809346068091CB
:1007A000880682FF09C08091CF239091D023916069
:1007B0008093CF239093D02382E08093450680934B
:1007C0004506809346068091880682FF09C0809185
:1007D000CF239091D02380688093CF239093D02310
:1007E00082E080934506809345068093460680917B
:1007F000880682FF09C08091CF239091D023806426
:100800008093CF239093D02382E0809345068093FA
:100810004506809346068091880682FF09C0809134
:10082000CF239091D02380628093CF239093D023C5
:1008300082E080934506809345068093460680912A
:10084000880682FF09C08091CF239091D0238061D8
:100850008093CF239093D02382E0809345068093AA
:100860004506809346068091880682FF09C08091E4
:10087000CF239091D02388608093CF239093D0236F
:1008800082E08093450680934506809346068091DA
:10089000880682FF09C08091CF239091D023846085
:1008A0008093CF239093D02382E08093450680935A
:1008B0004506809346068091880682FF09C0809194
:1008C000CF239091D02382608093CF239093D02325
:1008D00082E080934506809345068093460680918A
:1008E000880682FF09C08091CF239091D023816038
:1008F0008093CF239093D02381E080934506089581
:100900008F92AF92BF92CF92DF92EF920F9384E5D6
:1009100092E29F938F9382E4882E95E8A92EB12CC2
:1009200027E5C22E23E2D22EE12C01E022E040E0B6
:1009300061E084E594E00E9459240F900F900F919C
:10094000EF90DF90CF90BF90AF908F900895E0EE42
:10095000F6E081E0868392E0968334E0368328E0F7
:10096000268340E1468350E2568350E4568350E8A4
:100970005683E0E0F7E086839683E0E6F6E0468380
:100980002683368396838683E0E4F6E08683968327
:10099000368326838093860608950E9420198091CD
:1009A000880683FF0CC142E031E022E094E0E8E0F9
:1009B00070E160E280E450E83093E506AFEFB1EE1D
:1009C000F4E0A150B040F040E1F700C000003093E7
:1009D000E6062093E506AFEFB1EEF4E0A150B0409B
:1009E000F040E1F700C000002093E6069093E50692
:1009F000AFEFB1EEF4E0A150B040F040E1F700C03D
:100A000000009093E606E093E506AFEFB1EEF4E068
:100A1000A150B040F040E1F700C00000E093E606CE
:100A20007093E506AFEFB1EEF4E0A150B040F040B6
:100A3000E1F700C000007093E60690930507AFEF62
:100A4000B1EEF4E0A150B040F040E1F700C000008A
:100A5000909306076093E506AFEFB1EEF4E0A15086
:100A6000B040F040E1F700C000006093E6068093DC
:100A7000E506AFEFB1EEF4E0A150B040F040E1F791
:100A800000C000008093E6065093E506AFEFB1EE9C
:100A9000F4E0A150B040F040E1F700C000005093F6
:100AA000E60630930507AFEFB1EEF4E0A150B04099
:100AB000F040E1F700C000003093060720930507DF
:100AC000AFEFB1EEF4E0A150B040F040E1F700C06C
:100AD00000002093060780930506AFEFB1EEF4E027
:100AE000A150B040F040E1F700C00000809306063E
:100AF000415009F061CF2FEF83EC99E02150804005
:100B00009040E1F700C0000042E031E022E094E0D4
:100B1000E8E070E160E280E450E83093E50620937D
:100B2000E5069093E506E093E5067093E50690935D
:100B300005076093E5068093E5065093E50630933C
:100B400005072093050780930506AFEFB3ECF9E0A6
:100B5000A150B040F040E1F700C000003093E6063D
:100B60002093E6069093E606E093E6067093E60689
:100B7000909306076093E6068093E6065093E60698
:100B8000309306072093060780930606AFEFB3EC79
:100B9000F9E0A150B040F040E1F700C00000415042
:100BA00009F0BBCF2FEF83ED90E3215080409040C0
:100BB000E1F700C0000084E08093050708950E94DB
:100BC000C325F1CECF92DF92EF92FF92E7E5F3E2F9
:100BD00083E081838283C12CD12C80E2E82E81E4E2
:100BE000F82EC18AD28AE38AF48A40E050E068E4B1
:100BF00072E4458B568B678B708F2AE030E0218F33
:100C0000328F81E083A315A214A2C6A2D7A2E0A6C8
:100C1000F1A642A753A764A775A726A737A780AF59
:100C200012AE11AEC3AED4AEE5AEF6AE409396238F
:100C300050939723609398237093992320939A233A
:100C400030939B238093A4231092A6231092A52374
:100C500020E23EE42093D4233093D5232CED35E0DD
:100C60002093D6233093D7232093D8233093D923AE
:100C70002093DA233093DB238093D123FF90EF90EE
:100C8000DF90CF90089580E693E20E942D0F0E949E
:100C900044170E94E4170E9482188AEC93E20E9493
:100CA000C11081ED93E258D684ED93E299D686ED9A
:100CB00093E2ACD688ED93E2BED68AED93E2D1C63C
:100CC0008091CA23823009F4F4C008F041C088231F
:100CD00009F4ABC08130C1F59091680694FD809312
:100CE000E5068091680683FF03C082E08093E506F5
:100CF0008091680682FF03C084E08093E5068091BE
:100D0000680681FF03C088E08093E506809168064D
:100D100080FF03C080E18093E50680E28093E506D2
:100D200080E48093E5068091480682FF03C080E856
:100D30008093E5068091480683FF03C081E080939D
:100D4000050782E08093050784E0809305070895F6
:100D50008330E9F18430C1F78091680684FF03C0D5
:100D600081E08093E5068091680683FF03C082E0FE
:100D70008093E5068091680682FF03C084E080933B
:100D8000E5068091680681FF03C088E08093E50650
:100D90008091680680FF03C080E18093E50680E2D1
:100DA0008093E50680E48093E50680E88093E5067D
:100DB0008091480683FF03C081E0809305078091FE
:100DC000880680FFBECF82E080930507BACF80916E
:100DD000680684FF03C081E08093E5068091680681
:100DE00083FF03C082E08093E5068091680682FF5E
:100DF00003C084E08093E5068091680681FF03C00C
:100E000088E08093E5068091680680FF03C080E15A
:100E10008093E50680E28093E50680E48093E50612
:100E20008091480682FFC4CFC0CF8091680684FFBE
:100E300003C081E08093E5068091680683FF03C0CC
:100E400082E08093E5068091680682FF03C084E01B
:100E50008093E5068091680681FF03C088E0809357
:100E6000E5068091680680FF03C080E18093E50677
:100E70008091480680FF03C080E28093E506809160
:100E8000480681FF03C080E48093E5068091480610
:100E900082FF03C080E88093E5068091480683FFC7
:100EA00003C081E0809305078091880680FF4CCFC6
:100EB00048CF8091680684FF03C081E08093E506F7
:100EC0008091680683FF03C082E08093E5068091ED
:100ED000680682FF03C084E08093E506809168067F
:100EE00081FF03C088E08093E5068091680680FF5B
:100EF00003C080E18093E50680E28093E50680915F
:100F0000480681FF03C080E48093E506809148068F
:100F100082FF4ECF4ACFE0EEF6E021E0268392E05A
:100F2000968384E0868338E0368330E1368330E28E
:100F3000368330E4368330E83683E0E0F7E026831A
:100F40009683868308958091CF2280FD57C081FDCE
:100F500049C082FD3AC083FD2BC084FD1CC085FDC5
:100F60000DC086FF089580E09AE00E94422181E052
:100F70008093860682E080930607089580E098E0DB
:100F80000E94422188E08093460681E08093060714
:100F90008091CF22E6CF80E098E00E94422184E059
:100FA0008093460680E88093E6068091CF22D7CFD3
:100FB00080E098E00E94422182E08093460680E42F
:100FC0008093E6068091CF22C8CF80E099E00E940E
:100FD000422182E08093660688E08093E606809155
:100FE000CF22B9CF80E099E00E94422184E0809333
:100FF00066068093E6068091CF22ABCF80E099E031
:101000000E94422188E08093660682E08093E60693
:101010008091CF229CCF08950895089508958091DE
:101020003E2381508093CE22089508958091CA2353
:10103000813009F008958091CE228F5F8093CE2277
:1010400090913E238913F6CF00D961E08AE50E9492
:10105000DD261092CE2208950895089508950895EA
:101060000895089590EE980F923440F490E08097A0
:10107000FC01E05FFD4D2081261711F080E008950E
:10108000880F991FFC01EC57FF4D0190F081E02D76
:10109000199581E0089590EE980F923448F4E82F66
:1010A000F0E0B097DF01A05FBD4D9C91961711F065
:1010B00080E00895EE0FFF1FDF01A457BE4D8D9114
:1010C0009C9182179307A1F7E050F04E0190F081B8
:1010D000E02DCA011994FC0180818093582381E09E
:1010E0000895FC0180818093592381E00895EF9257
:1010F000FF920F931F93CF93DF93FC0120813181E7
:10110000E091CA23E53008F07CC0F0E0EE0FFF1F4D
:10111000EF58FD4D808191818223932380FF06C08B
:1011200040E14093660641E04093E60681FF76C0C9
:1011300048E04093660642E04093E6068C01047066
:1011400011277C0148E0E422FF24EC01C071DD2777
:10115000DC01A072BB27FC01E074FF27BC016078B2
:101160007727AC014427517088279270012B29F012
:1011700014E0109366061093E606EF2831F012E0B3
:101180001093660618E01093E606CD2B31F0C1E00F
:10119000C0936606C0E1C093E606AB2B31F0A1E038
:1011A000A0934606A0E2A093E606EF2B31F0E2E022
:1011B000E0934606E0E4E093E606672B31F064E056
:1011C0006093460660E86093E606452B31F048E000
:1011D0004093460641E040930607892B31F081E0B9
:1011E0008093860682E08093060720935C233093E9
:1011F0005D2381E0DF91CF911F910F91FF90EF90E0
:10120000089580E090E040E050E060E070E0E0E0D1
:10121000F0E0A0E0B0E0C0E0D0E0B7CF8C01047017
:1012200011277C01F8E0EF22FF248FCF8091680620
:1012300084FB222720F930E0209360233093612340
:101240008091680683FF65C082E090E0822B932B3B
:101250008093602390936123209168062470822BF1
:1012600080936023909361232091680621FF63C0DF
:1012700028E030E0822B932B8093602390936123AE
:101280002091680620FF54C020E130E0822B932B90
:1012900080936023909361232091480620FF45C0EE
:1012A00020E230E0822B932B809360239093612384
:1012B0002091480621FF36C020E430E0822B932B9A
:1012C00080936023909361232091480622FF27C0DA
:1012D00020E830E0822B932B80936023909361234E
:1012E0002091480623FF18C020E031E0822B932B89
:1012F00080936023909361232091880620FD1EC077
:1013000020E030E0822B932B809360239093612325
:10131000089580E090E09ACF20E030E0E7CF20E031
:1013200030E0D8CF20E030E0C9CF20E030E0BACFC5
:1013300020E030E0ABCF20E030E09CCF20E032E096
:10134000822B932B80936023909361230895E7E58C
:10135000F3E287859089838794870895FC01208133
:101360003181E7E5F3E287859089822B932B87878C
:10137000908B2387348781E00895E7E5F3E2878542
:101380009089809590959927858796870895FC0187
:1013900020813181E7E5F3E2C90180959095478589
:1013A0005089842395238787908B2587368781E012
:1013B0000895FC0180819181809366239093672337
:1013C00081E00895FC0180819181009731F0809344
:1013D00070239093712381E0089580E00895FC01CB
:1013E0008081982F9C7F21F480937A2381E0089557
:1013F00080E00895FC01808180937B2381E0089543
:10140000FC019081892F817090FF03C090937C2311
:1014100081E00895FC0180819181009731F08093F3
:1014200085239093862381E0089580E00895FC0150
:101430008081982F9C7F21F480938F2381E00895F1
:1014400080E00895FC0180818093902381E00895DD
:10145000FC019081892F817090FF03C090939123AC
:1014600081E00895FC0180819181009731F08093A3
:101470009A2390939B2381E0089580E00895FC01D6
:101480008081982F9C7F21F48093A42381E008958C
:1014900080E00895FC0180818093A52381E0089578
:1014A000FC019081892F817090FF03C09093A62347
:1014B00081E00895FC01808180FFD3C020917023DA
:1014C0003091712320934723309348232091CF22DA
:1014D0003091D022287F2093CF223093D0221092B7
:1014E00000099CE090930909209144233091452301
:1014F00021503109209326093093270920914F2349
:1015000030915023209328093093290920914F23AB
:101510003091502320932A0930932B0920914F2397
:101520003091502320932C0930932D0920914F2383
:101530003091502320932E0930932F0991E09093FE
:1015400006099093070993E090930109909166230F
:1015500090FF2CC12091010920682093010920915E
:10156000CF223091D02221602093CF223093D022FD
:1015700021E091FF0FC0209101092064209301090F
:101580002091CF223091D02222602093CF2230931D
:10159000D02221E092FF66C0909101099062909361
:1015A00001092091CF223091D02224602093CF22B4
:1015B0003093D02221E081FD57C030E082FF34C05B
:1015C00040919A2350919B2340935123509352234F
:1015D0004091CF225091D0224F7B4093CF22509305
:1015E000D0221092000A9CE09093090A40914C236B
:1015F00050914D23415051094093260A5093270A98
:1016000040914A2350914B234093280A5093290A32
:1016100091E09093060A9093070A93E09093010A51
:101620009091662396FDAEC090E0222331F0209188
:1016300056232093000910924923332331F020913F
:1016400046232093000810925523992331F090915E
:101650004E239093000A10923F238093A72381E0AA
:10166000089520E081FFA9CF4091852350918623E2
:1016700040934223509343234091CF225091D02254
:10168000477C4093CF225093D022109200089CE0D8
:1016900090930908409140235091412341505109B2
:1016A0004093260850932708409153235091542388
:1016B0004093280850932908409153235091542374
:1016C00040932A0850932B08409153235091542360
:1016D00040932C0850932D0840915323509154234C
:1016E00040932E0850932F0891E090930608909312
:1016F000070893E0909301089091662393FD2EC014
:1017000030E094FF14C04091CA23423008F056CF15
:10171000309101083064309301084091CF225091FC
:10172000D02240614093CF225093D02231E095FFE8
:1017300045CF9091CA23923008F040CF9091010894
:101740009068909301084091CF225091D02240623E
:101750004093CF225093D02231E030CF3091CA2332
:101760003111CECF309101083062309301084091A1
:10177000CF225091D02248604093CF225093D02264
:1017800031E0BFCF9091CA23911112C09091010A0C
:1017900090619093010A4091CF225091D0224064F1
:1017A0004093CF225093D02291E03FCF20E0E1CE72
:1017B0009250933008F038CFE9CFFC01808180FF50
:1017C00003C091E09093492381FF03C091E090937F
:1017D000552382FF03C091E090933F238093A82379
:1017E00081E00895FC0180819181009731F0809320
:1017F000AA239093AB2381E0089580E00895FC0133
:1018000080819181009731F08093AC239093AD2338
:1018100081E0089580E00895FC0180819181009726
:1018200031F08093AE239093AF2381E0089580E060
:101830000895FC012081822F90E08095909583701F
:101840009927892B21F42093B02381E0089580E02B
:101850000895FC0180818093B12381E00895FC010B
:1018600080818093B22381E00895FC018081809380
:10187000B32381E00895FC01808191818093B4239A
:101880009093B52381E00895FC018081918180933C
:10189000B6239093B72381E00895FC018081918164
:1018A0008093B8239093B92381E00895FC0180814F
:1018B00091818093BA239093BB2381E00895FC012A
:1018C000808191818093BC239093BD2381E0089512
:1018D000FC01808191818093BE239093BF2381E09E
:1018E0000895FC01808191818093C0239093C1234E
:1018F00081E00895FC01808191818093C2239093BF
:10190000C32381E00895FC01808191818093C423E9
:101910009093C52381E00895FC018081918180939B
:10192000C6239093C72381E00895FC0180819181B3
:101930008093C8239093C92381E00895FC0180819E
:101940008093CB2381E00895FC0180818093CC2398
:1019500081E0089580E00895FC018081823069F182
:1019600060F08430A9F010F1853019F491E0909383
:101970003E238093D12381E00895882381F0813034
:10198000C1F79AE090933E238093D12381E008959C
:1019900092E090933E238093D12381E0089594E1D7
:1019A00090933E238093D12381E0089594E0909317
:1019B0003E238093D12381E0089595E090933E23C8
:1019C0008093D12381E00895FC0180818093D2230C
:1019D00081E00895FC0180818093D32381E0089504
:1019E000FC01208131818091CA238250833040F4F0
:1019F000C9019695879501978093260890932708AB
:101A00002093D4233093D52381E00895FC012081D5
:101A100031818091CA238250833038F4C901969570
:101A2000879580932808909329082093D623309394
:101A3000D72381E00895FC01208131818091CA2360
:101A40008350823038F4C9019695879580932A088F
:101A500090932B082093D8233093D92381E00895C5
:101A60000895FC01808191812091CA23243039F4AA
:101A70009C013695279520932C0830932D08809350
:101A8000DA239093DB2381E008953F924F925F9297
:101A90006F927F928F929F92AF92BF92CF92DF927E
:101AA000EF92FF920F931F93CF93DF93FC0100817E
:101AB0001181E091CA23E53008F079C0F0E0EE0F23
:101AC000FF1FEF58FD4DC081D181C023D123C0FF3E
:101AD0000AC080E1809365060E94E929882319F0F5
:101AE00081E08093E506C1FF0AC088E08093650627
:101AF0000E94E929882319F082E08093E506CE014F
:101B0000847099272E01E8E04E2255244E01F0E121
:101B10008F2299245E0120E2A222BB246E01E0E420
:101B2000CE22DD247E01F0E8EF22FF243E01662470
:101B300021E07222CC27D270892B49F084E0382E24
:101B4000309265060E94E92981113092E506452808
:101B500039F082E0809365060E94E929811185C0F1
:101B6000892899F5AB28E9F5CD2809F048C0EF2878
:101B700009F053C0672809F05EC0CD2B09F069C099
:101B800000935A2310935B2381E0DF91CF911F9143
:101B90000F91FF90EF90DF90CF90BF90AF909F900C
:101BA0008F907F906F905F904F903F900895C0E02E
:101BB000D0E0E12CF12CC12CD12CA12CB12C812C0A
:101BC000912C612C712C892869F281E08093650643
:101BD0000E94E929882331F280E18093E506AB2851
:101BE00019F281E0809345060E94E929882309F4CF
:101BF000BBCF80E28093E506CD2809F4B8CF82E020
:101C0000809345060E94E929882309F4B0CF80E437
:101C10008093E506EF2809F4ADCF84E08093450674
:101C20000E94E929882309F4A5CF80E88093E5067E
:101C3000672809F4A2CF88E0809345060E94E9292D
:101C4000882309F49ACF81E080930507CD2B09F40E
:101C500097CF81E0809385060E94E929882309F4C3
:101C60008FCF82E0809305078BCF88E08093E506D5
:101C700077CF3F924F925F926F927F928F929F9217
:101C8000AF92BF92CF92DF92EF92FF920F931F938A
:101C9000CF93DF93FC0100811181E091CA23E530ED
:101CA00008F079C0F0E0EE0FFF1FEF58FD4DC08146
:101CB000D181C023D123C0FF0AC080E18093670691
:101CC0000E94E929882319F081E08093E706C1FF8B
:101CD0000AC088E0809367060E94E929882319F0EA
:101CE00082E08093E706CE01847099272E01E8E018
:101CF0004E2255244E01F0E18F2299245E0120E20C
:101D0000A222BB246E01E0E4CE22DD247E01F0E8B5
:101D1000EF22FF243E01662421E07222CC27D270FC
:101D2000892B49F084E0382E309267060E94E92919
:101D300081113092E706452839F082E080936706EA
:101D40000E94E929811185C0892899F5AB28E9F518
:101D5000CD2809F048C0EF2809F053C0672809F0E2
:101D60005EC0CD2B09F069C000935E2310935F2302
:101D700081E0DF91CF911F910F91FF90EF90DF9065
:101D8000CF90BF90AF909F908F907F906F905F901B
:101D90004F903F900895C0E0D0E0E12CF12CC12C91
:101DA000D12CA12CB12C812C912C612C712C892847
:101DB00069F281E0809367060E94E929882331F265
:101DC00080E18093E706AB2819F281E08093470613
:101DD0000E94E929882309F4BBCF80E28093E706BB
:101DE000CD2809F4B8CF82E0809347060E94E92904
:101DF000882309F4B0CF80E48093E706EF2809F444
:101E0000ADCF84E0809347060E94E929882309F436
:101E1000A5CF80E88093E706672809F4A2CF88E081
:101E2000809347060E94E929882309F49ACF81E02C
:101E300080930707CD2B09F497CF81E08093870625
:101E40000E94E929882309F48FCF82E08093070755
:101E50008BCF88E08093E70677CF2F923F924F9207
:101E60005F926F927F928F929F92AF92BF92CF922A
:101E7000DF92EF92FF920F931F93CF93DF93FC01BA
:101E800000811181E091CA23E53008F0B6C0F0E08E
:101E9000EE0FFF1FEF58FD4DC081D181C023D1232C
:101EA000C0FF2BC180E1809365060E94E929882349
:101EB00009F445C181E08093E506CE01827099273F
:101EC0004E01F4E08F2299245E0128E0A222BB2477
:101ED0006E01E0E1CE22DD247E01F0E2EF22FF245C
:101EE0003E0120E4622277242E01E0E84E225524B0
:101EF0001E012224F1E03F22CC27D270892B09F465
:101F000097C088E0809365060E94E929882309F438
:101F100095C082E08093E506892809F492C084E0A8
:101F2000982E909265060E94E929882309F48EC0B4
:101F30009092E50682E0AB2809F48CC08093650698
:101F40000E94E929882309F48AC088E08093E50685
:101F500081E0CD2809F487C0809365060E94E929B5
:101F6000882309F485C080E18093E50681E0EF28AD
:101F700009F482C0809345060E94E929882309F468
:101F800080C080E28093E50682E0672809F47DC086
:101F9000809345060E94E929882309F47BC080E4E8
:101FA0008093E50684E0452809F478C080934506CF
:101FB0000E94E929882309F476C080E88093E50629
:101FC00088E0232809F473C0809345060E94E9291C
:101FD000882309F471C081E08093050781E0CD2B4F
:101FE00009F46EC0809385060E94E929882309F4CC
:101FF0006CC082E08093050768C0C0E0D0E0212C6F
:10200000312C412C512C612C712CE12CF12CC12C48
:10201000D12CA12CB12C812C912C80E090E020E1DE
:102020002093660621E02093E606892B09F069CF0C
:1020300088E08093660682E08093E606892809F0AE
:102040006ECF84E0809366068093E60682E0AB283C
:1020500009F074CF8093660688E08093E60681E0FD
:10206000CD2809F079CF8093660680E18093E6065B
:1020700081E0EF2809F07ECF8093460680E28093CE
:10208000E60682E0672809F083CF8093460680E465
:102090008093E60684E0452809F088CF80934606C1
:1020A00080E88093E60688E0232809F08DCF8093AE
:1020B000460681E08093060781E0CD2B09F092CFA0
:1020C0008093860682E08093060700936023109336
:1020D000612381E0DF91CF911F910F91FF90EF90ED
:1020E000DF90CF90BF90AF909F908F907F906F9038
:1020F0005F904F903F902F900895CE018270992766
:102100004E0124E0822299245E01E8E0AE22BB2445
:102110006E01F0E1CF22DD247E0120E2E222FF24E5
:102120003E01E0E46E2277242E01F0E84F22552490
:102130001E01222421E03222CC27D27070CFCE01A2
:10214000827099274E01E4E08E2299245E01F8E026
:10215000AF22BB246E0120E1C222DD247E01E0E239
:10216000EE22FF243E01F0E46F2277242E0120E8C6
:10217000422255241E012224E1E03E22CC27D270C7
:1021800054CF0F93CF93FC01C081C23009F417C123
:1021900060F5CC2309F4E4C0C13009F08CC001E043
:1021A00020E240E061E080E896E00E940C2180E0BF
:1021B00098E00E9442210E94E929882381F0C0937F
:1021C000450680E28093E50680E48093E50682E0A0
:1021D000809305078091CA23843009F42FC1C093EE
:1021E000CA2381E0CF910F910895C33009F467C0ED
:1021F000C43009F060C000E024E040E061E080E825
:1022000096E00E940C2120E240E061E080E896E048
:102210000E940C210E94E929882371F080E28093BA
:10222000E50680E48093E50680E88093E5068091EA
:10223000CA23813009F41FC1109200088CE08093FA
:1022400009088091D4239091D5239695879501977D
:1022500080932608909327088091D6239091D723C6
:102260009695879580932808909329088091D82384
:102270009091D9239695879580932A0890932B085F
:102280008091DA239091DB239695879580932C0893
:1022900090932D0883E1809301088091010880626A
:1022A000809301088091010880648093010885E093
:1022B0008093000894CF80E0CF910F91089500E0C3
:1022C00024E040E061E080E896E00E940C2120E2FA
:1022D00040E061E080E896E00E940C210E94E9293C
:1022E000882371F080E28093E50680E48093E50620
:1022F0008091CA23813009F4BAC0843009F4B3C094
:10230000109200088CE0809309088091D42390916A
:10231000D523969587950197809326089093270853
:102320008091D6239091D7239695879580932808FE
:10233000909329088091D8239091D92396958795D9
:1023400080932A0890932B0883E180930108809161
:10235000010880628093010885E0809300083FCFE8
:1023600000E024E040E061E080E896E00E940C217B
:1023700020E240E061E080E896E00E940C2180E0ED
:1023800098E00E94422181E08093460690E290937B
:10239000E60692E09093460620E42093E60624E0C9
:1023A0002093460620E82093E60628E02093460680
:1023B00080930607809386069093060710CF00E06F
:1023C00024E040E061E080E896E00E940C2120E2F9
:1023D00040E061E080E896E00E940C210E94E9293B
:1023E000882359F080E28093E5068091CA238130EA
:1023F000A1F1833071F1843029F1109200088CE052
:10240000809309088091D4239091D5239695879540
:10241000019780932608909327088091D623909166
:10242000D72396958795809328089093290883E170
:102430008093010885E080930008D1CE80E88093E6
:10244000E606CDCE80E48093E60680E88093E6063B
:10245000D4CF80E48093E606D0CF80E48093E60674
:10246000C0930607CACF80E88093E60649CF82E092
:102470008093060745CF82E080930607DDCE80E09B
:10248000089580E0089580E0089580E0089580E058
:10249000089580E0089580E0089580E0089508950B
:1024A0000895089508950895089508950895089544
:1024B0000895089508950895089508950895089534
:1024C0000895089508950895089508950895089524
:1024D0000895089508950895089508950895089514
:1024E0000895089508950895089508950895089504
:1024F00008950895089508950895089508950895F4
:1025000008950895089508950895089508950895E3
:10251000089508950895089508958F929F92AF9217
:10252000BF92CF92DF92EF92FF920F931F93FC0125
:10253000C080D180E280F38020E030E048EC52E4BB
:10254000C701B6010E94C41F18160CF492C020E007
:1025500030E040E85FE3C701B6010E947A1E87FDC4
:1025600088C0C0929623D0929723E0929823F0924D
:102570009923209192233091932340919423509159
:1025800095239CE4E92E93E2F92E0EE413E260E039
:1025900078E488EE91E00E944721882309F475C011
:1025A000E0914E23E150E73008F081C0F0E0EE0FFB
:1025B000FF1FED59FD4D6081718180E090E0C0907A
:1025C0004C23D0904D23E12CF12CA70196010E94C1
:1025D000012D0E94121F9B01AC0160E074E284EFA8
:1025E0009BE40E947E1E60939C2370939D238093A6
:1025F0009E2390939F23C701B6010E94121F4B0197
:102600005C0120E030E048EC52E460919623709148
:10261000972380919823909199230E947E1EA50173
:1026200094010E94C81F20E030E040E05FE30E9478
:10263000161E0E94E61E6B017C0180E090E00E9465
:10264000121FA50194010E947E1E20E030E048EC9C
:1026500052E40E94C81F6093A0237093A12380932B
:10266000A2239093A323C0924A23D0924B2381E0CC
:1026700001C080E01F910F91FF90EF90DF90CF900D
:10268000BF90AF909F908F90089510929C231092CE
:102690009D2310929E2310929F231092A0231092AC
:1026A000A1231092A2231092A32381E0E3CF60E044
:1026B00070E0CB0184CF8F929F92AF92BF92CF9266
:1026C000DF92EF92FF920F931F93FC01C080D180A5
:1026D000E280F38020E030E048EC52E4C701B6012C
:1026E0000E94C41F18160CF492C020E030E040E8AD
:1026F0005FE3C701B6010E947A1E87FD88C0C092C1
:102700006C23D0926D23E0926E23F0926F23209180
:1027100068233091692340916A2350916B2394E49C
:10272000E92E93E2F92E06E513E260E078E488EE04
:1027300091E00E944721882309F475C0E091562357
:10274000E150E73008F081C0F0E0EE0FFF1FED59D7
:10275000FD4D6081718180E090E0C0904423D09075
:102760004523E12CF12CA70196010E94012D0E9426
:10277000121F9B01AC0160E074E284EF9BE40E94B5
:102780007E1E6093722370937323809374239093BF
:102790007523C701B6010E94121F4B015C0120E0A6
:1027A00030E048EC52E460916C2370916D2380918D
:1027B0006E2390916F230E947E1EA50194010E94BA
:1027C000C81F20E030E040E05FE30E94161E0E9438
:1027D000E61E6B017C0180E090E00E94121FA501C3
:1027E00094010E947E1E20E030E048EC52E40E94FA
:1027F000C81F6093762370937723809378239093F8
:102800007923C0924F23D092502381E001C080E011
:102810001F910F91FF90EF90DF90CF90BF90AF90FE
:102820009F908F90089510927223109273231092AC
:1028300074231092752310927623109277231092AE
:1028400078231092792381E0E3CF60E070E0CB0140
:1028500084CF8F929F92AF92BF92CF92DF92EF92EE
:10286000FF920F931F93FC01C080D180E280F38020
:1028700020E030E048EC52E4C701B6010E94C41FDA
:1028800018160CF492C020E030E040E85FE3C70186
:10289000B6010E947A1E87FD88C0C0928123D09223
:1028A0008223E0928323F092842320917D23309130
:1028B0007E2340917F235091802390E4E92E93E280
:1028C000F92E06E413E260E078E488EE91E00E94DD
:1028D0004721882309F475C0E0914623E150E73091
:1028E00008F081C0F0E0EE0FFF1FED59FD4D608153
:1028F000718180E090E0C0904023D0904123E12C92
:10290000F12CA70196010E94012D0E94121F9B012C
:10291000AC0160E074E284EF9BE40E947E1E609351
:102920008723709388238093892390938A23C701F8
:10293000B6010E94121F4B015C0120E030E048EC20
:1029400052E460918123709182238091832390913E
:1029500084230E947E1EA50194010E94C81F20E0CE
:1029600030E040E05FE30E94161E0E94E61E6B010D
:102970007C0180E090E00E94121FA50194010E945A
:102980007E1E20E030E048EC52E40E94C81F6093B5
:102990008B2370938C2380938D2390938E23C092EE
:1029A0005323D092542381E001C080E01F910F9106
:1029B000FF90EF90DF90CF90BF90AF909F908F905F
:1029C00008951092872310928823109289231092E1
:1029D0008A2310928B2310928C2310928D231092B5
:1029E0008E2381E0E3CF60E070E0CB0184CF8F9253
:1029F0009F92AF92BF92CF92DF92EF92FF920F938E
:102A00001F93FC0180809180A280B38020E030E0A1
:102A10004AE754E4C501B4010E94C41F181654F0DB
:102A200020E030E040E05FE3C501B4010E947A1E7F
:102A300087FF0CC080E01F910F91FF90EF90DF9017
:102A4000CF90BF90AF909F908F90089580927D23FC
:102A500090927E23A0927F23B092802390E4E92E6F
:102A600093E2F92E06E413E2A501940160E078E414
:102A700088EE91E00E944721882309F469C0E09123
:102A80004623E150E73008F075C0F0E0EE0FFF1F7D
:102A9000ED59FD4D6081718180E090E08090402390
:102AA00090904123A12CB12CA50194010E94012DED
:102AB0000E94121F9B01AC0160E074E284EF9BE472
:102AC0000E947E1E609387237093882380938923BE
:102AD00090938A23C501B4010E94121F6B017C01EF
:102AE00020E030E048EC52E4609181237091822331
:102AF00080918323909184230E947E1EA7019601DA
:102B00000E94C81F20E030E040E05FE30E94161EF4
:102B10000E94E61E4B015C0180E090E00E94121FC3
:102B2000A70196010E947E1E20E030E048EC52E4AE
:102B30000E94C81F60938B2370938C2380938D23F6
:102B400090938E23809253239092542381E073CFED
:102B500010928723109288231092892310928A233F
:102B600010928B2310928C2310928D2310928E231F
:102B700081E061CF60E070E0CB0190CF8F929F92B7
:102B8000AF92BF92CF92DF92EF92FF920F931F937B
:102B9000FC0180809180A280B38020E030E04AE791
:102BA00054E4C501B4010E94C41F181654F020E07B
:102BB00030E040E05FE3C501B4010E947A1E87FF68
:102BC0000CC080E01F910F91FF90EF90DF90CF90AD
:102BD000BF90AF909F908F90089580929223909293
:102BE0009323A0929423B09295239CE4E92E93E240
:102BF000F92E0EE413E2A501940160E078E488EE7A
:102C000091E00E944721882309F468C0E0914E2397
:102C1000E150E73008F074C0F0E0EE0FFF1FED590F
:102C2000FD4D6081718180E090E080904C23909018
:102C30004D23A12CB12CA50194010E94012D0E94CD
:102C4000121F9B01AC0160E074E284EF9BE40E94E0
:102C50007E1E60939C2370939D2380939E2390936C
:102C60009F23C501B4010E94121F6B017C0120E06B
:102C700030E048EC52E46091962370919723809164
:102C80009823909199230E947E1EA70196010E948D
:102C9000C81F20E030E040E05FE3C8D70E94E61E96
:102CA0004B015C0180E090E00E94121FA701960199
:102CB0000E947E1E20E030E048EC52E40E94C81FD3
:102CC0006093A0237093A1238093A2239093A323C6
:102CD00080924A2390924B2381E074CF10929C23E0
:102CE00010929D2310929E2310929F231092A02356
:102CF0001092A1231092A2231092A32381E062CF0D
:102D000060E070E0CB0191CF8F929F92AF92BF9223
:102D1000CF92DF92EF92FF920F931F93FC0180807E
:102D20009180A280B38020E030E04AE754E4C501FE
:102D3000B4010E94C41F18164CF020E030E040E0BF
:102D40005FE3C501B401D6D787FF0CC080E01F91B7
:102D50000F91FF90EF90DF90CF90BF90AF909F903A
:102D60008F9008958092682390926923A0926A239D
:102D7000B0926B2394E4E92E93E2F92E06E513E278
:102D8000A501940160E078E488EE91E00E9447217B
:102D9000882309F463C0E0915623E150E73008F03E
:102DA0006FC0F0E0EE0FFF1FED59FD4D60817181A6
:102DB00080E090E08090442390904523A12CB12C9A
:102DC000A50194010E94012D0E94121F9B01AC01DC
:102DD00060E074E284EF9BE491D760937223709378
:102DE00073238093742390937523C501B4010E94CB
:102DF000121F6B017C0120E030E048EC52E460914E
:102E00006C2370916D2380916E2390916F2376D700
:102E1000A70196010E94C81F20E030E040E05FE378
:102E200005D7D4D74B015C0180E090E0FBD7A70128
:102E3000960164D720E030E048EC52E40E94C81FBD
:102E400060937623709377238093782390937923EC
:102E500080924F239092502381E079CF1092722379
:102E6000109273231092742310927523109276237C
:102E700010927723109278231092792381E067CF04
:102E800060E070E0CB0196CF8F929F92AF92BF929D
:102E9000CF92DF92EF92FF920F931F9320916823BE
:102EA0003091692340916A2350916B2394E4E92E79
:102EB00093E2F92E06E513E260E078E488EE91E013
:102EC0000E944721882309F460C0E0915623E15015
:102ED000E73008F075C0F0E0EE0FFF1FED59FD4D33
:102EE0006081718180E090E0C0904423D0904523C0
:102EF000E12CF12CA70196010E94012D93D79B0193
:102F0000AC0160E074E284EF9BE4F8D66093722336
:102F1000709373238093742390937523C701B60134
:102F200081D74B015C0120E030E048EC52E4609135
:102F30006C2370916D2380916E2390916F23DED668
:102F4000A50194010E94C81F20E030E040E05FE34B
:102F50006DD63CD76B017C0180E090E063D7A50182
:102F60009401CCD620E030E048EC52E40E94C81F27
:102F700060937623709377238093782390937923BB
:102F8000C0924F23D092502310C0109272231092FF
:102F9000732310927423109275231092762310924B
:102FA000772310927823109279231F910F91FF902D
:102FB000EF90DF90CF90BF90AF909F908F9008954B
:102FC00060E070E0CB0190CF8F929F92AF92BF9262
:102FD000CF92DF92EF92FF920F931F9320917D2368
:102FE00030917E2340917F235091802390E4E92EFD
:102FF00093E2F92E06E413E260E078E488EE91E0D3
:103000000E944721882309F45EC0E0914623E150E5
:10301000E73008F073C0F0E0EE0FFF1FED59FD4DF3
:103020006081718180E090E0C0904023D090412386
:10303000E12CF12CA70196010E94012DF3D69B01F2
:10304000AC0160E074E284EF9BE458D66093872380
:10305000709388238093892390938A23C701B601B4
:10306000E1D64B015C0120E030E048EC52E4609195
:1030700081237091822380918323909184233ED673
:10308000A501940185D720E030E040E05FE3CED594
:103090009DD66B017C0180E090E0C4D6A50194012F
:1030A0002DD620E030E048EC52E472D760938B23B9
:1030B00070938C2380938D2390938E23C0925323FF
:1030C000D092542310C0109287231092882310921C
:1030D000892310928A2310928B2310928C231092B2
:1030E0008D2310928E231F910F91FF90EF90DF9010
:1030F000CF90BF90AF909F908F90089560E070E068
:10310000CB0192CF8F929F92AF92BF92CF92DF92DC
:10311000EF92FF920F931F9320919223309193236C
:1031200040919423509195239CE4E92E93E2F92E4B
:103130000EE413E260E078E488EE91E00E9447211B
:10314000882309F45EC0E0914E23E150E73008F097
:1031500073C0F0E0EE0FFF1FED59FD4D60817181EE
:1031600080E090E0C0904C23D0904D23E12CF12CD6
:10317000A70196010E94012D55D69B01AC0160E08C
:1031800074E284EF9BE4BAD560939C2370939D23F3
:1031900080939E2390939F23C701B60143D64B0192
:1031A0005C0120E030E048EC52E46091962370919D
:1031B00097238091982390919923A0D5A5019401FC
:1031C000E7D620E030E040E05FE330D5FFD56B018B
:1031D0007C0180E090E026D6A50194018FD520E007
:1031E00030E048EC52E4D4D66093A0237093A1233E
:1031F0008093A2239093A323C0924A23D0924B237F
:1032000010C010929C2310929D2310929E23109226
:103210009F231092A0231092A1231092A223109218
:10322000A3231F910F91FF90EF90DF90CF90BF905D
:10323000AF909F908F90089560E070E0CB0192CFA7
:103240000F9320E040E062E080E896E0B8D720E00D
:1032500040E065E080E896E0B2D720E048E163E036
:1032600080E896E0ACD720E040E160E080E096E0C6
:10327000A6D720E040E161E080E096E0A0D720E022
:1032800040E162E080E096E09AD720E040E163E030
:1032900080E096E094D720E040E164E080E096E0B2
:1032A0008ED720E040E165E080E096E088D720E01E
:1032B00040E167E080E096E082D720E040E160E016
:1032C00080E296E07CD720E040E161E080E296E099
:1032D00076D720E040E162E080E296E070D720E01F
:1032E00040E163E080E296E06AD720E040E164E0FC
:1032F00080E296E064D720E040E167E080E296E07B
:103300005ED720E040E164E080E496E058D720E01A
:1033100040E165E080E496E052D720E040E165E0DE
:1033200080E696E04CD720E040E161E080E896E05E
:1033300046D720E040E166E080E896E040D720E014
:1033400040E167E080E896E03AD720E040E160E0C5
:1033500080EA96E034D720E040E161E080EA96E040
:103360002ED720E040E164E080EA96E028D720E014
:1033700040E165E080EA96E022D720E040E166E0A7
:1033800080EA96E01CD720E040E167E080EA96E022
:1033900016D720E040E163E080E097E010D720E01E
:1033A00040E164E080E097E00AD720E040E165E09A
:1033B00080E097E004D720E040E167E080E097E01C
:1033C000FED620E040E163E080E297E0F8D620E01E
:1033D00040E164E080E297E0F2D620E040E165E081
:1033E00080E297E0ECD620E040E166E080E297E002
:1033F000E6D620E040E167E080E297E0E0D620E01A
:1034000040E160E080EC97E0DAD620E040E161E066
:1034100080EC97E0D4D620E040E162E080EC97E0D9
:10342000CED620E040E163E080EC97E0C8D600E033
:1034300024E040E061E080E896E0EED620E240E063
:1034400061E080E896E0E8D621E040E060E080EED0
:1034500096E0CAD621E040E061E080EE96E0C4D676
:1034600021E040E062E080EE96E0BED621E040E060
:1034700063E080EE96E0B8D621E040E064E080EEC4
:1034800096E0B2D621E040E065E080EE96E0ACD672
:1034900021E040E066E080EE96E0A6D621E040E044
:1034A00067E080EE96E0A0D621E040E060E080E0BA
:1034B00097E09AD621E040E061E080E097E094D682
:1034C00021E040E062E080E097E08ED621E040E03D
:1034D00066E080E096E088D621E040E065E080E2AA
:1034E00096E082D621E040E066E080E296E07CD67D
:1034F00021E040E067E080E696E076D621E040E01B
:1035000066E080E696E070D621E040E064E080E688
:1035100096E06AD621E040E063E080E696E064D67B
:1035200021E040E062E080E696E05ED621E040E007
:1035300061E080E696E058D621E040E060E080E679
:1035400096E052D621E040E060E080E496E04CD680
:1035500021E040E061E080E496E046D621E040E0F2
:1035600062E080E496E040D621E040E063E080E461
:1035700096E03AD621E040E060E080E896E034D67C
:10358000E0EEF6E081E0868322E0268394E09683F5
:1035900048E0468350E1568370E2768330E4368318
:1035A00060E86683E0E0F7E08683268396833093C5
:1035B0000606E0E2F6E076833683E0E6F6E0668330
:1035C000368356834683968326838683E0E4F6E03B
:1035D0008683268396834683809386060F9108957B
:1035E000C0918806C2FB882780F99091880695FFD4
:1035F00002C0C2E001C0C0E0C82B109257238091E6
:10360000D1228C2780FF9EC181FDA0C180E18C2B3F
:103610008093572390917B23292F2F7009F43FC06B
:1036200084FF3DC080FF1EC0933021F0943071F0C4
:103630009130A9F581E08093A72387EA93E20E9465
:103640005A0A90917B238091572329C081E080936F
:10365000A82388EA93E20E94DD0B90917B2380915E
:1036600057231DC0933081F0943011F09230B9F49B
:1036700081E08093A72387EA93E20E945A0A9091FF
:103680007B23809157230BC081E08093A82388EA95
:1036900093E20E94DD0B90917B2380915723292F89
:1036A000207FB1F185FF34C081FF19C0903219F03D
:1036B000903359F02DC081E08093A72387EA93E2ED
:1036C0000E945A0A8091572323C081E08093A82347
:1036D00088EA93E20E94DD0B8091572319C0903253
:1036E00071F0903311F0903199F481E08093A72329
:1036F00087EA93E20E945A0A8091572309C081E029
:103700008093A82388EA93E20E94DD0B80915723DF
:1037100090919023292F2F7009F43FC084FF3DC062
:1037200080FF1EC0933021F0943071F09130A9F5E4
:1037300082E08093A72387EA93E20E945A0A90913D
:1037400090238091572329C082E08093A82388EAA0
:1037500093E20E94DD0B90919023809157231DC02E
:10376000933081F0943011F09230B9F482E080937C
:10377000A72387EA93E20E945A0A909190238091AE
:1037800057230BC082E08093A82388EA93E20E942B
:10379000DD0B9091902380915723292F207FB1F149
:1037A00085FF34C081FF19C0903219F0903359F071
:1037B0002DC082E08093A72387EA93E20E945A0AF1
:1037C0008091572323C082E08093A82388EA93E264
:1037D0000E94DD0B8091572319C0903271F0903315
:1037E00011F0903199F482E08093A72387EA93E265
:1037F0000E945A0A8091572309C082E08093A8232F
:1038000088EA93E20E94DD0B809157239091A523D3
:10381000292F2F70F1F184FF3CC080FF1DC0933031
:1038200021F0943071F09130A1F584E08093A723CA
:1038300087EA93E20E945A0A9091A5238091572328
:1038400028C09093A82388EA93E20E94DD0B909110
:10385000A523809157231DC0933081F0943011F03F
:103860009230B9F484E08093A72387EA93E20E9420
:103870005A0A9091A523809157230BC084E080932E
:10388000A82388EA93E20E94DD0B9091A523809102
:103890005723292F207FB1F185FF34C081FF19C044
:1038A000903219F0903359F02DC084E08093A72313
:1038B00087EA93E20E945A0A8091572323C084E04A
:1038C0008093A82388EA93E20E94DD0B809157231E
:1038D00019C0903271F0903311F0903199F484E076
:1038E0008093A72387EA93E20E945A0A8091572384
:1038F00009C084E08093A82388EA93E20E94DD0B4C
:1039000080915723282F22952F70909158239370E0
:103910009823922379F4837090E08095909523709A
:1039200030E0822393232091592330E08223932394
:10393000009721F061E080E20E94DD26C093D12251
:10394000189506C081FFFACF80E261CE80E35FCE9A
:1039500080917C23813031F48093A92361E084E459
:103960000E94DD260E94E929882389F08091CF22D8
:1039700080FF03C092E09093E50681FF03C094E0CE
:103980009093E50682FF03C088E08093E5061895D2
:103990000E94E929882389F08091CF2280FF03C00B
:1039A00092E09093E60681FF03C094E09093E606D0
:1039B00082FF03C088E08093E60680914923882334
:1039C000D9F08091CF229091D02280FF03C028E0CF
:1039D0002093660681FF03C024E02093660682FFE1
:1039E00003C022E020936606887F8093CF229093C5
:1039F000D02280E099E046D480917A23813031F55D
:103A00008091472390914823019780934723909377
:103A100048230097D9F48091CF229091D02280FF43
:103A200003C028E02093660681FF03C024E02093B2
:103A3000660682FF03C022E020936606887F80939B
:103A4000CF229093D02280E099E01CD418958091E9
:103A50009123813039F482E08093A92361E084E4EA
:103A60000E94DD260E94E929882389F08091CF22D7
:103A700083FF03C090E49093E50684FF03C090E8C1
:103A80009093E50685FF03C081E0809305071895B4
:103A90000E94E929882389F08091CF2283FF03C007
:103AA00090E49093E60684FF03C090E89093E606C6
:103AB00085FF03C081E0809306078091552388230A
:103AC000D9F08091CF229091D02283FF03C022E0D1
:103AD0002093460684FF03C024E02093460685FF1A
:103AE00003C028E020934606877C8093CF229093E2
:103AF000D02280E098E0C6D380918F23813031F5C9
:103B00008091422390914323019780934223909385
:103B100043230097D9F48091CF229091D02283FF44
:103B200003C022E02093460684FF03C024E02093D4
:103B3000460685FF03C028E020934606877C8093D5
:103B4000CF229093D02280E098E09CD3189580916A
:103B5000A623813039F484E08093A92361E084E4D2
:103B60000E94DD260E94E929882339F08091CF2226
:103B700086FF03C082E08093050718950E94E9291B
:103B8000882371F08091CF229091D02286FF3FC090
:103B900022E02093060720913F2321110BC015C07E
:103BA00080913F23882389F08091CF229091D02269
:103BB00086FF03C021E0209386068F7B8093CF226F
:103BC0009093D02280E09AE05DD38091A42381304D
:103BD000E1F4209151233091522321503109209357
:103BE0005123309352232115310579F42091CF22AE
:103BF0003091D02226FD809386062F7B2093CF2202
:103C00003093D02280E09AE03DD3189505C02091F2
:103C10003F232111D2CFD9CF0E9480048091A200EE
:103C200087688093A2007894FFCF5058BB27AA27BB
:103C30000ED070C161D130F066D120F031F49F3FD9
:103C400011F41EF456C10EF4E095E7FB4CC1E92FC8
:103C500072D180F3BA17620773078407950718F0CB
:103C600071F49EF58AC10EF4E0950B2EBA2FA02DAB
:103C70000B01B90190010C01CA01A0011124FF2719
:103C8000591B99F0593F50F4503E68F11A16F04014
:103C9000A22F232F342F4427585FF3CF4695379513
:103CA0002795A795F0405395C9F77EF41F16BA0BD8
:103CB000620B730B840BBAF09150A1F0FF0FBB1F86
:103CC000661F771F881FC2F70EC0BA0F621F731FCF
:103CD000841F48F4879577956795B795F7959E3F2C
:103CE00008F0B3CF9395880F08F09927EE0F9795BA
:103CF00087950895D4D008F481E008950CD00AC1C6
:103D000002D140F0F9D030F021F45F3F19F0EBC060
:103D1000511134C1EEC00FD198F39923C9F3552343
:103D2000B1F3951B550BBB27AA27621773078407AE
:103D300038F09F5F5F4F220F331F441FAA1FA9F364
:103D400033D00E2E3AF0E0E830D091505040E69556
:103D5000001CCAF729D0FE2F27D0660F771F881FB7
:103D6000BB1F261737074807AB07B0E809F0BB0BA6
:103D7000802DBF01FF2793585F4F2AF09E3F5105CA
:103D800068F0B1C0FBC05F3FECF3983EDCF3869572
:103D900077956795B795F7959F5FC9F7880F911D40
:103DA0009695879597F90895E1E0660F771F881F2C
:103DB000BB1F621773078407BA0720F0621B730BDF
:103DC000840BBA0BEE1F88F7E0950895BCD088F0FD
:103DD0009F5790F0B92F9927B751A0F0D1F0660FF7
:103DE000771F881F991F1AF0BA95C9F712C0B13012
:103DF00081F0C3D0B1E00895C0C0672F782F882725
:103E0000B85F39F0B93FCCF3869577956795B39550
:103E1000D9F73EF490958095709561957F4F8F4FBF
:103E20009F4F0895E89409C097FB3EF490958095C4
:103E3000709561957F4F8F4F9F4F9923A9F0F92F70
:103E400096E9BB279395F695879577956795B795EE
:103E5000F111F8CFFAF4BB0F11F460FF1BC06F5FD4
:103E60007F4F8F4F9F4F16C0882311F096E911C0E6
:103E7000772321F09EE8872F762F05C0662371F007
:103E800096E8862F70E060E02AF09A95660F771F1B
:103E9000881FDAF7880F9695879597F90895990FF7
:103EA0000008550FAA0BE0E8FEEF16161706E80704
:103EB000F907C0F012161306E407F50798F0621B25
:103EC000730B840B950B39F40A2661F0232B242BFA
:103ED000252B21F408950A2609F4A140A6958FEF19
:103EE000811D811D089597F99F6780E870E060E06B
:103EF00008959FEF80EC089500240A941616170683
:103F000018060906089500240A94121613061406CA
:103F100005060895092E0394000C11F4882352F02D
:103F2000BB0F40F4BF2B11F460FF04C06F5F7F4FE5
:103F30008F4F9F4F089557FD9058440F551F59F0CC
:103F40005F3F71F04795880F97FB991F61F09F3F86
:103F500079F087950895121613061406551FF2CFAF
:103F60004695F1DF08C0161617061806991FF1CFFF
:103F700086957105610508940895E894BB27662726
:103F80007727CB0197F908958ADF08F48FEF08951A
:103F90000BD0C0CFB1DF28F0B6DF18F0952309F0C1
:103FA000A2CFA7CF1124EACFC6DFA0F3959FD1F30C
:103FB000950F50E0551F629FF001729FBB27F00DD7
:103FC000B11D639FAA27F00DB11DAA1F649F66272C
:103FD000B00DA11D661F829F2227B00DA11D621F7B
:103FE000739FB00DA11D621F839FA00D611D221F35
:103FF000749F3327A00D611D231F849F600D211D19
:10400000822F762F6A2F11249F5750408AF0E1F0BB
:1040100088234AF0EE0FFF1FBB1F661F771F881F04
:1040200091505040A9F79E3F510570F05CCFA6CF4C
:104030005F3FECF3983EDCF3869577956795B795EF
:10404000F795E7959F5FC1F7FE2B880F911D969519
:10405000879597F90895222309F45BC030E23093E5
:10406000520038E0309350003091510033FFFCCFC4
:10407000611538E4730738EE830731E0930709F4DC
:1040800082C0611534E2730734EF8307910509F4A8
:104090007CC0611532E173073AE78307910509F4A3
:1040A0004BC0611539E073073DE38307910509F4BF
:1040B0006EC0603834E873073EE18307910509F468
:1040C00060C0603432E473073FE08307910509F470
:1040D00062C0603231EA730737E08307910509F463
:1040E00058C0603930ED730733E08307910509F458
:1040F00054C0683438EE730731E08307910509F442
:104100004EC06432744F8105910509F04AC084E4C1
:1041100014C032E2309352003AE0309350003091B4
:10412000510031FFFCCF3091510033FDA1CF3091D0
:10413000510033FFF8CF9CCF8CE098ED94BF222341
:1041400099F023E02093400094BF809341004423E2
:1041500029F088ED84BF81E08093420088ED84BF20
:1041600081E080938000089521E02093400094BF77
:104170008093410094BF82E08093560020936000BA
:10418000E6CF8CE1DACF80E0D8CF84E0D6CF84E1EF
:10419000D4CF8CE2D2CF84E2D0CF84E3CECF8CE3F5
:1041A000CCCF80E0089588ED84BF81E080938000CB
:1041B000089588ED84BF83E080938000FFCFFC01E9
:1041C000308181E090E0062E01C0880F0A94EAF762
:1041D0008095832380837096E60FF11D8081422BAA
:1041E000807C482B40830895FC01308181E090E081
:1041F000062E01C0880F0A94EAF7382B3083709698
:10420000E60FF11D8081807C842B8083211103C007
:1042100080818760808308950F93FC013185842F0E
:1042200090E0880F991FA3E0B0E0082E01C0AA0F0C
:104230000A94EAF7A095A323082E01C0660F0A94FA
:10424000EAF7A62BA18741110FC00023A9F022870E
:10425000248581E090E0042E01C0880F0A94EAF7DB
:10426000282B24870F910895413091F7011108C040
:104270008385822B8387ECCF8285822B8287E8CF50
:104280002387E6CFFC0110822CE0218708954F920E
:104290005F926F927F928F929F92AF92BF92EF92B6
:1042A000FF920F931F932B013C0149015A0120E01B
:1042B00030E0A901C501B4011DDD882309F43EC029
:1042C000C301B201AFDDA501940118DD20E030E0AB
:1042D00040E05FE3ABDC7ADD6115710521E0820728
:1042E0009105A0F421E0F8012083F7016083718338
:1042F00081E01F910F91FF90EF90BF90AF909F9042
:104300008F907F906F905F904F90089596958795CE
:104310007795679561157105F1E08F07910580F03C
:10432000969587957795679561157105F1E08F07EB
:10433000910550F423E0F8012083D7CF80E0D9CF56
:1043400022E0F8012083D1CF9695879577956795E0
:1043500061157105F1E08F07910588F0A3E096954E
:10436000879577956795AA95D1F761157105F1E065
:104370008F07910540F425E0F8012083B6CF24E0B3
:10438000F8012083B2CF9695879577956795969596
:1043900087957795679561157105F1E08F07910510
:1043A00020F426E0F8012083A0CF96958795779595
:1043B0006795969587957795679561157105F1E0F5
:1043C0008F07910508F0BACF27E0F80120838DCF41
:1043D000FC0110828CE081874150510946A357A30C
:1043E0002683608308952091CF0127FDFCCF809321
:1043F000C0019093C1011092C20186E08093CA016E
:1044000088ED84BF81E08093CB018091C401089541
:104410002091CF0127FDFCCF2091CF0121FF08C0C3
:1044200026E32093CA0128ED24BF21E02093CB018D
:1044300023E32093CA018093C0019093C10110929D
:10444000C2016093C40185E38093CA0188ED84BFF3
:1044500081E08093CB010895FF920F931F93CF9338
:10446000DF938C01C7E0D0E0F12C08C0F1100BC045
:10447000CE01CEDF2196C032D10571F0F8016191F5
:104480008F016111F3CF60E0CE01C2DFFF24F3940E
:104490002196C032D10591F7DF91CF911F910F91F5
:1044A000FF900895CF93962F10923723803208F40F
:1044B0007FC0282F30E020523109F901E05FFD4D27
:1044C0005081220F331FF901E457FE4DC081F901DD
:1044D000E85FFE4D208131812093D8223093D9228C
:1044E0009093DC23252F2F702C9FC02D1124EAE000
:1044F000EC0FE093DD238093DE232FEF2093DF2367
:1045000050615093E02341116BC08091D42290916F
:10451000D522A091D622B091D7228093E123909307
:10452000E223A093E323B093E4232091D22230919D
:10453000D3222093E5233093E6238E2F90E08E3F05
:104540009105A4F52091D8223091D92240E0842F02
:1045500090E0F901E80FF91F5081FC01E951FC4D91
:1045600050834F5F4C13F3CF2091DD232E5F30E05B
:1045700021503109121613060CF09EC080E090E025
:1045800040E050E0FC01E452FC4D8081580F4F5F49
:10459000842F90E082179307ACF3F901E452FC4DAD
:1045A000508380915222813009F46BC0CF910895DD
:1045B0008F30E0F7282F30E0F901E154FD4D5081B4
:1045C000220F331FF901EF55FD4DC081F901ED5761
:1045D000FD4D208131812093D8223093D92280CF84
:1045E00020914C084091EC225091ED226091EE22F6
:1045F0007091EF2220FF21C04F5F5F4F6F4F7F4FC1
:104600004093E1235093E2236093E3237093E423E8
:1046100020916008309161082093E5233093E623D0
:10462000883009F08ACF933009F087CF1092E523C4
:104630001092E623E091DD2380CF4093E123509355
:10464000E2236093E3237093E42320916008309188
:1046500061082093E5233093E623F091DD22F03DBD
:10466000F9F62F303105E0F64F5F5F4F6F4F7F4F08
:104670004093E1235093E2236093E3237093E42378
:10468000CFCF83E88093A200C091A30B9091A30B9E
:104690009C7F9093A30B6091DD236E5F8CED93E282
:1046A000B3D79091A30B8C2F8370892B8093A30B8E
:1046B00087E88093A2007ACF50E06FCFCF93E0914C
:1046C000DF3C2E2F30E024303105BCF090E020E0BC
:1046D00030E0F901ED51F34C4081F901E751F34C21
:1046E00040839F5F292F30E0E091DF3C4E2F50E068
:1046F000435051092417350764F38093DE3CEA5F89
:10470000E093DF3C8091E23C80618093E23C8091C9
:104710004C0880FF5FC08091EC229091ED22A09127
:10472000EE22B091EF22AC01BD014F5F5F4F6F4FA2
:104730007F4F4093E33C5093E43C6093E53C70939F
:10474000E63C20916008309161082093E73C30936B
:10475000E83C209137232223B9F020914C0820FF18
:1047600069C00196A11DB11D8093E33C9093E43C88
:10477000A093E53CB093E63C80916008909161087D
:104780008093E73C9093E83CF0E0E152F34C1082D8
:104790006091DF3C40E0262F30E080E090E0F901BE
:1047A000E152F34CDC01A252B34C20818C91280FD2
:1047B00020834F5F6091DF3C262F30E0842F90E014
:1047C0002817390764F780915222813009F457C0C5
:1047D000CF9108958091EC229091ED22A091EE224C
:1047E000B091EF228093E33C9093E43CA093E53CAE
:1047F000B093E63C20916008309161082093E73C3B
:104800003093E83C4091DD22403D09F0A2CF2F30AB
:10481000310508F09ECFAC01BD014F5F5F4F6F4F78
:104820007F4F4093E33C5093E43C6093E53C7093AE
:10483000E63C8FCF8093E33C9093E43CA093E53C2F
:10484000B093E63C20916008309161082093E73CEA
:104850003093E83C4091DD22403D09F095CF2F3068
:10486000310508F091CF0196A11DB11D8093E33C65
:104870009093E43CA093E53CB093E63C85CF83E87D
:104880008093A200C091A30B9091A30B9C7F909367
:10489000A30B6E5F8EED9CE3B7D69091A30B8C2F8C
:1048A0008370892B8093A30B87E88093A200CF911C
:1048B00008953F924F925F926F927F928F929F9254
:1048C000AF92BF92CF92DF92EF92FF920F931F931E
:1048D000CF93DF93CDB7DEB73C01962E142FF22E87
:1048E0004D885E8860DC21E041E060E078E488EE9D
:1048F00091E0B1DB81E0809348006092E322709206
:10490000E4229092E5221093E622E092E72280933F
:10491000E82289E08093E922F092EA220093EB22D8
:104920001092EC221092ED221092EE221092EF22C1
:104930001092F0221092F12282E090E054DD382EA5
:1049400083E090E050DD982E8FEF981609F4CAC0EE
:10495000F31409F49CC06FED80E090E059DD6F2DF9
:1049600082E090E055DD61E083E090E051DD0E945F
:10497000CD0480E090E037DD8E3E09F493C080E600
:104980008093F22280E48093F3220E94E2050E9449
:104990004306A092E122B092E222C092DF22D0929E
:1049A000E0228092DE2287E090E01DDD8F3F09F457
:1049B000D0C004EF12E2F6EFEF2EFF24FA94C70105
:1049C000835E92427C01C701800F911F0CDDF801CC
:1049D00081938F01F3E20D301F07A9F789E1E4EF1E
:1049E000F2E2A1E1B3E201900D928A95E1F784E051
:1049F00090E0F9DC082F10E000930D2310930E23B4
:104A000085E090E0F0DC302F2227282B20930D2327
:104A100030930E2321E042E15AE767E080E498E01A
:104A2000D7DCE091DD2281E08E0F8093DD22F0E083
:104A3000E558FD4D808190E0019780936808909340
:104A4000690881E08093470820E040E066E080E06C
:104A500096E0CADB80E48093050640E060E081E0F8
:104A600090E0BDD41BD58CEE92E2DF91CF911F91E7
:104A70000F91FF90EF90DF90CF90BF90AF909F90FD
:104A80008F907F906F905F904F903F90EBC691E03A
:104A9000991261CF0E94CD0480E090E0A4DC8E3EAC
:104AA00009F06DCF81E090E09EDC8093F222A114AA
:104AB000B10491F0760185010C0D1D1DA0E26A2E56
:104AC000712CC30190DCF70181937F01FFEF6F1A16
:104AD0007F0AE016F106A9F780E88093F3220E948E
:104AE000430657CF6F2D82E090E092DC61E083E0D7
:104AF00090E08EDC82E090E076DC382E83E090E07F
:104B000072DC982E8201B7E06B2E712CE12C0BC069
:104B1000E1100EC0C3017CDCFFEF6F1A7F0A80E258
:104B20006816710489F0F80161918F016111F0CF6D
:104B300060E0C3016DDCEE24E394FFEF6F1A7F0A9F
:104B400080E26816710479F76FED80E090E060DC38
:104B5000FFCE720107E010E0D12C0AC0D1100DC0C9
:104B6000C80156DC0F5F1F4F0032110509F421CF39
:104B7000F70161917F016111F1CF60E0C80148DC6C
:104B8000DD24D394EFCF0E94A70420E480E092EECE
:104B9000A4E0B0E00197A109B1090097A105B10512
:104BA000C9F720930706F2CF8091EC229091ED2275
:104BB000A091EE22B091EF220196A11DB11D80932C
:104BC000EC229093ED22A093EE22B093EF228091FD
:104BD00035238F5F809335238EE090E080936808C3
:104BE0009093690881E08093DD220E940D088091F6
:104BF0004C08806180934C080E940F080E941608A0
:104C00004091F22247FD03C0842F8370B3C0842FEC
:104C10008370813009F0AEC0109237238CEE92E29F
:104C20008093D8229093D92283E08093DC238EE076
:104C30008093DD2388E08093DE238FEF8093DF2352
:104C400084E18093E02380914C0880FF18C080911C
:104C5000EC229091ED22A091EE22B091EF220196EC
:104C6000A11DB11D8093E1239093E223A093E32340
:104C7000B093E423809160089091610826C08091F0
:104C8000EC229091ED22A091EE22B091EF22809340
:104C9000E1239093E223A093E323B093E4232091B4
:104CA0006008309161085091DD22503D71F42F3041
:104CB000310558F40196A11DB11D8093E123909315
:104CC000E223A093E323B093E4231092E523109210
:104CD000E6238091EC229091ED22A091EE22B091FA
:104CE000EF228093E7239093E823A093E923B093E6
:104CF000EA232091DD232E5F30E021503109121686
:104D0000130684F450E060E080E090E0FC01E4529F
:104D1000FC4D8081680F5F5F852F90E082179307BD
:104D2000ACF301C060E0F901E452FC4D6083809176
:104D30005222813021F583E88093A200C091A30B19
:104D40009091A30B9C7F9093A30B6091DD236E5FEA
:104D50008CED93E259D49091A30B8C2F8370892B07
:104D60008093A30B87E88093A2004091F222842FC6
:104D7000837000C0882339F0813019F400C092E0BC
:104D800003C091E001C094E08091EC22892321F0DE
:104D900080E48093060605C046FF03C080E480934C
:104DA00005060E940E0880914C0884FF05C0809182
:104DB000DC22811101C0E7DE18959091F2229370F8
:104DC000913009F00895462F63E06CCBCF92DF92CB
:104DD000FF920F931F93CF93DF931F921F92CDB734
:104DE000DEB78F3040F4E82FF0E0DF01A154BD4D75
:104DF0009C91961759F080E00F900F90DF91CF9122
:104E00001F910F91FF90DF90CF900895EE0FFF1F3D
:104E1000EF55FD4D608171816217730761F788302E
:104E200009F47FC08A30D1F18B3011F18C3009F454
:104E3000A1C08D3001F7FA0180819181019609F4BA
:104E4000BFC0809110238823B1F2FA01608185E010
:104E500090E049835A83DCDA49815A81FA01618101
:104E600084E090E0D5DA83E08093DC2281E0C4CF57
:104E7000FA018081813009F4B7C0823009F4A4C0FE
:104E8000843009F4C2C0883089F76FEF87E090E082
:104E9000BFDA83E08093DC2281E0AECFFA0180812B
:104EA00086FD04C080E48093060680811091F22282
:104EB000837F8093F222FA01808185FF41C015FF34
:104EC00076C083FF10C081E080932D2310922B23A6
:104ED00080932C2310922A238091F222877F809343
:104EE000F222FA018081837079F4812F837009F4B2
:104EF000BDCF10922D2349835A830E94A307498175
:104F00005A81FA0180818370813029F1833009F060
:104F1000ADCF1370133009F4A9CF0E940C0881E0C3
:104F20006BCFFA0180819181A281B3818093EC22C1
:104F30009093ED22A093EE22B093EF2281E05CCF1C
:104F400015FFBFCF49835A830E948B0749815A813D
:104F5000FA018081B6CF812F8370813009F486CF2A
:104F600049835A830E940B0849815A81FA01808142
:104F70008370CCCF8A0187E0C82ED12CF12C0CC0D5
:104F8000F1100FC0C60144DAFFEFCF1ADF0A20E2AA
:104F9000C216D10409F467CFF80161918F01611144
:104FA000EFCF60E0C60134DAFF24F394EDCF4983FC
:104FB0005A830E94600649815A81FA01808181CF1B
:104FC00081E08093102318CF80E090E049835A83DA
:104FD0000ADA49815A818E3E09F00DCF83E0809331
:104FE000DC22FA0180814CCF81E193E249835A832C
:104FF00033DA6FED80E090E00BDA83E08093DC221F
:1050000049815A81FA01808138CF6EEE80E090E0CC
:1050100049835A83FDD96091F22281E090E0F8D96A
:105020008091E1229091E22249815A81892BC9F035
:1050300000E010E0E091DF22F091E022E00FF11FAC
:105040006081C801809649835A83E2D90F5F1F4F60
:105050008091E1229091E22249815A810817190733
:1050600048F383E08093DC22FA0180810CCF0E9418
:105070000D088091680890916908E091DD2221E097
:105080002E0F2093DD22E770F0E0E558FD4D3081D2
:10509000830F911D809368089093690820FD2AC1B1
:1050A00080915222813069F48093250783E88093B0
:1050B000A2008091A30B8F7C8093A30B87E8809341
:1050C000A20080913423811103C0809133230FC04B
:1050D000815080933423882319F08091332307C0B3
:1050E000109234231092332310922E239FC08823D2
:1050F00009F49CC0A091DC24B091DD248091DF3CB8
:105100008F3F59F01091E03C5091E13C0091E23C1E
:1051100033EEE32E3CE3F32E0AC01091E23C5091B3
:10512000E33C0091E43C25EEE22E2CE3F22EFD015F
:10513000319681F090E040E020E030E0E901C25299
:10514000D34C2881420F9F5F292F30E02E173F0755
:10515000A8F301C040E0E252F34C9081491364C0CF
:105160005F3F09F061C09091DE3C913099F51D31AF
:10517000B0F41F3008F022C1E12FF0E0E154FD4D02
:10518000908109131BC1193009F013C18091600887
:10519000909161088093F0229093F1220AC1602FD0
:1051A000812F0E9432089091F22294FD3DC081111E
:1051B00003C08091DF3C05C041E061E0812F72D9DE
:1051C00033C01092372390E0883F91056CF589E059
:1051D00075DA2AC0CD010497202F2F70622F70E05E
:1051E0001FD41D3130F49B01A701602F812FEEDD0C
:1051F00006C09B01A701602F812F0E944B08909150
:10520000F22294FD11C0882329F041E062E0812F51
:1052100049D90AC0109237238091DF3C90E0883F43
:10522000910514F48AE04ADA1092332380915222D5
:10523000813009F05CC08091080786FF46C08091EC
:10524000DA229091DB220196883B2BE0920729F02D
:105250008093DA229093DB223CC01092DA221092E3
:10526000DB228091F222982F93709130E9F486FD31
:1052700003C090E490930606982F907F9093F222BB
:1052800083FF0BC010922B2381E080932C2310927C
:105290002A23892F877F8093F22210922D230E9448
:1052A000A3079091522201C091E0109231231092F5
:1052B000322310922F23109230238091A30B8C7FE6
:1052C0008093A30B913029F012C01092DA22109231
:1052D000DB2283E88093A2008091A30B80638093FC
:1052E000A30B87E88093A20081E0809326070E94A9
:1052F000150802C00E9416088091DC22882339F02C
:1053000081508093DC22811102C00E94D9208091BB
:105310002C238823E1F08091DD2283708230B9F460
:1053200080912A238F3060F4893009F04CC020919D
:105330006008309161082093F0223093F12243C03D
:105340008F5F80932A238C3111F410922C2380914B
:105350002D23882309F18091DD228370E9F4809167
:105360002B23E82FF0E0E05FFD4D6081805E0E941E
:105370003208882331F080912B2341E061E0805E88
:1053800091D880912B238F5F80932B239091DE22E5
:10539000891302C010922D230E940E0880914C08A0
:1053A00084FF05C08091DC22811101C0ECDB1895DF
:1053B00010C08091F22284FFFFCE36CF9091F2226E
:1053C00094FFFFCE31CF41E061E06CD880912A2379
:1053D000B7CF8091F22285FB882780F90895FF924C
:1053E0000F931F93CF93DF931F921F92CDB7DEB71A
:1053F00089839A83F62E142F20E040E060E080E25B
:1054000097E00E94F42020E040E066E080E097E032
:105410000E94DF2001E020E440E063E080E097E0CC
:105420000E940C2181E08093260783E08093A50BE6
:1054300089818093A60B8F2D90E18902B001112400
:105440008A818F70862B8093A70B112329F080917E
:10545000A40B84608093A40B88E08093A50620E0D1
:1054600040E063E080EA96E00E94F42020E040E023
:1054700062E080EA96E00E94DF208091080786FFC4
:1054800005C08091A30B8C7F8093A30B0F900F908E
:10549000DF91CF911F910F91FF900895E0EAFBE01B
:1054A00084818861848380EE8183838180638383A8
:1054B00008951F920F920FB60F92112408B60F9203
:1054C00018BE09B60F9219BE0BB60F921BBE2F93D2
:1054D0003F934F935F936F937F938F939F93AF937C
:1054E000BF93EF93FF930E942E08209131233091B8
:1054F0003223C90101968093312390933223F9011D
:10550000E252FB4D20812093A00B811528E19207E8
:1055100029F120912F23309130232817390729F4BE
:105520008091A30B8C7F8093A30B0E942F08FF9187
:10553000EF91BF91AF919F918F917F916F915F910B
:105540004F913F912F910F900BBE0F9009BE0F907E
:1055500008BE0F900FBE0F901F9018951092312328
:105560001092322380E090E0D4CF1F920F920FB6BA
:105570000F92112408B60F9218BE09B60F9219BEE9
:105580000BB60F921BBE2F933F934F935F936F9376
:105590007F938F939F93AF93BF93EF93FF930E945B
:1055A00030088091080786FD29C020913123309171
:1055B000322380912F23909130232817390729F027
:1055C0008091A30B83608093A30B0E943108FF910D
:1055D000EF91BF91AF919F918F917F916F915F916B
:1055E0004F913F912F910F900BBE0F9009BE0F90DE
:1055F00008BE0F900FBE0F901F9018958091A30BBF
:105600008C7F8093A30BE1CFBF92CF92DF92EF927A
:10561000FF920F931F93CF93DF936C01B62E80916F
:10562000080786FD05C08091A30B83608093A30BC0
:1056300000912F2310913023C0E0D8E1C01BD10B83
:10564000EB2CF12CCE15DF0558F1A701B601C801EE
:1056500082529B4D12D28091312390913223E00EE1
:10566000F11EE0922F23F0923023E11428E1F2069C
:1056700009F446C008171907A8F5E816F90690F1CD
:105680008FEFE81AF80AE0923123F0923223E11406
:1056900028E1F20639F5109231231092322322C00C
:1056A000AE01B601C80182529B4DE7D1BC1AEB2C6A
:1056B000F12CBE016C0D7D1DA7018EED94E2DDD1B4
:1056C0008091312390913223E0922F23F092302366
:1056D0000817190788F42FEFE21AF20AE092312333
:1056E000F0923223DF91CF911F910F91FF90EF90B5
:1056F000DF90CF90BF900895E816F90660F7F2CFDB
:1057000010922F2310923023892B61F781E090E0D3
:105710008093312390933223E5CF1F920F920FB6DF
:105720000F92112408B60F9218BE09B60F9219BE37
:105730000BB60F921BBE2F933F934F935F936F93C4
:105740007F938F939F93AF93BF93EF93FF930E94A9
:105750002C089091A00BE0912E2381E08E0F809376
:105760002E23F0E0E252F34C9083813019F1843023
:1057700049F190E02091DC243091DD2482179307D9
:1057800079F10E942D08FF91EF91BF91AF919F9108
:105790008F917F916F915F914F913F912F910F90DA
:1057A0000BBE0F9009BE0F9008BE0F900FBE0F905A
:1057B0001F9018958091DE3C81508230D0F110927C
:1057C0002E23DFCF8091DF3C8F3F01F190E08E3FB1
:1057D0009105A9F302968093DC249093DD24D1CF28
:1057E00020915222213061F12091DF3C2F3F29F19D
:1057F00022E030E0821B930B8093DC249093DD2425
:1058000010922E2381E080933323BBCF8091DF3C25
:105810009091E03C04968F3F910509F080F68091CD
:10582000E03C9091E13C04968093DC249093DD244D
:10583000A8CF82E380933423A4CF24E030E0DACFF2
:105840002093250783E88093A2008091A30B8F7C8F
:105850008093A30B87E88093A2008091DC24909131
:10586000DD24C2CFCF93DF931F921F92CDB7DEB757
:1058700023E130E029833A838093382390933923BE
:1058800083E08093B50889818093B6088A818F7000
:105890008093B70820E048E166E080E496E00E944B
:1058A000DF2080E18093B408E3EBF8E0808180633F
:1058B00080830F900F90DF91CF9108951F920F92E8
:1058C0000FB60F92112408B60F9218BE09B60F92A8
:1058D00019BE0BB60F921BBE2F938F939F93AF935E
:1058E000BF93EF93FF938091B0088A3AE9F18F3A22
:1058F00009F44FC090913623923009F44EC008F459
:1059000078C0943009F455C008F44DC0953079F54D
:1059100080933D2310923623809135238A3008F4FA
:105920004EC082EF99E7809360089093610881E010
:105930009AE7809368089093690881E08093372301
:1059400026E020935322E0913823F091392380916F
:105950003A2390913B23A0913C23B0913D23808337
:105960009183A283B38303C081E080933623FF91A8
:10597000EF91BF91AF919F918F912F910F900BBE9F
:105980000F9009BE0F9008BE0F900FBE0F901F9092
:10599000189582E080933623EACF80933A2383E000
:1059A00080933623E4CF80933B2384E08093362397
:1059B000DECF80933C2385E080933623D8CF1092AE
:1059C00035232091532289EF99E7821B9109809317
:1059D00060089093610881E09AE78093680890934B
:1059E000690881E080933723222309F4ACCF21504A
:1059F000A8CF992319F0913009F0B9CF109236232E
:105A0000B6CFDB018F939F931FD0BF91AF91A29F21
:105A1000800D911DA39F900DB29F900D11240895AC
:105A2000AA1BBB1B51E107C0AA1FBB1FA617B707C4
:105A300010F0A61BB70B881F991F5A95A9F78095E0
:105A40009095BC01CD01089509D0A59F900DB49FFC
:105A5000900DA49F800D911D11240895A29FB00167
:105A6000B39FC001A39F700D811D1124911DB29F92
:105A7000700D811D1124911D0895FB01DC0102C0F0
:105A800001900D9241505040D8F70895F894FFCFFF
:105A900041126B087108450D7708390E2D0FAE09BC
:105AA000C709D90984165B13E20943124512EF09AD
:105AB000FA09000AF71429140A0A47124912170AA8
:105AC000220A280ABE158D12320A4B124D123F0AC5
:105AD0004A0A500A5A0ADD0B3F12F20BFF0B0C0C5C
